:100000000C942E010C944B010C944B010C944B015D
:100010000C944B010C944B010C944B010C944B0130
:100020000C944B010C944B010C944B010C944B0120
:100030000C944B010C944B010C94950E0C944B01B9
:100040000C944B010C944B010C94861F0C944B01A7
:100050000C944B010C944B010C944B010C944B01F0
:100060000C944B010C944B01036EDB363D9A99992D
:10007000993DABAAAA2A3E000000803F072C7AA532
:10008000BA6CC590DA3B9365FC8BBC53F810FD3C11
:100090005692834DBD879D3AB63DCBC9BF5BBE73BB
:1000A000DA0FC93F07634236B79BD8A71A3968569B
:1000B00018AEBAAB558C1D3CB7CC5763BD6DEDFD8A
:1000C000753EF6177231BF000000803F0800000047
:1000D000BE922449123EABAAAA2ABECDCCCC4C3E3D
:1000E00000000080BEABAAAAAA3E00000000BF002C
:1000F0000000803F0000000000084178D3BB438728
:10010000D1133D190E3CC3BD4282AD2B3E68EC823B
:1001100076BED98FE1A93E4C80EFFFBE01C4FF7FC0
:100120003F00000000004E414E494E495459494E8F
:1001300046CDCCCC3D0AD7233C17B7D13877CC2B52
:10014000329595E6241FB14F0A000020410000C8F7
:100150004200401C4620BCBE4CCA1B0E5AAEC59D78
:100160007400407A10F35A00A0724E18090010A5CE
:10017000D4E80000E87648170000E40B54020000C1
:10018000CA9A3B000000E1F5050000809698000047
:100190000040420F000000A0860100000010270070
:1001A000000000E803000000006400000000000AF6
:1001B00000000000000100000000002C76D888DC60
:1001C000674F0823DFC1DFAE59E1B1B796E5E3E43D
:1001D00053C63AE651997696E8E6C28426EB898CB6
:1001E0009B62ED407C6FFCEFBC9C9F40F2BAA56F18
:1001F000A5F490055A2AF75C936B6CF9676DC11BE7
:10020000FCE0E40D47FEF520E6B500D0ED902E03AE
:1002100000943577050080841E080000204E0A00F7
:100220000000C80C333333330F986E12831141EF43
:100230008D2114893BE65516CFFEE6DB18D1844BA1
:10024000381BF77C1D901DA4BBE424203284725E11
:10025000228100C9F124ECA1E53D270011241FBE35
:10026000CFEFD8E0DEBFCDBF14E0A0E0B1E0E8E919
:10027000F6E502C005900D92AC37B107D9F725E03D
:10028000ACE7B4E001C01D92AD34B207E1F70E94C3
:100290008E0A0C944A2B0C94000097B1976097B982
:1002A0003B9898B19A6098B942988111409A089504
:1002B00078E160E050E040E030E03399FECF272F56
:1002C000862F952FA42FB32F429AE5E2EA95F1F7F6
:1002D0004298880F991FAA1FBB1F33998160E5E2DE
:1002E000EA95F1F7215081F7429A25E22A95F1F734
:1002F0004298E5E2EA95F1F7A7FDBF6F8F3F2FEF38
:100300009207A207B207C9F2BC01CD010895882364
:1003100011F0579A089557980895882311F05F9A1D
:1003200008955F980895882311F05E9A08955E9865
:1003300008958AB1806C8AB98BB1806C8BB92FEF2C
:100340008FE593E0215080409040E1F700C000002D
:100350000895CF93C82F80E00E94930188EB8A957F
:10036000F1F7000081E00E948701CC2321F081E0B9
:100370000E948D0103C080E00E948D0188EB8A9568
:10038000F1F7000081E00E94930188EB8A95F1F774
:100390000000CF910895CF93DF93D82FC8E08D2F21
:1003A00080780E94A901DD0FC150C9F7DF91CF917C
:1003B000089580E00E94930188EB8A95F1F7000090
:1003C00080E00E94870180E00E948D0188EB8A9581
:1003D000F1F7000081E00E94930188EB8A95F1F724
:1003E000000089B1881F8827881F0895CF93DF9365
:1003F000D8E080E0C82FCC0F0E94D9018C2BD150BF
:10040000C9F7DF91CF91089581E00E94870181E0D3
:100410000E948D0188EB8A95F1F7000080E00E9430
:100420008D0188EB8A95F1F7000080E00E9493012E
:1004300088EB8A95F1F70000089580E00E9493010F
:1004400081E00E94870188EB8A95F1F7000080E047
:100450000E948D0188EB8A95F1F7000081E00E94EF
:10046000930188EB8A95F1F7000081E00E948D01ED
:1004700088EB8A95F1F700000895EF92FF920F93B1
:100480001F93CF93DF93C82FD62F142F79010E948B
:1004900004028C2F880F0E94CB010E94D901811188
:1004A00020C08D2F0E94CB010E94D90181111CC058
:1004B000112391F0E7011150012F10E00F5F1F4F42
:1004C0000E0D1F1D89910E94CB010E94D90181113F
:1004D0000EC0C017D107B1F70E941D0280E090E066
:1004E00008C08FEF9FEF05C08EEF9FEF02C08DEF2A
:1004F0009FEFDF91CF911F910F91FF90EF900895A3
:1005000080E00E94A901089581E00E94A901089558
:10051000CF92DF92EF92FF920F931F93CF93DF93CF
:10052000C82FD62FE42ED22EF32E0E940402CC0F19
:100530008C2F0E94CB010E94D901811138C08D2FD0
:100540000E94CB010E94D901811134C00E94040293
:100550008C2F81600E94CB010E94D90181112DC096
:10056000EE2001F10D2D1F2DCC24CA94CE0CD12CE0
:100570008FEFC81AD80AC0E0D0E0F12CE1E0EE1A03
:10058000F1080E94F601F80181938F01CE15DF0575
:1005900019F40E94840202C00E9480022196CC15A8
:1005A000DD0579F70E941D0280E090E008C08FEF22
:1005B0009FEF05C08EEF9FEF02C08DEF9FEFDF91A1
:1005C000CF911F910F91FF90EF90DF90CF90089502
:1005D000CF92DF92EF92FF92CF93DF9300D0CDB70F
:1005E000DEB79E012F5F3F4F42E061E188E60E9447
:1005F0008802892B49F5698170E080E090E00E94D3
:1006000052226B017C018A81829586958695837042
:10061000682F70E080E090E00E94542220E030E0FB
:1006200040E85EE30E9464239B01AC01C701B60170
:100630000E941E2120E030E0A9010E941E21562FB9
:10064000472F382F292F04C050E040E030EC2FE72F
:10065000652F742F832F922F0F900F90DF91CF91E2
:10066000FF90EF90DF90CF9008950F931F93CF935B
:10067000DF93CDB7DEB727970FB6F894DEBF0FBE76
:10068000CDBF8C019E012F5F3F4F47E060E088E6C1
:100690000E948802892B09F05BC08981982F92956E
:1006A0009F70990F292F220F220F920F8F70890FA1
:1006B000F80180838A81982F92959F70990F292F36
:1006C000220F220F920F8F70890F81838B81982FB9
:1006D0009695969596959670292F220F220F920F38
:1006E0008F70890F82838C81877084838D81982F8E
:1006F00092959F70990F292F220F220F920F8F70C2
:10070000890F83838E8184FB992790F9990F292F74
:10071000220F220F920F8F70890F85832F81822FD6
:100720008F7022952F7030E0A901440F551F220FC2
:10073000331F220F331F220F331F240F351F280FA3
:10074000311D2053384F3783268380E090E002C06C
:100750008FEF9FEF27960FB6F894DEBF0FBECDBF89
:10076000DF91CF911F910F910895EF920F93CF9347
:10077000DF93CDB7DEB727970FB6F894DEBF0FBE75
:10078000CDBFFC019DECE99E812D112486958695B7
:10079000869530E1839FD0011124880F382F330FC5
:1007A000330F830FE81AEA2AE982099F812D112469
:1007B00086958695869530E1839FD0011124880F18
:1007C000382F330F330F830F081B0A2B0A83299FFF
:1007D000812D112486958695869530E1839FD001E1
:1007E0001124880F382F330F330F830F281B2A2B28
:1007F0002B831C82499F212D112426952695269511
:1008000080E1289FD0011124220F822F880F880FAA
:10081000280F421B4A2B4D83699F912D11249695D9
:100820009695969580E1989F90011124990F892FB4
:10083000880F880F980F691B622B6E839F01369576
:10084000279536952795ABE7B4E10E94C225AC0108
:100850005695479524E6249FC001259F900D1124AD
:10086000AF01481B590B9A01ADECBCEC0E94C225AC
:10087000969587959695879596958795282F229595
:10088000207FBC01660F771F880F991F880F991F63
:10089000880F991F860F971F481B590B422B4F83B8
:1008A0009E012F5F3F4F47E060E088E60E943D02D7
:1008B00021E030E0892B11F420E030E088279927EF
:1008C000821B930B27960FB6F894DEBF0FBECDBFE9
:1008D000DF91CF910F91EF900895EF920F93FC016C
:1008E000E0800181228143816581868197810E9418
:1008F000B5030F91EF9008952F923F924F925F9220
:100900006F927F928F929F92AF92BF92CF92DF921F
:10091000EF92FF920F931F93CF93DF93CDB7DEB784
:10092000A8970FB6F894DEBF0FBECDBF16161706F8
:100930000CF01DC3AF2DF12EE02F3EA32DA35A8B3B
:10094000498B7E836D8398A38F8F3E872D870D8F74
:100950001E8FEBA2ACA3588B4F87880F991F880F6F
:10096000991F880F991F9AA389A38A018E2C9A2E0A
:100970006E2E7F2CCDA0DEA0E12CF12C512C412C31
:100980001301340146015C016401D4011D921D92E2
:100990001D921C921397EF8DF8A11E161F062CF5C1
:1009A00059824A82E981FA81E00FF11F60817181E9
:1009B000828193819B01AC010E9464239B01AC0165
:1009C000D6016D917D918D919C910E941E21F60121
:1009D000608371838283938329813A81285F3F4FAB
:1009E0003A8329832A153B05E9F6D6016D917D915D
:1009F0008D919C910E942724F601608371838283EC
:100A00009383F4E08F0E911CD1011D921D921D92D3
:100A10001D921D01F301E192F1923F01FFEFEF1AE8
:100A2000FF0A0C5F1F4F2D813E81E216F30609F08D
:100A3000ABCFCF8CD8A0212C312C81E090E09C8FC3
:100A40008B8F1A8E198E1B861C861B8A1C8A1D8A08
:100A50001E8A210116012BC0A98DBA8D1196BA8F5D
:100A6000A98FEB8DFC8D3196FC8FEB8F2D8D3E8DFC
:100A70002C5F3F4F3E8F2D8F34E0430E511C8D85F0
:100A80009E8504969E878D87ABA1BCA11296BCA3C0
:100A9000ABA3EF85F8893C96F88BEF8729A13AA1A3
:100AA000285031093AA329A331E0231A3108898D4E
:100AB0009A8D98878F83181619060CF05FC0AD8148
:100AC000BE818A179B070CF055C2EF84F888B8E006
:100AD000EB1AF1086D807E80681A790A0D851E85F3
:100AE000C12CD12CD88ECF8A3A86298613013701A2
:100AF000F80180809180A280B380D301CD90DD90F9
:100B0000ED90FD903D01A5019401C501B4010E9445
:100B1000642369837A838B839C83A5019401C50137
:100B2000B4010E9464234B015C01A7019601C70137
:100B3000B6010E9464239B01AC01C501B4010E946F
:100B40001D219F770E942724F8016193719381935F
:100B500091938F012F89388D2F5F3F4F388F2F8BC7
:100B60002215330529F629843A84ED85FE85FA8716
:100B7000E987D080C180E280F38016C08D859E8594
:100B80009A878987DC01DC901196CC901197129698
:100B9000EC9012971396FC90ED81FE812F813885A1
:100BA0002E173F070CF0FAC10D851E850C5F1F4FF5
:100BB000AF80B8843501BA82A98216C0D8018D9061
:100BC0009D90AD90BD908D01A50194016D2D7C2D62
:100BD0008E2D9F2D0E94A521882334F4D82CC92C5A
:100BE000EA2CFB2C69807A80E981FA813196FA83BC
:100BF000E9832D813E81E217F30704F32CEA35ECFB
:100C000047E257E36D2D7C2D8E2D9F2D0E94A5214F
:100C100018160CF004C28F8198856816790609F4BD
:100C200052C0ABA1BCA16D927C92EF8DF8A11E16B3
:100C30001F065CF509891A89040D151DF301EE0FD5
:100C4000FF1FEE0FFF1F29893A89E20FF31F80E093
:100C500090E02F8D38A1D8014D915D916D917C91DF
:100C60001397C080D180E280F380CD92DD92ED9227
:100C7000FC92139740835183628373830196085FCC
:100C80001F4F38968217930731F7E985FA858081DF
:100C90009181A281B381660C771C660C771C2DA113
:100CA0003EA1620E731EF301408151816281738106
:100CB000E985FA854083518362837383F3018083DE
:100CC0009183A283B3832F8D38A18F81988582175A
:100CD0009307ACF5A12CB12CC12CD12CE12CF12C1B
:100CE0000F851889C982DA82EB82FC82B88EAF8ABE
:100CF000EF84F88869A07AA0C02ED12EEF89F88DF4
:100D0000EE0DFF1D80809180A280B380E894B7F83B
:100D100029813A814B815C81C501B4010E945F2326
:100D2000181624F489829A82AB82BC82AF89B88D6E
:100D30001896B88FAF8BA615B705F1F63DC1ED8DAE
:100D4000FE8D10821182128213822B8D3C8D38878A
:100D50002F838D819E81281739070CF47DCE5FC1CA
:100D6000A7019601D5016D917D918D919C910E9475
:100D7000AA21F50160837183828393830F5F1F4FE4
:100D8000F8E0AF0EB11C0215130551F7A70196014B
:100D9000A985BA856D917D918D919C910E94AA2122
:100DA0004B015C01E985FA856083718382839383BB
:100DB00020E030E040E050E0D3016D917D918D91D5
:100DC0009C910E94A521882354F4B7FAB094B7F8F7
:100DD000B094E985FA8580829182A282B382A98546
:100DE000BA852D913D914D915C91F30160817181A6
:100DF000828193810E941E21D3016D937D938D93F7
:100E00009C931397ED8DFE8DF88FEF8BA985BA8596
:100E10002D913D914D915C910E9464239B01AC0109
:100E200060E070E080E89FE30E94AA21ED8DFE8DD6
:100E30006083718382839383A7019601A985BA8514
:100E40006D917D918D919C910E946423E985FA8535
:100E500060837183828393838B8C9C8C2D813E81F4
:100E6000821693060CF0D5C00F2EFCEFAF2EBB24DC
:100E7000BA94F02DA418B508720134E0E30EF11C09
:100E8000C201880F991F9A8789879F859983A889AE
:100E9000AF833701750164015FC0EFA1F8A5E419C4
:100EA000F509E60DF71D2081318142815381EFA1C3
:100EB000F8A560817181828193810E9464239B01E6
:100EC000AC01682D792D8A2D9B2D0E941E21862E26
:100ED000972EA82EB92E0F5F1F4F2FA138A5285F80
:100EE0003F4F38A72FA302151305B9F67BC0EFA11A
:100EF000F8A5EE0DFF1DE40DF51D20813181428125
:100F00005381C501B4010E9464239B01AC01AFA1D0
:100F1000B8A56D917D918D919C910E941D21EFA1AD
:100F2000F8A560837183828393830F5F1F4F389688
:100F3000F8A7EFA302151305D1F6FFEFCF1ADF0ACA
:100F400024E0E21AF10834E0630E711C8D819E8169
:100F5000C816D90609F480CD99819FA3AF81A8A7AF
:100F60000B851C858B889C88AD88BE8896CF18869B
:100F70001F8255C02D853E853A8729872CEA35EC9E
:100F800047E257E3AD85BE856D917D918D919C9132
:100F90000E94A52118160CF496CE41C02CEA35EC1F
:100FA00047E257E36D2D7C2D8E2D9F2D0E94A521AC
:100FB00018160CF488CE33C03601C980DA80EB8075
:100FC000FC802CEA35EC47E257E3C701B6019F7776
:100FD0000E94A52118160CF0B2CEAF84B88800E0AC
:100FE00010E0BECEAF89B88D2D913D914D915C91B1
:100FF0000E9464234B015C0129853A85260D371D2B
:10100000E989FA89E20FF31F0B851C85F8A7EFA386
:101010006ECF2F8138852F5F3F4F38872F838F8189
:101020009885A8960FB6F894DEBF0FBECDBFDF91AE
:10103000CF911F910F91FF90EF90DF90CF90BF90D5
:10104000AF909F908F907F906F905F904F903F9068
:101050002F9008952F923F924F925F926F927F92BE
:101060008F929F92AF92BF92CF92DF92EF92FF92B8
:101070000F931F93CF93DF93CDB7DEB728970FB6AB
:10108000F894DEBF0FBECDBF9C01215031093A83D9
:10109000298333230CF483C02C01440C551C480EC7
:1010A000591E440C551C440C551C3CE0431A510875
:1010B000460E571E9C01225031091901220C331C87
:1010C000280E391E220C331C220C331C260E371E10
:1010D000220F331F220F331F3A01620E731E285F47
:1010E0003F4F09811A818D839E83CA01820F931F0E
:1010F0009C838B832EC0F5015291429132912291B3
:101100005F01F60192918291729162916F010E944A
:1011100064239B01AC01F70160817181828193811D
:101120000E941D21F70160837183828393832F8145
:1011300038852150310938872F8328153905D9F68C
:101140003CE0431A510888E0281A310894E0691AF3
:1011500071087301F2012081318142815381F301D1
:1011600064817581868197810E94AA21F30164833D
:101170007583868397830150110988F029813A810C
:1011800002171307ECF648013FEF831A930A8D818B
:101190008F839E819887AB80BC806101ACCF80E05B
:1011A00090E028960FB6F894DEBF0FBECDBFDF915A
:1011B000CF911F910F91FF90EF90DF90CF90BF9054
:1011C000AF909F908F907F906F905F904F903F90E7
:1011D0002F900895CF92DF92EF92FF920F931F937B
:1011E000CF93DF93232B41F5181619060CF051C04D
:1011F000DA01EB01880F991F880F991F860F971F3F
:10120000ED91FD91EE0FFF1FEE0FFF1FE60FF71F91
:101210000081118122813381C880D980EA80FB80DE
:10122000C082D182E282F382099319932993399380
:10123000C817D90729F72DC09C01215031094AF15F
:10124000EC01CC0FDD1FC40FD51F880F991F880F2D
:10125000991FDB01A80FB91FCB01FA91EA91EE0F9C
:10126000FF1FEE0FFF1FE60FF71F00811181228184
:101270003381FE90EE90DE90CE90C082D182E282E9
:10128000F3820D931D932D933C931397A817B907E1
:1012900021F780E090E0DF91CF911F910F91FF90B7
:1012A000EF90DF90CF9008952F923F924F925F92F0
:1012B0006F927F928F929F92AF92BF92CF92DF9266
:1012C000EF92FF920F931F93CF93DF93CDB7DEB7CB
:1012D00062970FB6F894DEBF0FBECDBF98878F839D
:1012E0005A8749873C872B870D871E87DA8AC98AE8
:1012F000BE82AD821A141B040CF0A3C0588B4F871A
:101300003C832B832E2C3F2C7C01EE0CFF1CEE0C1F
:10131000FF1CE20EF31E5A834983412C512C5DC001
:101320000B811C81A980BA80612C712CC12CD12C1D
:10133000C50158018C01D5016D917D918D919D91D3
:101340005D01F80120813181428153810E94642333
:101350009B01AC01662D772D8C2D9D2D0E941E21A9
:10136000662E772EC82ED92E085F1F4FAE14BF04ED
:1013700011F790C0D8012D913D914D915C91C5011F
:10138000B4010E9464239B01AC01F601608171816C
:10139000828193810E941D21D6016D937D938D934F
:1013A0009D936D01085F1F4FAE15BF0519F7BFEF85
:1013B0004B1A5B0AE981FA813C96FA83E9832B8117
:1013C0003C812C5F3F4F3C832B8334E0230E311C48
:1013D0008D819E814816590639F0AF81B8854A162D
:1013E0005B060CF49DCFE3CF4D855E858D819E819C
:1013F000880F991FED81FE818E0F9F1F880F991F07
:10140000880F991F29853A85820F931FAF85B88968
:10141000FA01408151816281738170580D911D9153
:101420002D913C91139701931193219331934D93F7
:101430005D936D937C9313971C96A817B90749F792
:1014400037C04B855C8569857A858D819E810E9438
:101450002A083FC0DB01CD90DD90ED90FC908081AB
:101460009181A281B3814C015D01B7FAB094B7F8C4
:10147000B094DB018D929D92AD92BD92BD01C08270
:10148000D182E282F3822F5F3F4F3C9624173507CB
:101490000CF31FC0F10120813181428153810E94F0
:1014A00064234B015C01CB80DC8009811A8162CF0F
:1014B0004B855C8569857A858D819E810E942A088D
:1014C000E985FA856D857E8520E030E04D815E817D
:1014D000C1CF21E030E049895A896B857C858D81B7
:1014E0009E810E94EA0880E090E062960FB6F89430
:1014F000DEBF0FBECDBFDF91CF911F910F91FF9047
:10150000EF90DF90CF90BF90AF909F908F907F90A3
:101510006F905F904F903F902F9008950E941D1DF7
:101520000E94741D8091A804813079F40E940116F4
:101530000E94D0158091850481110E943C148FEF88
:101540009BE60197F1F700C000008091A804843069
:1015500039F70E94D0118FEF9BE60197F1F700C099
:101560000000DECFEF92FF920F931F93CF93DF9394
:10157000082F192FE62E83E090E00E94E82AEE2043
:10158000D1F0C02FD12F04E010E0F12C4881598117
:101590006A817B81C8010E94F62A4C815D816E813F
:1015A0007F81C80104960E94F62AF3942896085F6A
:1015B0001F4FFE10EBCFDF91CF911F910F91FF9046
:1015C000EF900895682F84E590E00E94E82A08953E
:1015D000682F81E090E00E94E82A0895682F80E05B
:1015E00090E00E94E82A0895682F82E090E00E942F
:1015F000E82A0895682F85E590E00E94E82A08957A
:10160000CF93DF93C8E8D4E0488159816A817B8118
:1016100086E590E00E94F62A4C815D816E817F8193
:101620008AE590E00E94F62A488559856A857B857F
:101630008EE590E00E94F62A4091090150910A013E
:1016400060910B0170910C0182E690E00E94F62AF5
:10165000DF91CF910895409105015091060160916D
:1016600007017091080186E690E00E94F62A08952D
:10167000609187048AE690E00E94E82A6091040164
:101680008BE690E00E94E82A609185048CE690E069
:101690000E94E82A089580E090E00E94DA2A8230D1
:1016A00018F48093A70402C01092A7048091A704A5
:1016B000089581E090E00E94DA2A883018F480933F
:1016C000A60402C01092A6048091A604089585E5A0
:1016D00090E00E94DA2A863018F48093940402C0C5
:1016E00010929404809194040895CF92DF92EF9227
:1016F000FF920F931F93CF93DF9308E814E0C6E5A2
:10170000D0E00F2EC12CD12CF0E8EF2EFFE3FF2EFE
:10171000F02DCE010E94E22AF8016083718382835A
:1017200093839B01AC010E946724882329F0F80170
:10173000C082D182E282F38224960C5F1F4FC236B0
:10174000D10539F782E690E00E94E22A6B017C0124
:101750009B01AC010E946724811113C02CEA35EC77
:1017600047E257E3C701B6010E94A52188234CF048
:10177000C0920901D0920A01E0920B01F0920C0193
:101780000CC080E090E0A0E8BFE380930901909353
:101790000A01A0930B01B0930C01DF91CF911F912F
:1017A0000F91FF90EF90DF90CF90089586E690E044
:1017B0000E94E22A6093050170930601809307015D
:1017C000909308019B01AC010E946724882361F07B
:1017D00080E090E0AAE7B4E48093050190930601CD
:1017E000A0930701B09308010E941C1408958AE693
:1017F00090E00E94DA2A823018F48093870402C0B5
:10180000109287048BE690E00E94DA2A853618F45D
:101810008093040103C080E5809304010E941C149E
:101820008CE690E00E94DA2A823018F480938504D6
:10183000089510928504089583E090E00E94DA2ACA
:101840008B3018F48093A30402C01092A3048091FB
:10185000A304089584E590E00E94DA2A883018F401
:101860008093A20402C01092A2048091A204089561
:10187000CF92DF92EF92FF92CF93DF9398E0899F10
:10188000E0011124CE0104960E94E22A6B017C0142
:10189000CE0108960E94E22ACB52DB4FC882D98241
:1018A000EA82FB826C837D838E839F83DF91CF915D
:1018B000FF90EF90DF90CF9008952F923F924F923C
:1018C0005F926F927F928F929F92AF92BF92CF92D0
:1018D000DF92EF92FF920F931F93CF93DF93CDB7D9
:1018E000DEB72A970FB6F894DEBF0FBECDBF2B012F
:1018F0003C015A01190120E030E0A9010E94A52114
:1019000088234CF48DE2F501808377FA709477F8A0
:10191000709401E001C000E0C301B2010E941C22EA
:101920006B017C010E9454229B01AC01C301B201F6
:101930000E941D212B013C01C114D104E104F104DA
:10194000F9F010E088248394912C8C0E9D1E810E5A
:10195000911CC701B6012AE030E040E050E00E944F
:10196000A325605DF4016083C22ED32EE42EF52EF4
:101970001F5FC114D104E104F10421F7111140C02B
:1019800080E3898311E03CC0D501AF0DB11D829188
:101990008C93F3948F2D801B8117B0F38CE2F501AB
:1019A000EF0DF11D808311E01F0D2114310481F131
:1019B00020E030E040E251E4C301B2010E94642320
:1019C0002B013C010E941C22F501E10FF11D20E3D7
:1019D000260F2083072E000C880B990B0E9454229F
:1019E0009B01AC01C301B2010E941D212B013C01EE
:1019F000812F8F1990E01F5F82159305C8F208C0F0
:101A0000E1E0F0E0EC0FFD1FE10FF11DF02EBCCF87
:101A1000F501E10FF11D1082C5012A960FB6F89469
:101A2000DEBF0FBECDBFDF91CF911F910F91FF9011
:101A3000EF90DF90CF90BF90AF909F908F907F906E
:101A40006F905F904F903F902F900895DC018C91A4
:101A5000882391F0861729F090E007C0861305C00F
:101A600001C0FD01408381E008959F5FFD01E90F02
:101A7000F11D80818111F2CF0895CF93DF93EC01A6
:101A80008DEA92E00E94BA1FCE010E94BA1F84EA3A
:101A900092E00E94BA1F8FEF9BE60197F1F700C01A
:101AA000000080E0DF91CF910895CF93DF93EC01A8
:101AB00083EB92E00E94BA1FCE010E94BA1F84EA13
:101AC00092E00E94BA1F8FEF9BE60197F1F700C0EA
:101AD000000080E0DF91CF9108950F931F93CF9383
:101AE0008C01C62F88EA92E00E94BA1FC8010E94AA
:101AF000BA1F85E191E00E94BA1F8C2F0E94761FC9
:101B000084EA92E00E94BA1F8FEF9BE60197F1F7FB
:101B100000C0000080E0CF911F910F91089560E315
:101B20000E946D0D089561E30E946D0D0895CF939D
:101B3000DF93EB010E94BA1F8EE992E00E94BA1F68
:101B400082E20E94761FCE010E94BA1F82E20E94AA
:101B5000761F84EA92E00E94BA1F8FEF9BE60197FE
:101B6000F1F700C0000080E0DF91CF910895CF939E
:101B7000DF93EB010E94BA1F88E992E00E94BA1F2E
:101B8000CE010E94BA1F84EA92E00E94BA1F8FEF32
:101B90009BE60197F1F700C0000080E0DF91CF9154
:101BA00008950F931F93CF93DF93CDB7DEB7609760
:101BB0000FB6F894DEBF0FBECDBF8C01862F4AE072
:101BC000BE016F5F7F4F90E00E94C926BE016F5F2C
:101BD0007F4FC8010E94B70D60960FB6F894DEBF24
:101BE0000FBECDBFDF91CF911F910F910895CF937D
:101BF000DF93EB010E94BA1F82E992E00E94BA1FB4
:101C0000CE010E94BA1F84EA92E00E94BA1F8FEFB1
:101C10009BE60197F1F700C0000080E0DF91CF91D3
:101C200008950F931F93CF93DF93CDB7DEB76097DF
:101C30000FB6F894DEBF0FBECDBF8C01CB014AE0DA
:101C4000BE016F5F7F4F0E94C926BE016F5F7F4F4D
:101C5000C8010E94F70D60960FB6F894DEBF0FBE64
:101C6000CDBFDF91CF911F910F9108950F931F93D7
:101C7000CF93DF93CDB7DEB760970FB6F894DEBF92
:101C80000FBECDBF8C01CB01BA012AE0AE014F5F80
:101C90005F4F0E949026BE016F5F7F4FC8010E9478
:101CA000B70D60960FB6F894DEBF0FBECDBFDF91C3
:101CB000CF911F910F910895CF93DF93EB010E9475
:101CC000BA1F8CE892E00E94BA1FCE010E94BA1F90
:101CD00084EA92E00E94BA1F8FEF9BE60197F1F72A
:101CE00000C0000080E0DF91CF9108950F931F9313
:101CF000CF93DF9300D01F92CDB7DEB78C01862F34
:101D00004AE0BE016F5F7F4F90E00E94C926BE018E
:101D10006F5F7F4FC8010E945C0E0F900F900F9075
:101D2000DF91CF911F910F9108951F920F920FB6DF
:101D30000F9211248F939F93AF93BF938091800450
:101D400090918104A0918204B09183040196A11D19
:101D5000B11D8093800490938104A0938204B0937A
:101D60008304BF91AF919F918F910F900FBE0F9001
:101D70001F9018958FB780688FBF08958FB78F77A2
:101D80008FBF089582E084BD15BC16BC9CE697BD4C
:101D900080936E000E94BA0E089585B5856085BD5A
:101DA000089568EB72E00E946B26892B21F085E292
:101DB00095E00E946D048EE792E00E943D0D08952B
:101DC0000F931F93CF93DF93EC01259640E06BE3D5
:101DD000CE010E94260DCE010E9442268C018091E8
:101DE000A804801731F08FEF8093A804CE010E94E1
:101DF0003D0D8BEB92E00E94DA20C80199270E94EA
:101E0000F02088E593E00E94DA20DF91CF911F91C6
:101E10000F91089510928404E7EBF4E085ED94E0CF
:101E20001082118212821382158214823696E8176C
:101E3000F907B1F70895CF92DF92EF92FF920F93D7
:101E40001F93CF93DF930091840410E0C8010496A0
:101E500065E070E00E948F25EC01FC01EE0FFF1F92
:101E6000E80FF91FEE0FFF1FE954FB4F2481358166
:101E70002115310509F43FC0C801059665E070E001
:101E80000E948F25FC01EE0FFF1FE80FF91FEE0FD8
:101E9000FF1FE954FB4F448155814115510579F1EC
:101EA000BE01660F771FC60FD71FCC0FDD1FC954A9
:101EB000DB4FFC01EE0FFF1FE80FF91FEE0FFF1FB6
:101EC000E954FB4F88819981AA81BB81C080D18070
:101ED000E280F380BC01CD016C197D098E099F0958
:101EE000241B350B40E050E00E94A325A4E6B0E09F
:101EF0000E94D12507C060E070E0CB0103C060E024
:101F000070E0CB0160937C0470937D0480937E0429
:101F100090937F04DF91CF911F910F91FF90EF90ED
:101F2000DF90CF900895CF93DF93EC01259668EC76
:101F300072E0CE010E946B26892B69F088E894E05C
:101F4000909332058093310589EE9CE19093AC0427
:101F50008093AB0449C060ED72E0CE010E946B2615
:101F6000892B69F08CE894E09093320580933105D9
:101F700089EE9CE19093AC048093AB0435C068ED8E
:101F800072E0CE010E946B26892B69F080E994E013
:101F9000909332058093310589EE9CE19093AC04D7
:101FA0008093AB0421C060EE72E0CE010E946B26EC
:101FB000892B39F085E994E09093320580933105BF
:101FC00013C067EE72E0CE010E946B26892B61F090
:101FD00085E091E0909332058093310580E398E1AC
:101FE0009093AC048093AB04DF91CF9108954F920E
:101FF0005F926F927F92AF92BF92CF92DF92EF92F9
:10200000FF920F931F93CF93DF93CDB7DEB7CC5DD5
:10201000D1090FB6F894DEBF0FBECDBFC090A304A8
:1020200021E02C1508F077C0CC20B1F1CE0101964B
:102030007C0105ED14E05E0191EAA90EB11CD12CE2
:102040000F2E412C512CF0E86F2EFFE37F2EF02D48
:10205000F7014082518262827382F801608171814E
:10206000828193810E945422F70164837583868361
:102070009783F80184819581A681B781F5018193C9
:102080009193A193B1935F01D394F8E0EF0EF11C0B
:10209000085F1F4FDC10DCCF9E0127533F4F7901B3
:1020A0008E010F5A1F4F20553109AE014F5F5F4F10
:1020B00062E070E08C2D90E00E947C045C018091D5
:1020C000A304670198017801085D1F4F205B3F4F13
:1020D000AE014F5F5F4F62E070E090E00E945409F4
:1020E000EDE0F1E0CF55DF4F88819981AA81BB8176
:1020F000C15AD04080839183A283B383CB55DF4FF5
:1021000088819981AA81BB81C55AD04084839583F7
:10211000A683B7830EC0EDE0F1E010821182128237
:10212000138280E090E0A0E8BFE384839583A683D8
:10213000B783C452DF4F0FB6F894DEBF0FBECDBFDA
:10214000DF91CF911F910F91FF90EF90DF90CF9093
:10215000BF90AF907F906F905F904F900895A82FA1
:10216000B0E08091A304E82FF0E03197AE17BF07ED
:10217000ACF4AA0FBB1FAA0FBB1FAA0FBB1FAB5209
:10218000BB4FEE0FFF1FEE0FFF1FEE0FFF1FEB52B7
:10219000FB4F98E001900D929A95E1F78150809362
:1021A000A3040895FC019091A3049923A1F08581D3
:1021B000891788F40E94AF108091A4048150809305
:1021C000A4046091A30485ED94E00E94B20A86E81D
:1021D00092E00E943D0D0895CF93DF93CDB7DEB717
:1021E00028970FB6F894DEBF0FBECDBF29833A8380
:1021F0004B835C836D837E838F839887A091A30438
:1022000081E08A0F8093A304B0E0AA0FBB1FAA0F3E
:10221000BB1FAA0FBB1FAB52BB4F88E0FE0131961C
:1022200001900D928A95E1F728960FB6F894DEBFDB
:102230000FBECDBFDF91CF910895CF92DF92EF9285
:10224000FF920F931F93CF93DF93CDB7DEB72897FD
:102250000FB6F894DEBF0FBECDBF2091A3042A3085
:1022600058F5FC01F480C580D680E7808C01085FBA
:102270001F4F40E06BE3C8010E94260DC8010E9479
:102280003E262F2DE62F462F572F682F792F4D836F
:102290005E836F8378873C2D4D2D5E2D6E2F7E8162
:1022A0008F8198850E94EC100E94F70F6091A30423
:1022B00085ED94E00E94B20A86E892E00E943D0D0E
:1022C00028960FB6F894DEBF0FBECDBFDF91CF9139
:1022D0001F910F91FF90EF90DF90CF900895FC0138
:1022E00085810E94E80A0895CF930E944B0B0E94BB
:1022F000D60B0E94F70B0E94670B0E94750B0E9481
:10230000590B0E942A0C0E941C0C6091A30480EFC0
:1023100092E00E94D10D8091A304882349F0C0E08F
:102320008C2F0E94380CCF5F8091A304C817C0F394
:102330000E94F70FCF9108950F931F930E945801A9
:102340008B019C0160939E0470939F048093A00472
:102350009093A10440918004509181046091820483
:10236000709183048091840490E0FC01EE0FFF1FC4
:10237000E80FF91FEE0FFF1FE954FB4F0083118395
:102380002283338355834483019665E070E00E9485
:102390008F2580938404C901B8011F910F9108957E
:1023A000CF93DF93CDB7DEB72A970FB6F894DEBF91
:1023B0000FBECDBF80919904811123C00E945801A6
:1023C00060939E0470939F048093A0049093A10453
:1023D0002AE0AE014F5F5F4F0E949026BE016F5F03
:1023E0007F4F8EE692E00E94970D40919E0450919F
:1023F0009F046091A0047091A10486E692E00E947F
:10240000360E2A960FB6F894DEBF0FBECDBFDF9111
:10241000CF9108950F931F93CF93DF93CDB7DEB77E
:102420002A970FB6F894DEBF0FBECDBF80919904F6
:10243000811134C00E94580160939E0470939F04E0
:102440008093A0049093A1042AE0AE014F5F5F4FF8
:102450000E949026BE016F5F7F4F8EE692E00E9441
:10246000970D40919E0450919F046091A00470913B
:10247000A10486E692E00E94360E69E573E08CE5E1
:1024800092E00E94970D6FE272E085E392E00E9475
:102490005C0E85E292E00E948F0D1EC06091950453
:1024A0007091960480919704909198048E010F5F2B
:1024B0001F4F22E04AE00E941E26B8018CE592E000
:1024C0000E94970D62E372E085E392E00E945C0E49
:1024D00085E292E00E94930D2A960FB6F894DEBF33
:1024E0000FBECDBFDF91CF911F910F910895CF9374
:1024F000DF9300D01F92CDB7DEB78091990490E0B2
:10250000019681709078992324F401978E6F9F6FC4
:102510000196809399044AE0BE016F5F7F4F90E07F
:102520000E94C926BE016F5F7F4F8EE392E00E943A
:10253000B70D0E940A1289E093E00E94DA200F9002
:102540000F900F90DF91CF910895CF93DF93CDE05F
:10255000D1E00E9454222C813D814E815F810E94F6
:102560006423288139814A815B810E941E21DF9189
:10257000CF9108958617C9F06330E1F06430F9F027
:10258000623011F1613029F1653041F161112BC0E8
:10259000682F80E00E94BA129B01AC0160E070E0FD
:1025A00080E89FE30E94AA21089560E070E080E83F
:1025B0009FE308956AE078EE8CE191E4089562E18A
:1025C0007CEA80E29CE3089560E070E08AE794E4AE
:1025D000089567E177EB81ED98E308956EE778E180
:1025E0008DE090E4089560E070E080E89FE3089556
:1025F000CF92DF92EF92FF92CF936B017C01C22FBB
:10260000222311F0411109C06C2F842F0E94BA12AD
:10261000A70196010E94642307C020E00E94F812DF
:102620002C2F40E00E94F812CF91FF90EF90DF90A6
:10263000CF9008958617A9F06330C1F06130D9F0CA
:102640006230F1F0611121C0682F80E00E941A13FE
:102650009B01AC0160E070E080E89FE30E94AA214A
:10266000089560E070E080E89FE3089560E070E026
:1026700080E89FE3089569EA79E081E193E40895B1
:102680006FE776ED80ED9DE3089560E070E080E80F
:102690009FE30895CF92DF92EF92FF92CF936B0169
:1026A0007C01C22F222311F0411109C06C2F842F0D
:1026B0000E941A13A70196010E94642307C020E01C
:1026C0000E944A132C2F40E00E944A13CF91FF90A2
:1026D000EF90DF90CF900895CF93DF93C42FD22F48
:1026E0000E94A5122D2F4C2F0E94F812DF91CF913E
:1026F00008958F929F92AF92BF92EF920F931F9384
:102700004801590123E00E94F812A50194010E949A
:10271000AA212E2D40E00E944A131F910F91EF90A5
:10272000BF90AF909F908F9008958F929F92AF929D
:10273000BF92EF920F931F93CF93C42F480159017B
:102740000E94A512950184014C2F0E947913CF910C
:102750001F910F91EF90BF90AF909F908F90089531
:102760000F931F93CF93DF93CDB7DEB72E970FB69E
:10277000F894DEBF0FBECDBFFE0131968EE0DF01C3
:102780001D928A95E9F78091A70481110DC00091EF
:10279000A60410E0C801880F991F880F991F080F21
:1027A000191F0C531C4F10C08091A50490E08C01A0
:1027B000000F111F880F991F880F991F880F991FED
:1027C000080F191F04561C4FB80185E492E00E94BF
:1027D000970DB8018E010F5F1F4FC8010E94602640
:1027E000F80101900020E9F731978FE293E7A0E02C
:1027F00080839183A283B80187E491E00E94970DC2
:102800002E960FB6F894DEBF0FBECDBFDF91CF91ED
:102810001F910F9108956091A7046170655E89E32F
:1028200091E00E94760E6091A7046170635E8BE276
:1028300091E00E94760E08956091040170E080E0BE
:1028400090E00E94542220910501309106014091B0
:102850000701509108010E94642320E030E048EC19
:1028600052E40E94AA2160930001709301018093B9
:1028700002019093030108958091A304823008F42B
:1028800051C04091A20460919E0470919F04809178
:10289000A0049091A104242F0E946C1320910001A8
:1028A0003091010140910201509103010E945F2388
:1028B00018164CF5809187040E94112160E078EF92
:1028C00088E592E00E94110E8091860481110CC06F
:1028D0006DEC7CEC8CEC9DE30E94411F6DEC7CEC7C
:1028E0008CEC9DE30E94201F8091860490E001966D
:1028F00087709078992324F40197886F9F6F0196D1
:1029000080938604089581E090918704911180E07E
:102910000E94112160E070E088E592E00E94110EB3
:10292000109286040895EF920F931F938091A30451
:10293000823050F18091A70481110FC060919E04F4
:1029400070919F048091A0049091A1042091A6040D
:102950004091A2040E946C131BC0009109011091C8
:102960000A0120910B0130910C0160919E0470913D
:102970009F048091A0049091A104E090A50440914F
:10298000A2040E94951304C060E070E080EC9FE711
:102990001F910F91EF9008958091A70481110DC0B0
:1029A0008091A60490E09C01220F331F220F331F59
:1029B000820F931F8C539C4F08952091A50430E003
:1029C000C901880F991F220F331F220F331F220FB7
:1029D000331F820F931F84569C4F0895CF92DF922E
:1029E000EF92FF928091A304823018F14091A204EB
:1029F00060919E0470919F048091A0049091A10425
:102A0000242F0E946C136B017C0120919A04309159
:102A10009B0440919C0450919D040E945F231816D2
:102A200044F4C0929A04D0929B04E0929C04F092E9
:102A30009D04FF90EF90DF90CF900895EF920F9359
:102A40001F938091A304823050F18091A7048111DB
:102A50000FC060919A0470919B0480919C049091A6
:102A60009D042091A6044091A2040E94F8121BC06C
:102A70000091090110910A0120910B0130910C0184
:102A800060919A0470919B0480919C0490919D04A4
:102A9000E090A5044091A2040E94791304C060E074
:102AA00070E080EC9FE71F910F91EF9008958F9257
:102AB0009F92AF92BF92CF92DF92EF92FF920F93CD
:102AC0001F938091A304823008F45CC08091A70416
:102AD000811127C060917C0470917D0480917E04F7
:102AE00090917F040E9454226B017C01EDE0F1E0A3
:102AF00024813581468157816081718182819381F2
:102B00000E94AA219B01AC01C701B6010E941D21B0
:102B10000E941C222091A6044091A2040E946C13E2
:102B200034C08090090190900A01A0900B01B090F0
:102B30000C0160917C0470917D0480917E049091E1
:102B40007F040E9454226B017C01EDE0F1E02481BE
:102B500035814681578160817181828193810E9494
:102B6000AA219B01AC01C701B6010E941D210E9450
:102B70001C22E090A504950184014091A2040E94CA
:102B8000951303C060E070E0CB011F910F91FF909F
:102B9000EF90DF90CF90BF90AF909F908F9008956F
:102BA0000F931F93CF93DF93CDB7DEB72A970FB65E
:102BB000F894DEBF0FBECDBF0E94E80222E030E0F5
:102BC0008E010F5F1F4FA8010E945D0CF80101905C
:102BD0000020E9F731978AEB93E4A0E080839183AA
:102BE000A283B80182E591E00E94970D2A960FB664
:102BF000F894DEBF0FBECDBFDF91CF911F910F9133
:102C000008954F925F926F927F928F929F92AF92B0
:102C1000BF92CF92DF92EF92FF920F931F93CF93C9
:102C2000DF93CDB7DEB760970FB6F894DEBF0FBE67
:102C3000CDBFFE01319680E1DF011D928A95E9F753
:102C40000E949C110E94EE140E941B0F0E9493147C
:102C50006B017C010E941E152B013C010E9457153F
:102C60004B015C01A7019601C701B6010E946724D0
:102C7000811121C022E030E0AE014F5F5F4FC701FC
:102C8000B6010E945D0CBE016F5F7F4F88E592E048
:102C90000E94970D22E030E0AE014F5F5F4FC3010D
:102CA000B2010E945D0CBE016F5F7F4F8FE492E026
:102CB0000E94970D0CC066E173E088E592E00E94E7
:102CC000970D66E173E08FE492E00E94970D21E09A
:102CD00030E08E010F5F1F4FA801C501B4010E94B3
:102CE0005D0C0E94CC14BC01C8010E946026F80152
:102CF00001900020E9F731978FE293E7A0E080830D
:102D00009183A283B8018BE591E00E94970D6096B4
:102D10000FB6F894DEBF0FBECDBFDF91CF911F91EC
:102D20000F91FF90EF90DF90CF90BF90AF909F906A
:102D30008F907F906F905F904F900895CF93DF9327
:102D40008091A3048230D8F04091A20460919E0447
:102D500070919F048091A0049091A104242F0E945F
:102D60006C139B01AC01CDE0D1E0688179818A814F
:102D70009B810E941D21688379838A839B830E94A3
:102D80000116DF91CF9108950E940B140E94B01399
:102D90000E9401160E94D015089569E173E00E9417
:102DA0006B26892B71F08091A70490E003968170C7
:102DB0009078992324F401978E6F9F6F01968093EA
:102DC000A7048091A7040E94EE0A0E94C4160895E9
:102DD000CF93DF93EC018091A704811130C066E1AD
:102DE00073E0CE010E946B26892B79F08091A604B6
:102DF00090E0079687709078992324F40197886F64
:102E00009F6F01968093A60415C069E173E0CE011F
:102E10000E946B26892B71F08091A60490E00996A0
:102E200087709078992324F40197886F9F6F01969B
:102E30008093A6048091A6040E94E80A2FC066E150
:102E400073E0CE010E946B26892B79F08091A50456
:102E500090E0039683709078992324F401978C6F07
:102E60009F6F01968093A50415C069E173E0CE01C0
:102E70000E946B26892B71F08091A50490E0059645
:102E800083709078992324F401978C6F9F6F01963B
:102E90008093A5048091A5040E94F40A0E94C416A0
:102EA000DF91CF9108950F931F93CF93DF93CDB709
:102EB000DEB72A970FB6F894DEBF0FBECDBF8E01E6
:102EC0000F5F1F4F8AE0F80111928A95E9F7609130
:102ED000050170910601809107019091080121E0A0
:102EE00030E0A8010E945D0CB8018BE891E00E94DF
:102EF000970D6091A20470E0CB01880F991F880F95
:102F0000991F680F791F6C537C4F88EF91E00E94E6
:102F1000970D6091870470E06F5F7F4F61707078EC
:102F2000772334F4615071096E6F7F6F6F5F7F4F4D
:102F3000675F85E891E00E94760E6091870461707A
:102F4000675F80E891E00E94760E60918504617071
:102F5000675E85E691E00E94760E4091040150E0A4
:102F600060E070E087E791E00E94360E80910401F6
:102F70004AE08E010F5F1F4FB80190E00E94C92602
:102F8000F80101900020E9F7319785E290E0918304
:102F90008083B8018FE691E00E94970D2A960FB6C4
:102FA000F894DEBF0FBECDBFDF91CF911F910F917F
:102FB000089569E173E00E946B26892B71F080917E
:102FC000850490E0039681709078992324F401970A
:102FD0008E6F9F6F0196809385040E94380B0E942C
:102FE00053170895CF93DF93EC01289640E06BE3ED
:102FF000CE010E94260DCE010E94422680938704B6
:103000008CE193E00E94DA208091870490E00E9496
:10301000F02088E593E00E94DA200E94380B0E949D
:103020005317DF91CF910895CF93DF93FC01C781B0
:10303000D085C093040187E393E00E94DA208C2FAF
:103040009D2F0E94F02087E593E00E94DA200E94E5
:10305000380B0E941C140E945317DF91CF910895E2
:103060000E942B0B0E941C140E94531708950F936B
:103070001F93CF93DF9300D000D0CDB7DEB7198276
:103080001A821B821C8205E215E0F80182819BE214
:103090008902912D11249595959587FD9395F8E1D9
:1030A0009F9F801911244AE0BE016F5F7F4F082E59
:1030B000000C990B0E94C926BE016F5F7F4F8DE106
:1030C00091E00E94970DF80181816CE30E948125B7
:1030D0004AE0BE016F5F7F4F892F990F990B0E94C5
:1030E000C926BE016F5F7F4F87E191E00E94970D77
:1030F0000F900F900F900F90DF91CF911F910F9134
:103100000895CF93DF93EC0169E173E00E946B2691
:10311000892B31F0E5E2F5E082818F5F82830CC07C
:1031200066E173E0CE010E946B26892B29F0E5E26F
:10313000F5E0828181508283E5E2F5E092818BE2C5
:103140009802812D11248595859597FD839528E119
:10315000829F9019112492830E943718DF91CF919A
:103160000895CF93DF93EC0169E173E00E946B2631
:10317000892B31F0E5E2F5E081818F5F81830CC01E
:1031800066E173E0CE010E946B26892B29F0E5E20F
:10319000F5E0818181508183E5E2F5E081816CE396
:1031A0000E94812591830E943718DF91CF91089565
:1031B000EF92FF920F931F93CF93DF93CDB7DEB7BC
:1031C00068970FB6F894DEBF0FBECDBF8091A30401
:1031D000811107C06AE573E089E192E00E94970DD2
:1031E0007DC0CE0101967C0184E1F70111928A95A0
:1031F000E9F78091A40490E04AE0BE016B5E7F4F46
:1032000001960E94C926D7010D900020E9F7119779
:1032100087E0E9E6F3E001900D928A95E1F7BE01BF
:103220006B5E7F4FC7010E946026D7010D90002082
:10323000E9F7119785E0E0E7F3E001900D928A95B8
:10324000E1F78091A3044AE0BE016B5E7F4F90E0FE
:103250000E94C926BE016B5E7F4FC7010E94602697
:10326000C7010E94DA2088E593E00E94DA20B701C6
:1032700089E192E00E94970D6091A4048AE092E0B7
:103280000E94D10DE091A404F0E0EE0FFF1FEE0FBD
:10329000FF1FEE0FFF1FEB52FB4F6481758186818C
:1032A0009781870122E049E00E941E26C7010E9403
:1032B000DA2088E593E00E94DA20B70180E092E00E
:1032C0000E94970D86EE91E00E94930D8FEE91E0A3
:1032D0000E94930D83EC91E00E94930D6091A204F3
:1032E00070E0CB01880F991F880F991F680F791F15
:1032F0006C537C4F88EF91E00E94970D8CEC91E02D
:103300000E94930D89ED91E00E94930D68960FB68F
:10331000F894DEBF0FBECDBFDF91CF911F910F910B
:10332000FF90EF9008950F931F93CF93DF93D09169
:10333000A404C091A304CC2351F18C0166E173E095
:103340000E946B26892B61F06C2F70E08D2F90E02E
:103350000197860F971F0E948F258093A40412C0A7
:1033600069E173E0C8010E946B26892B81F06C2F04
:1033700070E08D2F90E00196860F971F0E948F2599
:103380008093A4048091A404D8130E94D818DF91DC
:10339000CF911F910F910895CF93DF93EC0166E1D8
:1033A00073E00E946B26892B79F08091A20490E053
:1033B000079687709078992324F40197886F9F6F00
:1033C00001968093A20415C069E173E0CE010E94CA
:1033D0006B26892B71F08091A20490E0099687708A
:1033E0009078992324F40197886F9F6F01968093BA
:1033F000A20485E793E00E94DA208091A20490E085
:103400009C01220F331F220F331F820F931F8C53F7
:103410009C4F0E94DA2088E593E00E94DA20809198
:10342000A2040E94E20A0E94D818DF91CF91089569
:103430004F925F926F927F928F929F92AF92BF92C4
:10344000CF92DF92EF92FF920F931F93CF93DF9370
:10345000CDB7DEB764970FB6F894DEBF0FBECDBF11
:103460004A015B0128013901811107C09A01AB01B2
:10347000C501B4010E946423F5C0813039F4A9016B
:103480009801C501B4010E946423ECC0823069F444
:103490002BED3FE049E45FE3C501B4010E946423E2
:1034A000A50194010E946423DDC08330B9F42BEDA3
:1034B0003FE049E450E4C301B2010E9464236B0180
:1034C0007C01A3019201C501B4010E941D219B0151
:1034D000AC01C701B6010E946423C4C0843009F066
:1034E000BDC020E030E040E85EE3C701B6010E94C5
:1034F00064236D837E838F839887A5019401C50122
:10350000B4010E94642369877A878B879C87A7010F
:103510009601C701B6010E94642369837A838B8375
:103520009C839B01AC0169857A858B859C850E9473
:103530001D2120E030E040E05FE30E94D123698B51
:103540007A8B8B8B9C8BA5019401C701B6010E94DD
:10355000AA210E948A216D877E878F87988BA3017D
:103560009201C301B2010E941E219B01AC01C50161
:10357000B4010E941D214B015C019B01AC010E9422
:10358000642329813A814B815C810E941D2120E0C6
:1035900030E040E05FE30E94D12369837A838B832C
:1035A0009C8320E030E040E05FE3C501B4010E946D
:1035B00064232B013C01A5019401C701B6010E94BF
:1035C000AA210E948A216B017C0129893A894B89B1
:1035D0005C896D817E818F8198850E9464234B0177
:1035E0005C0120E030E040E85EE369857A858B8508
:1035F0009C850E9464232D853E854F8558890E94B5
:1036000064239B01AC01C501B4010E941E214B0142
:103610005C0129813A814B815C816D817E818F8142
:1036200098850E9464239B01AC01C501B4010E94EE
:103630001D214B015C01A3019201C301B2010E9453
:1036400064239B01AC01C701B6010E9464239B0166
:10365000AC01C501B4010E941D2104C060E070E00E
:1036600080E89FE364960FB6F894DEBF0FBECDBF2F
:10367000DF91CF911F910F91FF90EF90DF90CF904E
:10368000BF90AF909F908F907F906F905F904F9082
:103690000895EF92FF920F931F93CF93DF93CDB7CF
:1036A000DEB72A970FB6F894DEBF0FBECDBF60918C
:1036B0009404615F8AEB91E00E94760E84E291E0CF
:1036C0000E94550D90919404892F8D7F69F480EBB1
:1036D00091E00E94930D86EA91E00E948F0D8CE9A3
:1036E00091E00E948F0D2AC0813069F480EB91E057
:1036F0000E94930D86EA91E00E94930D8CE991E07F
:103700000E948F0D1BC0943069F480EB91E00E9401
:10371000930D86EA91E00E94930D8CE991E00E945E
:10372000930D0CC080EB91E00E948F0D86EA91E032
:103730000E948F0D8CE991E00E948F0D85E991E048
:103740000E94930D0F2EF8E8EF2EF4E0FF2EF02DDF
:10375000F70160817181828193818E010F5F1F4F1C
:1037600021E047E00E941E26B80180EB91E00E9414
:10377000970DF701648175818681978121E047E08B
:103780000E941E26B80186EA91E00E94970DF7017B
:10379000608571858285938521E047E00E941E2621
:1037A000B8018CE991E00E94970D60910901709138
:1037B0000A0180910B0190910C0121E047E00E94E9
:1037C0001E26B80185E991E00E94970D2A960FB652
:1037D000F894DEBF0FBECDBFDF91CF911F910F9147
:1037E000FF90EF900895CF92DF92EF92FF920F93A8
:1037F0001F93CF93DF93EC0166E173E00E946B2689
:10380000892B59F08091940490E0019766E070E074
:103810000E948F258093940411C069E173E0CE016A
:103820000E946B26892B51F08091940490E00196C0
:1038300066E070E00E948F2580939404E8E8F4E04D
:1038400080E090E0A0E8BFE380839183A283B3830C
:1038500084839583A683B78380879187A287B38764
:10386000C09194046C017D018C019D01AC01BD01EE
:103870008C2F0E94181A6093090170930A0180939B
:103880000B0190930C018C2F0E94FA0A0E94000BEE
:103890000E94491BDF91CF911F910F91FF90EF90F4
:1038A000DF90CF900895CF93DF93EC016AE872E048
:1038B0000E946B26892B81F081E08093A8041092EE
:1038C0007C0410927D0410927E0410927F040E946A
:1038D0000A0F0E94C4166DC066E872E0CE010E9415
:1038E0006B26892B31F083E08093A8040E94D818BE
:1038F00060C060E872E0CE010E946B26892B31F037
:1039000087E08093A8040E94531753C068E872E0D0
:10391000CE010E946B26892B21F082E08093A804BF
:1039200048C062E872E0CE010E946B26892B51F0FC
:103930008091A8048530E9F185E08093A8040E9475
:10394000491B37C064E872E0CE010E946B26892BC8
:10395000E1F08091A8048430A9F084E08093A80469
:103960001092950410929604109297041092980465
:1039700010929E0410929F041092A0041092A10431
:10398000109299040E940A1214C06CE772E0CE01F2
:103990000E946B26892B51F089E08093A80485E270
:1039A00095E00E9435030E94371803C081E08093A0
:1039B000A80480E893E00E94DA208091A80490E0B7
:1039C0000E94F02088E593E00E94DA20DF91CF91F9
:1039D0000895CF92DF92EF92FF920F931F93E8E842
:1039E000F4E0C084D184E284F384048115812681CB
:1039F00037814081518162817381809194040E945A
:103A0000181A6093090170930A0180930B01909337
:103A10000C010E94000B0E94491B1F910F91FF9007
:103A2000EF90DF90CF9008951092AC041092AB0409
:103A3000109232051092310508950E941E1F0E94B7
:103A4000A12060E875E280E090E00E945E1F80E0C7
:103A50000E944D010E9499010E9474110E94141D40
:103A600081E090918704911180E00E9419212FEF4D
:103A70008FEF9AE1215080409040E1F700C00000B4
:103A80000E94C20E0E94CD0E8AE892E00E943D0D77
:103A900082EE93E00E94DA200895CF92DF92EF92B7
:103AA000FF9205960E943E266B017C019B01AC01B2
:103AB0000E946724811111C0E0913105F091320517
:103AC000309759F0C082D182E282F382E091AB0458
:103AD000F091AC04309709F009950E94141DFF90F5
:103AE000EF90DF90CF9008950F931F93CF93DF93C4
:103AF000CDB7DEB7A4970FB6F894DEBF0FBECDBF2B
:103B00008E010F5F1F4F89C1B8018BE30E948F2088
:103B10008BE893E00E94DA20C8010E94DA2088E551
:103B200093E00E94DA2066E774E0C8010E946B26E9
:103B30000817190751F46DEC7CEC8CEC9DE30E94A6
:103B4000201FC8010E946F1168C162E474E0C801BF
:103B50000E946B260817190751F46DEC7CEC8CEC75
:103B60009DE30E94201FC8010E94E00E56C160E73D
:103B700074E0C8010E946B260817190721F4C801D8
:103B80000E94531C4AC168E474E0C8010E946B267D
:103B90000817190751F46DEC7CEC8CEC9DE30E9446
:103BA000201FC8010E94771238C16DE374E0C8017C
:103BB0000E946B260817190751F46DEC7CEC8CEC15
:103BC0009DE30E94201FC8010E941D1126C166E3CB
:103BD00074E0C8010E946B260817190751F46DECB8
:103BE0007CEC8CEC9DE30E94201FC8010E9493197D
:103BF00014C166E674E0C8010E946B260817190715
:103C000051F46DEC7CEC8CEC9DE30E94201FC8010C
:103C10000E94CC1902C168E274E0C8010E946B26C0
:103C20000817190751F46DEC7CEC8CEC9DE30E94B5
:103C3000201FC8010E94D210F0C06EE274E0C801DB
:103C40000E946B260817190751F46DEC7CEC8CEC84
:103C50009DE30E94201FC8010E94F31BDEC062E2A8
:103C600074E0C8010E946B260817190751F46DEC27
:103C70007CEC8CEC9DE30E94201FC8010E94930FF6
:103C8000CCC06CE174E0C8010E946B2608171907CC
:103C900051F46DEC7CEC8CEC9DE30E94201FC8017C
:103CA0000E944D1DBAC06EE474E0C8010E946B26EC
:103CB0000817190751F46DEC7CEC8CEC9DE30E9425
:103CC000201FC8010E94CD16A8C06BE574E0C80192
:103CD0000E946B260817190751F46DEC7CEC8CECF4
:103CE0009DE30E94201FC8010E94E81696C063E170
:103CF00074E0C8010E946B260817190751F46DEC97
:103D00007CEC8CEC9DE30E94201FC8010E94F217FE
:103D100084C06BE074E0C8010E946B260817190785
:103D200051F46DEC7CEC8CEC9DE30E94201FC801EB
:103D30000E94141872C063E074E0C8010E946B26F0
:103D40000817190751F46DEC7CEC8CEC9DE30E9494
:103D5000201FC8010E94D91760C06EEF73E0C80130
:103D60000E946B260817190751F46DEC7CEC8CEC63
:103D70009DE30E94201FC8010E949E164EC069EF5D
:103D800073E0C8010E946B260817190789F46DECCF
:103D90007CEC8CEC9DE30E94201F10929A04109200
:103DA0009B0410929C0410929D040E94011635C041
:103DB00063EF73E0C8010E946B260817190751F4DE
:103DC0006DEC7CEC8CEC9DE30E94201FC8010E94EE
:103DD000811823C06EEE73E0C8010E946B2608179D
:103DE000190751F46DEC7CEC8CEC9DE30E94201FD4
:103DF000C8010E94B11811C069EE73E0C8010E94A9
:103E00006B260817190749F46DEC7CEC8CEC9DE3EC
:103E10000E94201FC8010E94D10E8BE30E943E2009
:103E2000019609F071CEA4960FB6F894DEBF0FBECE
:103E3000CDBFDF91CF911F910F9108953C9A0895C6
:103E400020E030E046E154E40E9464230E942322F3
:103E5000611571058105910599F0449AE6EFF8E046
:103E60003197F1F700C000004498E6EFF8E0319791
:103E7000F1F700C00000615071098109910969F7EB
:103E8000089520E030E04AEF54E40E9464230E9449
:103E90002322611571058105910579F0449AE3EBC0
:103EA000F2E03197F1F74498E3EBF2E03197F1F764
:103EB000615071098109910989F7089580E090E0C6
:103EC000FC01ED5CFA4F1082019688319105C1F733
:103ED0001092C50087E48093C40088E98093C100F4
:103EE00086E08093C2000E94BA0E0895E0ECF0E0F4
:103EF000908195FFFDCF8093C6000895E0ECF0E03F
:103F000080818823ECF78091C60008951F920F925C
:103F10000FB60F9211242F933F934F935F936F939C
:103F20007F938F939F93AF93BF93EF93FF930E94E1
:103F30007E1FE091A904F0E0ED5CFA4F8083809150
:103F4000A90490E0019668E170E00E948F258093BB
:103F5000A904FF91EF91BF91AF919F918F917F91B4
:103F60006F915F914F913F912F910F900FBE0F90E6
:103F70001F901895CF93DF93EC018881882331F04F
:103F800021960E94761F89918111FBCFDF91CF91FD
:103F90000895EF92FF920F931F93CF93DF93EC015D
:103FA0008B010E94BE0E28E130E08091A90440916F
:103FB000AA0490E0841B91094896B9010E948F25BC
:103FC0008C179D0790F3209769F1F80140E050E0CD
:103FD0008091AA047A01E80EF11C9701ABEABAEAD3
:103FE0000E94C225929582958F7089279F7089279C
:103FF0009C01220F331F820F931F880F991F880F78
:10400000991F880F991F9701281B390BD901AD5CA7
:10401000BA4F8C9181934F5F5F4F4C175D07C1F68C
:10402000CE0101C0CE01F801E80FF91F1082809186
:10403000AA04C80FD11D9E01ABEABAEA0E94C225AC
:10404000929582958F7089279F7089279C01220FF6
:10405000331F820F931F880F991F880F991F880F96
:10406000991FC81BD90BC093AA040E94BA0EDF91F6
:10407000CF911F910F91FF90EF9008950F931F9391
:10408000CF93DF93482F8091A9042091AA0490E058
:10409000821B9109489668E170E00E948F25882371
:1040A000A1F1EC01DD271C161D0694F58091AA04F0
:1040B00090E068E170E00E948F25FC01ED5CFA4F12
:1040C00080818417A9F020E030E008E110E015C0FD
:1040D0009091AA04B901690F711DCB01B8010E942A
:1040E0008F25FC01ED5CFA4F9081941306C002C04D
:1040F00020E030E0822F932F0DC02F5F3F4F2C1711
:104100003D0731F78FEF9FEF05C08FEF9FEF02C0A4
:104110008FEF9FEFDF91CF911F910F9108950F9334
:104120001F93CF93C82F8B018C2F0E943E208F5F4F
:10413000D9F3B80190E00E94C91FCF911F910F9150
:104140000895539AE1E8F0E080818860808380E8F8
:1041500094E090938900809388000895E1E8F0E06E
:1041600090819E7F9083882311F05B9A01C05B98B9
:10417000E1E8F0E0808181608083B19BFECFB19A5D
:10418000E1E8F0E080818E7F80830895CF93DF9314
:10419000D82F80E00E94AE20C8E08D2F81700E9451
:1041A000AE20D695C150C9F781E00E94AE20DF91C4
:1041B000CF9108950F931F93CF93FC0180818823A3
:1041C00059F08F01C0E00E94C620CF5FF801EC0FCC
:1041D000F11D80818111F7CFCF911F910F9108952B
:1041E000CF93DF93CDB7DEB760970FB6F894DEBFFD
:1041F0000FBECDBF4AE0BE016F5F7F4F0E94852694
:10420000CE0101960E94DA2060960FB6F894DEBFC8
:104210000FBECDBFDF91CF910895289A08952898B9
:104220000895882319F00E940D2108950E940F21FE
:104230000895209A0E94112108955058BB27AA275B
:104240000E9435210C9425230E94172338F00E94E8
:104250001E2320F039F49F3F19F426F40C94D92240
:104260000EF4E095E7FB0C94D322E92F0E9436234D
:1042700058F3BA17620773078407950720F079F49B
:10428000A6F50C9458230EF4E0950B2EBA2FA02D12
:104290000B01B90190010C01CA01A0011124FF27F3
:1042A000591B99F0593F50F4503E68F11A16F040EE
:1042B000A22F232F342F4427585FF3CF46953795ED
:1042C0002795A795F0405395C9F77EF41F16BA0BB2
:1042D000620B730B840BBAF09150A1F0FF0FBB1F60
:1042E000661F771F881FC2F70EC0BA0F621F731FA9
:1042F000841F48F4879577956795B795F7959E3F06
:1043000008F0B0CF9395880F08F09927EE0F979596
:10431000879508959F939F77EEE389379E0728F44A
:10432000E8E6F0E00E9403230CC00E948F22905820
:10433000A2EA2AED3FE049EC5FE30E9435210E94AA
:1043400025230F9007FC905808950E94AF2208F48F
:1043500081E008950E94BE210C9425230E941E2313
:1043600058F00E94172340F029F45F3F29F00C9485
:10437000D32251110C9459230C94D9220E94362334
:1043800068F39923B1F3552391F3951B550BBB2784
:10439000AA2762177307840738F09F5F5F4F220FC9
:1043A000331F441FAA1FA9F335D00E2E3AF0E0E8C0
:1043B00032D091505040E695001CCAF72BD0FE2F0A
:1043C00029D0660F771F881FBB1F2617370748079E
:1043D000AB07B0E809F0BB0B802DBF01FF27935856
:1043E0005F4F3AF09E3F510578F00C94D3220C9425
:1043F00059235F3FE4F3983ED4F38695779567950C
:10440000B795F7959F5FC9F7880F911D969587958A
:1044100097F90895E1E0660F771F881FBB1F6217A9
:1044200073078407BA0720F0621B730B840BBA0B67
:10443000EE1F88F7E09508950E9423226894B11139
:104440000C94592308950E943E2388F09F5798F0BA
:10445000B92F9927B751B0F0E1F0660F771F881F89
:10446000991F1AF0BA95C9F714C0B13091F00E94A3
:104470005823B1E008950C945823672F782F88278C
:10448000B85F39F0B93FCCF3869577956795B395CA
:10449000D9F73EF490958095709561957F4F8F4F39
:1044A0009F4F0895E89409C097FB3EF4909580953E
:1044B000709561957F4F8F4F9F4F9923A9F0F92FEA
:1044C00096E9BB279395F695879577956795B79568
:1044D000F111F8CFFAF4BB0F11F460FF1BC06F5F4E
:1044E0007F4F8F4F9F4F16C0882311F096E911C060
:1044F000772321F09EE8872F762F05C0662371F081
:1045000096E8862F70E060E02AF09A95660F771F94
:10451000881FDAF7880F9695879597F90895DF93A6
:10452000CF931F930F938B01EC01ECE7F0E00E9417
:10453000DC220E9425239801AE018B01EC0160E092
:1045400070E080E89FE30E941D210E9427249801CB
:10455000AE010F911F91CF91DF910C947723990FAA
:104560000008550FAA0BE0E8FEEF16161706E8073D
:10457000F907C0F012161306E407F50798F0621B5E
:10458000730B840B950B39F40A2661F0232B242B33
:10459000252B21F408950A2609F4A140A6958FEF52
:1045A000811D811D089597F99F6780E870E060E0A4
:1045B00008959FEF80EC0895DF93CF931F930F939F
:1045C000FF92EF92DF927B018C01689406C0DA2E95
:1045D000EF010E947723FE01E894A5912591359182
:1045E00045915591A6F3EF010E943521FE019701F7
:1045F000A801DA9469F7DF90EF90FF900F911F9177
:10460000CF91DF9108959F938F937F936F93FF9343
:10461000EF939B01AC010E946423EF91FF910E94F4
:10462000DC222F913F914F915F910C9464230024E1
:104630000A941616170618060906089500240A9407
:1046400012161306140605060895092E0394000C8D
:1046500011F4882352F0BB0F40F4BF2B11F460FF1C
:1046600004C06F5F7F4F8F4F9F4F089557FD905845
:10467000440F551F59F05F3F71F04795880F97FB26
:10468000991F61F09F3F79F08795089512161306E0
:104690001406551FF2CF4695F1DF08C0161617060F
:1046A0001806991FF1CF8695710561050894089544
:1046B000E894BB2766277727CB0197F908950E94D6
:1046C000AF2208F48FEF08950E9477230C942523DE
:1046D0000E94172338F00E941E2320F0952311F02A
:1046E0000C94D3220C94D92211240C9459230E94A7
:1046F000362370F3959FC1F3950F50E0551F629FCD
:10470000F001729FBB27F00DB11D639FAA27F00D2A
:10471000B11DAA1F649F6627B00DA11D661F829F51
:104720002227B00DA11D621F739FB00DA11D621F36
:10473000839FA00D611D221F749F3327A00D611D53
:10474000231F849F600D211D822F762F6A2F112435
:104750009F5750409AF0F1F088234AF0EE0FFF1F68
:10476000BB1F661F771F881F91505040A9F79E3FBF
:10477000510580F00C94D3220C9459235F3FE4F34D
:10478000983ED4F3869577956795B795F795E79515
:104790009F5FC1F7FE2B880F911D9695879597F91E
:1047A0000895FA01EE0FFF1F309621053105A1F1A2
:1047B0006115710561F48038BFE39B0749F1689486
:1047C0009038810561F08038BFEF9B0741F0992355
:1047D0004AF5FF3FE1053105210519F1E8940894F8
:1047E000E795D901AA2329F4AB2FBE2FF85FD0F3A8
:1047F00010C0FF5F70F4A695E0F7F73950F019F09C
:10480000FF3A38F49F779F930DD00F9007FC905894
:10481000089546F00C94D92260E070E080E89FE3B0
:1048200008954FE79F775F934F933F932F930E9495
:1048300005252F913F914F915F910E9464230C9425
:10484000742419F416F40C94D9220C94A6240E9412
:104850003E23B8F39923C9F3B6F39F57550B87FF4F
:104860000E94B4240024A0E640EA900180585695A6
:10487000979528F4805C660F771F881F20F0261715
:104880003707480730F4621B730B840B202931294A
:104890004A2BA69517940794202531254A2758F7C7
:1048A000660F771F881F20F026173707480730F458
:1048B000620B730B840B200D311D411DA09581F7F8
:1048C000B901842F9158880F9695879508950E9475
:1048D000AF22880B990B089529F416F00C94D3227B
:1048E0000C9458230C94D9220E943E23A8F39638A6
:1048F000A0F707F80F92E8942BE33AEA48EB5FE75A
:104900000E947A230F920F920F924DB75EB70F92CB
:104910000E944D25E4EAF0E00E94DC224F915F9175
:10492000EF91FF91E595EE1FFF1F49F0FE57E068FC
:104930004427EE0F441FFA95E1F74195550B0E946D
:10494000C7240F9007FE0C94BB2408959F3F31F0BD
:10495000915020F4879577956795B795880F911DAD
:104960009695879597F9089591505040660F771F57
:10497000881FD2F708959B01AC0160E070E080E8E9
:104980009FE30C94AA210C94D3220C94A6240E9499
:104990003E23D8F39923C9F3940F511DA3F39150EB
:1049A000504094F059F0882332F0660F771F881F2B
:1049B00091505040C1F79E3F51052CF7880F911D33
:1049C0009695879597F908955F3FACF0983E9CF0D7
:1049D000BB27869577956795B79508F4B160939551
:1049E000C1F7BB0F58F711F460FFE8CF6F5F7F4F3F
:1049F0008F4F9F4FE3CF0C94592316F00C94A624AD
:104A00000C94D92268940C94D3220E943E23A8F3DC
:104A10009923C1F3AEF3DF93CF931F930F93FF92CC
:104A2000C92FDD2788232AF02197660F771F881F5B
:104A3000DAF720E030E040E85FEB9FE3883920F0D0
:104A4000803E38F021968F770E941E21ECECF0E03A
:104A500004C00E941E21E9EFF0E00E94DC228B01DD
:104A6000BE01EC01FB2E6F5771097595771F880BFE
:104A7000990B0E94542228E132E741E35FE30E9450
:104A80007723AF2D9801AE01FF900F911F91CF9129
:104A9000DF910E9435210C942523FA01DC01AA0F35
:104AA000BB1F9B01AC01BF5728F4222733274427A3
:104AB000507820C0B75190F4AB2F0024469537951D
:104AC0002795011CA395D2F3002071F0220F331F0C
:104AD000441FB395DAF30ED00C941D21613071059B
:104AE000A0E88A07B94630F49B01AC016627772716
:104AF00088279078309621F0208331834283538336
:104B0000089587FB082E062687FD819567FD619530
:104B10000E94DC250EF4919507FC8195089597FB82
:104B2000072E16F4009407D077FD09D00E94E825DF
:104B300007FC05D03EF4909581959F4F08957095A0
:104B400061957F4F0895052E97FB1EF400940E94F7
:104B5000BA2557FD07D00E94FC2507FC03D04EF470
:104B60000C94BA2550954095309521953F4F4F4F65
:104B70005F4F089590958095709561957F4F8F4F09
:104B80009F4F0895A29FB001B39FC001A39F700DD6
:104B9000811D1124911DB29F700D811D1124911D45
:104BA00008950E94C225A59F900DB49F900DA49FCB
:104BB000800D911D11240895991B79E004C0991F5F
:104BC000961708F0961B881F7A95C9F78095089567
:104BD000AA1BBB1B51E107C0AA1FBB1FA617B70723
:104BE00010F0A61BB70B881F991F5A95A9F780953F
:104BF0009095BC01CD010895A1E21A2EAA1BBB1B02
:104C0000FD010DC0AA1FBB1FEE1FFF1FA217B30798
:104C1000E407F50720F0A21BB30BE40BF50B661FAE
:104C2000771F881F991F1A9469F760957095809572
:104C300090959B01AC01BD01CF010895EF920F93B8
:104C40001F93CF93DF93E80147FD02C034E001C01A
:104C500034E1E42F440FFF0BF7FF03C0F195E1951A
:104C6000F109E32E022F2E2FAE010E94E326CE0182
:104C7000DF91CF911F910F91EF90089566277727CD
:104C80000C947128FC0188279927E89421912032FF
:104C9000E9F3293010F02E30C8F32B3241F02D32D9
:104CA00039F4689404C00E949F26820F911D2191BF
:104CB00020532A30C0F31EF4909581959F4F08959C
:104CC000FB01DC010D900020E9F7119701900D9296
:104CD0000020E1F70895FB0151915523A9F0BF0190
:104CE000DC014D9145174111E1F759F4CD010190D7
:104CF000002049F04D9140154111C9F3FB014111CC
:104D0000EFCF81E090E001970895BB274A3031F45E
:104D1000992322F4BDE2909581959F4F0C94CA2669
:104D2000BB272A3051F4992342F4BDE29095809537
:104D3000709561957F4F8F4F9F4F0C94A8267AE016
:104D4000979F902D879F802D910D11240895BB274B
:104D5000FA01A62F6217710581059105330B30FB0F
:104D600066F0AA27660F771F881F991FAA1FA21730
:104D700010F0A21B63953850A9F7A05DAA3308F084
:104D8000A95DA19336F7B111B1931082CA010C94B9
:104D9000C72ABB27FB015527AA27880F991FAA1FDF
:104DA000A41710F0A41B83955051B9F7A05DAA3346
:104DB00008F0A95DA193009779F7B111B193119211
:104DC000CB010C94C72A4F925F926F927F929F9271
:104DD000AF92BF92CF92DF92EF92FF920F931F9309
:104DE000CF93DF93CDB7DEB729970FB6F894DEBF28
:104DF0000FBECDBF6A01122FB02E2BE3201720F07B
:104E0000FF24F394F00E02C0BCE3FB2E0F2D27E02D
:104E1000AE014F5F5F4F0E94CE29AC018981982F70
:104E20009970913031F0E1FC06C0E0FE06C090E2DE
:104E300005C09DE203C09BE201C090E0EE2DE07151
:104E400083FF3CC0911102C083E001C084E0811760
:104E500018F4212F281B01C020E0E1110BC0F6013E
:104E6000822F30E2882319F031938150FBCFC20E9C
:104E7000D11C20E0992329F0D6019C93F6013196AC
:104E80006F01C6010396E2FE0AC03EE4D6013C93E0
:104E900041E411964C93119712963C9306C03EE65E
:104EA000F601308341E641833283FC01322F40E238
:104EB000332309F442C041933150FACF82FF44C0FA
:104EC000911102C083E001C084E0811718F4212F02
:104ED000281B01C020E0E1110BC0F601822F30E257
:104EE000882319F031938150FBCFC20ED11C20E0F2
:104EF000992329F0D6019C93F60131966F01C601E2
:104F00000396E2FE0BC039E4D6013C933EE41196D1
:104F10003C93119736E412963C9307C039E6F601AC
:104F200030833EE6318336E63283FC01322F40E2A5
:104F3000332319F041933150FBCFFC01E20FF11DF7
:104F400010828EEF9FEFB7C0F1E0911101C0F0E049
:104F50006F2F70E01416150624F49A012F5F3F4F4F
:104F600002C021E030E0260F371FBB2029F06B2D57
:104F700070E06F5F7F4F02C060E070E0260F371F68
:104F8000612F70E0261737071CF4121B212F01C078
:104F900020E03E2D387159F4D601322F60E23323E0
:104FA00019F06D933150FBCFC20ED11C20E0FF23CE
:104FB00031F0D6019C93B6016F5F7F4F6B01E11119
:104FC0000BC0F601922F30E3992319F031939150E1
:104FD000FBCFC20ED11C20E09F2D940F3A81782F79
:104FE0007071A72E84FF03C0313309F49150191654
:104FF00024F4993018F098E001C091E0E42F852F57
:1050000057FF02C0E0E080E06E2F782FE0E0F0E094
:10501000AEE29A2E3A01691A71082A01461A570A15
:105020000B2D10E01195019511096F3F8FEF780757
:1050300029F4D6019C92C60101966C0146175707C8
:1050400084F0661677066CF47F01E40CF51CA1E091
:10505000B0E0AC0FBD1FEA0EFB1ED7011196BC904D
:1050600002C090E3B92E615071093196C6010196D4
:105070007C016017710724F0D601BC926C01D5CF7A
:105080006417750741F4363320F4353321F4A11049
:1050900002C081E3B82EF601B082F701822F90E2C0
:1050A000882319F091938150FBCFF701E20FF11D96
:1050B000108280E090E029960FB6F894DEBF0FBE14
:1050C000CDBFDF91CF911F910F91FF90EF90DF90B7
:1050D000CF90BF90AF909F907F906F905F904F90D8
:1050E0000895A0E0B0E0E7E7F8E20C94172BEC019C
:1050F0007B016115710519F0DB018D939C938E0185
:105100000F5F1F4F7880872D90E00E94A62A892B81
:1051100011F0E801F4CFBDE27B1205C00F5F1F4F15
:105120007980C1E008C0EBE27E1204C08E010E5F00
:105130001F4F7980C0E06801F1E0CF1AD10843E049
:1051400050E06EE271E0C6010E94AF2A892BF1F4B3
:10515000680122E0C20ED11C45E050E069E271E036
:10516000C6010E94AF2A892B21F4680187E0C80E8E
:10517000D11CE114F10419F0D701CD92DC92C111D8
:10518000FFC060E070E080E89FE703C143E050E0CB
:1051900066E271E0C6010E94AF2A892B51F4E11446
:1051A000F10409F4F2C00E5F1F4FF7011183008371
:1051B000ECC0680160E070E0CB0100E010E0F601B7
:1051C000D0EDD70DDA3058F52C2F2260622E2C2F1F
:1051D0002870C2FF05C0211128C00F5F1F4F25C0D6
:1051E000222311F001501109A5E0B0E09B01AC01B0
:1051F0000E94D1254B015C01880C991CAA1CBB1C88
:10520000C501B4016D0F711D811D911D6839A9E99A
:105210007A078A07A9E19A0740F0C66005C0DE3F19
:1052200051F4C3FD44C0C8606C2EBFEFCB1ADB0A3B
:105230007080C62DC4CF2D2F2F7D2531C1F5408123
:105240004D3211F4C06106C04B3221F0319621E09D
:1052500030E006C03296D60111964C9122E030E043
:10526000A0EDA40FAA3018F0E21BF30B20C040E021
:1052700050E04038BCE05B075CF49A01220F331F1A
:10528000220F331F420F531F440F551F4A0F511D4A
:105290003196DF0111972C91A0EDA20FAA3048F3AF
:1052A000C4FF03C0519541955109040F151FC1FF5B
:1052B00007C0E114F10421F03197D701ED93FC937D
:1052C0000E945222C370C33019F06B017C0106C0EA
:1052D0006B017C01F7FAF094F7F8F09420E030E0ED
:1052E000A901C701B6010E94A521882309F445C080
:1052F00017FF06C0119501951109C5E4D1E002C060
:10530000CDE5D1E05E01B8E1AB1AB1084601BE2D92
:10531000AF2D90E2E92EF12C0E151F0584F0FE0151
:105320002591359145915491B4018B2F9A2F0E946C
:1053300064234B01B82FA92F0E191F09EDCF249715
:10534000F594E794CA15DB0539F76401EB2EFA2EC4
:105350008E2D880F8F2D881F8F3F49F020E030E081
:10536000A901C701B6010E94A521811106C082E2F0
:1053700090E090934C0580934B05C701B60109C09E
:1053800060E070E080E89FEF04C060E070E080ECD7
:105390009FE7CDB7DEB7EEE00C94332B283008F052
:1053A00027E03327DA01990F311D87FD91600096C0
:1053B0006105710539F432602E5F3D9330E32A9523
:1053C000E1F708959F3F30F080387105610509F0DD
:1053D0003C5F3C5F3D93913008F08068911DDF9306
:1053E000CF931F930F93FF92EF92192F987F96956B
:1053F000E92F96959695E90FFF27E554FE4F9927DB
:105400003327EE24FF24A701E701059008940794B1
:1054100028F4360FE71EF81E491F511D660F771F2F
:10542000881F991F0694A1F70590079428F4E70EAA
:10543000F81E491F561FC11D770F881F991F661F31
:105440000694A1F70590079428F4F80E491F561FFB
:10545000C71FD11D880F991F661F771F0694A1F7DC
:105460000590079420F4490F561FC71FD81F990FA6
:10547000661F771F881F0694A9F7849110951770EF
:1054800041F0D695C79557954795F794E7941A95A7
:10549000C1F7E1E6F1E068941590159135916591B9
:1054A000959105907FE27395E118F10A430B560B35
:1054B000C90BD009C0F7E10CF11E431F561FC91FCD
:1054C000D01D7EF4703311F48A95E6CFE894015034
:1054D00030F0080F0AF40027021708F4202F239554
:1054E000022F7A3328F079E37D932A95E9F710C0EB
:1054F0007D932A9589F60694979567953795179524
:105500001794E118F10A430B560BC90BD00998F018
:1055100023957E9173957A3308F070E37C93201382
:10552000B8F77E9170617D9330F0839571E37D9340
:1055300070E32A95E1F71124EF90FF900F911F91EE
:10554000CF91DF91992787FD9095089591110C9443
:10555000D72A803219F089508550C8F70895FB0189
:10556000DC014150504088F08D9181341CF08B3526
:105570000CF4805E659161341CF06B350CF4605E58
:10558000861B611171F3990B0895881BFCCFDC0118
:10559000FC01672F71917723E1F7329704C07C916A
:1055A0006D9370836291AE17BF07C8F30895992772
:1055B00088270895F999FECF92BD81BDF89A992761
:1055C00080B50895A6E1B0E044E050E00C94052BCE
:1055D000262FF999FECF1FBA92BD81BD20BD0FB60F
:1055E000F894FA9AF99A0FBE01960895242F0E9412
:1055F000E92A252F0E94E92A0C94FE2A0E94E82A13
:10560000272F0C94E92ADC01CB01FC01F999FECF8C
:1056100006C0F2BDE1BDF89A319600B40D9241503A
:105620005040B8F708952F923F924F925F926F9239
:105630007F928F929F92AF92BF92CF92DF92EF9222
:10564000FF920F931F93CF93DF93CDB7DEB7CA1BA3
:10565000DB0B0FB6F894DEBF0FBECDBF09942A88CE
:10566000398848885F846E847D848C849B84AA8476
:10567000B984C884DF80EE80FD800C811B81AA8103
:10568000B981CE0FD11D0FB6F894DEBF0FBECDBFCE
:10569000ED010895F894FFCF00007A445000007A9D
:1056A000440000803F000000000000803F2C006D9F
:1056B000696E5F6C00686F75725F6C00625F62613B
:1056C000636B00646973705F756E697474705F6C8E
:1056D00000646973705F756E697474705F620073E3
:1056E000706565645F756E69740074656D705F7672
:1056F000616C0073706565645F76616C00636865FA
:10570000636B5F6F7666006F76665F7468720073B6
:105710006C5F72656C617900625F6F6E00625F6FD3
:1057200066660063617061635F74787400745F61C2
:1057300072656100745F73616D706C653300745FD6
:1057400073616D706C653200745F73616D706C6550
:105750003100705F73616D706C6500625F72656DC2
:105760006F766500625F707265765F63756E6974EF
:1057700000625F6E6578745F63756E697400625F66
:10578000707265765F7000625F6E6578745F70003E
:1057900063616C756E69740063616C5F6C616265F6
:1057A0006C0073656C65637465645F706F696E74BB
:1057B00000706F696E745F6C6162656C00625F633C
:1057C0006F6E6669726D003132003131006C6F634B
:1057D0006B5F696D67006C6F636B65640064697310
:1057E000705F756E6974007065616B5F76616C00E7
:1057F0006E756D006E65775F63616C696200645FF2
:1058000076616C756500645F76616C75655F6C616F
:1058100062656C0039003800370035003400330011
:10582000320031002E7069633D002E70636F3D00C1
:105830002E76616C3D002E7478743D00FFFFFF00F2
:1058400076697320007061676520007265662000CC
:105850006F6B00476F20746F20706167653A20009E
:1058600073616D706C65310073616D706C653200D1
:1058700073616D706C6533006E657763616C006396
:10588000617061636974790063616C6962726174EB
:10589000696F6E2E746F74616C5F706F696E747374
:1058A00000544F47474C45204C4F434B0A002D2D89
:1058B000002B2B004F766572666C6F772050726FED
:1058C00074656374696F6E204D6F64653A20004F94
:1058D000766572666C6F772050726F746563746959
:1058E0006F6E205468726573686F6C643A2000258F
:1058F0000A0053656D2063616C69627261E7E36F52
:1059000000506F6E746F2000206465200043616C4E
:1059100020556E69743A20005365742050616765A4
:105920003A2000436F6D6D616E6420427566666556
:10593000723A0A004D5061000000000000007073D0
:1059400069000000000000006B67662F6D6D32007B
:1059500000004E2F6D6D3200000000006B67660086
:1059600000746600000067660000004E0000000042
:105970006B4E0000006C6266000072656164790A1B
:1059800000636C6B3D006D696E3D00686F75723D24
:1059900000636C706B007A65726F006F7666636887
:1059A0006B3D006F76667063743D006F76666D6F59
:1059B00064653D006676616C3D00667661723D000F
:1059C00064656C703D0073616D706C653D00706F57
:1059D000696E743D0063616C3D00676F746F3D00DC
:1059E000706C6F636B00646973705F756E69745F70
:1059F000743D00646973705F756E69743D00636126
:105A00006C5F756E69743D00706167653D00756E11
:105A100069743D00FFFFFFFFFFFFFFFFFFFFFFFF78
:00000001FF
