S0100000536F6C7574696F6E2E73726563B7
S11300000C942E010C944B010C944B010C944B0159
S11300100C944B010C944B010C944B010C944B012C
S11300200C944B010C944B010C944B010C944B011C
S11300300C944B010C944B010C944B010C944B010C
S11300400C944B010C944B010C948D100C944B01AB
S11300500C944B010C944B010C944B010C944B01EC
S11300600C944B010C944B01036EDB363D9A999929
S1130070993DABAAAA2A3E000000803F072C7AA52E
S1130080BA6CC590DA3B9365FC8BBC53F810FD3C0D
S11300905692834DBD879D3AB63DCBC9BF5BBE73B7
S11300A0DA0FC93F07634236B79BD8A71A39685697
S11300B018AEBAAB558C1D3CB7CC5763BD6DEDFD86
S11300C0753EF6177231BF000000803F0800000043
S11300D0BE922449123EABAAAA2ABECDCCCC4C3E39
S11300E000000080BEABAAAAAA3E00000000BF0028
S11300F00000803F0000000000084178D3BB438724
S1130100D1133D190E3CC3BD4282AD2B3E68EC8237
S113011076BED98FE1A93E4C80EFFFBE01C4FF7FBC
S11301203F00000000004E414E494E495459494E8B
S113013046CDCCCC3D0AD7233C17B7D13877CC2B4E
S1130140329595E6241FB14F0A000020410000C8F3
S11301504200401C4620BCBE4CCA1B0E5AAEC59D74
S11301607400407A10F35A00A0724E18090010A5CA
S1130170D4E80000E87648170000E40B54020000BD
S1130180CA9A3B000000E1F5050000809698000043
S11301900040420F000000A086010000001027006C
S11301A0000000E803000000006400000000000AF2
S11301B000000000000100000000002C76D888DC5C
S11301C0674F0823DFC1DFAE59E1B1B796E5E3E439
S11301D053C63AE651997696E8E6C28426EB898CB2
S11301E09B62ED407C6FFCEFBC9C9F40F2BAA56F14
S11301F0A5F490055A2AF75C936B6CF9676DC11BE3
S1130200FCE0E40D47FEF520E6B500D0ED902E03AA
S113021000943577050080841E080000204E0A00F3
S11302200000C80C333333330F986E12831141EF3F
S11302308D2114893BE65516CFFEE6DB18D1844B9D
S1130240381BF77C1D901DA4BBE424203284725E0D
S1130250228100C9F124ECA1E53D270011241FBE31
S1130260CFEFD8E0DEBFCDBF13E0A0E0B1E0E8E817
S1130270F7E302C005900D92A03AB107D9F724E044
S1130280A0EAB3E001C01D92AC35B207E1F70E94C9
S113029077010C94C21B0C94000097B1976097B936
S11302A03B9898B19A6098B942988111409A089500
S11302B03399FECF28E160E070E0CB01429A35E249
S11302C03A95F1F74298660F771F881F991F339963
S11302D0616035E23A95F1F7215081F7429A25E2BF
S11302E02A95F1F7429835E23A95F1F708950E947C
S11302F0D90E0E94210F8091BD03813059F40E94D0
S1130300030A2FEF8FEA91E0215080409040E1F7FB
S113031000C000008091BD03843059F70E948D070E
S11303202FEF8FEA91E0215080409040E1F700C028
S11303300000DFCFEF92FF920F931F93CF93DF93D1
S11303408C01E62E82E090E00E94461BE80100E06A
S113035010E0F12CFE14A9F0488159816A817B8157
S1130360C80103960E94541B4C815D816E817F817C
S1130370C80107960E94541BF3942896085F1F4FE8
S1130380E9CFDF91CF911F910F91FF90EF900895E6
S1130390682F83E590E00C94461B682F80E090E082
S11303A00C94461B682F81E090E00C94461B682F48
S11303B084E590E00C94461BCF93DF93C1EAD3E02D
S11303C0488159816A817B8185E590E00E94541BB4
S11303D04C815D816E817F8189E590E00E94541B90
S11303E0488559856A857B858DE590E00E94541B7C
S11303F04091050150910601609107017091080137
S113040081E690E0DF91CF910C94541B409101015F
S113041050910201609103017091040185E690E01E
S11304200C94541B6091A00389E690E00E94461B43
S1130430609100018AE690E00C94461B80E090E015
S11304400E94381B883018F48093BB0302C01092BA
S1130450BB038091BB03089584E590E00E94381BA0
S1130460863018F48093AD0302C01092AD038091DE
S1130470AD030895CF92DF92EF92FF920F931F93F3
S1130480CF93DF9301EA13E0C5E5D0E0C12CD12C72
S113049080E8E82E8FE3F82ECE010E94401BF8017D
S11304A060837183828393839B01AC010E94041552
S11304B0882329F0F801C082D182E282F382249653
S11304C00C5F1F4FC136D10539F781E690E00E94D9
S11304D0401B6B017C019B01AC010E94041581113E
S11304E013C02CEA35EC47E257E3C701B6010E947A
S11304F0471287FD09C0C0920501D0920601E0921F
S11305000701F09208010CC080E090E0A0E8BFE38E
S11305108093050190930601A0930701B09308010D
S1130520DF91CF911F910F91FF90EF90DF90CF90CB
S1130530089585E690E00E94401B6093010170934A
S1130540020180930301909304019B01AC010E947A
S11305500415882361F080E090E0AAE7B4E4809376
S1130560010190930201A0930301B0930401089543
S113057089E690E00E94381B823018F48093A0032F
S113058002C01092A0038AE690E00E94381B8536D0
S113059008F080E580930001089582E090E00E94D5
S11305A0381B8B3018F48093B80302C01092B80340
S11305B08091B803089583E590E00E94381B883049
S11305C018F48093B70302C01092B7038091B70365
S11305D00895CF92DF92EF92FF92CF93DF9398E04A
S11305E0899FE0011124CE0103960E94401B6B01F8
S11305F07C01CE0107960E94401BC051DC4FC8828B
S1130600D982EA82FB826C837D838E839F83DF9110
S1130610CF91FF90EF90DF90CF9008952F923F926B
S11306204F925F926F927F928F929F92AF92BF92FE
S1130630CF92DF92EF92FF920F931F93CF93DF93AA
S1130640CDB7DEB72C970FB6F894DEBF0FBECDBF83
S11306502B013C018A01190120E030E0A9010E942C
S1130660471287FF0AC08DE2F801808377FA7094FD
S113067077F870948824839401C0812CC301B2015B
S11306800E94BE126B017C010E94F6129B01AC0118
S1130690C301B2010E94BF112B013C01912CCE0178
S11306A001965C01C114D104E104F104A9F0F5013F
S11306B0E90DF11DFC87EB87C701B6012AE030E0A4
S11306C040E050E00E944616605DEB85FC85608347
S11306D069017A019394E6CF911004C080E3898381
S11306E099249394F501E90DF11D882DEA15FB0574
S11306F039F0D801A80FB11D92919C938F5FF6CF6A
S1130700980CF801E90DF11D8CE280839394D12CAF
S11307108D2D90E0E92CF12C8215930518F520E03D
S113072030E040E251E4C301B2010E9401142B0104
S11307303C010E94BE12F801EE0DFF1D20E3260FBE
S11307402083072E000C880B990B0E94F6129B0144
S1130750AC01C301B2010E94BF112B013C01D3942F
S11307609394D6CFF801EE0DFF1D1082C8012C968C
S11307700FB6F894DEBF0FBECDBFDF91CF911F91AE
S11307800F91FF90EF90DF90CF90BF90AF909F902C
S11307908F907F906F905F904F903F902F9008952F
S11307A09C0190E0F901E90FF11D8081882339F063
S11307B0861303C0408381E008959F5FF3CF0895BB
S11307C0CF93DF93EC010E942F050E94C11086E3B2
S11307D092E00E94C910CE010E94C9108DE292E0FD
S11307E00E94C9100E942B058FEF9BE60197F1F739
S11307F000C0000080E0DF91CF9108950F931F9314
S1130800CF93DF931F92CDB7DEB78C0169830E942B
S11308102F050E94C11081E392E00E94C910C80113
S11308200E94C91089E091E00E94C9106981862F55
S11308300E947F108DE292E00E94C9100E942B0555
S11308408FEF9BE60197F1F700C0000080E00F9066
S1130850DF91CF911F910F91089560E30C94FE03F3
S113086061E30C94FE030F931F93CF93DF9300D0A7
S1130870CDB7DEB78B0189839A830E942F050E942E
S1130880C11089819A810E94C91087E292E00E9476
S1130890C91082E20E947F10C8010E94C91082E23E
S11308A00E947F108DE292E00E94C9100E942B05E5
S11308B08FEF9BE60197F1F700C0000080E00F90F6
S11308C00F90DF91CF911F910F9108950F931F9374
S11308D0CF93DF9300D0CDB7DEB78B0189839A83A2
S11308E00E942F050E94C11089819A810E94C9101B
S11308F081E292E00E94C910C8010E94C9108DE2F1
S113090092E00E94C9100E942B058FEF9BE601978D
S1130910F1F700C0000080E00F900F90DF91CF91BD
S11309201F910F9108950F931F93CF93DF93CDB72A
S1130930DEB760970FB6F894DEBF0FBECDBF8C0153
S1130940862F4AE0BE016F5F7F4F90E00E94271719
S1130950BE016F5F7F4FC8010E94660460960FB6A8
S1130960F894DEBF0FBECDBFDF91CF911F910F91E1
S113097008950F931F93CF93DF93CDB7DEB760979E
S11309800FB6F894DEBF0FBECDBF8C01CB01BA0108
S11309902AE0AE014F5F5F4F0E94EE16BE016F5F0B
S11309A07F4FC8010E94660460960FB6F894DEBFBC
S11309B00FBECDBFDF91CF911F910F9108950F937B
S11309C01F93CF93DF9300D0CDB7DEB78B0189831C
S11309D09A830E942F050E94C11089819A810E94E6
S11309E0C9108BE192E00E94C910C8010E94C9108D
S11309F08DE292E00E94C9100E942B058FEF9BE6C6
S1130A000197F1F700C0000080E00F900F90DF9194
S1130A10CF911F910F9108950F931F93CF93DF935D
S1130A2000D01F92CDB7DEB78C01862F4AE0BE01FD
S1130A306F5F7F4F90E00E942717BE016F5F7F4F6B
S1130A40C8010E94DF040F900F900F90DF91CF91A7
S1130A501F910F9108958FB780688FBF08958FB746
S1130A608F778FBF0895CF93DF93EC01259640E0F5
S1130A706BE3CE010E94D003CE010E94AB1690918D
S1130A80BD03981741F08FEF8093BD03CE01DF9132
S1130A90CF910C94E003DF91CF910895CF93DF932E
S1130AA0EC0125966CE372E0CE010E94D416892BEA
S1130AB019F081EA93E009C064E472E0CE010E9477
S1130AC0D416892B49F085EA93E0909341048093EE
S1130AD0400486EA9EE027C06CE472E0CE010E94E6
S1130AE0D416892B19F089EA93E0EFCF64E572E01C
S1130AF0CE010E94D416892B39F08EEA93E09093AC
S1130B0041048093400413C06BE572E0CE010E945F
S1130B10D416892B61F081E091E090934104809395
S1130B20400487E19BE09093C1038093C003DF916D
S1130B30CF9108958F929F92AF92BF92CF92DF92FE
S1130B40EF92FF92CF93DF93CDB7DEB728970FB61E
S1130B50F894DEBF0FBECDBF84E692E00E94AC11D4
S1130B6080E048E03091B803831708F049C051E0B1
S1130B70580F282F952F9317E1F068E0969FD00126
S1130B801124A051BC4F68E0269FF0011124E051CC
S1130B90FC4F8D909D90AD90BC90C080D180E28040
S1130BA0F3808C149D04AE04BF0408F4292F9F5FC6
S1130BB0E2CF281719F138E0839FC0011124805136
S1130BC09C4FFC01DE011196342F01900D923A9551
S1130BD0E1F768E0269F9001112420513C4FF90170
S1130BE0DC01842F01900D928A95E1F7FE01319684
S1130BF0D901842F01900D928A95E1F7852FB2CF08
S1130C0081E792E028960FB6F894DEBF0FBECDBF01
S1130C10DF91CF91FF90EF90DF90CF90BF90AF9096
S1130C209F908F900C94AC114F925F926F927F9231
S1130C30BF92CF92DF92EF92FF920F931F93CF93C5
S1130C40DF93E090B803F12CB12C8B2D90E08C0154
S1130C500F5F1F4F0E151F050CF043C09C01220FA0
S1130C60331F220F331FA9014E535C4F6A0153E017
S1130C70000F111F5A95E1F700511C4F63E0880FD4
S1130C80991F6A95E1F7EC01C051DC4F2C813D813D
S1130C904E815F81F80164817581868197810E940C
S1130CA0BF112B013C01F80180819181A281B381A4
S1130CB0088119812A813B81BC01CD01601B710B24
S1130CC0820B930B0E94F4129B01AC01C301B2018D
S1130CD00E944C12F6016083718382839383B394E0
S1130CE0B4CFDF91CF911F910F91FF90EF90DF90E0
S1130CF0CF90BF907F906F905F904F900895A82FF2
S1130D00B0E08091B803E82FF0E03197AE17BF0749
S1130D109CF493E0AA0FBB1F9A95E1F7A051BC4F36
S1130D2023E0EE0FFF1F2A95E1F7E051FC4F98E016
S1130D3001900D929A95E1F781508093B80308953C
S1130D40FC019091B8039923B1F08581891798F437
S1130D500E947F068091B90381508093B9030E9459
S1130D609A056091B80380EF93E00E949A0185E1AF
S1130D7092E00C94E0030895CF93DF93CDB7DEB7F0
S1130D8028970FB6F894DEBF0FBECDBF29833A83F0
S1130D904B835C836D837E838F839887A091B80394
S1130DA081E08A0F8093B80388E0A89FD0011124C2
S1130DB0A051BC4F88E0FE01319601900D928A95B6
S1130DC0E1F728960FB6F894DEBF0FBECDBFDF91D2
S1130DD0CF9108958F929F92AF92BF92CF92DF925C
S1130DE0EF92FF920F931F93CF93DF93CDB7DEB7AC
S1130DF068970FB6F894DEBF0FBECDBFFC0180919B
S1130E00B8038A3008F04AC0F480B580C680D78021
S1130E108F01085F1F4F40E06BE3C8010E94D003BD
S1130E20C8010E94A716E62E872E982EA92E2AE026
S1130E30AE014F5F5F4F6F2D7B2DC6010E940517DA
S1130E408DE792E00E94AC11CE0101960E94AC1194
S1130E508DE892E00E94AC11C8010E94AC118BE7AE
S1130E6092E00E94AC112F2D4E2D582D692D7A2D14
S1130E704D8B5E8B6F8B788F3B2DA6016E2D7E89FB
S1130E808F89988D0E94BC060E949A050E941406C0
S1130E906091B80380EF93E00E949A0185E192E0AB
S1130EA00E94E00368960FB6F894DEBF0FBECDBF74
S1130EB0DF91CF911F910F91FF90EF90DF90CF9032
S1130EC0BF90AF909F908F900895FC0185810C9402
S1130ED0CD01CF930E9499020E94B8020E942C0275
S1130EE00E943A020E941E020E94DB020E94CD026E
S1130EF06091B8038CE992E00E949304C0E0809171
S1130F00B803C81728F48C2F0E94E902CF5FF7CFEB
S1130F100E949A05CF910C941406CF93DF93CDB71A
S1130F20DEB72A970FB6F894DEBF0FBECDBF80910F
S1130F30B203811123C00E9458016093B3037093DC
S1130F40B4038093B5039093B6032AE0AE014F5FD8
S1130F505F4F0E940517BE016F5F7F4F81E092E0F3
S1130F600E9433044091B3035091B4036091B503DC
S1130F707091B60389EF91E00E94B9042A960FB6E6
S1130F80F894DEBF0FBECDBFDF91CF9108950F93CC
S1130F901F93CF93DF93CDB7DEB72A970FB6F8949C
S1130FA0DEBF0FBECDBF8091B203811134C00E9459
S1130FB058016093B3037093B4038093B503909383
S1130FC0B6032AE0AE014F5F5F4F0E940517BE01D2
S1130FD06F5F7F4F81E092E00E9433044091B3033E
S1130FE05091B4036091B5037091B60389EF91E019
S1130FF00E94B9046CE772E08FEE91E00E94330422
S11310006BEC71E081ED91E00E94DF0481EC91E0F2
S11310100E942D041EC06091AE037091AF038091B5
S1131020B0039091B1038E010F5F1F4F22E04AE09D
S11310300E948716B8018FEE91E00E9433046EEC93
S113104071E081ED91E00E94DF0481EC91E00E9467
S113105030042A960FB6F894DEBF0FBECDBFDF91E1
S1131060CF911F910F910895CF93DF9300D01F92DA
S1131070CDB7DEB78091B20390E0019681709927D5
S11310808093B2034AE0BE016F5F7F4F0E9427172F
S1131090BE016F5F7F4F8AED91E00E9466040E945B
S11310A0C7070F900F900F90DF91CF910895CF92C3
S11310B0DF92EF92FF920F931F93CF93DF93AB01D5
S11310C0BC018091F0039091F103A091F203B091DF
S11310D0F30384179507A607B70728F59091B8037B
S11310E088E0989FF0011124E851FC4F00811181A0
S11310F022813381041715072607370720F0E0EF14
S1131100F3E080E00EC08EEF890F0EC038960081A8
S1131110118122813381041715072607370720F42C
S11311208F5F8913F3CF80E090E08C0123E0000F00
S1131130111F2A95E1F700511C4F880F991F880F42
S1131140991FEC01CE53DC4FF80180819181A2817B
S1131150B3816A017B01C81AD90AEA0AFB0AC701EA
S1131160B6010E94F612288139814A815B810E946E
S11311700114F80124813581468157810E94C011F0
S1131180DF91CF911F910F91FF90EF90DF90CF905F
S11311900895861709F440C06330D9F06530F1F042
S11311A0643009F1623021F1613039F1673051F175
S11311B0663069F1611130C0682F80E00E94C9086F
S11311C09B01AC0160E070E080E89FE30E944C1258
S11311D008956AE078EE8CE191E4089562E17CEA96
S11311E080E29CE308956DED7CE08BE79FE3089536
S11311F060E070E08AE794E4089567E177EB81EDBD
S113120098E3089560E97BE68FE699E408956EE734
S113121078E18DE090E4089560E070E080E89FE379
S11312200895CF92DF92EF92FF92CF936B017C01EE
S1131230C22F222319F0411111C040E06C2F842FDA
S11312400E94C9089B01AC01C701B6010E940114A8
S1131250CF91FF90EF90DF90CF90089520E00E940F
S113126011096B017C01E9CF8617F9F06330E9F0CD
S1131270613089F06230A1F0611117C0682F80E0FD
S11312800E9434099B01AC0160E070E080E89FE3B8
S11312900E944C12089569EA79E081E193E408958B
S11312A06FE776ED80ED9DE3089560E070E080E8FF
S11312B09FE30895CF92DF92EF92FF92CF936B0159
S11312C07C01C22F222319F0411111C040E06C2F80
S11312D0842F0E9434099B01AC01C701B6010E940E
S11312E00114CF91FF90EF90DF90CF90089520E00C
S11312F00E945A096B017C01E9CFCF93DF9300D0A0
S1131300CDB7DEB72A8349830E9457082A814981D1
S11313100F900F90DF91CF910C9411098F929F92AF
S1131320AF92BF92EF920F931F93CF93DF931F92CD
S1131330CDB7DEB74801590149830E94570823E01D
S113134049810E941109A50194010E944C122E2D7D
S113135040E00F90DF91CF911F910F91EF90BF90DC
S1131360AF909F908F900C945A098091BC03811187
S113137009C06091BB0385E0689FB00111246050EF
S11313807D4F08C06091BA038AE0689FB0011124C0
S113139068527D4F81EE91E00C943304EF920F93E9
S11313A01F938091B803823030F10E9458016093FA
S11313B0B3037093B4038093B5039093B603209161
S11313C0BC03211109C02091BB034091B7031F91B5
S11313D00F91EF900C947D09009105011091060185
S11313E02091070130910801E090BA034091B703BE
S11313F00E948E0904C060E070E080EC9FE71F91BA
S11314000F91EF900895CF92DF92EF92FF920F9396
S11314101F93CF93DF93CDB7DEB72C970FB6F89415
S1131420DEBF0FBECDBF8E010F5F1F4F8CE0F801F2
S113143011928A95E9F70E94CE096B017C019B0108
S1131440AC010E940415811109C022E030E0A8011A
S1131450C701B6010E940E03B80102C065EB72E039
S11314608BEE91E00E9433042C960FB6F894DEBF05
S11314700FBECDBFDF91CF911F910F91FF90EF90E1
S1131480DF90CF9008950E94B5090C94030ACF937E
S1131490DF93EC018091BC0365EB72E081111EC007
S11314A0CE010E94D416892B29F08091BB0390E0D1
S11314B007960BC068EB72E0CE010E94D416892B0C
S11314C041F08091BB0390E009968770992780933F
S11314D0BB038091BB030E94CD011DC0CE010E94BD
S11314E0D416892B29F08091BA0390E003960BC09F
S11314F068EB72E0CE010E94D416892B41F08091F2
S1131500BA0390E00596837099278093BA0380917B
S1131510BA030E94D201DF91CF910C94430A0F9336
S11315201F93CF93DF93CDB7DEB72A970FB6F89406
S1131530DEBF0FBECDBF8E010F5F1F4F8AE0F801E3
S113154011928A95E9F760910101709102018091ED
S113155003019091040121E030E0A8010E940E03F0
S1131560B80187E291E00E9433046091B703F5E08B
S11315706F9FB001112460507D4F84E991E00E9477
S113158033042091A00330E02F5F3F4F21703327B5
S113159069E0620F81E291E00E940C056091A00372
S11315A06170675F8CE191E00E940C05409100013D
S11315B050E060E070E083E191E00E94B904809122
S11315C000014AE0B80190E00E9427176BEB72E03B
S11315D0C8010E94C916B8018BE091E00E9433044F
S11315E02A960FB6F894DEBF0FBECDBFDF91CF9120
S11315F01F910F910895CF93DF93EC01289640E05B
S11316006BE3CE010E94D003CE010E94AB168093FF
S1131610A0030E941202DF91CF910C948F0AFC0167
S11316208781809300010E9412020C948F0A0E9409
S113163006020C948F0AEF92FF920F931F93CF939D
S1131640DF93CDB7DEB768970FB6F894DEBF0FBE51
S1131650CDBF8091B803811107C06DEB72E085EBBB
S113166091E00E9433045EC0CE0101967C0184E1C6
S1131670F70111928A95E9F78091B90390E04AE065
S1131680BE016B5E7F4F01960E9427176CEC72E0DF
S1131690C7010E94C916BE016B5E7F4FC7010E943D
S11316A0C91663ED72E0C7010E94C9168091B803A0
S11316B04AE0BE016B5E7F4F90E00E942717BE0197
S11316C06B5E7F4FC7010E94C916B70185EB91E09D
S11316D00E9433046091B90386EA91E00E94930466
S11316E0E091B90388E0E89FF0011124E051FC4F38
S11316F06481758186819781870122E049E00E9497
S11317008716B7018CE991E00E94330482E891E0E6
S11317100E9430048BE891E00E9430048FE591E050
S11317200E9430046091B70395E0699FB0011124D1
S113173060507D4F84E991E00E94330488E691E093
S11317400E94300485E791E00E94300468960FB649
S1131750F894DEBF0FBECDBFDF91CF911F910F91E3
S1131760FF90EF9008950F931F93CF93DF93D09141
S1131770B903C091B803CC23F9F08C0165EB72E096
S11317800E94D416892B31F06C2F70E08D2F90E0DD
S113179001970CC068EB72E0C8010E94D416892B33
S11317A059F06C2F70E08D2F90E00196860F971FF3
S11317B00E9432168093B9038091B903D81731F08F
S11317C0DF91CF911F910F910C941B0BDF91CF915F
S11317D01F910F910895CF93DF93EC0165EB72E0B5
S11317E00E94D416892B29F08091B70390E00796C4
S11317F00BC068EB72E0CE010E94D416892B41F035
S11318008091B70390E00996877099278093B70376
S11318108091B7030E94C801DF91CF910C941B0BF8
S11318204F925F926F927F928F929F92AF92BF92EC
S1131830CF92DF92EF92FF920F931F93CF93DF9398
S1131840CDB7DEB768970FB6F894DEBF0FBECDBF35
S11318504A015B0128013901811103C09A01AB01DE
S113186004C0813029F4A9019801C501B40123C041
S1131870823059F42BED3FE049E45FE3C501B40144
S11318800E940114A501940116C08330B9F42BED14
S11318903FE049E450E4C301B2010E9401146B012A
S11318A07C01A3019201C501B4010E94BF119B01F7
S11318B0AC01C701B6010E940114C6C0843009F00E
S11318C0BFC020E030E040E85EE3C701B6010E94FB
S11318D001146D837E838F839887A5019401C501CC
S11318E0B4010E94011469877A878B879C87A701BA
S11318F09601C701B6010E94011469837A838B8320
S11319009C839B01AC0169857A858B859C850E94AB
S1131910BF1120E030E040E05FE30E946E14698B69
S11319207A8B8B8B9C8BA5019401C701B6010E9415
S11319304C120E942C126D877E878F87988BA3018F
S11319409201C301B2010E94C0119B01AC01C50107
S1131950B4010E94BF114B015C019B01AC010E94C8
S1131960011429813A814B815C810E94BF1120E0DE
S113197030E040E05FE30E946E146D8B7E8B8F8BB2
S1131980988F20E030E040E05FE3C501B4010E949D
S1131990011469837A838B839C83A5019401C70115
S11319A0B6010E944C120E942C124B015C01298941
S11319B03A894B895C896D817E818F8198850E94EB
S11319C001142B013C0120E030E040E85EE369852E
S11319D07A858B859C850E9401142D853E854F85D3
S11319E058890E9401149B01AC01C301B2010E94F9
S11319F0C0112B013C012D893E894F89588D6D8181
S1131A007E818F8198850E9401149B01AC01C301E2
S1131A10B2010E94BF112B013C0129813A814B8103
S1131A205C81CA01B9010E940114A50194010E94BC
S1131A3001149B01AC01C301B2010E94BF1104C097
S1131A4060E070E080E89FE368960FB6F894DEBF2C
S1131A500FBECDBFDF91CF911F910F91FF90EF90FB
S1131A60DF90CF90BF90AF909F908F907F906F90BA
S1131A705F904F9008950F931F93CF93DF93CDB74B
S1131A80DEB72A970FB6F894DEBF0FBECDBF6091C4
S1131A90AD03615F86E591E00E940C058091AD0382
S1131AA0982F9D7F29F48CE491E00E9430041EC09D
S1131AB0913049F48CE491E00E94300482E491E096
S1131AC00E94300417C0843069F48CE491E00E94D1
S1131AD0300482E491E00E94300488E391E00E94A3
S1131AE030040CC08CE491E00E942D0482E491E067
S1131AF00E942D0488E391E00E942D0481E391E08B
S1131B000E9430046091A1037091A2038091A30309
S1131B109091A4038E010F5F1F4F21E047E00E94C4
S1131B208716B8018CE491E00E9433046091A50308
S1131B307091A6038091A7039091A80321E047E048
S1131B400E948716B80182E491E00E9433046091F8
S1131B50A9037091AA038091AB039091AC0321E097
S1131B6047E00E948716B80188E391E00E9433049D
S1131B70609105017091060180910701909108011F
S1131B8021E047E00E948716B80181E391E00E94BA
S1131B9033042A960FB6F894DEBF0FBECDBFDF9193
S1131BA0CF911F910F910895CF92DF92EF92FF9200
S1131BB00F931F93CF938C0165EB72E00E94D416B0
S1131BC0C091AD03892B21F08C2F90E001970AC0BE
S1131BD068EB72E0C8010E94D416892B49F08C2F5F
S1131BE090E0019666E070E00E9432168093AD03A7
S1131BF080E090E0A0E8BFE38093A1039093A20368
S1131C00A093A303B093A4038093A5039093A60386
S1131C10A093A703B093A8038093A9039093AA0366
S1131C20A093AB03B093AC03C091AD036C017D01F1
S1131C308C019D01AC01BD018C2F0E94100C60939E
S1131C4005017093060180930701909308018C2F7E
S1131C500E94D7010E94DC01CF911F910F91FF9048
S1131C60EF90DF90CF900C943B0DCF93DF93EC017A
S1131C7069E172E00E94D416892B39F081E08093E7
S1131C80BD03DF91CF910C94430A65E172E0CE016C
S1131C900E94D416892B39F083E08093BD03DF9131
S1131CA0CF910C941B0B6FE072E0CE010E94D4160E
S1131CB0892B39F087E08093BD03DF91CF910C9499
S1131CC08F0A67E172E0CE010E94D416892B11F0CD
S1131CD082E037C061E172E0CE010E94D416892B04
S1131CE059F08091BD03853071F185E08093BD0387
S1131CF0DF91CF910C943B0D63E172E0CE010E9421
S1131D00D416892BE9F08091BD038430A9F084E0D6
S1131D108093BD031092AE031092AF031092B003F0
S1131D201092B1031092B3031092B4031092B5034E
S1131D301092B6031092B203DF91CF910C94C707AF
S1131D4081E08093BD03DF91CF910895CF92DF921C
S1131D50EF92FF920F931F93E1EAF3E0C084D184E2
S1131D60E284F38404811581268137814081518185
S1131D70628173818091AD030E94100C6093050110
S1131D807093060180930701909308010E94DC017F
S1131D901F910F91FF90EF90DF90CF900C943B0D2B
S1131DA01092C1031092C003109241041092400497
S1131DB008950E9445100E94741160E875E280E065
S1131DC090E00E94681080E00E944D010E94690723
S1131DD00E94D00E2FEF8FEF9AE121508040904067
S1131DE0E1F700C0000089E192E00E94E00388E28C
S1131DF093E00C94AC11CF92DF92EF92FF92059690
S1131E000E94A7166B017C019B01AC010E94041582
S1131E10811111C0E0914004F0914104309759F0D0
S1131E20C082D182E282F382E091C003F091C103C7
S1131E30309709F00995FF90EF90DF90CF900C94C4
S1131E40D00E0F931F93CF93DF93CDB7DEB7A49734
S1131E500FB6F894DEBF0FBECDBF8E010F5F1F4FCC
S1131E608BE30E942711019609F404C1B8018BE3A6
S1131E700E945B116AE973E0C8010E94D416081736
S1131E80190751F46DEC7CEC8CEC9DE30E94471037
S1131E90C8010E946507E4CF66E673E0C8010E94AA
S1131EA0D4160817190751F46DEC7CEC8CEC9DE307
S1131EB00E944710C8010E943305D2CF64E973E041
S1131EC0C8010E94D4160817190721F4C8010E94FA
S1131ED0350EC6CF6CE673E0C8010E94D41608170D
S1131EE0190751F46DEC7CEC8CEC9DE30E944710D7
S1131EF0C8010E943408B4CF61E673E0C8010E94AF
S1131F00D4160817190751F46DEC7CEC8CEC9DE3A6
S1131F100E944710C8010E94EA06A2CF6AE573E056
S1131F20C8010E94D4160817190751F46DEC7CEC13
S1131F308CEC9DE30E944710C8010E94B30B90CF24
S1131F406AE873E0C8010E94D4160817190751F40F
S1131F506DEC7CEC8CEC9DE30E944710C8010E9460
S1131F60EB0B7ECF6CE473E0C8010E94D416081713
S1131F70190751F46DEC7CEC8CEC9DE30E94471046
S1131F80C8010E94A0066CCF62E573E0C8010E94FC
S1131F90D4160817190751F46DEC7CEC8CEC9DE316
S1131FA00E944710C8010E94D40D5ACF66E473E022
S1131FB0C8010E94D4160817190751F46DEC7CEC83
S1131FC08CEC9DE30E944710C8010E944E0548CF47
S1131FD060E473E0C8010E94D4160817190751F48D
S1131FE06DEC7CEC8CEC9DE30E944710C8010E94D0
S1131FF0FB0E36CF62E773E0C8010E94D4160817BF
S1132000190709F42DCF6FE773E0C8010E94D416B5
S11320100817190751F46DEC7CEC8CEC9DE30E94DD
S11320204710C8010E94470A1BCF67E373E0C80149
S11320300E94D4160817190751F46DEC7CEC8CEC53
S11320409DE30E944710C8010E94FB0A09CF6FE27A
S113205073E0C8010E94D4160817190709F000CFCD
S11320606DEC7CEC8CEC9DE30E944710C8010E944F
S11320700F0BF6CEA4960FB6F894DEBF0FBECDBFFD
S1132080DF91CF911F910F9108953C9A089520E01C
S113209030E046E154E40E9401140E94C512611527
S11320A071058105910599F0449AE6EFF8E03197BE
S11320B0F1F700C000004498E6EFF8E03197F1F73B
S11320C000C000006150710981099109E8CF0895A9
S11320D080E090E0FC01EE5BFB4F108201968831BA
S11320E09105C1F71092C50087E48093C40088E984
S11320F08093C10086E08093C2000C942B059091DC
S1132100C00095FFFCCF8093C60008958091C00065
S113211087FFFCCF8091C60008951F920F920FB6DF
S11321200F9211242F933F934F935F936F937F9359
S11321308F939F93AF93BF93EF93FF930E94861067
S1132140E091BE03F0E0EE5BFB4F80838091BE0321
S113215090E0019668E170E00E9432168093BE031D
S1132160FF91EF91BF91AF919F918F917F916F916B
S11321705F914F913F912F910F900FBE0F901F9041
S113218018950E942F051092BE031092BF030C9461
S11321902B05CF93DF93EC018991882319F00E94DA
S11321A07F10FACFDF91CF910895CF92DF92EF9213
S11321B0FF920F931F93CF93DF938C01EB010E9447
S11321C02F05E8E1F0E02091BE038091BF0330E0E9
S11321D0281B3109C9014896BF010E943216801795
S11321E0910788F37E0120E030E088E1C82ED12CED
S11321F02017310799F08091BF03A901480F511DA1
S1132200CA01B6010E941E16FC01EE5BFB4F8081E1
S1132210F70181937F012F5F3F4FEACFC20FD31F96
S113222018828091BF03A901480F511DCA0168E1BA
S113223070E00E941E168093BF03DF91CF911F911F
S11322400F91FF90EF90DF90CF900C942B05CF93DC
S1132250DF93482F2091BE038091BF0330E0281BF9
S11322603109C901489668E170E00E94321688235A
S1132270D9F020E030E0FC01FF27C8E1D0E02E17C0
S11322803F0794F48091BF03B901680F711DCB011E
S1132290BE010E943216DC01AE5BBB4F8C918417E9
S11322A031F02F5F3F4FEBCF8FEF9FEF01C0C9019C
S11322B0DF91CF9108951F93CF93DF9300D0CDB7D3
S11322C0DEB7182F812F69837A830E9427118F5FCD
S11322D069817A818823B1F390E00F900F90DF91A8
S11322E0CF911F910C94D510539AE1E8F0E08081CE
S11322F08860808380E894E09093890080938800CC
S11323000895909181009E7F90938100882311F01D
S11323105B9A01C05B988091810081608093810009
S1132320B19BFECFB19A809181008E7F8093810012
S11323300895CF93DF93D82F80E00E948111C8E0E5
S11323408D2F81700E948111D695C150C9F781E00B
S1132350DF91CF910C9481110F931F93CF938C0134
S1132360C0E0F801EC0FF11D8081882321F00E9468
S11323709911CF5FF6CFCF911F910F9108955058C7
S1132380BB27AA270E94D7110C94C7130E94B91324
S113239038F00E94C01320F039F49F3F19F426F45A
S11323A00C947B130EF4E095E7FB0C947513E92F62
S11323B00E94D81358F3BA17620773078407950766
S11323C020F079F4A6F50C94FA130EF4E0950B2E94
S11323D0BA2FA02D0B01B90190010C01CA01A00173
S11323E01124FF27591B99F0593F50F4503E68F1CE
S11323F01A16F040A22F232F342F4427585FF3CF0F
S1132400469537952795A795F0405395C9F77EF4DF
S11324101F16BA0B620B730B840BBAF09150A1F028
S1132420FF0FBB1F661F771F881FC2F70EC0BA0FAE
S1132430621F731F841F48F4879577956795B79536
S1132440F7959E3F08F0B0CF9395880F08F0992731
S1132450EE0F9795879508959F939F77EEE38937BD
S11324609E0728F4E8E6F0E00E94A5130CC00E9441
S113247031139058A2EA2AED3FE049EC5FE30E9451
S1132480D7110E94C7130F9007FC905808950E941B
S1132490511308F481E008950E9460120C94C7134C
S11324A00E94C01358F00E94B91340F029F45F3F12
S11324B029F00C94751351110C94FB130C947B1399
S11324C00E94D81368F39923B1F3552391F3951B14
S11324D0550BBB27AA2762177307840738F09F5F41
S11324E05F4F220F331F441FAA1FA9F335D00E2EAE
S11324F03AF0E0E832D091505040E695001CCAF71B
S11325002BD0FE2F29D0660F771F881FBB1F2617DD
S113251037074807AB07B0E809F0BB0B802DBF01B4
S1132520FF2793585F4F3AF09E3F510578F00C9483
S113253075130C94FB135F3FE4F3983ED4F3869534
S113254077956795B795F7959F5FC9F7880F911DA4
S11325509695879597F90895E1E0660F771F881F90
S1132560BB1F621773078407BA0720F0621B730B43
S1132570840BBA0BEE1F88F7E09508950E94C512EC
S11325806894B1110C94FB1308950E94E01388F031
S11325909F5798F0B92F9927B751B0F0E1F0660F23
S11325A0771F881F991F1AF0BA95C9F714C0B13064
S11325B091F00E94FA13B1E008950C94FA13672F76
S11325C0782F8827B85F39F0B93FCCF38695779593
S11325D06795B395D9F73EF490958095709561957C
S11325E07F4F8F4F9F4F0895E89409C097FB3EF4A7
S11325F090958095709561957F4F8F4F9F4F99234C
S1132600A9F0F92F96E9BB279395F69587957795C9
S11326106795B795F111F8CFFAF4BB0F11F460FF89
S11326201BC06F5F7F4F8F4F9F4F16C0882311F0E1
S113263096E911C0772321F09EE8872F762F05C0F5
S1132640662371F096E8862F70E060E02AF09A9590
S1132650660F771F881FDAF7880F9695879597F985
S11326600895DF93CF931F930F938B01EC01ECE755
S1132670F0E00E947E130E94C7139801AE018B0103
S1132680EC0160E070E080E89FE30E94BF110E94CB
S1132690C4149801AE010F911F91CF91DF910C9456
S11326A01414990F0008550FAA0BE0E8FEEF161654
S11326B01706E807F907C0F012161306E407F50732
S11326C098F0621B730B840B950B39F40A2661F0A6
S11326D0232B242B252B21F408950A2609F4A14049
S11326E0A6958FEF811D811D089597F99F6780E856
S11326F070E060E008959FEF80EC0895DF93CF933E
S11327001F930F93FF92EF92DF927B018C016894E9
S113271006C0DA2EEF010E941414FE01E894A5917C
S11327202591359145915591A6F3EF010E94D7115A
S1132730FE019701A801DA9469F7DF90EF90FF900A
S11327400F911F91CF91DF9108959F938F937F9362
S11327506F93FF93EF939B01AC010E940114EF91DF
S1132760FF910E947E132F913F914F915F910C94A2
S1132770011400240A94161617061806090608956B
S113278000240A9412161306140605060895092E49
S11327900394000C11F4882352F0BB0F40F4BF2BB8
S11327A011F460FF04C06F5F7F4F8F4F9F4F0895F8
S11327B057FD9058440F551F59F05F3F71F04795EE
S11327C0880F97FB991F61F09F3F79F087950895D3
S11327D0121613061406551FF2CF4695F1DF08C0F2
S11327E0161617061806991FF1CF8695710561050F
S11327F008940895E894BB2766277727CB0197F9B7
S113280008950E9414140C94C7130E94B91338F04D
S11328100E94C01320F0952311F00C9475130C94AE
S11328207B1311240C94FB130E94D81370F3959F0F
S1132830C1F3950F50E0551F629FF001729FBB27B3
S1132840F00DB11D639FAA27F00DB11DAA1F649F4F
S11328506627B00DA11D661F829F2227B00DA11D02
S1132860621F739FB00DA11D621F839FA00D611D88
S1132870221F749F3327A00D611D231F849F600DA9
S1132880211D822F762F6A2F11249F5750409AF0D2
S1132890F1F088234AF0EE0FFF1FBB1F661F771F5E
S11328A0881F91505040A9F79E3F510580F00C9429
S11328B075130C94FB135F3FE4F3983ED4F38695B1
S11328C077956795B795F795E7959F5FC1F7FE2BC9
S11328D0880F911D9695879597F90895FA01EE0F43
S11328E0FF1F309621053105A1F16115710561F4D1
S11328F08038BFE39B0749F168949038810561F003
S11329008038BFEF9B0741F099234AF5FF3FE1056B
S11329103105210519F1E8940894E795D901AA2312
S113292029F4AB2FBE2FF85FD0F310C0FF5F70F413
S1132930A695E0F7F73950F019F0FF3A38F49F778D
S11329409F930DD00F9007FC9058089546F00C9477
S11329507B1360E070E080E89FE308954FE79F7782
S11329605F934F933F932F930E94A2152F913F9112
S11329704F915F910E9401140C94111519F416F4EF
S11329800C947B130C9443150E94E013B8F3992321
S1132990C9F3B6F39F57550B87FF0E9451150024C6
S11329A0A0E640EA900180585695979528F4805CFB
S11329B0660F771F881F20F026173707480730F463
S11329C0621B730B840B202931294A2BA69517947B
S11329D00794202531254A2758F7660F771F881F4B
S11329E020F026173707480730F4620B730B840B6B
S11329F0200D311D411DA09581F7B901842F9158F7
S1132A00880F9695879508950E945113880B990B0A
S1132A10089529F416F00C9475130C94FA130C947D
S1132A207B130E94E013A8F39638A0F707F80F92DF
S1132A30E8942BE33AEA48EB5FE70E9417140F92FD
S1132A400F920F924DB75EB70F920E94EA15E4EA17
S1132A50F0E00E947E134F915F91EF91FF91E59515
S1132A60EE1FFF1F49F0FE57E0684427EE0F441F96
S1132A70FA95E1F74195550B0E9464150F9007FEF6
S1132A800C94581508959F3F31F0915020F4879588
S1132A9077956795B795880F911D9695879597F9C2
S1132AA0089591505040660F771F881FD2F70895FC
S1132AB09B01AC0160E070E080E89FE30C944C1251
S1132AC00C9475130C9443150E94E013D8F39923C6
S1132AD0C9F3940F511DA3F39150504094F059F051
S1132AE0882332F0660F771F881F91505040C1F73A
S1132AF09E3F51052CF7880F911D9695879597F960
S1132B0008955F3FACF0983E9CF0BB27869577957F
S1132B106795B79508F4B1609395C1F7BB0F58F763
S1132B2011F460FFE8CF6F5F7F4F8F4F9F4FE3CF6C
S1132B300C94FB1316F00C9443150C947B136894BB
S1132B400C9475130E94E013A8F39923C1F3AEF318
S1132B50DF93CF931F930F93FF92C92FDD27882311
S1132B602AF02197660F771F881FDAF720E030E0FC
S1132B7040E85FEB9FE3883920F0803E38F02196EF
S1132B808F770E94C011ECECF0E004C00E94C011E9
S1132B90E9EFF0E00E947E138B01BE01EC01FB2EF5
S1132BA06F5771097595771F880B990B0E94F61260
S1132BB028E132E741E35FE30E941414AF2D98014A
S1132BC0AE01FF900F911F91CF91DF910E94D71119
S1132BD00C94C713FA01DC01AA0FBB1F9B01AC01C3
S1132BE0BF5728F4222733274427507820C0B751F1
S1132BF090F4AB2F0024469537952795011CA39597
S1132C00D2F3002071F0220F331F441FB395DAF37F
S1132C100ED00C94BF1161307105A0E88A07B94643
S1132C2030F49B01AC01662777278827907830968B
S1132C3021F020833183428353830895AA1BBB1B55
S1132C4051E107C0AA1FBB1FA617B70710F0A61BA8
S1132C50B70B881F991F5A95A9F780959095BC01C9
S1132C60CD01089597FB072E16F4009407D077FD45
S1132C7009D00E941E1607FC05D03EF4909581955C
S1132C809F4F0895709561957F4F0895052E97FB8A
S1132C901EF400940E945D1657FD07D00E9465162D
S1132CA007FC03D04EF40C945D1650954095309576
S1132CB021953F4F4F4F5F4F0895909580957095A4
S1132CC061957F4F8F4F9F4F0895A1E21A2EAA1B43
S1132CD0BB1BFD010DC0AA1FBB1FEE1FFF1FA217C8
S1132CE0B307E407F50720F0A21BB30BE40BF50BC5
S1132CF0661F771F881F991F1A9469F7609570954E
S1132D00809590959B01AC01BD01CF010895EF9290
S1132D100F931F93CF93DF93E80147FD02C034E084
S1132D2001C034E1E42F440FFF0BF7FF03C0F1951A
S1132D30E195F109E32E022F2E2FAE010E944117D7
S1132D40CE01DF91CF911F910F91EF9008956627E7
S1132D5077270C94CF18FC0188279927E8942191B0
S1132D602032E9F3293010F02E30C8F32B3241F031
S1132D702D3239F4689404C00E94FD16820F911D0F
S1132D80219120532A30C0F31EF4909581959F4FD2
S1132D900895FB01DC010D900020E9F711970190E3
S1132DA00D920020E1F70895FB0151915523A9F0FC
S1132DB0BF01DC014D9145174111E1F759F4CD01F3
S1132DC00190002049F04D9140154111C9F3FB01D8
S1132DD04111EFCF81E090E001970895BB272A309D
S1132DE051F4992342F4BDE29095809570956195D4
S1132DF07F4F8F4F9F4F0C9406177AE0979F902D2B
S1132E00879F802D910D11240895BB27FA01A62FC9
S1132E106217710581059105330B30FB66F0AA2713
S1132E20660F771F881F991FAA1FA21710F0A21BF5
S1132E3063953850A9F7A05DAA3308F0A95DA19362
S1132E4036F7B111B1931082CA010C94251BBB272C
S1132E50FB015527AA27880F991FAA1FA41710F052
S1132E60A41B83955051B9F7A05DAA3308F0A95D5E
S1132E70A193009779F7B111B1931192CB010C94FE
S1132E80251B4F925F926F927F929F92AF92BF9257
S1132E90CF92DF92EF92FF920F931F93CF93DF9322
S1132EA0CDB7DEB729970FB6F894DEBF0FBECDBFFE
S1132EB06A01122FB02E2BE3201720F0FF24F39485
S1132EC0F00E02C0BCE3FB2E0F2D27E0AE014F5FD6
S1132ED05F4F0E942C1AAC018981982F9970913010
S1132EE031F0E1FC06C0E0FE06C090E205C09DE2C0
S1132EF003C09BE201C090E0EE2DE07183FF3CC073
S1132F00911102C083E001C084E0811718F4212FDD
S1132F10281B01C020E0E1110BC0F601822F30E232
S1132F20882319F031938150FBCFC20ED11C20E0CD
S1132F30992329F0D6019C93F60131966F01C601BD
S1132F400396E2FE0AC03EE4D6013C9341E41196A6
S1132F504C93119712963C9306C03EE6F6013083DB
S1132F6041E641833283FC01322F40E2332309F4EA
S1132F7042C041933150FACF82FF44C0911102C044
S1132F8083E001C084E0811718F4212F281B01C0BD
S1132F9020E0E1110BC0F601822F30E2882319F002
S1132FA031938150FBCFC20ED11C20E0992329F02C
S1132FB0D6019C93F60131966F01C6010396E2FE99
S1132FC00BC039E4D6013C933EE411963C9311972F
S1132FD036E412963C9307C039E6F60130833EE6A8
S1132FE0318336E63283FC01322F40E2332319F079
S1132FF041933150FBCFFC01E20FF11D10828EEFA3
S11330009FEFB7C0F1E0911101C0F0E06F2F70E0C5
S11330101416150624F49A012F5F3F4F02C021E0D5
S113302030E0260F371FBB2029F06B2D70E06F5F57
S11330307F4F02C060E070E0260F371F612F70E001
S1133040261737071CF4121B212F01C020E03E2D48
S1133050387159F4D601322F60E2332319F06D939D
S11330603150FBCFC20ED11C20E0FF2331F0D6013A
S11330709C93B6016F5F7F4F6B01E1110BC0F601AA
S1133080922F30E3992319F031939150FBCFC20E64
S1133090D11C20E09F2D940F3A81782F7071A72EB8
S11330A084FF03C0313309F49150191624F4993084
S11330B018F098E001C091E0E42F852F57FF02C07B
S11330C0E0E080E06E2F782FE0E0F0E0AEE29A2EB0
S11330D03A01691A71082A01461A570A0B2D10E0A1
S11330E01195019511096F3F8FEF780729F4D601E7
S11330F09C92C60101966C014617570784F0661628
S113310077066CF47F01E40CF51CA1E0B0E0AC0F91
S1133110BD1FEA0EFB1ED7011196BC9002C090E3BE
S1133120B92E615071093196C60101967C01601770
S1133130710724F0D601BC926C01D5CF64177507D2
S113314041F4363320F4353321F4A11002C081E375
S1133150B82EF601B082F701822F90E2882319F08D
S113316091938150FBCFF701E20FF11D108280E0B3
S113317090E029960FB6F894DEBF0FBECDBFDF9165
S1133180CF911F910F91FF90EF90DF90CF90BF9060
S1133190AF909F907F906F905F904F900895A0E0C4
S11331A0B0E0E5EDF8E10C94801BEC017B016115C6
S11331B0710519F0DB018D939C938E010F5F1F4FF6
S11331C07880872D90E00E94041B892B11F0E80180
S11331D0F4CFBDE27B1205C00F5F1F4F7980C1E0C1
S11331E008C0EBE27E1204C08E010E5F1F4F79808F
S11331F0C0E06801F1E0CF1AD10843E050E06EE28C
S113320071E0C6010E940D1B892BF1F4680122E0D4
S1133210C20ED11C45E050E069E271E0C6010E9493
S11332200D1B892B21F4680187E0C80ED11CE11421
S1133230F10419F0D701CD92DC92C111FFC060E016
S113324070E080E89FE703C143E050E066E271E08C
S1133250C6010E940D1B892B51F4E114F10409F4F9
S1133260F2C00E5F1F4FF70111830083ECC06801A9
S113327060E070E0CB0100E010E0F601D0EDD70D86
S1133280DA3058F52C2F2260622E2C2F2870C2FFC2
S113329005C0211128C00F5F1F4F25C0222311F044
S11332A001501109A5E0B0E09B01AC010E94711B23
S11332B04B015C01880C991CAA1CBB1CC501B40100
S11332C06D0F711D811D911D6839A9E97A078A075F
S11332D0A9E19A0740F0C66005C0DE3F51F4C3FD82
S11332E044C0C8606C2EBFEFCB1ADB0A7080C62DB9
S11332F0C4CF2D2F2F7D2531C1F540814D3211F4DE
S1133300C06106C04B3221F0319621E030E006C0A6
S11333103296D60111964C9122E030E0A0EDA40F34
S1133320AA3018F0E21BF30B20C040E050E0403814
S1133330BCE05B075CF49A01220F331F220F331F9A
S1133340420F531F440F551F4A0F511D3196DF0181
S113335011972C91A0EDA20FAA3048F3C4FF03C02B
S1133360519541955109040F151FC1FF07C0E11480
S1133370F10421F03197D701ED93FC930E94F412EC
S1133380C370C33019F06B017C0106C06B017C0172
S1133390F7FAF094F7F8F09420E030E0A901C701BF
S11333A0B6010E944712882309F445C017FF06C0DE
S11333B0119501951109C5E4D1E002C0CDE5D1E034
S11333C05E01B8E1AB1AB1084601BE2DAF2D90E203
S11333D0E92EF12C0E151F0584F0FE01259135917F
S11333E045915491B4018B2F9A2F0E9401144B01E3
S11333F0B82FA92F0E191F09EDCF2497F594E79440
S1133400CA15DB0539F76401EB2EFA2E8E2D880FD1
S11334108F2D881F8F3F49F020E030E0A901C701BC
S1133420B6010E944712811106C082E290E0909397
S11334305B0480935A04C701B60109C060E070E0E0
S113344080E89FEF04C060E070E080EC9FE7CDB7B8
S1133450DEB7EEE00C949C1B283008F027E03327FD
S1133460DA01990F311D87FD9160009661057105A0
S113347039F432602E5F3D9330E32A95E1F70895E5
S11334809F3F30F080387105610509F03C5F3C5F77
S11334903D93913008F08068911DDF93CF931F9383
S11334A00F93FF92EF92192F987F9695E92F969597
S11334B09695E90FFF27E554FE4F99273327EE240D
S11334C0FF24A701E70105900894079428F4360F18
S11334D0E71EF81E491F511D660F771F881F991F8D
S11334E00694A1F70590079428F4E70EF81E491FE7
S11334F0561FC11D770F881F991F661F0694A1F7D9
S11335000590079428F4F80E491F561FC71FD11DB4
S1133510880F991F661F771F0694A1F705900794DB
S113352020F4490F561FC71FD81F990F661F771F16
S1133530881F0694A9F784911095177041F0D695C9
S1133540C79557954795F794E7941A95C1F7E1E61F
S1133550F1E06894159015913591659195910590D8
S11335607FE27395E118F10A430B560BC90BD0099E
S1133570C0F7E10CF11E431F561FC91FD01D7EF476
S1133580703311F48A95E6CFE894015030F0080FB7
S11335900AF40027021708F4202F2395022F7A3308
S11335A028F079E37D932A95E9F710C07D932A9555
S11335B089F6069497956795379517951794E118AA
S11335C0F10A430B560BC90BD00998F023957E9151
S11335D073957A3308F070E37C932013B8F77E91E7
S11335E070617D9330F0839571E37D9370E32A9548
S11335F0E1F71124EF90FF900F911F91CF91DF918C
S1133600992787FD9095089591110C94351B80326C
S113361019F089508550C8F70895FB01DC01415029
S1133620504088F08D9181341CF08B350CF4805E11
S1133630659161341CF06B350CF4605E861B61117E
S113364071F3990B0895881BFCCFDC01FC01672FF3
S113365071917723E1F7329704C07C916D93708365
S11336606291AE17BF07C8F3089599278827089574
S1133670F999FECF92BD81BDF89A992780B5089536
S1133680A6E1B0E044E050E00C94631B262FF999C6
S1133690FECF1FBA92BD81BD20BD0FB6F894FA9A31
S11336A0F99A0FBE01960895242F0E94471B252FD7
S11336B00E94471B0C945C1B0E94461B272F0C94F2
S11336C0471BDC01CB01FC01F999FECF06C0F2BD1A
S11336D0E1BDF89A319600B40D9241505040B8F7CC
S11336E008950E94B31BA59F900DB49F900DA49FB5
S11336F0800D911D112408952F923F924F925F9255
S11337006F927F928F929F92AF92BF92CF92DF92ED
S1133710EF92FF920F931F93CF93DF93CDB7DEB752
S1133720CA1BDB0B0FB6F894DEBF0FBECDBF0994E6
S11337302A88398848885F846E847D848C849B843D
S1133740AA84B984C884DF80EE80FD800C811B814B
S1133750AA81B981CE0FD11D0FB6F894DEBF0FBE7A
S1133760CDBFED010895A29FB001B39FC001A39FF7
S1133770700D811D1124911DB29F700D811D1124A6
S10B3780911D0895F894FFCF98
S11337885000007A440000803F2C006F76665F7416
S1133798687200736C5F72656C617900625F6F6E4A
S11337A800625F6F66660063617061635F7478745A
S11337B800745F6172656100745F73616D706C653C
S11337C83300745F73616D706C653200745F73618C
S11337D86D706C653100705F73616D706C6500624B
S11337E85F72656D6F766500625F707265765F63A0
S11337F8756E697400625F6E6578745F63756E696F
S11338087400625F707265765F7000625F6E6578DF
S1133818745F700063616C756E69740063616C5FDA
S11338286C6162656C0073656C65637465645F7074
S11338386F696E7400706F696E745F6C6162656C39
S113384800625F636F6E6669726D003132003131F8
S1133858006C6F636B5F696D67006C6F636B6564A5
S113386800646973705F756E6974006E756D006EBF
S113387865775F63616C696200645F76616C756526
S113388800645F76616C75655F6C6162656C0037B6
S113389800350034003300320031002E7069633D76
S11338A8002E76616C3D002E7478743D00FFFFFF96
S11338B800766973200070616765200073616D701C
S11338C86C65310073616D706C65320073616D7085
S11338D86C6533006E657763616C00636170616366
S11338E8697479000A536F7274696E672E2E2E0AF2
S11338F8000A456E6420536F7274210A00444947D4
S11339084954414C20504F494E543A20000A4341EF
S11339184C4942524154494F4E3A200063616C6904
S113392862726174696F6E2E746F74616C5F706F0C
S1133938696E7473002D2D002B2B00250053656DC3
S11339482063616C69627261E7E36F00506F6E74A3
S11339586F200020646520004D50610000000000C5
S11339680000707369000000000000006B67662F98
S11339786D6D320000004E2F6D6D320000000000A6
S11339886B67660000746600000067660000004EFE
S11339980000000064614E00006B4E0000006C6281
S11339A866000064796E000072656164790A006FCC
S11339B876667063743D006F76666D6F64653D006E
S11339C86676616C3D00667661723D0064656C7074
S11339D83D0073616D706C653D00706F696E743D78
S11339E80063616C3D00676F746F3D00706C6F63BA
S11339F86B00646973705F756E69745F743D00640D
S1133A086973705F756E69743D0063616C5F756E90
S1133A1869743D00706167653D00756E69743D00A9
S9030000FC
