:100000000C9434000C9451000C9451000C94510049
:100010000C9451000C9453000C9451000C9451001A
:100020000C9451000C9451000C9451000C9451000C
:100030000C9451000C9451000C9451000C945100FC
:100040000C9451000C9451000C9451000C945100EC
:100050000C9451000C9451000C9451000C945100DC
:100060000C9451000C94510011241FBECFEFD8E026
:10007000DEBFCDBF11E0A0E0B1E0E4E0F2E002C0FD
:1000800005900D92A632B107D9F721E0A6E2B1E0C2
:1000900001C01D92A832B207E1F70E94F0000C9453
:1000A00000010C9400001F920F920FB60F921124C2
:1000B0008F939F93EF93FF93F8944A991FC01092E8
:1000C000260198E0E1E8F0E0809126018695809392
:1000D0002601808181608083B19BFECF80818E7FED
:1000E00080834A9B05C08091260180688093260109
:1000F000B19A915049F781E0809327017894FF915C
:10010000EF919F918F910F900FBE0F901F901895B8
:10011000539AE1E8F0E080818860808380E894E091
:100120009093890080938800089552985A9AE1E844
:10013000F0E080818860808380E894E0909389007B
:1001400080938800E8E6F0E0808184608083EDE6BB
:10015000F0E080818460808378940895882311F092
:100160005B9A01C05B98E1E8F0E080818160808368
:10017000B19BFECFB19AE1E8F0E080818E7F808371
:100180000895CF93DF93D82F80E00E94AE00C8E09F
:100190008D2F81700E94AE00D695C150C9F781E0C5
:1001A0000E94AE00DF91CF9108950F931F93CF93DC
:1001B000FC018081882359F08F01C0E00E94C100BA
:1001C000CF5FF801EC0FF11D80818111F7CFCF9146
:1001D0001F910F91089580E091E00E94D50008954D
:1001E0000E9488000E9495000E94EB002FEF8FED87
:1001F00090E1215080409040E1F700C00000F4CF32
:04020000F894FFCFA0
:100204005069706F6361206E612070616E656C610E
:1002140020636F6D65636120612061727265626540
:060224006E7461720A0015
:00000001FF
