S0110000555341525444656D6F2E73726563FF
S11300000C9434000C943E000C943E000C943E007E
S11300100C943E000C943E000C943E000C943E0064
S11300200C943E000C943E000C943E000C943E0054
S11300300C943E000C943E000C943E000C943E0044
S11300400C943E000C943E000C943E000C943E0034
S11300500C943E000C943E000C943E000C943E0024
S11300600C943E000C943E0011241FBECFEFD8E048
S1130070DEBFCDBF0E9452000C9476000C940000A9
S11300809093C5008093C40088E18093C1008EE002
S11300908093C20008959091C00095FFFCCF809397
S11300A0C600089587E690E00E94400080E284B98B
S11300B015B8C0E285B18C2785B92FEF83EC99E0A0
S11300C0215080409040E1F700C0000085B18C27AA
S11300D085B984E50E944B002FEF83ED90E3215016
S11300E080409040E1F700C00000E4CFF894FFCFD7
S9030000FC
