:100000000C942E010C944B010C944B010C944B015D
:100010000C944B010C944B010C944B010C944B0130
:100020000C944B010C944B010C944B010C944B0120
:100030000C944B010C944B010C94E60B0C944B016B
:100040000C944B010C944B010C94AB1B0C944B0186
:100050000C944B010C944B010C944B010C944B01F0
:100060000C944B010C944B01036EDB363D9A99992D
:10007000993DABAAAA2A3E000000803F072C7AA532
:10008000BA6CC590DA3B9365FC8BBC53F810FD3C11
:100090005692834DBD879D3AB63DCBC9BF5BBE73BB
:1000A000DA0FC93F07634236B79BD8A71A3968569B
:1000B00018AEBAAB558C1D3CB7CC5763BD6DEDFD8A
:1000C000753EF6177231BF000000803F0800000047
:1000D000BE922449123EABAAAA2ABECDCCCC4C3E3D
:1000E00000000080BEABAAAAAA3E00000000BF002C
:1000F0000000803F0000000000084178D3BB438728
:10010000D1133D190E3CC3BD4282AD2B3E68EC823B
:1001100076BED98FE1A93E4C80EFFFBE01C4FF7FC0
:100120003F00000000004E414E494E495459494E8F
:1001300046CDCCCC3D0AD7233C17B7D13877CC2B52
:10014000329595E6241FB14F0A000020410000C8F7
:100150004200401C4620BCBE4CCA1B0E5AAEC59D78
:100160007400407A10F35A00A0724E18090010A5CE
:10017000D4E80000E87648170000E40B54020000C1
:10018000CA9A3B000000E1F5050000809698000047
:100190000040420F000000A0860100000010270070
:1001A000000000E803000000006400000000000AF6
:1001B00000000000000100000000002C76D888DC60
:1001C000674F0823DFC1DFAE59E1B1B796E5E3E43D
:1001D00053C63AE651997696E8E6C28426EB898CB6
:1001E0009B62ED407C6FFCEFBC9C9F40F2BAA56F18
:1001F000A5F490055A2AF75C936B6CF9676DC11BE7
:10020000FCE0E40D47FEF520E6B500D0ED902E03AE
:1002100000943577050080841E080000204E0A00F7
:100220000000C80C333333330F986E12831141EF43
:100230008D2114893BE65516CFFEE6DB18D1844BA1
:10024000381BF77C1D901DA4BBE424203284725E11
:10025000228100C9F124ECA1E53D270011241FBE35
:10026000CFEFD8E0DEBFCDBF14E0A0E0B1E0E0EC1E
:10027000FEE402C005900D92A035B107D9F725E044
:10028000A0E5B4E001C01D92A531B207E1F70E94DC
:1002900099070C945E270C94000097B1976097B96A
:1002A0003B9898B19A6098B942988111409A089504
:1002B00078E160E050E040E030E03399FECF272F56
:1002C000862F952FA42FB32F429AE5E2EA95F1F7F6
:1002D0004298880F991FAA1FBB1F33998160E5E2DE
:1002E000EA95F1F7215081F7429A25E22A95F1F734
:1002F0004298E5E2EA95F1F7A7FDBF6F8F3F2FEF38
:100300009207A207B207C9F2BC01CD0108952F924E
:100310003F924F925F926F927F928F929F92AF9295
:10032000BF92CF92DF92EF92FF920F931F93CF93E2
:10033000DF93CDB7DEB7A8970FB6F894DEBF0FBE38
:10034000CDBF161617060CF01DC3AF2DF12EE02FF2
:100350003EA32DA35A8B498B7E836D8398A38F8FE9
:100360003E872D870D8F1E8FEBA2ACA3588B4F8736
:10037000880F991F880F991F880F991F9AA389A327
:100380008A018E2C9A2E6E2E7F2CCDA0DEA0E12C21
:10039000F12C512C412C1301340146015C01640104
:1003A000D4011D921D921D921C921397EF8DF8A1FE
:1003B0001E161F062CF559824A82E981FA81E00F48
:1003C000F11F60817181828193819B01AC010E9448
:1003D000921F9B01AC01D6016D917D918D919C91F5
:1003E0000E944C1DF601608371838283938329816F
:1003F0003A81285F3F4F3A8329832A153B05E9F666
:10040000D6016D917D918D919C910E945520F601B0
:100410006083718382839383F4E08F0E911CD101FA
:100420001D921D921D921D921D01F301E192F19208
:100430003F01FFEFEF1AFF0A0C5F1F4F2D813E8136
:10044000E216F30609F0ABCFCF8CD8A0212C312CCB
:1004500081E090E09C8F8B8F1A8E198E1B861C86F4
:100460001B8A1C8A1D8A1E8A210116012BC0A98D98
:10047000BA8D1196BA8FA98FEB8DFC8D3196FC8FBA
:10048000EB8F2D8D3E8D2C5F3F4F3E8F2D8F34E0B7
:10049000430E511C8D859E8504969E878D87ABA14A
:1004A000BCA11296BCA3ABA3EF85F8893C96F88B50
:1004B000EF8729A13AA1285031093AA329A331E0B5
:1004C000231A3108898D9A8D98878F8318161906FB
:1004D0000CF05FC0AD81BE818A179B070CF055C23E
:1004E000EF84F888B8E0EB1AF1086D807E80681A16
:1004F000790A0D851E85C12CD12CD88ECF8A3A86DB
:10050000298613013701F80180809180A280B38091
:10051000D301CD90DD90ED90FD903D01A5019401BA
:10052000C501B4010E94921F69837A838B839C83E7
:10053000A5019401C501B4010E94921F4B015C0109
:10054000A7019601C701B6010E94921F9B01AC0151
:10055000C501B4010E944B1D9F770E945520F801F0
:1005600061937193819391938F012F89388D2F5FC0
:100570003F4F388F2F8B2215330529F629843A8473
:10058000ED85FE85FA87E987D080C180E280F3801F
:1005900016C08D859E859A878987DC01DC9011962F
:1005A000CC9011971296EC9012971396FC90ED81D7
:1005B000FE812F8138852E173F070CF0FAC10D857B
:1005C0001E850C5F1F4FAF80B8843501BA82A982A7
:1005D00016C0D8018D909D90AD90BD908D01A50164
:1005E00094016D2D7C2D8E2D9F2D0E94D31D88236F
:1005F00034F4D82CC92CEA2CFB2C69807A80E98150
:10060000FA813196FA83E9832D813E81E217F3075F
:1006100004F32CEA35EC47E257E36D2D7C2D8E2D4B
:100620009F2D0E94D31D18160CF004C28F8198854F
:100630006816790609F452C0ABA1BCA16D927C92F8
:10064000EF8DF8A11E161F065CF509891A89040DA5
:10065000151DF301EE0FFF1FEE0FFF1F29893A89C9
:10066000E20FF31F80E090E02F8D38A1D8014D916B
:100670005D916D917C911397C080D180E280F38071
:10068000CD92DD92ED92FC92139740835183628369
:1006900073830196085F1F4F38968217930731F7CF
:1006A000E985FA8580819181A281B381660C771CEE
:1006B000660C771C2DA13EA1620E731EF3014081D2
:1006C000518162817381E985FA8540835183628318
:1006D0007383F30180839183A283B3832F8D38A129
:1006E0008F81988582179307ACF5A12CB12CC12C72
:1006F000D12CE12CF12C0F851889C982DA82EB828A
:10070000FC82B88EAF8AEF84F88869A07AA0C02EE8
:10071000D12EEF89F88DEE0DFF1D80809180A28093
:10072000B380E894B7F829813A814B815C81C50197
:10073000B4010E948D1F181624F489829A82AB821C
:10074000BC82AF89B88D1896B88FAF8BA615B70548
:10075000F1F63DC1ED8DFE8D108211821282138261
:100760002B8D3C8D38872F838D819E8128173907EB
:100770000CF47DCE5FC1A7019601D5016D917D91ED
:100780008D919C910E94D81DF501608371838283B5
:1007900093830F5F1F4FF8E0AF0EB11C02151305D6
:1007A00051F7A7019601A985BA856D917D918D912B
:1007B0009C910E94D81D4B015C01E985FA856083FC
:1007C00071838283938320E030E040E050E0D301E6
:1007D0006D917D918D919C910E94D31D882354F43D
:1007E000B7FAB094B7F8B094E985FA85808291821F
:1007F000A282B382A985BA852D913D914D915C91DC
:10080000F30160817181828193810E944C1DD3012B
:100810006D937D938D939C931397ED8DFE8DF88F43
:10082000EF8BA985BA852D913D914D915C910E94E8
:10083000921F9B01AC0160E070E080E89FE30E94A2
:10084000D81DED8DFE8D6083718382839383A70114
:100850009601A985BA856D917D918D919C910E949B
:10086000921FE985FA8560837183828393838B8CE1
:100870009C8C2D813E81821693060CF0D5C00F2EE4
:10088000FCEFAF2EBB24BA94F02DA418B50872016A
:1008900034E0E30EF11CC201880F991F9A87898703
:1008A0009F859983A889AF833701750164015FC073
:1008B000EFA1F8A5E419F509E60DF71D20813181B6
:1008C00042815381EFA1F8A560817181828193817A
:1008D0000E94921F9B01AC01682D792D8A2D9B2DC2
:1008E0000E944C1D862E972EA82EB92E0F5F1F4FEB
:1008F0002FA138A5285F3F4F38A72FA30215130556
:10090000B9F67BC0EFA1F8A5EE0DFF1DE40DF51DB6
:100910002081318142815381C501B4010E94921F1F
:100920009B01AC01AFA1B8A56D917D918D919C917A
:100930000E944B1DEFA1F8A560837183828393838E
:100940000F5F1F4F3896F8A7EFA302151305D1F6D6
:10095000FFEFCF1ADF0A24E0E21AF10834E0630E59
:10096000711C8D819E81C816D90609F480CD9981AC
:100970009FA3AF81A8A70B851C858B889C88AD8819
:10098000BE8896CF18861F8255C02D853E853A8732
:1009900029872CEA35EC47E257E3AD85BE856D919A
:1009A0007D918D919C910E94D31D18160CF496CECA
:1009B00041C02CEA35EC47E257E36D2D7C2D8E2D9E
:1009C0009F2D0E94D31D18160CF488CE33C036011B
:1009D000C980DA80EB80FC802CEA35EC47E257E3F3
:1009E000C701B6019F770E94D31D18160CF0B2CE36
:1009F000AF84B88800E010E0BECEAF89B88D2D91ED
:100A00003D914D915C910E94921F4B015C012985A3
:100A10003A85260D371DE989FA89E20FF31F0B8508
:100A20001C85F8A7EFA36ECF2F8138852F5F3F4F2E
:100A300038872F838F819885A8960FB6F894DEBFEC
:100A40000FBECDBFDF91CF911F910F91FF90EF901F
:100A5000DF90CF90BF90AF909F908F907F906F90DE
:100A60005F904F903F902F9008952F923F924F921A
:100A70005F926F927F928F929F92AF92BF92CF922E
:100A8000DF92EF92FF920F931F93CF93DF93CDB737
:100A9000DEB728970FB6F894DEBF0FBECDBF9C011E
:100AA000215031093A83298333230CF483C02C016C
:100AB000440C551C480E591E440C551C440C551C26
:100AC0003CE0431A5108460E571E9C012250310942
:100AD0001901220C331C280E391E220C331C220C47
:100AE000331C260E371E220F331F220F331F3A01ED
:100AF000620E731E285F3F4F09811A818D839E838A
:100B0000CA01820F931F9C838B832EC0F5015291E3
:100B10004291329122915F01F601929182917291FC
:100B200062916F010E94921F9B01AC01F7016081ED
:100B30007181828193810E944B1DF70160837183D3
:100B4000828393832F8138852150310938872F8301
:100B500028153905D9F63CE0431A510888E0281ACF
:100B6000310894E0691A71087301F2012081318122
:100B700042815381F30164817581868197810E944E
:100B8000D81DF3016483758386839783015011090F
:100B900088F029813A8102171307ECF648013FEFEC
:100BA000831A930A8D818F839E819887AB80BC8046
:100BB0006101ACCF80E090E028960FB6F894DEBFDC
:100BC0000FBECDBFDF91CF911F910F91FF90EF909E
:100BD000DF90CF90BF90AF909F908F907F906F905D
:100BE0005F904F903F902F900895CF92DF92EF92B9
:100BF000FF920F931F93CF93DF93232B41F518168A
:100C000019060CF051C0DA01EB01880F991F880F0B
:100C1000991F860F971FED91FD91EE0FFF1FEE0FAD
:100C2000FF1FE60FF71F0081118122813381C880E9
:100C3000D980EA80FB80C082D182E282F38209936C
:100C4000199329933993C817D90729F72DC09C0107
:100C5000215031094AF1EC01CC0FDD1FC40FD51F23
:100C6000880F991F880F991FDB01A80FB91FCB01AF
:100C7000FA91EA91EE0FFF1FEE0FFF1FE60FF71F2D
:100C80000081118122813381FE90EE90DE90CE9022
:100C9000C082D182E282F3820D931D932D933C9307
:100CA0001397A817B90721F780E090E0DF91CF9163
:100CB0001F910F91FF90EF90DF90CF9008952F92AA
:100CC0003F924F925F926F927F928F929F92AF92DC
:100CD000BF92CF92DF92EF92FF920F931F93CF9329
:100CE000DF93CDB7DEB762970FB6F894DEBF0FBEC5
:100CF000CDBF98878F835A8749873C872B870D877D
:100D00001E87DA8AC98ABE82AD821A141B040CF0CF
:100D1000A3C0588B4F873C832B832E2C3F2C7C0108
:100D2000EE0CFF1CEE0CFF1CE20EF31E5A834983EF
:100D3000412C512C5DC00B811C81A980BA80612C93
:100D4000712CC12CD12CC50158018C01D5016D919C
:100D50007D918D919D915D01F801208131814281CC
:100D600053810E94921F9B01AC01662D772D8C2D23
:100D70009D2D0E944C1D662E772EC82ED92E085F01
:100D80001F4FAE14BF0411F790C0D8012D913D91B3
:100D90004D915C91C501B4010E94921F9B01AC0171
:100DA000F60160817181828193810E944B1DD60181
:100DB0006D937D938D939D936D01085F1F4FAE15CD
:100DC000BF0519F7BFEF4B1A5B0AE981FA813C9620
:100DD000FA83E9832B813C812C5F3F4F3C832B833B
:100DE00034E0230E311C8D819E814816590639F05E
:100DF000AF81B8854A165B060CF49DCFE3CF4D85D5
:100E00005E858D819E81880F991FED81FE818E0FF9
:100E10009F1F880F991F880F991F29853A85820F78
:100E2000931FAF85B889FA01408151816281738136
:100E300070580D911D912D913C9113970193119331
:100E4000219331934D935D936D937C9313971C96EF
:100E5000A817B90749F737C04B855C8569857A853E
:100E60008D819E810E9435053FC0DB01CD90DD90D4
:100E7000ED90FC9080819181A281B3814C015D0154
:100E8000B7FAB094B7F8B094DB018D929D92AD9211
:100E9000BD92BD01C082D182E282F3822F5F3F4FBB
:100EA0003C96241735070CF31FC0F10120813181D6
:100EB000428153810E94921F4B015C01CB80DC80F8
:100EC00009811A8162CF4B855C8569857A858D8120
:100ED0009E810E943505E985FA856D857E8520E035
:100EE00030E04D815E81C1CF21E030E049895A89EF
:100EF0006B857C858D819E810E94F50580E090E068
:100F000062960FB6F894DEBF0FBECDBFDF91CF91D2
:100F10001F910F91FF90EF90DF90CF90BF90AF9017
:100F20009F908F907F906F905F904F903F902F9009
:100F300008950E947A190E94CF1980917C04813013
:100F400081F40E9412138091590481110E947E1134
:100F50002FEF8FEA91E0215080409040E1F700C0F0
:100F6000000080917C04843031F70E94120F2FEF33
:100F70008FEA91E0215080409040E1F700C00000EE
:100F8000DACFEF92FF920F931F93CF93DF93082F47
:100F9000192FE62E83E090E00E94FC26EE20D1F08F
:100FA000C02FD12F04E010E0F12C488159816A81D3
:100FB0007B81C8010E940A274C815D816E817F81FF
:100FC000C80104960E940A27F3942896085F1F4FD1
:100FD000FE10EBCFDF91CF911F910F91FF90EF901B
:100FE0000895682F84E590E00E94FC260895682FFC
:100FF00081E090E00E94FC260895682F80E090E058
:101000000E94FC260895682F82E090E00E94FC2652
:101010000895682F85E590E00E94FC260895CF93FF
:10102000DF93CCE5D4E0488159816A817B8186E5F4
:1010300090E00E940A274C815D816E817F818AE564
:1010400090E00E940A27488559856A857B858EE550
:1010500090E00E940A274091090150910A01609195
:101060000B0170910C0182E690E00E940A27DF914B
:10107000CF910895409105015091060160910701BB
:101080007091080186E690E00E940A270895609119
:101090005B048AE690E00E94FC26609104018BE6E6
:1010A00090E00E94FC26609159048CE690E00E943A
:1010B000FC26089580E090E00E94EE26823018F42D
:1010C00080937B0402C010927B0480917B0408957E
:1010D00081E090E00E94EE26883018F480937A0434
:1010E00002C010927A0480917A04089585E590E018
:1010F0000E94EE26863018F48093680402C0109295
:101100006804809168040895CF92DF92EF92FF9275
:101110000F931F93CF93DF930CE514E0C6E5D0E067
:101120000F2EC12CD12CF0E8EF2EFFE3FF2EF02D77
:10113000CE010E94F626F801608371838283938337
:101140009B01AC010E949520882329F0F801C08200
:10115000D182E282F38224960C5F1F4FC236D10502
:1011600039F782E690E00E94F6266B017C019B0134
:10117000AC010E949520811113C02CEA35EC47E2A6
:1011800057E3C701B6010E94D31D88234CF0C092DB
:101190000901D0920A01E0920B01F0920C010CC0FF
:1011A00080E090E0A0E8BFE38093090190930A01FA
:1011B000A0930B01B0930C01DF91CF911F910F9180
:1011C000FF90EF90DF90CF90089586E690E00E9428
:1011D000F6266093050170930601809307019093B2
:1011E00008019B01AC010E949520882361F080E0FA
:1011F00090E0AAE7B4E48093050190930601A093E0
:101200000701B09308010E945E1108958AE690E0FC
:101210000E94EE26823018F480935B0402C0109284
:101220005B048BE690E00E94EE26853618F48093EE
:10123000040103C080E5809304010E945E118CE6E6
:1012400090E00E94EE26823018F4809359040895AD
:1012500010925904089583E090E00E94EE268B30AE
:1012600018F48093770402C0109277048091770479
:10127000089584E590E00E94EE26883018F480936B
:10128000760402C010927604809176040895CF927D
:10129000DF92EF92FF92CF93DF9398E0899FE00176
:1012A0001124CE0104960E94F6266B017C01CE012A
:1012B00008960E94F626C755DB4FC882D982EA827B
:1012C000FB826C837D838E839F83DF91CF91FF9020
:1012D000EF90DF90CF9008952F923F924F925F92C0
:1012E0006F927F928F929F92AF92BF92CF92DF9236
:1012F000EF92FF920F931F93CF93DF93CDB7DEB79B
:101300002A970FB6F894DEBF0FBECDBF2B013C016C
:101310005A01190120E030E0A9010E94D31D882361
:101320004CF48DE2F501808377FA709477F870942D
:1013300001E001C000E0C301B2010E944A1E6B013E
:101340007C010E94821E9B01AC01C301B2010E947C
:101350004B1D2B013C01C114D104E104F104F9F04F
:1013600010E088248394912C8C0E9D1E810E911C7C
:10137000C701B6012AE030E040E050E00E94C321FE
:10138000605DF4016083C22ED32EE42EF52E1F5F24
:10139000C114D104E104F10421F7111140C080E32C
:1013A000898311E03CC0D501AF0DB11D82918C93B2
:1013B000F3948F2D801B8117B0F38CE2F501EF0DB4
:1013C000F11D808311E01F0D2114310481F120E013
:1013D00030E040E251E4C301B2010E94921F2B01B0
:1013E0003C010E944A1EF501E10FF11D20E3260F8A
:1013F0002083072E000C880B990B0E94821E9B01F4
:10140000AC01C301B2010E944B1D2B013C01812F95
:101410008F1990E01F5F82159305C8F208C0E1E0C4
:10142000F0E0EC0FFD1FE10FF11DF02EBCCFF50138
:10143000E10FF11D1082C5012A960FB6F894DEBFA8
:101440000FBECDBFDF91CF911F910F91FF90EF9015
:10145000DF90CF90BF90AF909F908F907F906F90D4
:101460005F904F903F902F900895DC018C918823DE
:1014700091F0861729F090E007C0861305C001C0DF
:10148000FD01408381E008959F5FFD01E90FF11D9B
:1014900080818111F2CF0895CF93DF93EC010E94F8
:1014A0000F0C0E94DF1B83E992E00E94E81BCE0133
:1014B0000E94E81B8AE892E00E94E81B0E940B0C45
:1014C0008FEF9BE60197F1F700C0000080E0DF910D
:1014D000CF910895CF93DF93EC010E940F0C0E94EF
:1014E000DF1B89E992E00E94E81BCE010E94E81B05
:1014F0008AE892E00E94E81B0E940B0C8FEF9BE6AB
:101500000197F1F700C0000080E0DF91CF910895CE
:101510000F931F93CF938C01C62F0E940F0C0E9434
:10152000DF1B8EE892E00E94E81BC8010E94E81BC6
:1015300085E191E00E94E81B8C2F0E949B1B8AE8AA
:1015400092E00E94E81B0E940B0C8FEF9BE6019734
:10155000F1F700C0000080E0CF911F910F91089536
:1015600060E30E94880A089561E30E94880A089552
:101570000F931F93CF93DF938C01EB010E940F0C0D
:101580000E94DF1BC8010E94E81B84E892E00E94D1
:10159000E81B82E20E949B1BCE010E94E81B82E2B4
:1015A0000E949B1B8AE892E00E94E81B0E940B0CA1
:1015B0008FEF9BE60197F1F700C0000080E0DF911C
:1015C000CF911F910F9108950F931F93CF93DF93A6
:1015D0008C01EB010E940F0C0E94DF1BC8010E94CE
:1015E000E81B8EE792E00E94E81BCE010E94E81BF8
:1015F0008AE892E00E94E81B0E940B0C8FEF9BE6AA
:101600000197F1F700C0000080E0DF91CF911F91BA
:101610000F9108950F931F93CF93DF93CDB7DEB74C
:1016200060970FB6F894DEBF0FBECDBF8C01862F3A
:101630004AE0BE016F5F7F4F90E00E94DD22BE0155
:101640006F5F7F4FC8010E94E40A60960FB6F8945E
:10165000DEBF0FBECDBFDF91CF911F910F910895D7
:101660000F931F93CF93DF938C01EB010E940F0C1C
:101670000E94DF1BC8010E94E81B88E792E00E94DD
:10168000E81BCE010E94E81B8AE892E00E94E81B5A
:101690000E940B0C8FEF9BE60197F1F700C0000052
:1016A00080E0DF91CF911F910F9108950F931F93C9
:1016B000CF93DF93CDB7DEB760970FB6F894DEBF58
:1016C0000FBECDBF8C01CB014AE0BE016F5F7F4FE3
:1016D0000E94DD22BE016F5F7F4FC8010E94300B68
:1016E00060960FB6F894DEBF0FBECDBFDF91CF91ED
:1016F0001F910F9108950F931F93CF93DF93CDB751
:10170000DEB760970FB6F894DEBF0FBECDBF8C0179
:10171000CB01BA012AE0AE014F5F5F4F0E94A422C5
:10172000BE016F5F7F4FC8010E94E40A60960FB64A
:10173000F894DEBF0FBECDBFDF91CF911F910F9107
:1017400008950F931F93CF93DF938C01EB010E94B9
:101750000F0C0E94DF1BC8010E94E81B82E792E089
:101760000E94E81BCE010E94E81B8AE892E00E94DA
:10177000E81B0E940B0C8FEF9BE60197F1F700C06E
:10178000000080E0DF91CF911F910F9108950F939A
:101790001F93CF93DF9300D01F92CDB7DEB78C019C
:1017A000862F4AE0BE016F5F7F4F90E00E94DD22EE
:1017B000BE016F5F7F4FC8010E94A10B0F900F9079
:1017C0000F90DF91CF911F910F9108951F920F926B
:1017D0000FB60F9211248F939F93AF93BF93809175
:1017E000540490915504A0915604B0915704019669
:1017F000A11DB11D8093540490935504A0935604E9
:10180000B0935704BF91AF919F918F910F900FBEEE
:101810000F901F9018958FB780688FBF08958FB76E
:101820008F778FBF089582E084BD15BC16BC9CE6FF
:1018300097BD80936E000E940B0C089585B585605E
:1018400085BD08950F931F93CF93DF93EC012596E9
:1018500040E06BE3CE010E94350ACE010E94562281
:101860008C0180917C04801731F08FEF80937C0491
:10187000CE010E944C0A8EE992E00E94081DC80128
:1018800099270E941E1D8BE393E00E94081DDF91A3
:10189000CF911F910F91089510925804EBE8F4E056
:1018A00089EA94E0108211821282138215821482D6
:1018B0003696E817F907B1F70895CF92DF92EF92C5
:1018C000FF920F931F93CF93DF930091580410E082
:1018D000C801049665E070E00E94AF21EC01FC01B4
:1018E000EE0FFF1FE80FF91FEE0FFF1FE557FB4F2D
:1018F000248135812115310509F43FC0C8010596C1
:1019000065E070E00E94AF21FC01EE0FFF1FE80FC1
:10191000F91FEE0FFF1FE557FB4F4481558141151D
:10192000510579F1BE01660F771FC60FD71FCC0F87
:10193000DD1FC557DB4FFC01EE0FFF1FE80FF91F3E
:10194000EE0FFF1FE557FB4F88819981AA81BB816C
:10195000C080D180E280F380BC01CD016C197D098B
:101960008E099F09241B350B40E050E00E94C321E3
:10197000A4E6B0E00E94F12107C060E070E0CB0176
:1019800003C060E070E0CB01609350047093510499
:101990008093520490935304DF91CF911F910F9144
:1019A000FF90EF90DF90CF900895CF93DF93EC01FD
:1019B00025966BEA72E0CE010E947F22892B69F0A6
:1019C0008CE594E09093FA048093F90486E499E11D
:1019D0009093800480937F0449C063EB72E0CE0152
:1019E0000E947F22892B69F080E694E09093FA04AC
:1019F0008093F90486E499E19093800480937F04B6
:101A000035C06BEB72E0CE010E947F22892B69F01A
:101A100084E694E09093FA048093F90486E499E1D3
:101A20009093800480937F0421C063EC72E0CE0128
:101A30000E947F22892B39F089E694E09093FA0482
:101A40008093F90413C06AEC72E0CE010E947F22F9
:101A5000892B61F085E091E09093FA048093F9047A
:101A60008FE395E19093800480937F04DF91CF9181
:101A700008954F925F926F927F92AF92BF92CF92F2
:101A8000DF92EF92FF920F931F93CF93DF93CDB727
:101A9000DEB7CC5DD1090FB6F894DEBF0FBECDBF67
:101AA000C090770421E02C1508F077C0CC20B1F16C
:101AB000CE0101967C0109EA14E05E0191EAA90ECB
:101AC000B11CD12C0F2E412C512CF0E86F2EFFE3CE
:101AD0007F2EF02DF7014082518262827382F801DD
:101AE00060817181828193810E94821EF7016483EB
:101AF000758386839783F80184819581A681B78158
:101B0000F50181939193A193B1935F01D394F8E090
:101B1000EF0EF11C085F1F4FDC10DCCF9E01275336
:101B20003F4F79018E010F5A1F4F20553109AE01E9
:101B30004F5F5F4F62E070E08C2D90E00E94870164
:101B40005C0180917704670198017801085D1F4F5F
:101B5000205B3F4FAE014F5F5F4F62E070E090E06F
:101B60000E945F06EDE0F1E0CF55DF4F888199815B
:101B7000AA81BB81C15AD04080839183A283B38361
:101B8000CB55DF4F88819981AA81BB81C55AD0404E
:101B900084839583A683B7830EC0EDE0F1E01082C5
:101BA00011821282138280E090E0A0E8BFE3848378
:101BB0009583A683B783C452DF4F0FB6F894DEBF78
:101BC0000FBECDBFDF91CF911F910F91FF90EF908E
:101BD000DF90CF90BF90AF907F906F905F904F90CD
:101BE0000895A82FB0E080917704E82FF0E03197B6
:101BF000AE17BF07ACF4AA0FBB1FAA0FBB1FAA0FDB
:101C0000BB1FA755BB4FEE0FFF1FEE0FFF1FEE0FC1
:101C1000FF1FE755FB4F98E001900D929A95E1F771
:101C20008150809377040895FC0190917704992363
:101C3000A1F08581891788F40E94F10D80917804C4
:101C40008150809378046091770489EA94E00E943F
:101C5000C1078CE692E00E944C0A0895CF93DF936F
:101C6000CDB7DEB728970FB6F894DEBF0FBECDBF55
:101C700029833A834B835C836D837E838F8398872C
:101C8000A091770481E08A0F80937704B0E0AA0FD7
:101C9000BB1FAA0FBB1FAA0FBB1FA755BB4F88E0D6
:101CA000FE01319601900D928A95E1F728960FB6C4
:101CB000F894DEBF0FBECDBFDF91CF910895CF92D4
:101CC000DF92EF92FF920F931F93CF93DF93CDB7E5
:101CD000DEB728970FB6F894DEBF0FBECDBF2091B8
:101CE00077042A3058F5FC01F480C580D680E7805F
:101CF0008C01085F1F4F40E06BE3C8010E94350A6A
:101D0000C8010E9452222F2DE62F462F572F682FF1
:101D1000792F4D835E836F8378873C2D4D2D5E2D0B
:101D20006E2F7E818F8198850E942E0E0E94390D24
:101D30006091770489EA94E00E94C1078CE692E002
:101D40000E944C0A28960FB6F894DEBF0FBECDBF96
:101D5000DF91CF911F910F91FF90EF90DF90CF9087
:101D60000895FC0185810E94F7070895CF930E9492
:101D70005A080E94E5080E9406090E9476080E94FF
:101D800084080E9468080E9439090E942B0960910A
:101D9000770483ED92E00E940A0B809177048823F8
:101DA00049F0C0E08C2F0E944709CF5F80917704F3
:101DB000C817C0F30E94390DCF9108950F931F9358
:101DC0000E9458018B019C0160937204709373040C
:101DD0008093740490937504409154045091550479
:101DE00060915604709157048091580490E0FC0172
:101DF000EE0FFF1FE80FF91FEE0FFF1FE557FB4F18
:101E0000008311832283338355834483019665E0E5
:101E100070E00E94AF2180935804C901B8011F915E
:101E20000F910895CF93DF93CDB7DEB72A970FB602
:101E3000F894DEBF0FBECDBF80916D04811123C029
:101E40000E94580160937204709373048093740429
:101E5000909375042AE0AE014F5F5F4F0E94A42269
:101E6000BE016F5F7F4F88E592E00E94B80A409103
:101E7000720450917304609174047091750480E54C
:101E800092E00E947B0B2A960FB6F894DEBF0FBE3D
:101E9000CDBFDF91CF9108950F931F93CF93DF9321
:101EA000CDB7DEB72A970FB6F894DEBF0FBECDBF11
:101EB00080916D04811134C00E94580160937204B6
:101EC0007093730480937404909375042AE0AE01B8
:101ED0004F5F5F4F0E94A422BE016F5F7F4F88E576
:101EE00092E00E94B80A409172045091730460918C
:101EF00074047091750480E592E00E947B0B6CE3A2
:101F000073E086E492E00E94B80A69E172E08FE132
:101F100092E00E94A10B8FE092E00E94B00A1EC0E6
:101F20006091690470916A0480916B0490916C04D3
:101F30008E010F5F1F4F22E04AE00E943222B8015B
:101F400086E492E00E94B80A6CE172E08FE192E0D0
:101F50000E94A10B8FE092E00E94B40A2A960FB66D
:101F6000F894DEBF0FBECDBFDF91CF911F910F91CF
:101F70000895CF93DF9300D01F92CDB7DEB7809145
:101F80006D0490E0019681709078992324F4019774
:101F90008E6F9F6F019680936D044AE0BE016F5F64
:101FA0007F4F90E00E94DD22BE016F5F7F4F88E28D
:101FB00092E00E94E40A0E944C0F8CEE92E00E9494
:101FC000081D0F900F900F90DF91CF910895CF9340
:101FD000DF93CDE0D1E00E94821E2C813D814E81B5
:101FE0005F810E94921F288139814A815B810E9412
:101FF0004C1DDF91CF9108958617C9F06330E1F051
:102000006430F9F0623011F1613029F1653041F14D
:1020100061112BC0682F80E00E94FC0F9B01AC0176
:1020200060E070E080E89FE30E94D81D089560E0C2
:1020300070E080E89FE308956AE078EE8CE191E437
:10204000089562E17CEA80E29CE3089560E070E03C
:102050008AE794E4089567E177EB81ED98E30895CA
:102060006EE778E18DE090E4089560E070E080E84C
:102070009FE30895CF92DF92EF92FF92CF936B018F
:102080007C01C22F222311F0411109C06C2F842F33
:102090000E94FC0FA70196010E94921F07C020E03A
:1020A0000E943A102C2F40E00E943A10CF91FF90EE
:1020B000EF90DF90CF9008958617A9F06330C1F0BC
:1020C0006130D9F06230F1F0611121C0682F80E0F9
:1020D0000E945C109B01AC0160E070E080E89FE32F
:1020E0000E94D81D089560E070E080E89FE30895A5
:1020F00060E070E080E89FE3089569EA79E081E1BB
:1021000093E408956FE776ED80ED9DE3089560E038
:1021100070E080E89FE30895CF92DF92EF92FF9204
:10212000CF936B017C01C22F222311F0411109C012
:102130006C2F842F0E945C10A70196010E94921FB1
:1021400007C020E00E948C102C2F40E00E948C10D1
:10215000CF91FF90EF90DF90CF900895CF93DF93D2
:10216000C42FD22F0E94E70F2D2F4C2F0E943A1020
:10217000DF91CF9108958F929F92AF92BF92EF928D
:102180000F931F934801590123E00E943A10A501C3
:1021900094010E94D81D2E2D40E00E948C101F91AA
:1021A0000F91EF90BF90AF909F908F9008958F9276
:1021B0009F92AF92BF92EF920F931F93CF93C42F32
:1021C000480159010E94E70F950184014C2F0E949C
:1021D000BB10CF911F910F91EF90BF90AF909F9048
:1021E0008F9008950F931F93CF93DF93CDB7DEB7F2
:1021F0002E970FB6F894DEBF0FBECDBFFE0131960D
:102200008EE0DF011D928A95E9F780917B048111B0
:102210000DC000917A0410E0C801880F991F880F43
:10222000991F080F191F09551C4F10C08091790480
:1022300090E08C01000F111F880F991F880F991FC4
:10224000880F991F080F191F01581C4FB8018FE202
:1022500092E00E94B80AB8018E010F5F1F4FC801BB
:102260000E947422F80101900020E9F731978FE273
:1022700093E7A0E080839183A283B8018AE391E091
:102280000E94B80A2E960FB6F894DEBF0FBECDBFDF
:10229000DF91CF911F910F91089560917B04617040
:1022A000655E8CE291E00E94C70B60917B046170D7
:1022B000635E8EE191E00E94C70B08956091040176
:1022C00070E080E090E00E94821E20910501309134
:1022D000060140910701509108010E94921F20E0E1
:1022E00030E048EC52E40E94D81D609300017093E6
:1022F0000101809302019093030108958091770476
:10230000823008F451C0409176046091720470915B
:1023100073048091740490917504242F0E94AE1070
:10232000209100013091010140910201509103017F
:102330000E948D1F18164CF580915B040E943F1D72
:1023400060E078EF82E492E00E94560B80915A049C
:1023500081110CC06DEC7CEC8CEC9DE30E94661B43
:102360006DEC7CEC8CEC9DE30E94451B80915A0443
:1023700090E0019687709078992324F40197886FF4
:102380009F6F019680935A04089581E090915B04B9
:10239000911180E00E943F1D60E070E082E492E0D5
:1023A0000E94560B10925A040895EF920F931F93B8
:1023B00080917704823050F180917B0481110FC0AD
:1023C000609172047091730480917404909175040B
:1023D00020917A04409176040E94AE101BC00091B7
:1023E000090110910A0120910B0130910C016091BB
:1023F0007204709173048091740490917504E0905C
:102400007904409176040E94D71004C060E070E027
:1024100080EC9FE71F910F91EF90089580917B04CE
:1024200081110DC080917A0490E09C01220F331F2E
:10243000220F331F820F931F89559C4F08952091BF
:10244000790430E0C901880F991F220F331F220F32
:10245000331F220F331F820F931F81589C4F089503
:10246000CF92DF92EF92FF9280917704823018F141
:1024700040917604609172047091730480917404A9
:1024800090917504242F0E94AE106B017C01209165
:102490006E0430916F0440917004509171040E9459
:1024A0008D1F181644F4C0926E04D0926F04E0920F
:1024B0007004F0927104FF90EF90DF90CF90089538
:1024C000EF920F931F9380917704823050F18091A7
:1024D0007B0481110FC060916E0470916F04809134
:1024E00070049091710420917A04409176040E94C6
:1024F0003A101BC00091090110910A0120910B01B3
:1025000030910C0160916E0470916F0480917004A1
:1025100090917104E0907904409176040E94BB1080
:1025200004C060E070E080EC9FE71F910F91EF9096
:1025300008958F929F92AF92BF92CF92DF92EF92C7
:10254000FF920F931F9380917704823008F45CC050
:1025500080917B04811127C06091500470915104D7
:1025600080915204909153040E94821E6B017C0161
:10257000EDE0F1E0248135814681578160817181F0
:10258000828193810E94D81D9B01AC01C701B601D5
:102590000E944B1D0E944A1E20917A0440917604AD
:1025A0000E94AE1034C08090090190900A01A09062
:1025B0000B01B0900C016091500470915104809116
:1025C0005204909153040E94821E6B017C01EDE045
:1025D000F1E024813581468157816081718182815A
:1025E00093810E94D81D9B01AC01C701B6010E94D6
:1025F0004B1D0E944A1EE090790495018401409190
:1026000076040E94D71003C060E070E0CB011F91F8
:102610000F91FF90EF90DF90CF90BF90AF909F9081
:102620008F9008954F925F926F927F928F929F92B8
:10263000AF92BF92CF92DF92EF92FF920F931F93D0
:10264000CF93DF93CDB7DEB760970FB6F894DEBFB8
:102650000FBECDBFFE01319680E1DF011D928A954C
:10266000E9F70E94DE0E0E9430120E945D0C0E946B
:10267000D5116B017C010E9460122B013C010E946C
:1026800099124B015C01A7019601C701B6010E9496
:102690009520811121C022E030E0AE014F5F5F4FF5
:1026A000C701B6010E946C09BE016F5F7F4F82E4D3
:1026B00092E00E94B80A22E030E0AE014F5F5F4F27
:1026C000C301B2010E946C09BE016F5F7F4F89E3B5
:1026D00092E00E94B80A0CC069EF72E082E492E0D6
:1026E0000E94B80A69EF72E089E392E00E94B80A9A
:1026F00021E030E08E010F5F1F4FA801C501B4013A
:102700000E946C090E940E12BC01C8010E94742232
:10271000F80101900020E9F731978FE293E7A0E0FC
:1027200080839183A283B80185E491E00E94B80A76
:1027300060960FB6F894DEBF0FBECDBFDF91CF918C
:102740001F910F91FF90EF90DF90CF90BF90AF90CF
:102750009F908F907F906F905F904F900895CF9350
:10276000DF93809177048230D8F0409176046091B5
:102770007204709173048091740490917504242FF5
:102780000E94AE109B01AC01CDE0D1E0688179815F
:102790008A819B810E944B1D688379838A839B83F6
:1027A0000E941213DF91CF9108950E944D110E9453
:1027B000F2100E94121308956CEF72E00E947F22C3
:1027C000892B71F080917B0490E003968170907862
:1027D000992324F401978E6F9F6F019680937B0459
:1027E00080917B040E94FD070E94D5130895CF932A
:1027F000DF93EC0180917B04811130C069EF72E0BE
:10280000CE010E947F22892B79F080917A0490E09A
:10281000079687709078992324F40197886F9F6FAB
:10282000019680937A0415C06CEF72E0CE010E948D
:102830007F22892B71F080917A0490E0099687704D
:102840009078992324F40197886F9F6F0196809365
:102850007A0480917A040E94F7072FC069EF72E032
:10286000CE010E947F22892B79F08091790490E03B
:10287000039683709078992324F401978C6F9F6F4F
:1028800001968093790415C06CEF72E0CE010E942E
:102890007F22892B71F08091790490E005968370F6
:1028A0009078992324F401978C6F9F6F0196809301
:1028B0007904809179040E9403080E94D513DF9166
:1028C000CF9108950F931F93CF93DF93CDB7DEB7CA
:1028D0002A970FB6F894DEBF0FBECDBF8E010F5FF3
:1028E0001F4F8AE0F80111928A95E9F7609105017E
:1028F00070910601809107019091080121E030E07C
:10290000A8010E946C09B80185E791E00E94B80A0D
:102910006091760470E0CB01880F991F880F991F92
:10292000680F791F69557C4F82EE91E00E94B80ACA
:1029300060915B0470E06F5F7F4F61707078772308
:1029400034F4615071096E6F7F6F6F5F7F4F675F07
:102950008FE691E00E94C70B60915B046170675F36
:102960008AE691E00E94C70B609159046170675E2E
:102970008FE491E00E94C70B4091040150E060E0B9
:1029800070E081E691E00E947B0B809104014AE0B7
:102990008E010F5F1F4FB80190E00E94DD22F80109
:1029A00001900020E9F7319785E290E091838083E0
:1029B000B80189E591E00E94B80A2A960FB6F8940A
:1029C000DEBF0FBECDBFDF91CF911F910F91089554
:1029D0006CEF72E00E947F22892B71F08091590484
:1029E00090E0039681709078992324F401978E6F7C
:1029F0009F6F0196809359040E9447080E946214B9
:102A00000895CF93DF93EC01289640E06BE3CE016D
:102A10000E94350ACE010E94562280935B048FEFFC
:102A200092E00E94081D80915B0490E00E941E1DB0
:102A30008BE393E00E94081D0E9447080E946214E5
:102A4000DF91CF910895CF93DF93FC01C781D085AB
:102A5000C09304018AE193E00E94081D8C2F9D2FF2
:102A60000E941E1D8AE393E00E94081D0E944708F1
:102A70000E945E110E946214DF91CF9108950E941E
:102A80003A080E945E110E9462140895EF92FF922C
:102A90000F931F93CF93DF93CDB7DEB768970FB631
:102AA000F894DEBF0FBECDBF80917704811107C0BF
:102AB0006DE373E083E092E00E94B80A7DC0CE012E
:102AC00001967C0184E1F70111928A95E9F78091E2
:102AD000780490E04AE0BE016B5E7F4F01960E9451
:102AE000DD22D7010D900020E9F7119787E0ECE493
:102AF000F3E001900D928A95E1F7BE016B5E7F4F86
:102B0000C7010E947422D7010D900020E9F71197A8
:102B100085E0E3E5F3E001900D928A95E1F780917D
:102B200077044AE0BE016B5E7F4F90E00E94DD2299
:102B3000BE016B5E7F4FC7010E947422C7010E94D5
:102B4000081D8BE393E00E94081DB70183E092E02B
:102B50000E94B80A6091780484EF91E00E940A0B09
:102B6000E0917804F0E0EE0FFF1FEE0FFF1FEE0F75
:102B7000FF1FE755FB4F648175818681978187012F
:102B800022E049E00E943222C7010E94081D8BE327
:102B900093E00E94081DB7018AEE91E00E94B80AF6
:102BA00080ED91E00E94B40A89ED91E00E94B40AA0
:102BB0008DEA91E00E94B40A6091760470E0CB0146
:102BC000880F991F880F991F680F791F69557C4FCF
:102BD00082EE91E00E94B80A86EB91E00E94B40A6E
:102BE00083EC91E00E94B40A68960FB6F894DEBFB9
:102BF0000FBECDBFDF91CF911F910F91FF90EF904E
:102C000008950F931F93CF93DF93D0917804C091D1
:102C10007704CC2351F18C0169EF72E00E947F228E
:102C2000892B61F06C2F70E08D2F90E00197860F5B
:102C3000971F0E94AF218093780412C06CEF72E05E
:102C4000C8010E947F22892B81F06C2F70E08D2FAC
:102C500090E00196860F971F0E94AF218093780421
:102C600080917804D8130E944615DF91CF911F916F
:102C70000F910895CF93DF93EC0169EF72E00E940A
:102C80007F22892B79F08091760490E007968770F7
:102C90009078992324F40197886F9F6F0196809311
:102CA000760415C06CEF72E0CE010E947F22892B62
:102CB00071F08091760490E009968770907899235E
:102CC00024F40197886F9F6F01968093760488E5BE
:102CD00093E00E94081D8091760490E09C01220FF1
:102CE000331F220F331F820F931F89559C4F0E9461
:102CF000081D8BE393E00E94081D809176040E94DA
:102D0000F1070E944615DF91CF9108954F925F928F
:102D10006F927F928F929F92AF92BF92CF92DF92EB
:102D2000EF92FF920F931F93CF93DF93CDB7DEB750
:102D300064970FB6F894DEBF0FBECDBF4A015B01AA
:102D400028013901811107C09A01AB01C501B40105
:102D50000E94921FF5C0813039F4A9019801C50184
:102D6000B4010E94921FECC0823069F42BED3FE069
:102D700049E45FE3C501B4010E94921FA5019401DB
:102D80000E94921FDDC08330B9F42BED3FE049E48F
:102D900050E4C301B2010E94921F6B017C01A301A8
:102DA0009201C501B4010E944B1D9B01AC01C701FA
:102DB000B6010E94921FC4C0843009F0BDC020E05B
:102DC00030E040E85EE3C701B6010E94921F6D83C8
:102DD0007E838F839887A5019401C501B4010E9469
:102DE000921F69877A878B879C87A7019601C70105
:102DF000B6010E94921F69837A838B839C839B0117
:102E0000AC0169857A858B859C850E944B1D20E0ED
:102E100030E040E05FE30E94FF1F698B7A8B8B8B71
:102E20009C8BA5019401C701B6010E94D81D0E9488
:102E3000B81D6D877E878F87988BA3019201C30190
:102E4000B2010E944C1D9B01AC01C501B4010E945E
:102E50004B1D4B015C019B01AC010E94921F29811B
:102E60003A814B815C810E944B1D20E030E040E0C4
:102E70005FE30E94FF1F69837A838B839C8320E03A
:102E800030E040E05FE3C501B4010E94921F2B01D6
:102E90003C01A5019401C701B6010E94D81D0E9402
:102EA000B81D6B017C0129893A894B895C896D8148
:102EB0007E818F8198850E94921F4B015C0120E0EA
:102EC00030E040E85EE369857A858B859C850E94C9
:102ED000921F2D853E854F8558890E94921F9B0128
:102EE000AC01C501B4010E944C1D4B015C0129815C
:102EF0003A814B815C816D817E818F8198850E94B2
:102F0000921F9B01AC01C501B4010E944B1D4B01F6
:102F10005C01A3019201C301B2010E94921F9B01B7
:102F2000AC01C701B6010E94921F9B01AC01C50113
:102F3000B4010E944B1D04C060E070E080E89FE394
:102F400064960FB6F894DEBF0FBECDBFDF91CF9170
:102F50001F910F91FF90EF90DF90CF90BF90AF90B7
:102F60009F908F907F906F905F904F900895EF9219
:102F7000FF920F931F93CF93DF93CDB7DEB72A97BE
:102F80000FB6F894DEBF0FBECDBF60916804615FDD
:102F900084EA91E00E94C70B87E191E00E946A0AEF
:102FA00090916804892F8D7F69F48AE991E00E94ED
:102FB000B40A80E991E00E94B00A86E891E00E949C
:102FC000B00A2AC0813069F48AE991E00E94B40A0B
:102FD00080E991E00E94B40A86E891E00E94B00A7C
:102FE0001BC0943069F48AE991E00E94B40A80E938
:102FF00091E00E94B40A86E891E00E94B40A0CC0F5
:103000008AE991E00E94B00A80E991E00E94B00A4A
:1030100086E891E00E94B00A8FE791E00E94B40A2E
:103020000F2EFCE5EF2EF4E0FF2EF02DF70160816E
:103030007181828193818E010F5F1F4F21E047E0F4
:103040000E943222B8018AE991E00E94B80AF70191
:10305000648175818681978121E047E00E94322258
:10306000B80180E991E00E94B80AF7016085718596
:103070008285938521E047E00E943222B80186E8EC
:1030800091E00E94B80A6091090170910A01809153
:103090000B0190910C0121E047E00E943222B8011F
:1030A0008FE791E00E94B80A2A960FB6F894DEBF27
:1030B0000FBECDBFDF91CF911F910F91FF90EF9089
:1030C0000895CF92DF92EF92FF920F931F93CF93C9
:1030D000DF93EC0169EF72E00E947F22892B59F0A7
:1030E0008091680490E0019766E070E00E94AF2153
:1030F0008093680411C06CEF72E0CE010E947F22C1
:10310000892B51F08091680490E0019666E070E0B0
:103110000E94AF2180936804ECE5F4E080E090E049
:10312000A0E8BFE380839183A283B38384839583E4
:10313000A683B78380879187A287B387C0916804ED
:103140006C017D018C019D01AC01BD018C2F0E94A1
:1031500086166093090170930A0180930B01909386
:103160000C018C2F0E9409080E940F080E94B717BB
:10317000DF91CF911F910F91FF90EF90DF90CF9053
:103180000895CF93DF93EC0160E772E00E947F2205
:10319000892B81F081E080937C041092500410927E
:1031A000510410925204109253040E944C0C0E943D
:1031B000D5135CC06CE672E0CE010E947F22892BA1
:1031C00031F083E080937C040E9446154FC066E690
:1031D00072E0CE010E947F22892B31F087E080933C
:1031E0007C040E94621442C06EE672E0CE010E942E
:1031F0007F22892B21F082E080937C0437C068E62F
:1032000072E0CE010E947F22892B51F080917C04D4
:10321000853061F185E080937C040E94B71726C059
:103220006AE672E0CE010E947F22892BE1F0809154
:103230007C048430A9F084E080937C0410926904BB
:1032400010926A0410926B0410926C041092720433
:1032500010927304109274041092750410926D040D
:103260000E944C0F03C081E080937C0483E693E0CE
:103270000E94081D80917C0490E00E941E1D8BE33B
:1032800093E00E94081DDF91CF910895CF92DF92C5
:10329000EF92FF920F931F93ECE5F4E0C084D1848A
:1032A000E284F38404811581268137814081518134
:1032B00062817381809168040E948616609309017F
:1032C00070930A0180930B0190930C010E940F08E8
:1032D0000E94B7171F910F91FF90EF90DF90CF9052
:1032E00008951092800410927F041092FA041092B4
:1032F000F90408950E94431B0E94CF1C60E875E208
:1033000080E090E00E94831B80E00E944D010E94BB
:10331000B60E0E94711981E090915B04911180E0DA
:103320000E94471D2FEF8FEF9AE12150804090407F
:10333000E1F700C000000E94130C0E941E0C80E701
:1033400092E00E944C0A85EC93E00E94081D0895CB
:10335000CF92DF92EF92FF9205960E9452226B016C
:103360007C019B01AC010E949520811111C0E0916C
:10337000F904F091FA04309759F0C082D182E282C8
:10338000F382E0917F04F0918004309709F0099571
:103390000E947119FF90EF90DF90CF9008950F93E6
:1033A0001F93CF93DF93CDB7DEB7A4970FB6F894F2
:1033B000DEBF0FBECDBF8E010F5F1F4F53C1B801DF
:1033C0008BE30E94BD1C8EE693E00E94081DC8019D
:1033D0000E94081D8BE393E00E94081D69E474E0DD
:1033E000C8010E947F220817190751F46DEC7CEC8C
:1033F0008CEC9DE30E94451BC8010E94B10E32C1B6
:1034000065E174E0C8010E947F220817190751F492
:103410006DEC7CEC8CEC9DE30E94451BC8010E9486
:10342000220C20C163E474E0C8010E947F220817C7
:10343000190721F4C8010E94C11814C16BE174E09E
:10344000C8010E947F220817190751F46DEC7CEC2B
:103450008CEC9DE30E94451BC8010E94B90F02C17C
:1034600060E174E0C8010E947F220817190751F437
:103470006DEC7CEC8CEC9DE30E94451BC8010E9426
:103480005F0EF0C069E074E0C8010E947F22081757
:10349000190751F46DEC7CEC8CEC9DE30E94451B0C
:1034A000C8010E940116DEC069E374E0C8010E94F1
:1034B0007F220817190751F46DEC7CEC8CEC9DE32E
:1034C0000E94451BC8010E943A16CCC06BEF73E006
:1034D000C8010E947F220817190751F46DEC7CEC9B
:1034E0008CEC9DE30E94451BC8010E94140EBAC0DB
:1034F00061E074E0C8010E947F220817190751F4A7
:103500006DEC7CEC8CEC9DE30E94451BC8010E9495
:103510006118A8C065EF73E0C8010E947F220817F8
:10352000190751F46DEC7CEC8CEC9DE30E94451B7B
:10353000C8010E94D50C96C06FEE73E0C8010E94CE
:103540007F220817190751F46DEC7CEC8CEC9DE39D
:103550000E94451BC8010E94A81984C061E274E062
:10356000C8010E947F220817190751F46DEC7CEC0A
:103570008CEC9DE30E94451BC8010E94DC1372C0C5
:103580006EE274E0C8010E947F220817190751F407
:103590006DEC7CEC8CEC9DE30E94451BC8010E9405
:1035A000F71360C066EE73E0C8010E947F2208171F
:1035B000190751F46DEC7CEC8CEC9DE30E94451BEB
:1035C000C8010E9401154EC06EED73E0C8010E9453
:1035D0007F220817190751F46DEC7CEC8CEC9DE30D
:1035E0000E94451BC8010E9423153CC066ED73E094
:1035F000C8010E947F220817190751F46DEC7CEC7A
:103600008CEC9DE30E94451BC8010E94E8142AC06F
:1036100061ED73E0C8010E947F220817190751F479
:103620006DEC7CEC8CEC9DE30E94451BC8010E9474
:10363000AF1318C06CEC73E0C8010E947F2208171A
:10364000190781F46DEC7CEC8CEC9DE30E94451B2A
:1036500010926E0410926F04109270041092710414
:103660000E9412138BE30E946C1C019609F0A7CEF6
:10367000A4960FB6F894DEBF0FBECDBFDF91CF91F9
:103680001F910F9108953C9A089520E030E046E1A3
:1036900054E40E94921F0E94511E6115710581051C
:1036A000910599F0449AE6EFF8E03197F1F700C000
:1036B00000004498E6EFF8E03197F1F700C0000011
:1036C000615071098109910969F7089520E030E09E
:1036D0004AEF54E40E94921F0E94511E6115710529
:1036E0008105910579F0449AE3EBF2E03197F1F727
:1036F0004498E3EBF2E03197F1F7615071098109E9
:10370000910989F7089580E090E0FC01E550FB4FB6
:103710001082019688319105C1F71092C50087E4A7
:103720008093C40088E98093C10086E08093C20042
:103730000E940B0C0895E0ECF0E0908195FFFDCF26
:103740008093C6000895E0ECF0E080818823ECF7D8
:103750008091C60008951F920F920FB60F92112408
:103760002F933F934F935F936F937F938F939F9389
:10377000AF93BF93EF93FF930E94A31BE0917D044F
:10378000F0E0E550FB4F808380917D0490E001964E
:1037900068E170E00E94AF2180937D04FF91EF917A
:1037A000BF91AF919F918F917F916F915F914F9159
:1037B0003F912F910F900FBE0F901F9018950E9470
:1037C0000F0C10927D0410927E040E940B0C089541
:1037D000CF93DF93EC018881882331F021960E94FA
:1037E0009B1B89918111FBCFDF91CF910895EF92BF
:1037F000FF920F931F93CF93DF93EC018B010E94F5
:103800000F0C28E130E080917D0440917E0490E02F
:10381000841B91094896B9010E94AF218C179D071E
:1038200090F3209769F1F80140E050E080917E0428
:103830007A01E80EF11C9701ABEABAEA0E94E22194
:10384000929582958F7089279F7089279C01220FFE
:10385000331F820F931F880F991F880F991F880F9E
:10386000991F9701281B390BD901A550BB4F8C918B
:1038700081934F5F5F4F4C175D07C1F6CE0101C0CA
:10388000CE01F801E80FF91F108280917E04C80F65
:10389000D11D9E01ABEABAEA0E94E221929582957F
:1038A0008F7089279F7089279C01220F331F820FF9
:1038B000931F880F991F880F991F880F991FC81B86
:1038C000D90BC0937E040E940B0CDF91CF911F9106
:1038D0000F91FF90EF9008950F931F93CF93DF9375
:1038E000482F80917D0420917E0490E0821B9109F5
:1038F000489668E170E00E94AF218823A1F1EC01B5
:10390000DD271C161D0694F580917E0490E068E189
:1039100070E00E94AF21FC01E550FB4F80818417CD
:10392000A9F020E030E008E110E015C090917E049D
:10393000B901690F711DCB01B8010E94AF21FC01D3
:10394000E550FB4F9081941306C002C020E030E0A8
:10395000822F932F0DC02F5F3F4F2C173D0731F75C
:103960008FEF9FEF05C08FEF9FEF02C08FEF9FEFAC
:10397000DF91CF911F910F9108950F931F93CF93D4
:10398000C82F8B018C2F0E946C1C8F5FD9F3B8015C
:1039900090E00E94F71BCF911F910F910895539AC9
:1039A000E1E8F0E080818860808380E894E0909393
:1039B0008900809388000895E1E8F0E090819E7F7F
:1039C0009083882311F05B9A01C05B98E1E8F0E0F6
:1039D000808181608083B19BFECFB19AE1E8F0E005
:1039E00080818E7F80830895CF93DF93D82F80E0EE
:1039F0000E94DC1CC8E08D2F81700E94DC1CD695D3
:103A0000C150C9F781E00E94DC1CDF91CF9108957D
:103A10000F931F93CF93FC018081882359F08F016E
:103A2000C0E00E94F41CCF5FF801EC0FF11D808113
:103A30008111F7CFCF911F910F910895CF93DF930D
:103A4000CDB7DEB760970FB6F894DEBF0FBECDBF1F
:103A50004AE0BE016F5F7F4F0E949922CE0101961E
:103A60000E94081D60960FB6F894DEBF0FBECDBF52
:103A7000DF91CF910895289A089528980895882372
:103A800019F00E943B1D08950E943D1D0895209A43
:103A90000E943F1D08955058BB27AA270E94631D0E
:103AA0000C94531F0E94451F38F00E944C1F20F0B9
:103AB00039F49F3F19F426F40C94071F0EF4E09597
:103AC000E7FB0C94011FE92F0E94641F58F3BA17FB
:103AD000620773078407950720F079F4A6F50C9424
:103AE000861F0EF4E0950B2EBA2FA02D0B01B90105
:103AF00090010C01CA01A0011124FF27591B99F064
:103B0000593F50F4503E68F11A16F040A22F232F6F
:103B1000342F4427585FF3CF469537952795A795BF
:103B2000F0405395C9F77EF41F16BA0B620B730B66
:103B3000840BBAF09150A1F0FF0FBB1F661F771FD7
:103B4000881FC2F70EC0BA0F621F731F841F48F48C
:103B5000879577956795B795F7959E3F08F0B0CF15
:103B60009395880F08F09927EE0F979587950895FC
:103B70009F939F77EEE389379E0728F4E8E6F0E00D
:103B80000E94311F0CC00E94BD1E9058A2EA2AED6F
:103B90003FE049EC5FE30E94631D0E94531F0F90BA
:103BA00007FC905808950E94DD1E08F481E00895F6
:103BB0000E94EC1D0C94531F0E944C1F58F00E9451
:103BC000451F40F029F45F3F29F00C94011F51116B
:103BD0000C94871F0C94071F0E94641F68F399239D
:103BE000B1F3552391F3951B550BBB27AA276217F9
:103BF0007307840738F09F5F5F4F220F331F441F06
:103C0000AA1FA9F335D00E2E3AF0E0E832D0915039
:103C10005040E695001CCAF72BD0FE2F29D0660F26
:103C2000771F881FBB1F261737074807AB07B0E869
:103C300009F0BB0B802DBF01FF2793585F4F3AF06F
:103C40009E3F510578F00C94011F0C94871F5F3F35
:103C5000E4F3983ED4F3869577956795B795F795F5
:103C60009F5FC9F7880F911D9695879597F90895DD
:103C7000E1E0660F771F881FBB1F62177307840779
:103C8000BA0720F0621B730B840BBA0BEE1F88F788
:103C9000E09508950E94511E6894B1110C94871FFD
:103CA00008950E946C1F88F09F5798F0B92F9927AC
:103CB000B751B0F0E1F0660F771F881F991F1AF017
:103CC000BA95C9F714C0B13091F00E94861FB1E0D7
:103CD00008950C94861F672F782F8827B85F39F0D6
:103CE000B93FCCF3869577956795B395D9F73EF4B0
:103CF00090958095709561957F4F8F4F9F4F089558
:103D0000E89409C097FB3EF4909580957095619575
:103D10007F4F8F4F9F4F9923A9F0F92F96E9BB272B
:103D20009395F695879577956795B795F111F8CFA7
:103D3000FAF4BB0F11F460FF1BC06F5F7F4F8F4F12
:103D40009F4F16C0882311F096E911C0772321F008
:103D50009EE8872F762F05C0662371F096E8862FA0
:103D600070E060E02AF09A95660F771F881FDAF7F7
:103D7000880F9695879597F90895DF93CF931F93B2
:103D80000F938B01EC01ECE7F0E00E940A1F0E9408
:103D9000531F9801AE018B01EC0160E070E080E8F8
:103DA0009FE30E944B1D0E9455209801AE010F9188
:103DB0001F91CF91DF910C94A51F990F0008550F0B
:103DC000AA0BE0E8FEEF16161706E807F907C0F0A1
:103DD00012161306E407F50798F0621B730B840BA9
:103DE000950B39F40A2661F0232B242B252B21F483
:103DF00008950A2609F4A140A6958FEF811D811D23
:103E0000089597F99F6780E870E060E008959FEF5C
:103E100080EC0895DF93CF931F930F93FF92EF925F
:103E2000DF927B018C01689406C0DA2EEF010E94BC
:103E3000A51FFE01E894A5912591359145915591D5
:103E4000A6F3EF010E94631DFE019701A801DA9419
:103E500069F7DF90EF90FF900F911F91CF91DF9165
:103E600008959F938F937F936F93FF93EF939B019D
:103E7000AC010E94921FEF91FF910E940A1F2F91A7
:103E80003F914F915F910C94921F00240A94161653
:103E9000170618060906089500240A941216130638
:103EA000140605060895092E0394000C11F48823C6
:103EB00052F0BB0F40F4BF2B11F460FF04C06F5FE2
:103EC0007F4F8F4F9F4F089557FD9058440F551FB8
:103ED00059F05F3F71F04795880F97FB991F61F08C
:103EE0009F3F79F087950895121613061406551F03
:103EF000F2CF4695F1DF08C0161617061806991F6F
:103F0000F1CF86957105610508940895E894BB2763
:103F100066277727CB0197F908950E94DD1E08F4E4
:103F20008FEF08950E94A51F0C94531F0E94451FF8
:103F300038F00E944C1F20F0952311F00C94011FC3
:103F40000C94071F11240C94871F0E94641F70F3A8
:103F5000959FC1F3950F50E0551F629FF001729F2E
:103F6000BB27F00DB11D639FAA27F00DB11DAA1F3D
:103F7000649F6627B00DA11D661F829F2227B00D8A
:103F8000A11D621F739FB00DA11D621F839FA00D15
:103F9000611D221F749F3327A00D611D231F849F65
:103FA000600D211D822F762F6A2F11249F575040BC
:103FB0009AF0F1F088234AF0EE0FFF1FBB1F661F37
:103FC000771F881F91505040A9F79E3F510580F000
:103FD0000C94011F0C94871F5F3FE4F3983ED4F3C9
:103FE000869577956795B795F795E7959F5FC1F7A4
:103FF000FE2B880F911D9695879597F90895FA01E4
:10400000EE0FFF1F309621053105A1F161157105F5
:1040100061F48038BFE39B0749F1689490388105CB
:1040200061F08038BFEF9B0741F099234AF5FF3FCD
:10403000E1053105210519F1E8940894E795D901C6
:10404000AA2329F4AB2FBE2FF85FD0F310C0FF5F77
:1040500070F4A695E0F7F73950F019F0FF3A38F40C
:104060009F779F930DD00F9007FC9058089546F0CE
:104070000C94071F60E070E080E89FE308954FE72D
:104080009F775F934F933F932F930E9433212F91FC
:104090003F914F915F910E94921F0C94A22019F4BE
:1040A00016F40C94071F0C94D4200E946C1FB8F3D4
:1040B0009923C9F3B6F39F57550B87FF0E94E2205F
:1040C0000024A0E640EA900180585695979528F480
:1040D000805C660F771F881F20F026173707480778
:1040E00030F4621B730B840B202931294A2BA695CF
:1040F00017940794202531254A2758F7660F771F14
:10410000881F20F026173707480730F4620B730B1F
:10411000840B200D311D411DA09581F7B901842F1D
:104120009158880F9695879508950E94DD1E880BFB
:10413000990B089529F416F00C94011F0C94861F16
:104140000C94071F0E946C1FA8F39638A0F707F87D
:104150000F92E8942BE33AEA48EB5FE70E94A81F2E
:104160000F920F920F924DB75EB70F920E947B2174
:10417000E4EAF0E00E940A1F4F915F91EF91FF91F6
:10418000E595EE1FFF1F49F0FE57E0684427EE0F4C
:10419000441FFA95E1F74195550B0E94F5200F90C9
:1041A00007FE0C94E92008959F3F31F0915020F4D0
:1041B000879577956795B795880F911D9695879503
:1041C00097F9089591505040660F771F881FD2F7D6
:1041D00008959B01AC0160E070E080E89FE30C94DF
:1041E000D81D0C94011F0C94D4200E946C1FD8F38E
:1041F0009923C9F3940F511DA3F39150504094F0AB
:1042000059F0882332F0660F771F881F9150504075
:10421000C1F79E3F51052CF7880F911D9695879504
:1042200097F908955F3FACF0983E9CF0BB278695C8
:1042300077956795B79508F4B1609395C1F7BB0F73
:1042400058F711F460FFE8CF6F5F7F4F8F4F9F4F9C
:10425000E3CF0C94871F16F00C94D4200C94071F06
:1042600068940C94011F0E946C1FA8F39923C1F35A
:10427000AEF3DF93CF931F930F93FF92C92FDD27E8
:1042800088232AF02197660F771F881FDAF720E02E
:1042900030E040E85FEB9FE3883920F0803E38F063
:1042A00021968F770E944C1DECECF0E004C00E9438
:1042B0004C1DE9EFF0E00E940A1F8B01BE01EC01EA
:1042C000FB2E6F5771097595771F880B990B0E940C
:1042D000821E28E132E741E35FE30E94A51FAF2D74
:1042E0009801AE01FF900F911F91CF91DF910E9435
:1042F000631D0C94531FFA01DC01AA0FBB1F9B0125
:10430000AC01BF5728F4222733274427507820C018
:10431000B75190F4AB2F0024469537952795011C93
:10432000A395D2F3002071F0220F331F441FB395E1
:10433000DAF30ED00C944B1D61307105A0E88A07AA
:10434000B94630F49B01AC0166277727882790781F
:10435000309621F02083318342835383089597FB65
:10436000072E16F4009407D077FD09D00E94FC2197
:1043700007FC05D03EF4909581959F4F0895709568
:1043800061957F4F0895052E97FB1EF400940E94BF
:10439000DA2157FD07D00E94102207FC03D04EF40B
:1043A0000C94DA2150954095309521953F4F4F4F11
:1043B0005F4F089590958095709561957F4F8F4FD1
:1043C0009F4F0895A29FB001B39FC001A39F700D9E
:1043D000811D1124911DB29F700D811D1124911D0D
:1043E00008950E94E221A59F900DB49F900DA49F77
:1043F000800D911D11240895AA1BBB1B51E107C01C
:10440000AA1FBB1FA617B70710F0A61BB70B881F64
:10441000991F5A95A9F780959095BC01CD010895F3
:10442000A1E21A2EAA1BBB1BFD010DC0AA1FBB1FB8
:10443000EE1FFF1FA217B307E407F50720F0A21B2A
:10444000B30BE40BF50B661F771F881F991F1A9497
:1044500069F760957095809590959B01AC01BD01C1
:10446000CF010895EF920F931F93CF93DF93E8014D
:1044700047FD02C034E001C034E1E42F440FFF0BDC
:10448000F7FF03C0F195E195F109E32E022F2E2FDE
:10449000AE010E94F722CE01DF91CF911F910F91C3
:1044A000EF900895662777270C948524FC018827D0
:1044B0009927E89421912032E9F3293010F02E3029
:1044C000C8F32B3241F02D3239F4689404C00E94B5
:1044D000B322820F911D219120532A30C0F31EF484
:1044E000909581959F4F0895FB01DC010D90002070
:1044F000E9F7119701900D920020E1F70895FB0173
:1045000051915523A9F0BF01DC014D91451741118F
:10451000E1F759F4CD010190002049F04D9140158B
:104520004111C9F3FB014111EFCF81E090E0019708
:104530000895BB274A3031F4992322F4BDE29095C7
:1045400081959F4F0C94DE22BB272A3051F499238A
:1045500042F4BDE290958095709561957F4F8F4FA5
:104560009F4F0C94BC227AE0979F902D879F802DBF
:10457000910D11240895BB27FA01A62F621771052A
:1045800081059105330B30FB66F0AA27660F771F74
:10459000881F991FAA1FA21710F0A21B63953850FD
:1045A000A9F7A05DAA3308F0A95DA19336F7B11170
:1045B000B1931082CA010C94DB26BB27FB0155275F
:1045C000AA27880F991FAA1FA41710F0A41B839570
:1045D0005051B9F7A05DAA3308F0A95DA1930097E7
:1045E00079F7B111B1931192CB010C94DB264F9264
:1045F0005F926F927F929F92AF92BF92CF92DF9223
:10460000EF92FF920F931F93CF93DF93CDB7DEB757
:1046100029970FB6F894DEBF0FBECDBF6A01122FE7
:10462000B02E2BE3201720F0FF24F394F00E02C0ED
:10463000BCE3FB2E0F2D27E0AE014F5F5F4F0E94C2
:10464000E225AC018981982F9970913031F0E1FC1D
:1046500006C0E0FE06C090E205C09DE203C09BE2FA
:1046600001C090E0EE2DE07183FF3CC0911102C0CB
:1046700083E001C084E0811718F4212F281B01C0BA
:1046800020E0E1110BC0F601822F30E2882319F0FF
:1046900031938150FBCFC20ED11C20E0992329F029
:1046A000D6019C93F60131966F01C6010396E2FE96
:1046B0000AC03EE4D6013C9341E411964C93119715
:1046C00012963C9306C03EE6F601308341E64183F4
:1046D0003283FC01322F40E2332309F442C041937C
:1046E0003150FACF82FF44C0911102C083E001C073
:1046F00084E0811718F4212F281B01C020E0E1116C
:104700000BC0F601822F30E2882319F031938150DB
:10471000FBCFC20ED11C20E0992329F0D6019C9337
:10472000F60131966F01C6010396E2FE0BC039E433
:10473000D6013C933EE411963C93119736E41296D1
:104740003C9307C039E6F60130833EE6318336E616
:104750003283FC01322F40E2332319F04193315070
:10476000FBCFFC01E20FF11D10828EEF9FEFB7C06F
:10477000F1E0911101C0F0E06F2F70E01416150602
:1047800024F49A012F5F3F4F02C021E030E0260F52
:10479000371FBB2029F06B2D70E06F5F7F4F02C089
:1047A00060E070E0260F371F612F70E02617370793
:1047B0001CF4121B212F01C020E03E2D387159F44A
:1047C000D601322F60E2332319F06D933150FBCFC5
:1047D000C20ED11C20E0FF2331F0D6019C93B6011C
:1047E0006F5F7F4F6B01E1110BC0F601922F30E339
:1047F000992319F031939150FBCFC20ED11C20E0C8
:104800009F2D940F3A81782F7071A72E84FF03C0DB
:10481000313309F49150191624F4993018F098E0C6
:1048200001C091E0E42F852F57FF02C0E0E080E057
:104830006E2F782FE0E0F0E0AEE29A2E3A01691A8E
:1048400071082A01461A570A0B2D10E0119501959F
:1048500011096F3F8FEF780729F4D6019C92C601AA
:1048600001966C014617570784F0661677066CF4BC
:104870007F01E40CF51CA1E0B0E0AC0FBD1FEA0E17
:10488000FB1ED7011196BC9002C090E3B92E615077
:1048900071093196C60101967C016017710724F0F9
:1048A000D601BC926C01D5CF6417750741F436333D
:1048B00020F4353321F4A11002C081E3B82EF601B3
:1048C000B082F701822F90E2882319F091938150F2
:1048D000FBCFF701E20FF11D108280E090E02996F6
:1048E0000FB6F894DEBF0FBECDBFDF91CF911F9101
:1048F0000F91FF90EF90DF90CF90BF90AF909F907F
:104900007F906F905F904F900895A0E0B0E0EBE84B
:10491000F4E20C942B27EC017B016115710519F071
:10492000DB018D939C938E010F5F1F4F7880872D45
:1049300090E00E94BA26892B11F0E801F4CFBDE285
:104940007B1205C00F5F1F4F7980C1E008C0EBE20A
:104950007E1204C08E010E5F1F4F7980C0E0680197
:10496000F1E0CF1AD10843E050E06EE271E0C601F9
:104970000E94C326892BF1F4680122E0C20ED11CEB
:1049800045E050E069E271E0C6010E94C326892B30
:1049900021F4680187E0C80ED11CE114F10419F07C
:1049A000D701CD92DC92C111FFC060E070E080E8D9
:1049B0009FE703C143E050E066E271E0C6010E9458
:1049C000C326892B51F4E114F10409F4F2C00E5FFF
:1049D0001F4FF70111830083ECC0680160E070E0B5
:1049E000CB0100E010E0F601D0EDD70DDA3058F53C
:1049F0002C2F2260622E2C2F2870C2FF05C021119F
:104A000028C00F5F1F4F25C0222311F0015011094C
:104A1000A5E0B0E09B01AC010E94F1214B015C01DB
:104A2000880C991CAA1CBB1CC501B4016D0F711D1B
:104A3000811D911D6839A9E97A078A07A9E19A07BA
:104A400040F0C66005C0DE3F51F4C3FD44C0C860FD
:104A50006C2EBFEFCB1ADB0A7080C62DC4CF2D2F72
:104A60002F7D2531C1F540814D3211F4C06106C062
:104A70004B3221F0319621E030E006C03296D6016B
:104A800011964C9122E030E0A0EDA40FAA3018F06E
:104A9000E21BF30B20C040E050E04038BCE05B0775
:104AA0005CF49A01220F331F220F331F420F531F52
:104AB000440F551F4A0F511D3196DF0111972C915C
:104AC000A0EDA20FAA3048F3C4FF03C05195419551
:104AD0005109040F151FC1FF07C0E114F10421F0B3
:104AE0003197D701ED93FC930E94801EC370C330B1
:104AF00019F06B017C0106C06B017C01F7FAF094A0
:104B0000F7F8F09420E030E0A901C701B6010E9457
:104B1000D31D882309F445C017FF06C011950195E0
:104B20001109C5E4D1E002C0CDE5D1E05E01B8E1F4
:104B3000AB1AB1084601BE2DAF2D90E2E92EF12C43
:104B40000E151F0584F0FE01259135914591549174
:104B5000B4018B2F9A2F0E94921F4B01B82FA92FBF
:104B60000E191F09EDCF2497F594E794CA15DB05BC
:104B700039F76401EB2EFA2E8E2D880F8F2D881FAA
:104B80008F3F49F020E030E0A901C701B6010E9443
:104B9000D31D811106C082E290E0909314058093AA
:104BA0001305C701B60109C060E070E080E89FEF1F
:104BB00004C060E070E080EC9FE7CDB7DEB7EEE0C8
:104BC0000C944727283008F027E03327DA01990FA3
:104BD000311D87FD916000966105710539F43260E1
:104BE0002E5F3D9330E32A95E1F708959F3F30F023
:104BF00080387105610509F03C5F3C5F3D93913061
:104C000008F08068911DDF93CF931F930F93FF925D
:104C1000EF92192F987F9695E92F96959695E90F23
:104C2000FF27E554FE4F99273327EE24FF24A701E1
:104C3000E70105900894079428F4360FE71EF81E44
:104C4000491F511D660F771F881F991F0694A1F7F2
:104C50000590079428F4E70EF81E491F561FC11D42
:104C6000770F881F991F661F0694A1F70590079478
:104C700028F4F80E491F561FC71FD11D880F991F12
:104C8000661F771F0694A1F70590079420F4490F3B
:104C9000561FC71FD81F990F661F771F881F0694BE
:104CA000A9F784911095177041F0D695C79557953F
:104CB0004795F794E7941A95C1F7E1E6F1E0689417
:104CC0001590159135916591959105907FE27395B9
:104CD000E118F10A430B560BC90BD009C0F7E10CE0
:104CE000F11E431F561FC91FD01D7EF4703311F4EF
:104CF0008A95E6CFE894015030F0080F0AF40027B7
:104D0000021708F4202F2395022F7A3328F079E335
:104D10007D932A95E9F710C07D932A9589F606942C
:104D200097956795379517951794E118F10A430BF6
:104D3000560BC90BD00998F023957E9173957A3361
:104D400008F070E37C932013B8F77E9170617D9337
:104D500030F0839571E37D9370E32A95E1F7112498
:104D6000EF90FF900F911F91CF91DF91992787FDD1
:104D70009095089591110C94EB26803219F089508A
:104D80008550C8F70895FB01DC014150504088F080
:104D90008D9181341CF08B350CF4805E659161340B
:104DA0001CF06B350CF4605E861B611171F3990B7E
:104DB0000895881BFCCFDC01FC01672F71917723DC
:104DC000E1F7329704C07C916D9370836291AE17C6
:104DD000BF07C8F30895992788270895F999FECF4A
:104DE00092BD81BDF89A992780B50895A6E1B0E0FB
:104DF00044E050E00C941927262FF999FECF1FBAF2
:104E000092BD81BD20BD0FB6F894FA9AF99A0FBEF3
:104E100001960895242F0E94FD26252F0E94FD262D
:104E20000C9412270E94FC26272F0C94FD26DC01EF
:104E3000CB01FC01F999FECF06C0F2BDE1BDF89AA5
:104E4000319600B40D9241505040B8F708952F921A
:104E50003F924F925F926F927F928F929F92AF920A
:104E6000BF92CF92DF92EF92FF920F931F93CF9357
:104E7000DF93CDB7DEB7CA1BDB0B0FB6F894DEBFEE
:104E80000FBECDBF09942A88398848885F846E8414
:104E90007D848C849B84AA84B984C884DF80EE805E
:104EA000FD800C811B81AA81B981CE0FD11D0FB667
:104EB000F894DEBF0FBECDBFED010895F894FFCF8B
:104EC00000007A445000007A440000803F00000057
:104ED000000000803F2C00625F6261636B006469C8
:104EE00073705F756E697474705F6C006469737061
:104EF0005F756E697474705F620073706565645F7E
:104F0000756E69740073706565645F76616C0063CB
:104F10006865636B5F6F7666006F76665F74687254
:104F200000736C5F72656C617900625F6F6E006226
:104F30005F6F66660063617061635F7478740074AC
:104F40005F6172656100745F73616D706C653300E1
:104F5000745F73616D706C653200745F73616D7046
:104F60006C653100705F73616D706C6500625F72BB
:104F7000656D6F766500625F707265765F63756EF2
:104F8000697400625F6E6578745F63756E69740042
:104F9000625F707265765F7000625F6E6578745FE5
:104FA000700063616C756E69740063616C5F6C6145
:104FB00062656C0073656C65637465645F706F69CE
:104FC0006E7400706F696E745F6C6162656C006214
:104FD0005F636F6E6669726D003132003131006C53
:104FE0006F636B5F696D67006C6F636B6564006412
:104FF0006973705F756E6974007065616B5F76616F
:105000006C006E756D006E65775F63616C69620040
:10501000645F76616C756500645F76616C75655F71
:105020006C6162656C00370035003400330032007B
:1050300031002E7069633D002E70636F3D002E7647
:10504000616C3D002E7478743D00FFFFFF007669AF
:105050007320007061676520007265662000476FED
:1050600020746F20706167653A200073616D706C09
:1050700065310073616D706C65320073616D706CC9
:105080006533006E657763616C00636170616369AD
:1050900074790063616C6962726174696F6E2E74F9
:1050A0006F74616C5F706F696E747300544F474723
:1050B0004C45204C4F434B0A002D2D002B2B004F0D
:1050C000766572666C6F772050726F746563746971
:1050D0006F6E204D6F64653A20004F766572666C86
:1050E0006F772050726F74656374696F6E205468B7
:1050F000726573686F6C643A2000250A0053656D11
:105100002063616C69627261E7E36F00506F6E74D7
:105110006F2000206465200043616C20556E697427
:105120003A200053657420506167653A2000436F50
:105130006D6D616E64204275666665723A0A004D57
:105140005061000000000000007073690000000062
:105150000000006B67662F6D6D320000004E2F6DF2
:105160006D3200000000006B67660000746600008E
:105170000067660000004E000000006B4E0000005B
:105180006C6266000072656164790A00636C706B22
:10519000007A65726F006F766663686B3D006F76AC
:1051A000667063743D006F76666D6F64653D006682
:1051B00076616C3D00667661723D0064656C703DA1
:1051C0000073616D706C653D00706F696E743D00B9
:1051D00063616C3D00676F746F3D00706C6F636B53
:1051E00000646973705F756E69745F743D00646913
:1051F00073705F756E69743D0063616C5F756E6995
:10520000743D00706167653D00756E69743D000016
:00000001FF
