:100000000C942E010C944B010C944B010C944B015D
:100010000C944B010C944B010C944B010C944B0130
:100020000C944B010C944B010C944B010C944B0120
:100030000C944B010C944B010C94E60B0C944B016B
:100040000C944B010C944B010C942A1B0C944B0107
:100050000C944B010C944B010C944B010C944B01F0
:100060000C944B010C944B01036EDB363D9A99992D
:10007000993DABAAAA2A3E000000803F072C7AA532
:10008000BA6CC590DA3B9365FC8BBC53F810FD3C11
:100090005692834DBD879D3AB63DCBC9BF5BBE73BB
:1000A000DA0FC93F07634236B79BD8A71A3968569B
:1000B00018AEBAAB558C1D3CB7CC5763BD6DEDFD8A
:1000C000753EF6177231BF000000803F0800000047
:1000D000BE922449123EABAAAA2ABECDCCCC4C3E3D
:1000E00000000080BEABAAAAAA3E00000000BF002C
:1000F0000000803F0000000000084178D3BB438728
:10010000D1133D190E3CC3BD4282AD2B3E68EC823B
:1001100076BED98FE1A93E4C80EFFFBE01C4FF7FC0
:100120003F00000000004E414E494E495459494E8F
:1001300046CDCCCC3D0AD7233C17B7D13877CC2B52
:10014000329595E6241FB14F0A000020410000C8F7
:100150004200401C4620BCBE4CCA1B0E5AAEC59D78
:100160007400407A10F35A00A0724E18090010A5CE
:10017000D4E80000E87648170000E40B54020000C1
:10018000CA9A3B000000E1F5050000809698000047
:100190000040420F000000A0860100000010270070
:1001A000000000E803000000006400000000000AF6
:1001B00000000000000100000000002C76D888DC60
:1001C000674F0823DFC1DFAE59E1B1B796E5E3E43D
:1001D00053C63AE651997696E8E6C28426EB898CB6
:1001E0009B62ED407C6FFCEFBC9C9F40F2BAA56F18
:1001F000A5F490055A2AF75C936B6CF9676DC11BE7
:10020000FCE0E40D47FEF520E6B500D0ED902E03AE
:1002100000943577050080841E080000204E0A00F7
:100220000000C80C333333330F986E12831141EF43
:100230008D2114893BE65516CFFEE6DB18D1844BA1
:10024000381BF77C1D901DA4BBE424203284725E11
:10025000228100C9F124ECA1E53D270011241FBE35
:10026000CFEFD8E0DEBFCDBF14E0A0E0B1E0EEEB11
:10027000FDE402C005900D92AA34B107D9F725E03C
:10028000AAE4B4E001C01D92AF30B207E1F70E94CA
:1002900099070C94DD260C94000097B1976097B9EC
:1002A0003B9898B19A6098B942988111409A089504
:1002B00078E160E050E040E030E03399FECF272F56
:1002C000862F952FA42FB32F429AE5E2EA95F1F7F6
:1002D0004298880F991FAA1FBB1F33998160E5E2DE
:1002E000EA95F1F7215081F7429A25E22A95F1F734
:1002F0004298E5E2EA95F1F7A7FDBF6F8F3F2FEF38
:100300009207A207B207C9F2BC01CD0108952F924E
:100310003F924F925F926F927F928F929F92AF9295
:10032000BF92CF92DF92EF92FF920F931F93CF93E2
:10033000DF93CDB7DEB7A8970FB6F894DEBF0FBE38
:10034000CDBF161617060CF01DC3AF2DF12EE02FF2
:100350003EA32DA35A8B498B7E836D8398A38F8FE9
:100360003E872D870D8F1E8FEBA2ACA3588B4F8736
:10037000880F991F880F991F880F991F9AA389A327
:100380008A018E2C9A2E6E2E7F2CCDA0DEA0E12C21
:10039000F12C512C412C1301340146015C01640104
:1003A000D4011D921D921D921C921397EF8DF8A1FE
:1003B0001E161F062CF559824A82E981FA81E00F48
:1003C000F11F60817181828193819B01AC010E9448
:1003D000111F9B01AC01D6016D917D918D919C9176
:1003E0000E94CB1CF60160837183828393832981F1
:1003F0003A81285F3F4F3A8329832A153B05E9F666
:10040000D6016D917D918D919C910E94D41FF60132
:100410006083718382839383F4E08F0E911CD101FA
:100420001D921D921D921D921D01F301E192F19208
:100430003F01FFEFEF1AFF0A0C5F1F4F2D813E8136
:10044000E216F30609F0ABCFCF8CD8A0212C312CCB
:1004500081E090E09C8F8B8F1A8E198E1B861C86F4
:100460001B8A1C8A1D8A1E8A210116012BC0A98D98
:10047000BA8D1196BA8FA98FEB8DFC8D3196FC8FBA
:10048000EB8F2D8D3E8D2C5F3F4F3E8F2D8F34E0B7
:10049000430E511C8D859E8504969E878D87ABA14A
:1004A000BCA11296BCA3ABA3EF85F8893C96F88B50
:1004B000EF8729A13AA1285031093AA329A331E0B5
:1004C000231A3108898D9A8D98878F8318161906FB
:1004D0000CF05FC0AD81BE818A179B070CF055C23E
:1004E000EF84F888B8E0EB1AF1086D807E80681A16
:1004F000790A0D851E85C12CD12CD88ECF8A3A86DB
:10050000298613013701F80180809180A280B38091
:10051000D301CD90DD90ED90FD903D01A5019401BA
:10052000C501B4010E94111F69837A838B839C8368
:10053000A5019401C501B4010E94111F4B015C018A
:10054000A7019601C701B6010E94111F9B01AC01D2
:10055000C501B4010E94CA1C9F770E94D41FF801F4
:1005600061937193819391938F012F89388D2F5FC0
:100570003F4F388F2F8B2215330529F629843A8473
:10058000ED85FE85FA87E987D080C180E280F3801F
:1005900016C08D859E859A878987DC01DC9011962F
:1005A000CC9011971296EC9012971396FC90ED81D7
:1005B000FE812F8138852E173F070CF0FAC10D857B
:1005C0001E850C5F1F4FAF80B8843501BA82A982A7
:1005D00016C0D8018D909D90AD90BD908D01A50164
:1005E00094016D2D7C2D8E2D9F2D0E94521D8823F0
:1005F00034F4D82CC92CEA2CFB2C69807A80E98150
:10060000FA813196FA83E9832D813E81E217F3075F
:1006100004F32CEA35EC47E257E36D2D7C2D8E2D4B
:100620009F2D0E94521D18160CF004C28F819885D0
:100630006816790609F452C0ABA1BCA16D927C92F8
:10064000EF8DF8A11E161F065CF509891A89040DA5
:10065000151DF301EE0FFF1FEE0FFF1F29893A89C9
:10066000E20FF31F80E090E02F8D38A1D8014D916B
:100670005D916D917C911397C080D180E280F38071
:10068000CD92DD92ED92FC92139740835183628369
:1006900073830196085F1F4F38968217930731F7CF
:1006A000E985FA8580819181A281B381660C771CEE
:1006B000660C771C2DA13EA1620E731EF3014081D2
:1006C000518162817381E985FA8540835183628318
:1006D0007383F30180839183A283B3832F8D38A129
:1006E0008F81988582179307ACF5A12CB12CC12C72
:1006F000D12CE12CF12C0F851889C982DA82EB828A
:10070000FC82B88EAF8AEF84F88869A07AA0C02EE8
:10071000D12EEF89F88DEE0DFF1D80809180A28093
:10072000B380E894B7F829813A814B815C81C50197
:10073000B4010E940C1F181624F489829A82AB829D
:10074000BC82AF89B88D1896B88FAF8BA615B70548
:10075000F1F63DC1ED8DFE8D108211821282138261
:100760002B8D3C8D38872F838D819E8128173907EB
:100770000CF47DCE5FC1A7019601D5016D917D91ED
:100780008D919C910E94571DF50160837183828336
:1007900093830F5F1F4FF8E0AF0EB11C02151305D6
:1007A00051F7A7019601A985BA856D917D918D912B
:1007B0009C910E94571D4B015C01E985FA8560837D
:1007C00071838283938320E030E040E050E0D301E6
:1007D0006D917D918D919C910E94521D882354F4BE
:1007E000B7FAB094B7F8B094E985FA85808291821F
:1007F000A282B382A985BA852D913D914D915C91DC
:10080000F30160817181828193810E94CB1CD301AD
:100810006D937D938D939C931397ED8DFE8DF88F43
:10082000EF8BA985BA852D913D914D915C910E94E8
:10083000111F9B01AC0160E070E080E89FE30E9423
:10084000571DED8DFE8D6083718382839383A70195
:100850009601A985BA856D917D918D919C910E949B
:10086000111FE985FA8560837183828393838B8C62
:100870009C8C2D813E81821693060CF0D5C00F2EE4
:10088000FCEFAF2EBB24BA94F02DA418B50872016A
:1008900034E0E30EF11CC201880F991F9A87898703
:1008A0009F859983A889AF833701750164015FC073
:1008B000EFA1F8A5E419F509E60DF71D20813181B6
:1008C00042815381EFA1F8A560817181828193817A
:1008D0000E94111F9B01AC01682D792D8A2D9B2D43
:1008E0000E94CB1C862E972EA82EB92E0F5F1F4F6D
:1008F0002FA138A5285F3F4F38A72FA30215130556
:10090000B9F67BC0EFA1F8A5EE0DFF1DE40DF51DB6
:100910002081318142815381C501B4010E94111FA0
:100920009B01AC01AFA1B8A56D917D918D919C917A
:100930000E94CA1CEFA1F8A5608371838283938310
:100940000F5F1F4F3896F8A7EFA302151305D1F6D6
:10095000FFEFCF1ADF0A24E0E21AF10834E0630E59
:10096000711C8D819E81C816D90609F480CD9981AC
:100970009FA3AF81A8A70B851C858B889C88AD8819
:10098000BE8896CF18861F8255C02D853E853A8732
:1009900029872CEA35EC47E257E3AD85BE856D919A
:1009A0007D918D919C910E94521D18160CF496CE4B
:1009B00041C02CEA35EC47E257E36D2D7C2D8E2D9E
:1009C0009F2D0E94521D18160CF488CE33C036019C
:1009D000C980DA80EB80FC802CEA35EC47E257E3F3
:1009E000C701B6019F770E94521D18160CF0B2CEB7
:1009F000AF84B88800E010E0BECEAF89B88D2D91ED
:100A00003D914D915C910E94111F4B015C01298524
:100A10003A85260D371DE989FA89E20FF31F0B8508
:100A20001C85F8A7EFA36ECF2F8138852F5F3F4F2E
:100A300038872F838F819885A8960FB6F894DEBFEC
:100A40000FBECDBFDF91CF911F910F91FF90EF901F
:100A5000DF90CF90BF90AF909F908F907F906F90DE
:100A60005F904F903F902F9008952F923F924F921A
:100A70005F926F927F928F929F92AF92BF92CF922E
:100A8000DF92EF92FF920F931F93CF93DF93CDB737
:100A9000DEB728970FB6F894DEBF0FBECDBF9C011E
:100AA000215031093A83298333230CF483C02C016C
:100AB000440C551C480E591E440C551C440C551C26
:100AC0003CE0431A5108460E571E9C012250310942
:100AD0001901220C331C280E391E220C331C220C47
:100AE000331C260E371E220F331F220F331F3A01ED
:100AF000620E731E285F3F4F09811A818D839E838A
:100B0000CA01820F931F9C838B832EC0F5015291E3
:100B10004291329122915F01F601929182917291FC
:100B200062916F010E94111F9B01AC01F70160816E
:100B30007181828193810E94CA1CF7016083718355
:100B4000828393832F8138852150310938872F8301
:100B500028153905D9F63CE0431A510888E0281ACF
:100B6000310894E0691A71087301F2012081318122
:100B700042815381F30164817581868197810E944E
:100B8000571DF30164837583868397830150110990
:100B900088F029813A8102171307ECF648013FEFEC
:100BA000831A930A8D818F839E819887AB80BC8046
:100BB0006101ACCF80E090E028960FB6F894DEBFDC
:100BC0000FBECDBFDF91CF911F910F91FF90EF909E
:100BD000DF90CF90BF90AF909F908F907F906F905D
:100BE0005F904F903F902F900895CF92DF92EF92B9
:100BF000FF920F931F93CF93DF93232B41F518168A
:100C000019060CF051C0DA01EB01880F991F880F0B
:100C1000991F860F971FED91FD91EE0FFF1FEE0FAD
:100C2000FF1FE60FF71F0081118122813381C880E9
:100C3000D980EA80FB80C082D182E282F38209936C
:100C4000199329933993C817D90729F72DC09C0107
:100C5000215031094AF1EC01CC0FDD1FC40FD51F23
:100C6000880F991F880F991FDB01A80FB91FCB01AF
:100C7000FA91EA91EE0FFF1FEE0FFF1FE60FF71F2D
:100C80000081118122813381FE90EE90DE90CE9022
:100C9000C082D182E282F3820D931D932D933C9307
:100CA0001397A817B90721F780E090E0DF91CF9163
:100CB0001F910F91FF90EF90DF90CF9008952F92AA
:100CC0003F924F925F926F927F928F929F92AF92DC
:100CD000BF92CF92DF92EF92FF920F931F93CF9329
:100CE000DF93CDB7DEB762970FB6F894DEBF0FBEC5
:100CF000CDBF98878F835A8749873C872B870D877D
:100D00001E87DA8AC98ABE82AD821A141B040CF0CF
:100D1000A3C0588B4F873C832B832E2C3F2C7C0108
:100D2000EE0CFF1CEE0CFF1CE20EF31E5A834983EF
:100D3000412C512C5DC00B811C81A980BA80612C93
:100D4000712CC12CD12CC50158018C01D5016D919C
:100D50007D918D919D915D01F801208131814281CC
:100D600053810E94111F9B01AC01662D772D8C2DA4
:100D70009D2D0E94CB1C662E772EC82ED92E085F83
:100D80001F4FAE14BF0411F790C0D8012D913D91B3
:100D90004D915C91C501B4010E94111F9B01AC01F2
:100DA000F60160817181828193810E94CA1CD60103
:100DB0006D937D938D939D936D01085F1F4FAE15CD
:100DC000BF0519F7BFEF4B1A5B0AE981FA813C9620
:100DD000FA83E9832B813C812C5F3F4F3C832B833B
:100DE00034E0230E311C8D819E814816590639F05E
:100DF000AF81B8854A165B060CF49DCFE3CF4D85D5
:100E00005E858D819E81880F991FED81FE818E0FF9
:100E10009F1F880F991F880F991F29853A85820F78
:100E2000931FAF85B889FA01408151816281738136
:100E300070580D911D912D913C9113970193119331
:100E4000219331934D935D936D937C9313971C96EF
:100E5000A817B90749F737C04B855C8569857A853E
:100E60008D819E810E9435053FC0DB01CD90DD90D4
:100E7000ED90FC9080819181A281B3814C015D0154
:100E8000B7FAB094B7F8B094DB018D929D92AD9211
:100E9000BD92BD01C082D182E282F3822F5F3F4FBB
:100EA0003C96241735070CF31FC0F10120813181D6
:100EB000428153810E94111F4B015C01CB80DC8079
:100EC00009811A8162CF4B855C8569857A858D8120
:100ED0009E810E943505E985FA856D857E8520E035
:100EE00030E04D815E81C1CF21E030E049895A89EF
:100EF0006B857C858D819E810E94F50580E090E068
:100F000062960FB6F894DEBF0FBECDBFDF91CF91D2
:100F10001F910F91FF90EF90DF90CF90BF90AF9017
:100F20009F908F907F906F905F904F903F902F9009
:100F300008950E9412190E946719809176048130E9
:100F400081F40E94C0128091530481110E947E118D
:100F50002FEF8FEA91E0215080409040E1F700C0F0
:100F6000000080917604843031F70E94270F2FEF24
:100F70008FEA91E0215080409040E1F700C00000EE
:100F8000DACFEF92FF920F931F93CF93DF93082F47
:100F9000192FE62E83E090E00E947B26EE20D1F010
:100FA000C02FD12F04E010E0F12C488159816A81D3
:100FB0007B81C8010E9489264C815D816E817F8181
:100FC000C80104960E948926F3942896085F1F4F53
:100FD000FE10EBCFDF91CF911F910F91FF90EF901B
:100FE0000895682F84E590E00E947B260895682F7D
:100FF00081E090E00E947B260895682F80E090E0D9
:101000000E947B260895682F82E090E00E947B2654
:101010000895682F85E590E00E947B260895CF9380
:10102000DF93C6E5D4E0488159816A817B8186E5FA
:1010300090E00E9489264C815D816E817F818AE5E6
:1010400090E00E948926488559856A857B858EE5D2
:1010500090E00E9489264091090150910A01609117
:101060000B0170910C0182E690E00E948926DF91CD
:10107000CF910895409105015091060160910701BB
:101080007091080186E690E00E948926089560919B
:1010900055048AE690E00E947B26609104018BE66D
:1010A00090E00E947B26609153048CE690E00E94C1
:1010B0007B26089580E090E00E946D26823018F42F
:1010C0008093750402C01092750480917504089590
:1010D00081E090E00E946D26883018F480937404BB
:1010E00002C01092740480917404089585E590E024
:1010F0000E946D26863018F48093620402C010921C
:101100006204809162040895CF92DF92EF92FF9281
:101110000F931F93CF93DF9306E514E0C6E5D0E06D
:101120000F2EC12CD12CF0E8EF2EFFE3FF2EF02D77
:10113000CE010E947526F8016083718382839383B8
:101140009B01AC010E941420882329F0F801C08281
:10115000D182E282F38224960C5F1F4FC236D10502
:1011600039F782E690E00E9475266B017C019B01B5
:10117000AC010E941420811113C02CEA35EC47E227
:1011800057E3C701B6010E94521D88234CF0C0925C
:101190000901D0920A01E0920B01F0920C010CC0FF
:1011A00080E090E0A0E8BFE38093090190930A01FA
:1011B000A0930B01B0930C01DF91CF911F910F9180
:1011C000FF90EF90DF90CF90089586E690E00E9428
:1011D0007526609305017093060180930701909333
:1011E00008019B01AC010E941420882361F080E07B
:1011F00090E0AAE7B4E48093050190930601A093E0
:101200000701B09308010E945E1108958AE690E0FC
:101210000E946D26823018F48093550402C010920B
:1012200055048BE690E00E946D26853618F4809375
:10123000040103C080E5809304010E945E118CE6E6
:1012400090E00E946D26823018F480935304089534
:1012500010925304089583E090E00E946D268B3035
:1012600018F48093710402C010927104809171048B
:10127000089584E590E00E946D26883018F48093EC
:10128000700402C010927004809170040895CF928F
:10129000DF92EF92FF92CF93DF9398E0899FE00176
:1012A0001124CE0104960E9475266B017C01CE01AB
:1012B00008960E947526CD55DB4FC882D982EA82F6
:1012C000FB826C837D838E839F83DF91CF91FF9020
:1012D000EF90DF90CF9008952F923F924F925F92C0
:1012E0006F927F928F929F92AF92BF92CF92DF9236
:1012F000EF92FF920F931F93CF93DF93CDB7DEB79B
:101300002A970FB6F894DEBF0FBECDBF2B013C016C
:101310005A01190120E030E0A9010E94521D8823E2
:101320004CF48DE2F501808377FA709477F870942D
:1013300001E001C000E0C301B2010E94C91D6B01C0
:101340007C010E94011E9B01AC01C301B2010E94FD
:10135000CA1C2B013C01C114D104E104F104F9F0D1
:1013600010E088248394912C8C0E9D1E810E911C7C
:10137000C701B6012AE030E040E050E00E9442217F
:10138000605DF4016083C22ED32EE42EF52E1F5F24
:10139000C114D104E104F10421F7111140C080E32C
:1013A000898311E03CC0D501AF0DB11D82918C93B2
:1013B000F3948F2D801B8117B0F38CE2F501EF0DB4
:1013C000F11D808311E01F0D2114310481F120E013
:1013D00030E040E251E4C301B2010E94111F2B0131
:1013E0003C010E94C91DF501E10FF11D20E3260F0C
:1013F0002083072E000C880B990B0E94011E9B0175
:10140000AC01C301B2010E94CA1C2B013C01812F17
:101410008F1990E01F5F82159305C8F208C0E1E0C4
:10142000F0E0EC0FFD1FE10FF11DF02EBCCFF50138
:10143000E10FF11D1082C5012A960FB6F894DEBFA8
:101440000FBECDBFDF91CF911F910F91FF90EF9015
:10145000DF90CF90BF90AF909F908F907F906F90D4
:101460005F904F903F902F900895DC018C918823DE
:1014700091F0861729F090E007C0861305C001C0DF
:10148000FD01408381E008959F5FFD01E90FF11D9B
:1014900080818111F2CF0895CF93DF93EC010E94F8
:1014A0000F0C0E945E1B83E992E00E94671BCE0135
:1014B0000E94671B8AE892E00E94671B0E940B0C47
:1014C0008FEF9BE60197F1F700C0000080E0DF910D
:1014D000CF910895CF93DF93EC010E940F0C0E94EF
:1014E0005E1B89E992E00E94671BCE010E94671B88
:1014F0008AE892E00E94671B0E940B0C8FEF9BE62C
:101500000197F1F700C0000080E0DF91CF910895CE
:101510000F931F93CF938C01C62F0E940F0C0E9434
:101520005E1B8EE892E00E94671BC8010E94671B49
:1015300085E191E00E94671B8C2F0E941A1B8AE8AC
:1015400092E00E94671B0E940B0C8FEF9BE60197B5
:10155000F1F700C0000080E0CF911F910F91089536
:1015600060E30E94880A089561E30E94880A089552
:101570000F931F93CF93DF938C01EB010E940F0C0D
:101580000E945E1BC8010E94671B84E892E00E94D3
:10159000671B82E20E941A1BCE010E94671B82E237
:1015A0000E941A1B8AE892E00E94671B0E940B0CA3
:1015B0008FEF9BE60197F1F700C0000080E0DF911C
:1015C000CF911F910F9108950F931F93CF93DF93A6
:1015D0008C01EB010E940F0C0E945E1BC8010E944F
:1015E000671B8EE792E00E94671BCE010E94671B7B
:1015F0008AE892E00E94671B0E940B0C8FEF9BE62B
:101600000197F1F700C0000080E0DF91CF911F91BA
:101610000F9108950F931F93CF93DF93CDB7DEB74C
:1016200060970FB6F894DEBF0FBECDBF8C01862F3A
:101630004AE0BE016F5F7F4F90E00E945C22BE01D6
:101640006F5F7F4FC8010E94E40A60960FB6F8945E
:10165000DEBF0FBECDBFDF91CF911F910F910895D7
:101660000F931F93CF93DF938C01EB010E940F0C1C
:101670000E945E1BC8010E94671B88E792E00E94DF
:10168000671BCE010E94671B8AE892E00E94671BDD
:101690000E940B0C8FEF9BE60197F1F700C0000052
:1016A00080E0DF91CF911F910F9108950F931F93C9
:1016B000CF93DF93CDB7DEB760970FB6F894DEBF58
:1016C0000FBECDBF8C01CB014AE0BE016F5F7F4FE3
:1016D0000E945C22BE016F5F7F4FC8010E94300BE9
:1016E00060960FB6F894DEBF0FBECDBFDF91CF91ED
:1016F0001F910F9108950F931F93CF93DF93CDB751
:10170000DEB760970FB6F894DEBF0FBECDBF8C0179
:10171000CB01BA012AE0AE014F5F5F4F0E94232246
:10172000BE016F5F7F4FC8010E94E40A60960FB64A
:10173000F894DEBF0FBECDBFDF91CF911F910F9107
:1017400008950F931F93CF93DF938C01EB010E94B9
:101750000F0C0E945E1BC8010E94671B82E792E08B
:101760000E94671BCE010E94671B8AE892E00E94DC
:10177000671B0E940B0C8FEF9BE60197F1F700C0EF
:10178000000080E0DF91CF911F910F9108950F939A
:101790001F93CF93DF9300D01F92CDB7DEB78C019C
:1017A000862F4AE0BE016F5F7F4F90E00E945C226F
:1017B000BE016F5F7F4FC8010E94A10B0F900F9079
:1017C0000F90DF91CF911F910F9108951F920F926B
:1017D0000FB60F9211248F939F93AF93BF93809175
:1017E0004E0490914F04A0915004B0915104019681
:1017F000A11DB11D80934E0490934F04A0935004FB
:10180000B0935104BF91AF919F918F910F900FBEF4
:101810000F901F9018958FB780688FBF08958FB76E
:101820008F778FBF089582E084BD15BC16BC9CE6FF
:1018300097BD80936E000E940B0C089585B585605E
:1018400085BD08950F931F93CF93DF93EC012596E9
:1018500040E06BE3CE010E94350ACE010E94D52103
:101860008C0180917604801731F08FEF809376049D
:10187000CE010E944C0A8EE992E00E94871CC801AA
:1018800099270E949D1C8BE393E00E94871CDF91A7
:10189000CF911F910F91089510925204E5E8F4E062
:1018A00083EA94E0108211821282138215821482DC
:1018B0003696E817F907B1F70895CF92DF92EF92C5
:1018C000FF920F931F93CF93DF930091520410E088
:1018D000C801049665E070E00E942E21EC01FC0135
:1018E000EE0FFF1FE80FF91FEE0FFF1FEB57FB4F27
:1018F000248135812115310509F43FC0C8010596C1
:1019000065E070E00E942E21FC01EE0FFF1FE80F42
:10191000F91FEE0FFF1FEB57FB4F44815581411517
:10192000510579F1BE01660F771FC60FD71FCC0F87
:10193000DD1FCB57DB4FFC01EE0FFF1FE80FF91F38
:10194000EE0FFF1FEB57FB4F88819981AA81BB8166
:10195000C080D180E280F380BC01CD016C197D098B
:101960008E099F09241B350B40E050E00E94422164
:10197000A4E6B0E00E94702107C060E070E0CB01F7
:1019800003C060E070E0CB0160934A0470934B04A5
:1019900080934C0490934D04DF91CF911F910F9150
:1019A000FF90EF90DF90CF900895CF93DF93EC01FD
:1019B00025966BEA72E0CE010E94FE21892B69F028
:1019C00086E594E09093F4048093F3048EED98E11F
:1019D00090937A048093790449C063EB72E0CE015E
:1019E0000E94FE21892B69F08AE594E09093F4042B
:1019F0008093F3048EED98E190937A0480937904B8
:101A000035C06BEB72E0CE010E94FE21892B69F09C
:101A10008EE594E09093F4048093F3048EED98E1C6
:101A200090937A048093790421C063EC72E0CE0134
:101A30000E94FE21892B39F083E694E09093F40410
:101A40008093F30413C06AEC72E0CE010E94FE2181
:101A5000892B61F085E091E09093F4048093F30486
:101A600087ED94E190937A0480937904DF91CF918C
:101A700008954F925F926F927F92AF92BF92CF92F2
:101A8000DF92EF92FF920F931F93CF93DF93CDB727
:101A9000DEB7CC5DD1090FB6F894DEBF0FBECDBF67
:101AA000C090710421E02C1508F077C0CC20B1F172
:101AB000CE0101967C0103EA14E05E0191EAA90ED1
:101AC000B11CD12C0F2E412C512CF0E86F2EFFE3CE
:101AD0007F2EF02DF7014082518262827382F801DD
:101AE00060817181828193810E94011EF70164836C
:101AF000758386839783F80184819581A681B78158
:101B0000F50181939193A193B1935F01D394F8E090
:101B1000EF0EF11C085F1F4FDC10DCCF9E01275336
:101B20003F4F79018E010F5A1F4F20553109AE01E9
:101B30004F5F5F4F62E070E08C2D90E00E94870164
:101B40005C0180917104670198017801085D1F4F65
:101B5000205B3F4FAE014F5F5F4F62E070E090E06F
:101B60000E945F06EDE0F1E0CF55DF4F888199815B
:101B7000AA81BB81C15AD04080839183A283B38361
:101B8000CB55DF4F88819981AA81BB81C55AD0404E
:101B900084839583A683B7830EC0EDE0F1E01082C5
:101BA00011821282138280E090E0A0E8BFE3848378
:101BB0009583A683B783C452DF4F0FB6F894DEBF78
:101BC0000FBECDBFDF91CF911F910F91FF90EF908E
:101BD000DF90CF90BF90AF907F906F905F904F90CD
:101BE0000895A82FB0E080917104E82FF0E03197BC
:101BF000AE17BF07ACF4AA0FBB1FAA0FBB1FAA0FDB
:101C0000BB1FAD55BB4FEE0FFF1FEE0FFF1FEE0FBB
:101C1000FF1FED55FB4F98E001900D929A95E1F76B
:101C20008150809371040895FC019091710499236F
:101C3000A1F08581891788F40E94F10D80917204CA
:101C40008150809372046091710483EA94E00E9451
:101C5000C1078CE692E00E944C0A0895CF93DF936F
:101C6000CDB7DEB728970FB6F894DEBF0FBECDBF55
:101C700029833A834B835C836D837E838F8398872C
:101C8000A091710481E08A0F80937104B0E0AA0FE3
:101C9000BB1FAA0FBB1FAA0FBB1FAD55BB4F88E0D0
:101CA000FE01319601900D928A95E1F728960FB6C4
:101CB000F894DEBF0FBECDBFDF91CF910895CF92D4
:101CC000DF92EF92FF920F931F93CF93DF93CDB7E5
:101CD000DEB728970FB6F894DEBF0FBECDBF2091B8
:101CE00071042A3058F5FC01F480C580D680E78065
:101CF0008C01085F1F4F40E06BE3C8010E94350A6A
:101D0000C8010E94D1212F2DE62F462F572F682F73
:101D1000792F4D835E836F8378873C2D4D2D5E2D0B
:101D20006E2F7E818F8198850E942E0E0E94390D24
:101D30006091710483EA94E00E94C1078CE692E00E
:101D40000E944C0A28960FB6F894DEBF0FBECDBF96
:101D5000DF91CF911F910F91FF90EF90DF90CF9087
:101D60000895FC0185810E94F7070895CF930E9492
:101D70005A080E94E5080E9406090E9476080E94FF
:101D800084080E9468080E9439090E942B0960910A
:101D9000710483ED92E00E940A0B80917104882304
:101DA00049F0C0E08C2F0E944709CF5F80917104F9
:101DB000C817C0F30E94390DCF9108950F931F9358
:101DC0000E9458018B019C0160936C0470936D0418
:101DD00080936E0490936F048091680490916904DD
:101DE000A0916A04B0916B0480179107A207B30712
:101DF00044F4009368041093690420936A043093B8
:101E00006B0440914E0450914F04609150047091C6
:101E100051048091520490E0FC01EE0FFF1FE80F87
:101E2000F91FEE0FFF1FEB57FB4F00831183228337
:101E3000338355834483019665E070E00E942E2130
:101E400080935204C901B8011F910F910895CF9357
:101E5000DF93CDB7DEB72A970FB6F894DEBF0FBE7B
:101E6000CDBF80916704811123C00E945801609307
:101E70006C0470936D0480936E0490936F042AE059
:101E8000AE014F5F5F4F0E942322BE016F5F7F4F05
:101E900088E592E00E94B80A40916C0450916D046C
:101EA00060916E0470916F0480E592E00E947B0B5C
:101EB0002A960FB6F894DEBF0FBECDBFDF91CF914B
:101EC00008950F931F93CF93DF93CDB7DEB72A9773
:101ED0000FB6F894DEBF0FBECDBF809167048111AD
:101EE00034C00E94580160936C0470936D04809319
:101EF0006E0490936F042AE0AE014F5F5F4F0E9423
:101F00002322BE016F5F7F4F88E592E00E94B80AEE
:101F100040916C0450916D0460916E0470916F0457
:101F200080E592E00E947B0B6CE373E086E492E034
:101F30000E94B80A69E172E08FE192E00E94A10B71
:101F40008FE092E00E94B00A1EC06091630470911D
:101F5000640480916504909166048E010F5F1F4FA9
:101F600022E04AE00E94B121B80186E492E00E949A
:101F7000B80A6CE172E08FE192E00E94A10B8FE061
:101F800092E00E94B40A2A960FB6F894DEBF0FBE04
:101F9000CDBFDF91CF911F910F910895CF93DF9324
:101FA00000D01F92CDB7DEB78091670490E0019614
:101FB00081709078992324F401978E6F9F6F01961A
:101FC000809367044AE0BE016F5F7F4F90E00E94FC
:101FD0005C22BE016F5F7F4F88E292E00E94E40ABC
:101FE0000E94610F8CEE92E00E94871C0F900F9070
:101FF0000F90DF91CF910895CF93DF93CDE0D1E0A3
:102000000E94011E2C813D814E815F810E94111F23
:10201000288139814A815B810E94CB1CDF91CF915D
:1020200008958617C9F06330E1F06430F9F062304A
:1020300011F1613029F1653041F161112BC0682F38
:1020400080E00E9411109B01AC0160E070E080E82C
:102050009FE30E94571D089560E070E080E89FE3D1
:1020600008956AE078EE8CE191E4089562E17CEAFB
:1020700080E29CE3089560E070E08AE794E40895CC
:1020800067E177EB81ED98E308956EE778E18DE005
:1020900090E4089560E070E080E89FE30895CF92B7
:1020A000DF92EF92FF92CF936B017C01C22F22232C
:1020B00011F0411109C06C2F842F0E941110A7014B
:1020C00096010E94111F07C020E00E944F102C2F84
:1020D00040E00E944F10CF91FF90EF90DF90CF90A3
:1020E00008958617A9F06330C1F06130D9F06230ED
:1020F000F1F0611121C0682F80E00E9471109B01F6
:10210000AC0160E070E080E89FE30E94571D0895F5
:1021100060E070E080E89FE3089560E070E080E8B0
:102120009FE3089569EA79E081E193E408956FE718
:1021300076ED80ED9DE3089560E070E080E89FE338
:102140000895CF92DF92EF92FF92CF936B017C01C3
:10215000C22F222311F0411109C06C2F842F0E943D
:102160007110A70196010E94111F07C020E00E9474
:10217000A1102C2F40E00E94A110CF91FF90EF9072
:10218000DF90CF900895CF93DF93C42FD22F0E947A
:10219000FC0F2D2F4C2F0E944F10DF91CF910895EF
:1021A0008F929F92AF92BF92EF920F931F93CF9314
:1021B000C42F480159010E94FC0F23E04C2F0E94BC
:1021C0004F10A50194010E94571D2E2D40E00E9442
:1021D000A110CF911F910F91EF90BF90AF909F9062
:1021E0008F9008950F931F93CF93DF93CDB7DEB7F2
:1021F0002E970FB6F894DEBF0FBECDBFFE0131960D
:102200008EE0DF011D928A95E9F7809175048111B6
:102210000DC00091740410E0C801880F991F880F49
:10222000991F080F191F09551C4F10C08091730486
:1022300090E08C01000F111F880F991F880F991FC4
:10224000880F991F080F191F01581C4FB8018FE202
:1022500092E00E94B80AB8018E010F5F1F4FC801BB
:102260000E94F321F80101900020E9F731978FE2F5
:1022700093E7A0E080839183A283B8018AE391E091
:102280000E94B80A2E960FB6F894DEBF0FBECDBFDF
:10229000DF91CF911F910F91089560917504617046
:1022A000655E8CE291E00E94C70B609175046170DD
:1022B000635E8EE191E00E94C70B08956091040176
:1022C00070E080E090E00E94011E209105013091B5
:1022D000060140910701509108010E94111F20E062
:1022E00030E048EC52E40E94571D60930001709367
:1022F000010180930201909303010895809171047C
:10230000823008F451C04091700460916C04709167
:102310006D0480916E0490916F04242F0E94C3106D
:10232000209100013091010140910201509103017F
:102330000E940C1F18164CF5809155040E94BE1C7B
:1023400060E078EF82E492E00E94560B80915404A2
:1023500081110CC06DEC7CEC8CEC9DE30E94E51AC5
:102360006DEC7CEC8CEC9DE30E94C41A80915404CB
:1023700090E0019687709078992324F40197886FF4
:102380009F6F019680935404089581E090915504C5
:10239000911180E00E94BE1C60E070E082E492E057
:1023A0000E94560B109254040895EF920F931F93BE
:1023B00080917104823050F18091750481110FC0B9
:1023C00060916C0470916D0480916E0490916F0423
:1023D00020917404409170040E94C3101BC00091AE
:1023E000090110910A0120910B0130910C016091BB
:1023F0006C0470916D0480916E0490916F04E09074
:102400007304409170040E94D01004C060E070E03A
:1024100080EC9FE71F910F91EF900895EF920F933B
:102420001F9380917104823050F180917504811165
:102430000FC0609168047091690480916A04909162
:102440006B0420917404409170040E94C3101BC05F
:102450000091090110910A0120910B0130910C01AA
:10246000609168047091690480916A0490916B0492
:10247000E0907304409170040E94D01004C060E0AA
:1024800070E080EC9FE71F910F91EF9008958F927D
:102490009F92AF92BF92CF92DF92EF92FF920F93F3
:1024A0001F9380917104823008F45CC080917504A0
:1024B000811127C060914A0470914B0480914C04B3
:1024C00090914D040E94011E6B017C01EDE0F1E052
:1024D0002481358146815781608171818281938118
:1024E0000E94571D9B01AC01C701B6010E94CA1C86
:1024F0000E94C91D20917404409170040E94C31071
:1025000034C08090090190900A01A0900B01B09016
:102510000C0160914A0470914B0480914C0490919D
:102520004D040E94011E6B017C01EDE0F1E024816D
:1025300035814681578160817181828193810E94BA
:10254000571D9B01AC01C701B6010E94CA1C0E9425
:10255000C91DE090730495018401409170040E94AC
:10256000D01003C060E070E0CB011F910F91FF908D
:10257000EF90DF90CF90BF90AF909F908F90089595
:102580004F925F926F927F928F929F92AF92BF9283
:10259000CF92DF92EF92FF92CF93DF93CDB7DEB76A
:1025A0002C970FB6F894DEBF0FBECDBFFE0131965B
:1025B0008CE0DF011D928A95E9F70E94DE0E0E94F1
:1025C0005D0C0E94D5116B017C010E940E122B0143
:1025D0003C010E9447124B015C01A7019601C70113
:1025E000B6010E941420811121C022E030E0AE012A
:1025F0004F5F5F4FC701B6010E946C09BE016F5F5C
:102600007F4F82E492E00E94B80A22E030E0AE01FF
:102610004F5F5F4FC301B2010E946C09BE016F5F43
:102620007F4F89E392E00E94B80A0CC069EF72E024
:1026300082E492E00E94B80A69EF72E089E392E0D6
:102640000E94B80A21E030E0AE014F5F5F4FC50144
:10265000B4010E946C09BE016F5F7F4F85E491E079
:102660000E94B80A2C960FB6F894DEBF0FBECDBFFD
:10267000DF91CF91FF90EF90DF90CF90BF90AF9020
:102680009F908F907F906F905F904F900895CF9321
:10269000DF93809171048230D8F040917004609192
:1026A0006C0470916D0480916E0490916F04242FDE
:1026B0000E94C3109B01AC01CDE0D1E0688179811B
:1026C0008A819B810E94CA1C688379838A839B8349
:1026D0000E94C012DF91CF9108950E944D110E9477
:1026E000F2100E94C01208956CEF72E00E94FE2169
:1026F000892B71F08091750490E003968170907839
:10270000992324F401978E6F9F6F0196809375042F
:10271000809175040E94FD070E946D130895CF9368
:10272000DF93EC0180917504811130C069EF72E094
:10273000CE010E94FE21892B79F08091740490E0F3
:10274000079687709078992324F40197886F9F6F7C
:1027500001968093740415C06CEF72E0CE010E9464
:10276000FE21892B71F08091740490E009968770A6
:102770009078992324F40197886F9F6F0196809336
:102780007404809174040E94F7072FC069EF72E00F
:10279000CE010E94FE21892B79F08091730490E094
:1027A000039683709078992324F401978C6F9F6F20
:1027B00001968093730415C06CEF72E0CE010E9405
:1027C000FE21892B71F08091730490E0059683704F
:1027D0009078992324F401978C6F9F6F01968093D2
:1027E0007304809173040E9403080E946D13DF91AB
:1027F000CF9108950F931F93CF93DF93CDB7DEB79B
:102800002A970FB6F894DEBF0FBECDBF8E010F5FC3
:102810001F4F8AE0F80111928A95E9F7609105014E
:1028200070910601809107019091080121E030E04C
:10283000A8010E946C09B80185E791E00E94B80ADE
:102840006091700470E0CB01880F991F880F991F69
:10285000680F791F69557C4F82EE91E00E94B80A9B
:102860006091550470E06F5F7F4F617070787723DF
:1028700034F4615071096E6F7F6F6F5F7F4F675FD8
:102880008FE691E00E94C70B609155046170675F0D
:102890008AE691E00E94C70B609153046170675E05
:1028A0008FE491E00E94C70B4091040150E060E08A
:1028B00070E081E691E00E947B0B809104014AE088
:1028C0008E010F5F1F4FB80190E00E945C22F8015B
:1028D00001900020E9F7319785E290E091838083B1
:1028E000B80189E591E00E94B80A2A960FB6F894DB
:1028F000DEBF0FBECDBFDF91CF911F910F91089525
:102900006CEF72E00E94FE21892B71F080915304DC
:1029100090E0039681709078992324F401978E6F4C
:102920009F6F0196809353040E9447080E94FA13F8
:102930000895CF93DF93EC01289640E06BE3CE013E
:102940000E94350ACE010E94D521809355048FEF55
:1029500092E00E94871C8091550490E00E949D1C8B
:102960008BE393E00E94871C0E9447080E94FA13A1
:10297000DF91CF910895CF93DF93FC01C781D0857C
:10298000C09304018AE193E00E94871C8C2F9D2F45
:102990000E949D1C8AE393E00E94871C0E944708C6
:1029A0000E945E110E94FA13DF91CF9108950E9458
:1029B0003A080E945E110E94FA130895EF92FF9266
:1029C0000F931F93CF93DF93CDB7DEB768970FB602
:1029D000F894DEBF0FBECDBF80917104811107C096
:1029E0006DE373E083E092E00E94B80A7DC0CE01FF
:1029F00001967C0184E1F70111928A95E9F78091B3
:102A0000720490E04AE0BE016B5E7F4F01960E9427
:102A10005C22D7010D900020E9F7119787E0ECE4E4
:102A2000F3E001900D928A95E1F7BE016B5E7F4F56
:102A3000C7010E94F321D7010D900020E9F71197FB
:102A400085E0E3E5F3E001900D928A95E1F780914E
:102A500071044AE0BE016B5E7F4F90E00E945C22F1
:102A6000BE016B5E7F4FC7010E94F321C7010E9428
:102A7000871C8BE393E00E94871CB70183E092E000
:102A80000E94B80A6091720484EF91E00E940A0BE0
:102A9000E0917204F0E0EE0FFF1FEE0FFF1FEE0F4C
:102AA000FF1FED55FB4F64817581868197818701FA
:102AB00022E049E00E94B121C7010E94871C8BE3FC
:102AC00093E00E94871CB7018AEE91E00E94B80A49
:102AD00080ED91E00E94B40A89ED91E00E94B40A71
:102AE0008DEA91E00E94B40A6091700470E0CB011D
:102AF000880F991F880F991F680F791F69557C4FA0
:102B000082EE91E00E94B80A86EB91E00E94B40A3E
:102B100083EC91E00E94B40A68960FB6F894DEBF89
:102B20000FBECDBFDF91CF911F910F91FF90EF901E
:102B300008950F931F93CF93DF93D0917204C091A8
:102B40007104CC2351F18C0169EF72E00E94FE21E7
:102B5000892B61F06C2F70E08D2F90E00197860F2C
:102B6000971F0E942E218093720412C06CEF72E0B6
:102B7000C8010E94FE21892B81F06C2F70E08D2FFF
:102B800090E00196860F971F0E942E218093720479
:102B900080917204D8130E94DE14DF91CF911F91AF
:102BA0000F910895CF93DF93EC0169EF72E00E94DB
:102BB000FE21892B79F08091700490E00796877050
:102BC0009078992324F40197886F9F6F01968093E2
:102BD000700415C06CEF72E0CE010E94FE21892BBB
:102BE00071F08091700490E0099687709078992335
:102BF00024F40197886F9F6F01968093700488E595
:102C000093E00E94871C8091700490E09C01220F49
:102C1000331F220F331F820F931F89559C4F0E9431
:102C2000871C8BE393E00E94871C809170040E94B4
:102C3000F1070E94DE14DF91CF9108954F925F92C9
:102C40006F927F928F929F92AF92BF92CF92DF92BC
:102C5000EF92FF920F931F93CF93DF93CDB7DEB721
:102C600064970FB6F894DEBF0FBECDBF4A015B017B
:102C700028013901811107C09A01AB01C501B401D6
:102C80000E94111FF5C0813039F4A9019801C501D6
:102C9000B4010E94111FECC0823069F42BED3FE0BB
:102CA00049E45FE3C501B4010E94111FA50194012D
:102CB0000E94111FDDC08330B9F42BED3FE049E4E1
:102CC00050E4C301B2010E94111F6B017C01A301FA
:102CD0009201C501B4010E94CA1C9B01AC01C7014D
:102CE000B6010E94111FC4C0843009F0BDC020E0AD
:102CF00030E040E85EE3C701B6010E94111F6D831A
:102D00007E838F839887A5019401C501B4010E9439
:102D1000111F69877A878B879C87A7019601C70156
:102D2000B6010E94111F69837A838B839C839B0168
:102D3000AC0169857A858B859C850E94CA1C20E040
:102D400030E040E05FE30E947E1F698B7A8B8B8BC3
:102D50009C8BA5019401C701B6010E94571D0E94DA
:102D6000371D6D877E878F87988BA3019201C301E2
:102D7000B2010E94CB1C9B01AC01C501B4010E94B1
:102D8000CA1C4B015C019B01AC010E94111F2981EF
:102D90003A814B815C810E94CA1C20E030E040E017
:102DA0005FE30E947E1F69837A838B839C8320E08C
:102DB00030E040E05FE3C501B4010E94111F2B0128
:102DC0003C01A5019401C701B6010E94571D0E9454
:102DD000371D6B017C0129893A894B895C896D819A
:102DE0007E818F8198850E94111F4B015C0120E03C
:102DF00030E040E85EE369857A858B859C850E949A
:102E0000111F2D853E854F8558890E94111F9B01FA
:102E1000AC01C501B4010E94CB1C4B015C012981AE
:102E20003A814B815C816D817E818F8198850E9482
:102E3000111F9B01AC01C501B4010E94CA1C4B01CA
:102E40005C01A3019201C301B2010E94111F9B0109
:102E5000AC01C701B6010E94111F9B01AC01C50165
:102E6000B4010E94CA1C04C060E070E080E89FE3E7
:102E700064960FB6F894DEBF0FBECDBFDF91CF9141
:102E80001F910F91FF90EF90DF90CF90BF90AF9088
:102E90009F908F907F906F905F904F900895EF92EA
:102EA000FF920F931F93CF93DF93CDB7DEB72A978F
:102EB0000FB6F894DEBF0FBECDBF60916204615FB4
:102EC00084EA91E00E94C70B87E191E00E946A0AC0
:102ED00090916204892F8D7F69F48AE991E00E94C4
:102EE000B40A80E991E00E94B00A86E891E00E946D
:102EF000B00A2AC0813069F48AE991E00E94B40ADC
:102F000080E991E00E94B40A86E891E00E94B00A4C
:102F10001BC0943069F48AE991E00E94B40A80E908
:102F200091E00E94B40A86E891E00E94B40A0CC0C5
:102F30008AE991E00E94B00A80E991E00E94B00A1B
:102F400086E891E00E94B00A8FE791E00E94B40AFF
:102F50000F2EF6E5EF2EF4E0FF2EF02DF701608145
:102F60007181828193818E010F5F1F4F21E047E0C5
:102F70000E94B121B8018AE991E00E94B80AF701E4
:102F8000648175818681978121E047E00E94B121AB
:102F9000B80180E991E00E94B80AF7016085718567
:102FA0008285938521E047E00E94B121B80186E83F
:102FB00091E00E94B80A6091090170910A01809124
:102FC0000B0190910C0121E047E00E94B121B80172
:102FD0008FE791E00E94B80A2A960FB6F894DEBFF8
:102FE0000FBECDBFDF91CF911F910F91FF90EF905A
:102FF0000895CF92DF92EF92FF920F931F93CF939A
:10300000DF93EC0169EF72E00E94FE21892B59F0F9
:103010008091620490E0019766E070E00E942E21AA
:103020008093620411C06CEF72E0CE010E94FE2119
:10303000892B51F08091620490E0019666E070E087
:103040000E942E2180936204E6E5F4E080E090E0A7
:10305000A0E8BFE380839183A283B38384839583B5
:10306000A683B78380879187A287B387C0916204C4
:103070006C017D018C019D01AC01BD018C2F0E9472
:103080001E166093090170930A0180930B019093BF
:103090000C018C2F0E9409080E940F080E944F17F4
:1030A000DF91CF911F910F91FF90EF90DF90CF9024
:1030B0000895CF93DF93EC0160E772E00E94FE2158
:1030C000892B81F081E08093760410924A0410925B
:1030D0004B0410924C0410924D040E944C0C0E9420
:1030E0006D135CC06CE672E0CE010E94FE21892B5C
:1030F00031F083E0809376040E94DE144FC066E6D0
:1031000072E0CE010E94FE21892B31F087E080938E
:1031100076040E94FA1342C06EE672E0CE010E946D
:10312000FE21892B21F082E08093760437C068E687
:1031300072E0CE010E94FE21892B51F0809176042D
:10314000853061F185E0809376040E944F1726C098
:103150006AE672E0CE010E94FE21892BE1F08091A7
:1031600076048430A9F084E080937604109263049E
:1031700010926404109265041092660410926C041C
:1031800010926D0410926E0410926F0410926704F6
:103190000E94610F03C081E08093760483E693E090
:1031A0000E94871C8091760490E00E949D1C8BE316
:1031B00093E00E94871CDF91CF910895CF92DF9218
:1031C000EF92FF920F931F93E6E5F4E0C084D18461
:1031D000E284F38404811581268137814081518105
:1031E00062817381809162040E941E1660930901BE
:1031F00070930A0180930B0190930C010E940F08B9
:103200000E944F171F910F91FF90EF90DF90CF908A
:10321000089510927A04109279041092F404109296
:10322000F30408950E94C21A0E944E1C60E875E2E1
:1032300080E090E00E94021B80E00E944D010E940D
:10324000B60E0E94091981E090915504911180E019
:103250000E94C61C2FEF8FEF9AE1215080409040D2
:10326000E1F700C000000E94130C0E941E0C80E7D2
:1032700092E00E944C0A85EC93E00E94871C08951E
:10328000CF92DF92EF92FF9205960E94D1216B01BF
:103290007C019B01AC010E941420811111C0E091BE
:1032A000F304F091F404309759F0C082D182E282A5
:1032B000F382E0917904F0917A04309709F009954E
:1032C0000E940919FF90EF90DF90CF9008950F931F
:1032D0001F93CF93DF93CDB7DEB7A4970FB6F894C3
:1032E000DEBF0FBECDBF8E010F5F1F4F3AC1B801C9
:1032F0008BE30E943C1C8EE693E00E94871CC80171
:103300000E94871C8BE393E00E94871C64E474E0B6
:10331000C8010E94FE210817190751F46DEC7CECDE
:103320008CEC9DE30E94C41AC8010E94B10E19C121
:1033300060E174E0C8010E94FE210817190751F4EA
:103340006DEC7CEC8CEC9DE30E94C41AC8010E94D9
:10335000220C07C16EE374E0C8010E94FE21081729
:10336000190721F4C8010E945918FBC066E174E0F6
:10337000C8010E94FE210817190751F46DEC7CEC7E
:103380008CEC9DE30E94C41AC8010E94CE0FE9C0D4
:103390006BE074E0C8010E94FE210817190751F480
:1033A0006DEC7CEC8CEC9DE30E94C41AC8010E9479
:1033B0005F0ED7C064E074E0C8010E94FE210817C8
:1033C000190751F46DEC7CEC8CEC9DE30E94C41A5F
:1033D000C8010E949915C5C064E374E0C8010E9449
:1033E000FE210817190751F46DEC7CEC8CEC9DE381
:1033F0000E94C41AC8010E94D215B3C066EF73E0E0
:10340000C8010E94FE210817190751F46DEC7CECED
:103410008CEC9DE30E94C41AC8010E94140EA1C046
:103420006CEF73E0C8010E94FE210817190751F4E0
:103430006DEC7CEC8CEC9DE30E94C41AC8010E94E8
:10344000F9178FC060EF73E0C8010E94FE210817D2
:10345000190751F46DEC7CEC8CEC9DE30E94C41ACE
:10346000C8010E94D50C7DC06AEE73E0C8010E94BD
:10347000FE210817190751F46DEC7CEC8CEC9DE3F0
:103480000E94C41AC8010E9440196BC06CE174E02C
:10349000C8010E94FE210817190751F46DEC7CEC5D
:1034A0008CEC9DE30E94C41AC8010E94741359C099
:1034B00069E274E0C8010E94FE210817190751F45F
:1034C0006DEC7CEC8CEC9DE30E94C41AC8010E9458
:1034D0008F1347C061EE73E0C8010E94FE210817F8
:1034E000190751F46DEC7CEC8CEC9DE30E94C41A3E
:1034F000C8010E94991435C069ED73E0C8010E94AB
:10350000FE210817190751F46DEC7CEC8CEC9DE35F
:103510000E94C41AC8010E94BB1423C061ED73E06D
:10352000C8010E94FE210817190751F46DEC7CECCC
:103530008CEC9DE30E94C41AC8010E94801411C043
:103540006CEC73E0C8010E94FE210817190749F4CA
:103550006DEC7CEC8CEC9DE30E94C41AC8010E94C7
:1035600047138BE30E94EB1B019609F0C0CEA49693
:103570000FB6F894DEBF0FBECDBFDF91CF911F9184
:103580000F9108953C9A089520E030E046E154E41C
:103590000E94111F0E94D01D6115710581059105C2
:1035A00099F0449AE6EFF8E03197F1F700C0000097
:1035B0004498E6EFF8E03197F1F700C00000615061
:1035C00071098109910969F7089520E030E04AEF17
:1035D00054E40E94111F0E94D01D611571058105E0
:1035E000910579F0449AE3EBF2E03197F1F74498D2
:1035F000E3EBF2E03197F1F761507109810991092C
:1036000089F7089580E090E0FC01EB50FB4F1082B9
:10361000019688319105C1F71092C50087E4809327
:10362000C40088E98093C10086E08093C2000E94B4
:103630000B0C0895E0ECF0E0908195FFFDCF8093B6
:10364000C6000895E0ECF0E080818823ECF78091DB
:10365000C60008951F920F920FB60F9211242F9358
:103660003F934F935F936F937F938F939F93AF930A
:10367000BF93EF93FF930E94221BE0917704F0E049
:10368000EB50FB4F80838091770490E0019668E1D6
:1036900070E00E942E2180937704FF91EF91BF91FB
:1036A000AF919F918F917F916F915F914F913F91DA
:1036B0002F910F900FBE0F901F9018950E940F0C26
:1036C00010927704109278040E940B0C0895CF9307
:1036D000DF93EC018881882331F021960E941A1B28
:1036E00089918111FBCFDF91CF910895EF92FF92E5
:1036F0000F931F93CF93DF93EC018B010E940F0C6C
:1037000028E130E0809177044091780490E0841BB8
:1037100091094896B9010E942E218C179D0790F3BC
:10372000209769F1F80140E050E0809178047A0137
:10373000E80EF11C9701ABEABAEA0E94612192956A
:1037400082958F7089279F7089279C01220F331FD4
:10375000820F931F880F991F880F991F880F991F39
:103760009701281B390BD901AB50BB4F8C9181932A
:103770004F5F5F4F4C175D07C1F6CE0101C0CE0110
:10378000F801E80FF91F108280917804C80FD11D4D
:103790009E01ABEABAEA0E946121929582958F70F0
:1037A00089279F7089279C01220F331F820F931F47
:1037B000880F991F880F991F880F991FC81BD90B55
:1037C000C09378040E940B0CDF91CF911F910F9151
:1037D000FF90EF9008950F931F93CF93DF93482F9F
:1037E000809177042091780490E0821B910948969B
:1037F00068E170E00E942E218823A1F1EC01DD2711
:103800001C161D0694F58091780490E068E170E044
:103810000E942E21FC01EB50FB4F80818417A9F000
:1038200020E030E008E110E015C090917804B90183
:10383000690F711DCB01B8010E942E21FC01EB50D4
:10384000FB4F9081941306C002C020E030E0822F2D
:10385000932F0DC02F5F3F4F2C173D0731F78FEF90
:103860009FEF05C08FEF9FEF02C08FEF9FEFDF91BB
:10387000CF911F910F9108950F931F93CF93C82F4E
:103880008B018C2F0E94EB1B8F5FD9F3B80190E066
:103890000E94761BCF911F910F910895539AE1E8F2
:1038A000F0E080818860808380E894E090938900D4
:1038B000809388000895E1E8F0E090819E7F9083F6
:1038C000882311F05B9A01C05B98E1E8F0E0808109
:1038D00081608083B19BFECFB19AE1E8F0E0808106
:1038E0008E7F80830895CF93DF93D82F80E00E944E
:1038F0005B1CC8E08D2F81700E945B1CD695C15067
:10390000C9F781E00E945B1CDF91CF9108950F936E
:103910001F93CF93FC018081882359F08F01C0E071
:103920000E94731CCF5FF801EC0FF11D80818111A3
:10393000F7CFCF911F910F910895CF93DF93CDB71C
:10394000DEB760970FB6F894DEBF0FBECDBF4AE07A
:10395000BE016F5F7F4F0E941822CE0101960E9428
:10396000871C60960FB6F894DEBF0FBECDBFDF9107
:10397000CF910895289A089528980895882319F0DA
:103980000E94BA1C08950E94BC1C0895209A0E94AF
:10399000BE1C08955058BB27AA270E94E21C0C9415
:1039A000D21E0E94C41E38F00E94CB1E20F039F4B3
:1039B0009F3F19F426F40C94861E0EF4E095E7FB65
:1039C0000C94801EE92F0E94E31E58F3BA17620779
:1039D00073078407950720F079F4A6F50C94051F6A
:1039E0000EF4E0950B2EBA2FA02D0B01B90190011A
:1039F0000C01CA01A0011124FF27591B99F0593F5E
:103A000050F4503E68F11A16F040A22F232F342FA5
:103A10004427585FF3CF469537952795A795F040F3
:103A20005395C9F77EF41F16BA0B620B730B840B08
:103A3000BAF09150A1F0FF0FBB1F661F771F881FC0
:103A4000C2F70EC0BA0F621F731F841F48F4879518
:103A500077956795B795F7959E3F08F0B0CF93950A
:103A6000880F08F09927EE0F9795879508959F93F3
:103A70009F77EEE389379E0728F4E8E6F0E00E949E
:103A8000B01E0CC00E943C1E9058A2EA2AED3FE0F6
:103A900049EC5FE30E94E21C0E94D21E0F9007FCDB
:103AA000905808950E945C1E08F481E008950E94D9
:103AB0006B1D0C94D21E0E94CB1E58F00E94C41E97
:103AC00040F029F45F3F29F00C94801E51110C94B2
:103AD000061F0C94861E0E94E31E68F39923B1F31F
:103AE000552391F3951B550BBB27AA276217730724
:103AF000840738F09F5F5F4F220F331F441FAA1FB8
:103B0000A9F335D00E2E3AF0E0E832D09150504073
:103B1000E695001CCAF72BD0FE2F29D0660F771F21
:103B2000881FBB1F261737074807AB07B0E809F007
:103B3000BB0B802DBF01FF2793585F4F3AF09E3F8C
:103B4000510578F00C94801E0C94061F5F3FE4F33F
:103B5000983ED4F3869577956795B795F7959F5FCF
:103B6000C9F7880F911D9695879597F90895E1E01B
:103B7000660F771F881FBB1F621773078407BA077A
:103B800020F0621B730B840BBA0BEE1F88F7E095D5
:103B900008950E94D01D6894B1110C94061F0895D9
:103BA0000E94EB1E88F09F5798F0B92F9927B751C4
:103BB000B0F0E1F0660F771F881F991F1AF0BA95D1
:103BC000C9F714C0B13091F00E94051FB1E008950B
:103BD0000C94051F672F782F8827B85F39F0B93FFD
:103BE000CCF3869577956795B395D9F73EF4909584
:103BF0008095709561957F4F8F4F9F4F0895E89402
:103C000009C097FB3EF490958095709561957F4F24
:103C10008F4F9F4F9923A9F0F92F96E9BB279395D2
:103C2000F695879577956795B795F111F8CFFAF4E2
:103C3000BB0F11F460FF1BC06F5F7F4F8F4F9F4F13
:103C400016C0882311F096E911C0772321F09EE871
:103C5000872F762F05C0662371F096E8862F70E0D7
:103C600060E02AF09A95660F771F881FDAF7880FB1
:103C70009695879597F90895DF93CF931F930F93A8
:103C80008B01EC01ECE7F0E00E94891E0E94D21E3D
:103C90009801AE018B01EC0160E070E080E89FE3E9
:103CA0000E94CA1C0E94D41F9801AE010F911F915F
:103CB000CF91DF910C94241F990F0008550FAA0B88
:103CC000E0E8FEEF16161706E807F907C0F012162F
:103CD0001306E407F50798F0621B730B840B950B32
:103CE00039F40A2661F0232B242B252B21F4089587
:103CF0000A2609F4A140A6958FEF811D811D089524
:103D000097F99F6780E870E060E008959FEF80EC8E
:103D10000895DF93CF931F930F93FF92EF92DF925B
:103D20007B018C01689406C0DA2EEF010E94241FEB
:103D3000FE01E894A5912591359145915591A6F301
:103D4000EF010E94E21CFE019701A801DA9469F7D5
:103D5000DF90EF90FF900F911F91CF91DF91089529
:103D60009F938F937F936F93FF93EF939B01AC018E
:103D70000E94111FEF91FF910E94891E2F913F9188
:103D80004F915F910C94111F00240A941616170688
:103D900018060906089500240A941216130614063C
:103DA00005060895092E0394000C11F4882352F09F
:103DB000BB0F40F4BF2B11F460FF04C06F5F7F4F57
:103DC0008F4F9F4F089557FD9058440F551F59F03E
:103DD0005F3F71F04795880F97FB991F61F09F3FF8
:103DE00079F087950895121613061406551FF2CF21
:103DF0004695F1DF08C0161617061806991FF1CF71
:103E000086957105610508940895E894BB27662797
:103E10007727CB0197F908950E945C1E08F48FEF75
:103E200008950E94241F0C94D21E0E94C41E38F0D4
:103E30000E94CB1E20F0952311F00C94801E0C9450
:103E4000861E11240C94061F0E94E31E70F3959F9A
:103E5000C1F3950F50E0551F629FF001729FBB2781
:103E6000F00DB11D639FAA27F00DB11DAA1F649F1D
:103E70006627B00DA11D661F829F2227B00DA11DD0
:103E8000621F739FB00DA11D621F839FA00D611D56
:103E9000221F749F3327A00D611D231F849F600D77
:103EA000211D822F762F6A2F11249F5750409AF0A0
:103EB000F1F088234AF0EE0FFF1FBB1F661F771F2C
:103EC000881F91505040A9F79E3F510580F00C94F7
:103ED000801E0C94061F5F3FE4F3983ED4F3869552
:103EE00077956795B795F795E7959F5FC1F7FE2B97
:103EF000880F911D9695879597F90895FA01EE0F11
:103F0000FF1F309621053105A1F16115710561F49E
:103F10008038BFE39B0749F168949038810561F0D0
:103F20008038BFEF9B0741F099234AF5FF3FE10539
:103F30003105210519F1E8940894E795D901AA23E0
:103F400029F4AB2FBE2FF85FD0F310C0FF5F70F4E1
:103F5000A695E0F7F73950F019F0FF3A38F49F775B
:103F60009F930DD00F9007FC9058089546F00C9445
:103F7000861E60E070E080E89FE308954FE79F773A
:103F80005F934F933F932F930E94B2202F913F91C5
:103F90004F915F910E94111F0C94212019F416F487
:103FA0000C94861E0C9453200E94EB1EB8F39923A8
:103FB000C9F3B6F39F57550B87FF0E946120002479
:103FC000A0E640EA900180585695979528F4805CC9
:103FD000660F771F881F20F026173707480730F431
:103FE000621B730B840B202931294A2BA695179449
:103FF0000794202531254A2758F7660F771F881F19
:1040000020F026173707480730F4620B730B840B38
:10401000200D311D411DA09581F7B901842F9158C4
:10402000880F9695879508950E945C1E880B990BC2
:10403000089529F416F00C94801E0C94051F0C941E
:10404000861E0E94EB1EA8F39638A0F707F80F9281
:10405000E8942BE33AEA48EB5FE70E94271F0F92B0
:104060000F920F924DB75EB70F920E94FA20E4EACA
:10407000F0E00E94891E4F915F91EF91FF91E595CD
:10408000EE1FFF1F49F0FE57E0684427EE0F441F64
:10409000FA95E1F74195550B0E9474200F9007FEA9
:1040A0000C94682008959F3F31F0915020F487953B
:1040B00077956795B795880F911D9695879597F990
:1040C000089591505040660F771F881FD2F70895CA
:1040D0009B01AC0160E070E080E89FE30C94571D09
:1040E0000C94801E0C9453200E94EB1ED8F399234D
:1040F000C9F3940F511DA3F39150504094F059F01F
:10410000882332F0660F771F881F91505040C1F707
:104110009E3F51052CF7880F911D9695879597F92D
:1041200008955F3FACF0983E9CF0BB27869577954D
:104130006795B79508F4B1609395C1F7BB0F58F731
:1041400011F460FFE8CF6F5F7F4F8F4F9F4FE3CF3A
:104150000C94061F16F00C9453200C94861E689441
:104160000C94801E0E94EB1EA8F39923C1F3AEF3BA
:10417000DF93CF931F930F93FF92C92FDD278823DF
:104180002AF02197660F771F881FDAF720E030E0CA
:1041900040E85FEB9FE3883920F0803E38F02196BD
:1041A0008F770E94CB1CECECF0E004C00E94CB1C8B
:1041B000E9EFF0E00E94891E8B01BE01EC01FB2EAD
:1041C0006F5771097595771F880B990B0E94011E17
:1041D00028E132E741E35FE30E94241FAF2D9801FD
:1041E000AE01FF900F911F91CF91DF910E94E21CD1
:1041F0000C94D21EFA01DC01AA0FBB1F9B01AC017B
:10420000BF5728F4222733274427507820C0B751BE
:1042100090F4AB2F0024469537952795011CA39564
:10422000D2F3002071F0220F331F441FB395DAF34D
:104230000ED00C94CA1C61307105A0E88A07B946FB
:1042400030F49B01AC016627772788279078309659
:1042500021F02083318342835383089597FB072EF7
:1042600016F4009407D077FD09D00E947B2107FC4B
:1042700005D03EF4909581959F4F08957095619576
:104280007F4F0895052E97FB1EF400940E9459213C
:1042900057FD07D00E948F2107FC03D04EF40C94E9
:1042A000592150954095309521953F4F4F4F5F4F85
:1042B000089590958095709561957F4F8F4F9F4F92
:1042C0000895A29FB001B39FC001A39F700D811DEF
:1042D0001124911DB29F700D811D1124911D08950F
:1042E0000E946121A59F900DB49F900DA49F800D09
:1042F000911D11240895AA1BBB1B51E107C0AA1FE1
:10430000BB1FA617B70710F0A61BB70B881F991F76
:104310005A95A9F780959095BC01CD010895A1E229
:104320001A2EAA1BBB1BFD010DC0AA1FBB1FEE1F2F
:10433000FF1FA217B307E407F50720F0A21BB30B7A
:10434000E40BF50B661F771F881F991F1A9469F7F6
:1043500060957095809590959B01AC01BD01CF0152
:104360000895EF920F931F93CF93DF93E80147FDDA
:1043700002C034E001C034E1E42F440FFF0BF7FF2B
:1043800003C0F195E195F109E32E022F2E2FAE0126
:104390000E947622CE01DF91CF911F910F91EF9075
:1043A0000895662777270C940424FC018827992711
:1043B000E89421912032E9F3293010F02E30C8F32F
:1043C0002B3241F02D3239F4689404C00E9432221D
:1043D000820F911D219120532A30C0F31EF4909535
:1043E00081959F4F0895FB01DC010D900020E9F7B6
:1043F000119701900D920020E1F70895FB01519172
:104400005523A9F0BF01DC014D9145174111E1F79A
:1044100059F4CD010190002049F04D914015411112
:10442000C9F3FB014111EFCF81E090E001970895BE
:10443000BB274A3031F4992322F4BDE2909581954F
:104440009F4F0C945D22BB272A3051F4992342F4EC
:10445000BDE290958095709561957F4F8F4F9F4FEE
:104460000C943B227AE0979F902D879F802D910D91
:1044700011240895BB27FA01A62F62177105810543
:104480009105330B30FB66F0AA27660F771F881F54
:10449000991FAA1FA21710F0A21B63953850A9F705
:1044A000A05DAA3308F0A95DA19336F7B111B193CD
:1044B0001082CA010C945A26BB27FB015527AA2754
:1044C000880F991FAA1FA41710F0A41B83955051A1
:1044D000B9F7A05DAA3308F0A95DA193009779F719
:1044E000B111B1931192CB010C945A264F925F9265
:1044F0006F927F929F92AF92BF92CF92DF92EF9294
:10450000FF920F931F93CF93DF93CDB7DEB7299719
:104510000FB6F894DEBF0FBECDBF6A01122FB02ECA
:104520002BE3201720F0FF24F394F00E02C0BCE32D
:10453000FB2E0F2D27E0AE014F5F5F4F0E946125DC
:10454000AC018981982F9970913031F0E1FC06C05F
:10455000E0FE06C090E205C09DE203C09BE201C000
:1045600090E0EE2DE07183FF3CC0911102C083E02A
:1045700001C084E0811718F4212F281B01C020E01E
:10458000E1110BC0F601822F30E2882319F031933C
:104590008150FBCFC20ED11C20E0992329F0D60117
:1045A0009C93F60131966F01C6010396E2FE0AC0A4
:1045B0003EE4D6013C9341E411964C931197129638
:1045C0003C9306C03EE6F601308341E641833283E8
:1045D000FC01322F40E2332309F442C041933150B1
:1045E000FACF82FF44C0911102C083E001C084E091
:1045F000811718F4212F281B01C020E0E1110BC006
:10460000F601822F30E2882319F031938150FBCFDD
:10461000C20ED11C20E0992329F0D6019C93F6010B
:1046200031966F01C6010396E2FE0BC039E4D60154
:104630003C933EE411963C93119736E412963C93DA
:1046400007C039E6F60130833EE6318336E6328331
:10465000FC01322F40E2332319F041933150FBCF5C
:10466000FC01E20FF11D10828EEF9FEFB7C0F1E069
:10467000911101C0F0E06F2F70E01416150624F4BC
:104680009A012F5F3F4F02C021E030E0260F371F15
:10469000BB2029F06B2D70E06F5F7F4F02C060E0A0
:1046A00070E0260F371F612F70E0261737071CF4C4
:1046B000121B212F01C020E03E2D387159F4D60184
:1046C000322F60E2332319F06D933150FBCFC20ECD
:1046D000D11C20E0FF2331F0D6019C93B6016F5F1F
:1046E0007F4F6B01E1110BC0F601922F30E399234C
:1046F00019F031939150FBCFC20ED11C20E09F2DB9
:10470000940F3A81782F7071A72E84FF03C0313344
:1047100009F49150191624F4993018F098E001C06A
:1047200091E0E42F852F57FF02C0E0E080E06E2F7C
:10473000782FE0E0F0E0AEE29A2E3A01691A7108B3
:104740002A01461A570A0B2D10E0119501951109FF
:104750006F3F8FEF780729F4D6019C92C60101962E
:104760006C014617570784F0661677066CF47F01D4
:10477000E40CF51CA1E0B0E0AC0FBD1FEA0EFB1E7F
:10478000D7011196BC9002C090E3B92E6150710917
:104790003196C60101967C016017710724F0D6019D
:1047A000BC926C01D5CF6417750741F4363320F401
:1047B000353321F4A11002C081E3B82EF601B08296
:1047C000F701822F90E2882319F091938150FBCF5B
:1047D000F701E20FF11D108280E090E029960FB6FC
:1047E000F894DEBF0FBECDBFDF91CF911F910F9127
:1047F000FF90EF90DF90CF90BF90AF909F907F9011
:104800006F905F904F900895A0E0B0E0EAE0F4E28E
:104810000C94AA26EC017B016115710519F0DB01EE
:104820008D939C938E010F5F1F4F7880872D90E0B2
:104830000E943926892B11F0E801F4CFBDE27B12EA
:1048400005C00F5F1F4F7980C1E008C0EBE27E1208
:1048500004C08E010E5F1F4F7980C0E06801F1E057
:10486000CF1AD10843E050E06EE271E0C6010E9429
:104870004226892BF1F4680122E0C20ED11C45E0EA
:1048800050E069E271E0C6010E944226892B21F4C2
:10489000680187E0C80ED11CE114F10419F0D701BA
:1048A000CD92DC92C111FFC060E070E080E89FE72C
:1048B00003C143E050E066E271E0C6010E94422677
:1048C000892B51F4E114F10409F4F2C00E5F1F4F7B
:1048D000F70111830083ECC0680160E070E0CB0158
:1048E00000E010E0F601D0EDD70DDA3058F52C2FAE
:1048F0002260622E2C2F2870C2FF05C0211128C013
:104900000F5F1F4F25C0222311F001501109A5E0B0
:10491000B0E09B01AC010E9470214B015C01880C4E
:10492000991CAA1CBB1CC501B4016D0F711D811D12
:10493000911D6839A9E97A078A07A9E19A0740F029
:10494000C66005C0DE3F51F4C3FD44C0C8606C2E94
:10495000BFEFCB1ADB0A7080C62DC4CF2D2F2F7D61
:104960002531C1F540814D3211F4C06106C04B3292
:1049700021F0319621E030E006C03296D601119642
:104980004C9122E030E0A0EDA40FAA3018F0E21B19
:10499000F30B20C040E050E04038BCE05B075CF423
:1049A0009A01220F331F220F331F420F531F440F50
:1049B000551F4A0F511D3196DF0111972C91A0ED23
:1049C000A20FAA3048F3C4FF03C051954195510985
:1049D000040F151FC1FF07C0E114F10421F0319746
:1049E000D701ED93FC930E94FF1DC370C33019F0F3
:1049F0006B017C0106C06B017C01F7FAF094F7F8BB
:104A0000F09420E030E0A901C701B6010E94521DD8
:104A1000882309F445C017FF06C0119501951109B7
:104A2000C5E4D1E002C0CDE5D1E05E01B8E1AB1A4A
:104A3000B1084601BE2DAF2D90E2E92EF12C0E15E6
:104A40001F0584F0FE012591359145915491B401E3
:104A50008B2F9A2F0E94111F4B01B82FA92F0E19CF
:104A60001F09EDCF2497F594E794CA15DB0539F7B4
:104A70006401EB2EFA2E8E2D880F8F2D881F8F3F0D
:104A800049F020E030E0A901C701B6010E94521DA3
:104A9000811106C082E290E090930E0580930D058F
:104AA000C701B60109C060E070E080E89FEF04C074
:104AB00060E070E080EC9FE7CDB7DEB7EEE00C94ED
:104AC000C626283008F027E03327DA01990F311D78
:104AD00087FD916000966105710539F432602E5FA3
:104AE0003D9330E32A95E1F708959F3F30F08038F9
:104AF0007105610509F03C5F3C5F3D93913008F022
:104B00008068911DDF93CF931F930F93FF92EF92D5
:104B1000192F987F9695E92F96959695E90FFF277F
:104B2000E554FE4F99273327EE24FF24A701E70120
:104B300005900894079428F4360FE71EF81E491FC5
:104B4000511D660F771F881F991F0694A1F70590C6
:104B5000079428F4E70EF81E491F561FC11D770F52
:104B6000881F991F661F0694A1F70590079428F4E3
:104B7000F80E491F561FC71FD11D880F991F661FAA
:104B8000771F0694A1F70590079420F4490F561F4C
:104B9000C71FD81F990F661F771F881F0694A9F794
:104BA00084911095177041F0D695C7955795479504
:104BB000F794E7941A95C1F7E1E6F1E0689415904F
:104BC000159135916591959105907FE27395E11866
:104BD000F10A430B560BC90BD009C0F7E10CF11ECB
:104BE000431F561FC91FD01D7EF4703311F48A95E0
:104BF000E6CFE894015030F0080F0AF400270217BE
:104C000008F4202F2395022F7A3328F079E37D933F
:104C10002A95E9F710C07D932A9589F60694979511
:104C20006795379517951794E118F10A430B560BC2
:104C3000C90BD00998F023957E9173957A3308F0CB
:104C400070E37C932013B8F77E9170617D9330F010
:104C5000839571E37D9370E32A95E1F71124EF903A
:104C6000FF900F911F91CF91DF91992787FD90952C
:104C7000089591110C946A26803219F0895085505C
:104C8000C8F70895FB01DC014150504088F08D9138
:104C900081341CF08B350CF4805E659161341CF01E
:104CA0006B350CF4605E861B611171F3990B0895EE
:104CB000881BFCCFDC01FC01672F71917723E1F7A2
:104CC000329704C07C916D9370836291AE17BF07D9
:104CD000C8F30895992788270895F999FECF92BDC2
:104CE00081BDF89A992780B50895A6E1B0E044E027
:104CF00050E00C949826262FF999FECF1FBA92BD4A
:104D000081BD20BD0FB6F894FA9AF99A0FBE0196AC
:104D10000895242F0E947C26252F0E947C260C9427
:104D200091260E947B26272F0C947C26DC01CB0148
:104D3000FC01F999FECF06C0F2BDE1BDF89A3196AB
:104D400000B40D9241505040B8F708952F923F9211
:104D50004F925F926F927F928F929F92AF92BF928B
:104D6000CF92DF92EF92FF920F931F93CF93DF9337
:104D7000CDB7DEB7CA1BDB0B0FB6F894DEBF0FBE94
:104D8000CDBF09942A88398848885F846E847D84E1
:104D90008C849B84AA84B984C884DF80EE80FD80E3
:104DA0000C811B81AA81B981CE0FD11D0FB6F89459
:0E4DB000DEBF0FBECDBFED010895F894FFCF1A
:104DBE0000007A445000007A440000803F0000005A
:104DCE00000000803F2C00625F6261636B006469CB
:104DDE0073705F756E697474705F6C006469737064
:104DEE005F756E697474705F620073706565645F81
:104DFE00756E69740073706565645F76616C0063CF
:104E0E006865636B5F6F7666006F76665F74687257
:104E1E0000736C5F72656C617900625F6F6E006229
:104E2E005F6F66660063617061635F7478740074AF
:104E3E005F6172656100745F73616D706C653300E4
:104E4E00745F73616D706C653200745F73616D7049
:104E5E006C653100705F73616D706C6500625F72BE
:104E6E00656D6F766500625F707265765F63756EF5
:104E7E00697400625F6E6578745F63756E69740045
:104E8E00625F707265765F7000625F6E6578745FE8
:104E9E00700063616C756E69740063616C5F6C6148
:104EAE0062656C0073656C65637465645F706F69D1
:104EBE006E7400706F696E745F6C6162656C006217
:104ECE005F636F6E6669726D003132003131006C56
:104EDE006F636B5F696D67006C6F636B6564006415
:104EEE006973705F756E6974007065616B5F766172
:104EFE006C006E756D006E65775F63616C69620044
:104F0E00645F76616C756500645F76616C75655F74
:104F1E006C6162656C00370035003400330032007E
:104F2E0031002E7069633D002E70636F3D002E764A
:104F3E00616C3D002E7478743D00FFFFFF007669B2
:104F4E007320007061676520007265662000476FF0
:104F5E0020746F20706167653A200073616D706C0C
:104F6E0065310073616D706C65320073616D706CCC
:104F7E006533006E657763616C00636170616369B0
:104F8E0074790063616C6962726174696F6E2E74FC
:104F9E006F74616C5F706F696E747300544F474726
:104FAE004C45204C4F434B0A002D2D002B2B004F10
:104FBE00766572666C6F772050726F746563746974
:104FCE006F6E204D6F64653A20004F766572666C89
:104FDE006F772050726F74656374696F6E205468BA
:104FEE00726573686F6C643A2000250A0053656D14
:104FFE002063616C69627261E7E36F00506F6E74DB
:10500E006F2000206465200043616C20556E69742A
:10501E003A200053657420506167653A2000436F53
:10502E006D6D616E64204275666665723A0A004D5A
:10503E005061000000000000007073690000000065
:10504E000000006B67662F6D6D320000004E2F6DF5
:10505E006D3200000000006B676600007466000091
:10506E000067660000004E000000006B4E0000005E
:10507E006C6266000072656164790A007A65726F0F
:10508E00006F766663686B3D006F76667063743D85
:10509E00006F76666D6F64653D006676616C3D00EF
:1050AE00667661723D0064656C703D0073616D7073
:1050BE006C653D00706F696E743D0063616C3D0000
:1050CE00676F746F3D00706C6F636B006469737013
:1050DE005F756E69745F743D00646973705F756EA1
:1050EE0069743D0063616C5F756E69743D0070613B
:0A50FE0067653D00756E69743D00A2
:00000001FF
