S0100000536F6C7574696F6E2E73726563B7
S11300000C9434000C9451000C9451000C94510045
S11300100C9451000C941C010C9451000C9451004C
S11300200C9451000C9451000C9451000C94510008
S11300300C9451000C9451000C9451000C945100F8
S11300400C9451000C9451000C9451000C945100E8
S11300500C9451000C9451000C9451000C945100D8
S11300600C9451000C94510011241FBECFEFD8E022
S1130070DEBFCDBF11E0A0E0B1E0EAE0F7E002C0EE
S113008005900D92AE32B107D9F721E0AEE2B1E0AE
S113009001C01D92A834B207E1F70E9484000C94B9
S11300A083030C94000097B1976097B93B9898B17B
S11300B09A6098B942988111409A08953399FECF75
S11300C028E180E090E0DC01429A3AE43A95F1F7C5
S11300D042983AE43A95F1F7880F991FAA1FBB1F7B
S11300E0339981603AE43A95F1F7215069F7429ADD
S11300F02AE42A95F1F742983AE43A95F1F7A7FDF4
S1130100BF6FBC01CD0108950E948F000E94C400FE
S11301108FEF9BE60197F1F700C00000F7CF0E9434
S11301207D010E948A0181E00E94530080E00E94C8
S1130130ED022FEF8FEF9AE1215080409040E1F7DC
S113014000C0000081E191E00E94D6010895CF92A1
S1130150DF92EF92FF920E9410010E945E006B01F9
S11301607C010E94160187E291E00E94D601C7013A
S1130170B6010E94EC018FE091E00E94D601FF904D
S1130180EF90DF90CF9008950F931F93CF93DF9359
S1130190CDB7DEB7A4970FB6F894DEBF0FBECDBFC0
S11301A08E010F5F1F4F2CC0B8018BE30E94CF025A
S11301B062E271E0C8010E9428030817190719F4C4
S11301C00E94A7001DC06DE171E0C8010E942803D0
S11301D00817190739F40E94E10280E091E00E94B7
S11301E0D6010EC068E171E0C8010E942803081717
S11301F0190731F40E94E30288E091E00E94D601DD
S11302008BE30E947E02019679F6A4960FB6F894C9
S1130210DEBF0FBECDBFDF91CF911F910F91089527
S1130220EDE6F0E080818F7780830895EDE6F0E0DD
S113023080818068808308951F920F920FB60F9279
S113024011242F933F934F935F936F937F938F93D7
S11302509F93AF93BF93EF93FF930E9410014F9925
S113026039C080E492E09093890080938800E1E8AB
S1130270F0E0808181608083B19BFECFE1E8F0E013
S113028080818E7F8083B19A80E894E09093890086
S11302908093880098E020E02695808181608083A7
S11302A0B19BFECF80818E7F80834F992068B19A65
S11302B0915091F7E0912E01F0E0E05DFE4F208334
S11302C080912E0190E0019668E170E00E94F102B5
S11302D080932E010E941601FF91EF91BF91AF917F
S11302E09F918F917F916F915F914F913F912F914A
S11302F00F900FBE0F901F901895569AE1E8F0E00A
S113030080818860808380E894E090938900809362
S11303108800089557985F98E1E8F0E0808188604C
S1130320808380E894E09093890080938800E8E6D5
S1130330F0E0808184608083EDE6F0E08081806875
S1130340808378940895CF93C82F0E941001E1E828
S1130350F0E080818E7F8083CC2311F05E9A01C00F
S11303605E98E1E8F0E0808181608083B19BFECFFC
S1130370B19AE1E8F0E080818E7F80830E941601CB
S1130380CF910895CF93DF93D82F80E00E94A301EB
S1130390C8E08D2F81700E94A301D695C150C9F782
S11303A081E00E94A301DF91CF9108950F931F93E1
S11303B0CF93FC018081882359F08F01C0E00E9413
S11303C0C201CF5FF801EC0FF11D80818111F7CFDD
S11303D0CF911F910F910895CF93DF93CDB7DEB7DF
S11303E060970FB6F894DEBF0FBECDBF2AE0AE0112
S11303F04F5F5F4F0E944203CE0101960E94D601D7
S113040060960FB6F894DEBF0FBECDBFDF91CF91DB
S11304100895EF92FF920F931F93CF93DF93EC0114
S11304208B010E94100128E130E080912E0140915F
S11304302F0190E0841B91094896B9010E94F102B2
S11304408C179D0790F3209769F1F80140E050E084
S113045080912F017A01E80EF11C9701ABEABAEA08
S11304600E940503929582958F7089279F70892732
S11304709C01220F331F820F931F880F991F880F2F
S1130480991F880F991F9701281B390BD901A05D6B
S1130490BE4F8C9181934F5F5F4FC417D507C1F650
S11304A0CE0101C0CE01F801E80FF91F108280913E
S11304B02F01C80FD11D9E01ABEABAEA0E940503C1
S11304C0929582958F7089279F7089279C01220FAE
S11304D0331F820F931F880F991F880F991F880F4E
S11304E0991FC81BD90BC0932F010E941601DF91DD
S11304F0CF911F910F91FF90EF9008950F931F9349
S1130500CF93DF93482F80912E0120912F0190E00B
S1130510821B9109489668E170E00E94F1028823E9
S113052071F1EC01DD271C161D0664F580912F0185
S113053090E068E170E00E94F102FC01E05DFE4F92
S11305408081481711F120E030E008E110E00FC08D
S113055090912F01B901690F711DCB01B8010E945F
S1130560F102FC01E05DFE4F9081941789F02F5F4A
S11305703F4F2C173D0761F78FEF9FEF0BC08FEFB5
S11305809FEF08C08FEF9FEF05C080E090E002C0AE
S1130590822F932FDF91CF911F910F9108950F9385
S11305A01F93CF93C82F8B018C2F0E947E028F5FE5
S11305B0D9F3B80190E00E940902CF911F910F91E5
S11305C00895289A089528980895882319F00E9478
S11305D0E10208950E94E3020895209A0E94E50230
S11305E0089597FB072E16F4009407D077FD09D0E1
S11305F00E94140307FC05D03EF4909581959F4F0B
S11306000895709561957F4F0895A29FB001B39F9F
S1130610C001A39F700D811D1124911DB29F700D07
S1130620811D1124911D0895AA1BBB1B51E107C014
S1130630AA1FBB1FA617B70710F0A61BB70B881F6E
S1130640991F5A95A9F780959095BC01CD010895FD
S1130650FB0151915523A9F0BF01DC014D914517D0
S11306604111E1F759F4CD010190002049F04D9179
S113067040154111C9F3FB014111EFCF81E090E036
S113068001970895BB272A3051F4992342F4BDE21F
S113069090958095709561957F4F8F4F9F4F0C94E7
S11306A05203BB27FA01A62F621771058105910534
S11306B0330B30FB66F0AA27660F771F881F991F3C
S11306C0AA1FA21710F0A21B63953850A9F7A05DCA
S11306D0AA3308F0A95DA19336F7B111B193108242
S11306E0CA010C947303DC01FC01672F7191772319
S11306F0E1F7329704C07C916D9370836291AE17D9
S10D0700BF07C8F30895F894FFCF73
S113070A3B726C796F6E3B003B726C796F66663B29
S113071A0072656164790A00726C793000726C79CE
S111072A31006765747600616476616C3D0091
S9030000FC
