S0100000536F6C7574696F6E2E73726563B7
S11300000C9434000C9451000C9451000C94510045
S11300100C9451000C94F9000C9451000C94510070
S11300200C9451000C9451000C9451000C94510008
S11300300C9451000C9451000C9451000C945100F8
S11300400C9451000C9451000C9451000C945100E8
S11300500C9451000C9451000C9451000C945100D8
S11300600C9451000C94510011241FBECFEFD8E022
S1130070DEBFCDBF11E0A0E0B1E0E4EAF6E002C0EB
S113008005900D92A631B107D9F721E0A6E1B1E0C0
S113009001C01D92A033B207E1F70E9487000C94BF
S11300A050030C94000097B1976097B93B9898B1AE
S11300B09A6098B942988111409A08953399FECF75
S11300C028E180E090E0DC01429A35E23A95F1F7CC
S11300D04298880F991FAA1FBB1F3399816035E28C
S11300E03A95F1F7215081F7429A25E22A95F1F7E2
S11300F0429835E23A95F1F7A7FDBF6F8F3F2FEF96
S11301009207A207B207D1F2BC01CD0108950E9463
S113011092000E94B7008FEF9BE60197F1F700C0B1
S11301200000F7CF0E945A010E94670180E00E94FC
S1130130530082E091E00E94B3010895CF92DF92D0
S1130140EF92FF920E945E006B017C018EE091E0D1
S11301500E94B301C701B6010E94C90180E091E089
S11301600E94B301FF90EF90DF90CF900895EF923B
S1130170FF920F931F93CF93DF93CDB7DEB7A4976E
S11301800FB6F894DEBF0FBECDBFCE0101967C0141
S1130190082F1F2D10C0602F712F8BE30E94AC021B
S11301A069E071E0802F912F0E94F502E816F906AC
S11301B011F40E949E008BE30E945B02019659F7A2
S11301C0A4960FB6F894DEBF0FBECDBFDF91CF91DA
S11301D01F910F91FF90EF900895EDE6F0E080817C
S11301E08F7780830895EDE6F0E0808180688083D6
S11301F008951F920F920FB60F9211242F933F93DD
S11302004F935F936F937F938F939F93AF93BF931A
S1130210EF93FF930E94ED004F9939C080E492E080
S11302209093890080938800E1E8F0E08081816008
S11302308083B19BFECFE1E8F0E080818E7F8083F4
S1130240B19A80E894E0909389008093880098E0C4
S113025020E02695808181608083B19BFECF8081E0
S11302608E7F80834F992068B19A915091F7E091E5
S11302701601F0E0E85EFE4F20838091160190E0C5
S1130280019668E170E00E94BE02809316010E940C
S1130290F300FF91EF91BF91AF919F918F917F9167
S11302A06F915F914F913F912F910F900FBE0F90DF
S11302B01F901895569AE1E8F0E080818860808369
S11302C080E894E09093890080938800089557987B
S11302D05F98E1E8F0E080818860808380E894E0C2
S11302E09093890080938800E8E6F0E08081846040
S11302F08083EDE6F0E080818068808378940895BF
S1130300CF93C82F0E94ED00E1E8F0E080818E7F5A
S11303108083CC2311F05E9A01C05E98E1E8F0E09E
S1130320808181608083B19BFECFB19AE1E8F0E0E7
S113033080818E7F80830E94F300CF910895CF93B4
S1130340DF93D82F80E00E948001C8E08D2F817058
S11303500E948001D695C150C9F781E00E948001B6
S1130360DF91CF9108950F931F93CF93FC01808168
S1130370882359F08F01C0E00E949F01CF5FF801EC
S1130380EC0FF11D80818111F7CFCF911F910F9157
S11303900895CF93DF93CDB7DEB760970FB6F89487
S11303A0DEBF0FBECDBF2AE0AE014F5F5F4F0E949C
S11303B00F03CE0101960E94B30160960FB6F89424
S11303C0DEBF0FBECDBFDF91CF910895EF92FF92B4
S11303D00F931F93CF93DF93EC018B010E94ED00E9
S11303E028E130E0809116014091170190E0841BD0
S11303F091094896B9010E94BE028C179D0790F39B
S1130400209769F1F80140E050E0809117017A01EA
S1130410E80EF11C9701ABEABAEA0E94D202929567
S113042082958F7089279F7089279C01220F331F23
S1130430820F931F880F991F880F991F880F991F88
S11304409701281B390BD901A85EBE4F8C9181936B
S11304504F5F5F4FC417D507C1F6CE0101C0CE016F
S1130460F801E80FF91F108280911701C80FD11D00
S11304709E01ABEABAEA0E94D202929582958F70ED
S113048089279F7089279C01220F331F820F931F96
S1130490880F991F880F991F880F991FC81BD90BA4
S11304A0C09317010E94F300DF91CF911F910F9128
S11304B0FF90EF9008950F931F93CF93DF93482FEE
S11304C0809116012091170190E0821B91094896B2
S11304D068E170E00E94BE02882371F1EC01DD271F
S11304E01C161D0664F58091170190E068E170E028
S11304F00E94BE02FC01E85EFE4F8081481711F1A4
S113050020E030E008E110E00FC090911701B9013C
S1130510690F711DCB01B8010E94BE02FC01E85EA7
S1130520FE4F9081941789F02F5F3F4F2C173D07A2
S113053061F78FEF9FEF0BC08FEF9FEF08C08FEF36
S11305409FEF05C080E090E002C0822F932FDF91DF
S1130550CF911F910F9108950F931F93CF93C82F9D
S11305608B018C2F0E945B028F5FD9F3B80190E05E
S11305700E94E601CF911F910F91089597FB072EDA
S113058016F4009407D077FD09D00E94E10207FC1D
S113059005D03EF4909581959F4F0895709561958F
S11305A07F4F0895A29FB001B39FC001A39F700D18
S11305B0811D1124911DB29F700D811D1124911D67
S11305C00895AA1BBB1B51E107C0AA1FBB1FA61796
S11305D0B70710F0A61BB70B881F991F5A95A9F7E8
S11305E080959095BC01CD010895FB01519155234F
S11305F0A9F0BF01DC014D9145174111E1F759F410
S1130600CD010190002049F04D9140154111C9F3ED
S1130610FB014111EFCF81E090E001970895BB27E2
S11306202A3051F4992342F4BDE290958095709557
S113063061957F4F8F4F9F4F0C941F03BB27FA0187
S1130640A62F6217710581059105330B30FB66F007
S1130650AA27660F771F881F991FAA1FA21710F0D9
S1130660A21B63953850A9F7A05DAA3308F0A95DD1
S1130670A19336F7B111B1931082CA010C944003CF
S1130680DC01FC01672F71917723E1F7329704C0F5
S11306907C916D9370836291AE17BF07C8F3089580
S10706A0F894FFCFF8
S11306A43B0072656164790A00676574760061646D
S10906B476616C3D0000BC
S9030000FC
