:100000000C9434000C9451000C9451000C94510049
:100010000C9451000C94A7090C9451000C945100BD
:100020000C9451000C9451000C9451000C9451000C
:100030000C9451000C9451000C946A070C945100DC
:100040000C9451000C9451000C94FC080C94510039
:100050000C9451000C9451000C9451000C945100DC
:100060000C9451000C94510011241FBECFEFD8E026
:10007000DEBFCDBF12E0A0E0B1E0E8EBFAE102C0E4
:1000800005900D92A632B107D9F722E0A6E2B2E0C0
:1000900001C01D92AF3EB207E1F70E9404060C9426
:1000A0005A0D0C94000097B1976097B93B9898B19E
:1000B0009A6098B942988111409A08952F923F9280
:1000C0004F925F926F927F928F929F92AF92BF9268
:1000D000CF92DF92EF92FF920F931F93CF93DF9314
:1000E000CDB7DEB7A4970FB6F894DEBF0FBECDBF75
:1000F000161617060CF0CAC23AA329A358A34F8FAD
:100100002B019C8F8B8F3A8729870F8B188FE98E55
:10011000FA8E5A834983880F991F880F991F880F79
:10012000991F98878F835A016E2C7F2C202E312E99
:10013000C9A0DAA0E12CF12CDC82CB82F60110827E
:100140001182128213822B8D3C8D121613061CF520
:100150008F8098848A0C9B1C8501F80160817181D5
:10016000828193819B01AC010E941D0C9B01AC011B
:10017000EB81FC8160817181828193810E94830A7D
:10018000EB81FC816083718382839383085F1F4FBF
:100190008016910611F7EB81FC816081718182816B
:1001A00093810E94900CEB81FC8160837183828338
:1001B0009383F4E0CF0ED11CF101119211921192B0
:1001C00011921F01F301E192F1923F01FFEFEF1A4B
:1001D000FF0A24E0A20EB11C4E145F0409F0ACCF5C
:1001E0002F8C38A08F819885280E391EC201880F68
:1001F000991F880F991FE9A1FAA1E80FF91FFCA325
:10020000EBA31E8E1D8E21E030E03E8B2D8B1C8AD1
:100210001B8A1F86188A198A1A8A2DC08B899C8985
:1002200001969C8B8B8BED89FE893196FE8BED8B35
:100230002F89388D2C5F3F4F388F2F8B8D8D9E8D62
:1002400004969E8F8D8FE985FA853496FA87E98723
:10025000F4E02F0E311C298D3A8D2E5F3F4F3A8FDF
:10026000298F89819A810C969A838983EF81F885F9
:100270003897F887EF832B893C893C872B871216A8
:1002800013060CF047C0241535050CF002C2098195
:100290001A810850110989859A859E878D876BA0E0
:1002A0007CA0ED85FE8580809180A280B380F801DE
:1002B000C190D190E190F1908F01A5019401C50109
:1002C000B4010E941D0C6B837C838D839E83A501EA
:1002D0009401C501B4010E941D0C4B015C01A701F2
:1002E0009601C701B6010E941D0C9B01AC01C5011E
:1002F000B4010E94820A9F770E94900CED85FE85D2
:100300006193719381939193FE87ED87E615F705CD
:1003100041F6D2C129853A853E872D87F901808033
:100320009180A280B3802B853C85241535050CF087
:10033000CDC109851A850C5F1F4F8B859C853C01BB
:100340009C838B8316C0F801C190D190E190F1900D
:100350008F01A7019601682D792D8A2D9B2D0E9472
:10036000EF0A882334F48C2C9D2CAE2CBF2C6B8090
:100370007C802B813C812F5F3F4F3C832B83241556
:1003800035050CF32CEA35EC47E257E3682D792D5F
:100390008A2D9B2D0E94EF0A18160CF0CFC18B8579
:1003A0009C856816790609F44EC0E98DFA8D718234
:1003B00060822B8D3C8D1216130634F5EF8DF8A15B
:1003C0008D8D9E8DE80FF91FD301AA0FBB1FAA0FB9
:1003D000BB1F2F8D38A1A20FB31F408151816281B5
:1003E00073810D911D912D913C9113970083118381
:1003F000228333834D935D936D937C93139738964B
:100400001896E215F30549F7ED85FE858081918107
:10041000A281B381F301EE0FFF1FEE0FFF1F09A1B1
:100420001AA10E0F1F1FF801408151816281738153
:10043000ED85FE854083518362837383F801808359
:100440009183A283B3832B8D3C8D8B859C858217F2
:10045000930734F5E981FA8180E090E0A0E0B0E014
:100460006C017D01FC83EB83EB81FC8180809180BA
:10047000A280B380E894B7F8A7019601C501B40142
:100480000E94180C181614F4750164012B813C812C
:10049000285F3F4F3C832B832215330529F724C166
:1004A000EF89F88D10821182128213822D893E8984
:1004B0003C872B87241535050CF4B0CE3FC1A7012E
:1004C0009601EB81FC8160817181828193810E9420
:1004D000F40AEB81FC816083718382839383389675
:1004E000FC83EB83E215F30551F7A7019601ED8537
:1004F000FE8560817181828193810E94F40A4B01A3
:100500005C01ED85FE8560837183828393832981FD
:100510003A813C832B8320E030E040E050E0E981E9
:10052000FA8160817181828193810E94EF0A882320
:1005300054F4B7FAB094B7F8B094ED85FE85808294
:100540009182A282B382ED85FE8520813181428134
:100550005381EB81FC8160817181828193810E9452
:10056000830AEB81FC8160837183828393832F896B
:10057000388D3C832B83ED85FE852081318142813E
:1005800053810E941D0C9B01AC0160E070E080E88B
:100590009FE30E94F40AEF89F88D60837183828360
:1005A0009383A7019601ED85FE856081718182812B
:1005B00093810E941D0CED85FE856083718382838B
:1005C00093836D887E88641475040CF09EC0C98086
:1005D000DA80F4E0CF0ED11C50C0EB85FC85208181
:1005E000318142815381F8016081718182819381DF
:1005F0000E941D0C9B01AC016A2D7B2D8E2D9F2D21
:100600000E94830AA62EB72EE82EF92E085F1F4FF0
:100610002B853C85285F3F4F3C872B8702151305B0
:10062000E1F679C0F8012081318142815381C50111
:10063000B4010E941D0C9B01AC01EB85FC8560811F
:100640007181828193810E94820AEB85FC8560839F
:100650007183828393833896FC87EB87085F1F4FF3
:10066000EE15FF05F9F6FFEF6F1A7F0A24E0C20EC0
:10067000D11C4614570409F4D1CDDC86CB86098100
:100680001A81AF84B888E988FA88A7CF1C861B86B0
:1006900055C089859A859E878D872CEA35EC47E27F
:1006A00057E3FC0160817181828193810E94EF0A8E
:1006B00018160CF4C8CE42C029853A853E872D878E
:1006C000F90180809180A280B38033CE2CEA35EC92
:1006D00047E257E3682D792D8A2D9B2D0E94EF0A62
:1006E00018160CF4B0CE2AC02CEA35EC47E257E3DA
:1006F000C701B6019F770E94EF0A18160CF0D0CE02
:1007000029813A813C832B83DACE8B859C850196A7
:100710009C878B8713C0EB81FC81208131814281D2
:1007200053810E941D0C4B015C01EF80F884EC0C9E
:10073000FD1C09811A81DC86CB8674CF8B859C8554
:10074000A4960FB6F894DEBF0FBECDBFDF91CF9158
:100750001F910F91FF90EF90DF90CF90BF90AF90DF
:100760009F908F907F906F905F904F903F902F90D1
:1007700008952F923F924F925F926F927F928F9245
:100780009F92AF92BF92CF92DF92EF92FF920F9320
:100790001F93CF93DF9300D000D0CDB7DEB72C01ED
:1007A00021E0421A51080AF47EC01A013B019C0163
:1007B000220F331F220F331F420F531F5A834983C7
:1007C0007C01EE0CFF1CE80EF91EEE0CFF1CEE0C7B
:1007D000FF1C5CE0E51AF108E60EF71E9C012250B2
:1007E0003109220F331F8150904C820F931F880FC5
:1007F000991F880F991F0496680E791E89819A8126
:100800009C838B8342012DC009811A81530194E09E
:10081000C91AD108F80152914291329122918F0167
:10082000F50192918291729162915F010E941D0C7B
:100830009B01AC01F60160817181828193810E94EC
:10084000820AF60160837183828393834B815C818A
:1008500004171507F9F65CE0E51AF10888E0681A54
:100860007108EB81FC813497FC83EB836F01F70106
:100870002081318142815381F601608171818281C1
:1008800093810E94F40AF6016083718382839383CB
:10089000F1E08F1A9108C214D30429F0841495044E
:1008A0000CF4B2CFD8CF80E090E00F900F900F9073
:1008B0000F90DF91CF911F910F91FF90EF90DF90FC
:1008C000CF90BF90AF909F908F907F906F905F90F0
:1008D0004F903F902F900895CF92DF92EF92FF922A
:1008E0000F931F93CF93DF93232B31F5181619061F
:1008F0000CF04FC0DA01EB01880F991F480F591F08
:10090000ED91FD91EE0FFF1FEE0FFF1FE60FF71F9A
:100910000081118122813381C880D980EA80FB80E7
:10092000C082D182E282F382099319932993399389
:10093000A417B50729F72DC09C01215031094AF1B0
:10094000EC01CC0FDD1FC40FD51F880F991F880F36
:10095000991FDB01A80FB91FCB01FA91EA91EE0FA5
:10096000FF1FEE0FFF1FE60FF71F0081118122818D
:100970003381FE90EE90DE90CE90C082D182E282F2
:10098000F3820D931D932D933C931397A817B907EA
:1009900021F780E090E0DF91CF911F910F91FF90C0
:1009A000EF90DF90CF9008952F923F924F925F92F9
:1009B0006F927F928F929F92AF92BF92CF92DF926F
:1009C000EF92FF920F931F93CF93DF93CDB7DEB7D4
:1009D00060970FB6F894DEBF0FBECDBF9C838B83AC
:1009E0004F8358873E832D831C870B87DE86CD86F9
:1009F000BA82A9821A141B040CF099C049875A873D
:100A00006D807E802E2C3F2C7C01EE0CFF1CEE0CAA
:100A1000FF1CE60CF71C442E552E812C912C5CC03B
:100A20005301588A4F86C12CD12C00E010E0D5012B
:100A30006D917D918D919D915D01EF85F88920816A
:100A40003181428153810E941D0C9B01AC016C2DB0
:100A50007D2D802F912F0E94830AC62ED72E082F1E
:100A6000192F2F853889285F3F4F388B2F87AE1479
:100A7000BF04E9F685C0D8012D913D914D915C915F
:100A8000C601B5010E941D0C9B01AC01EF85F889E0
:100A900060817181828193810E94820AAF85B889C9
:100AA0006D937D938D939D93B88BAF87085F1F4F98
:100AB000AE15BF0501F7BFEF8B1A9B0AECE04E0E97
:100AC000511CF4E06F0E711C24E0220E311C898150
:100AD0009A818815990539F0AB81BC818A169B06ED
:100AE0000CF49ECFE8CFEB85FC8589819A81880F35
:100AF000991F880F991F8E0F9F1FA985BA85408166
:100B000051816281738170580D911D912D913C919D
:100B1000139701931193219331934D935D936D93AB
:100B20007C9313971C96E817F90749F736C04D8157
:100B30005E816F81788589819A810E94B9033FC067
:100B4000DB01CD90DD90ED90FC9080819181A281C0
:100B5000B3814C015D01B7FAB094B7F8B094DB01F2
:100B60008D929D92AD92BD92BD01C082D182E282F2
:100B7000F3822F5F3F4F3C96241735070CF31FC0BD
:100B8000F10120813181428153810E941D0C5B0162
:100B90006C01788A6F8682016ECF4D815E816F8194
:100BA000788589819A810E94B903EF81F8858B85C8
:100BB0009C8520E030E0BC0149815A81C1CF21E011
:100BC00030E04D855E856D817E8189819A810E94AC
:100BD0006C0480E090E060960FB6F894DEBF0FBE24
:100BE000CDBFDF91CF911F910F91FF90EF90DF90DC
:100BF000CF90BF90AF909F908F907F906F905F90BD
:100C00004F903F902F9008950E94C00885E191E099
:100C10000E94910981E291E00E945C0A2FEF8FEB24
:100C200096E0215080409040E1F700C00000EECFF8
:100C300080E090E00E943C0D823018F480933C02EA
:100C400002C010923C0280913C02089581E090E045
:100C50000E943C0D883018F480933B0202C0109231
:100C60003B0280913B02089585E590E00E943C0D97
:100C7000863018F48093380202C0109238028091B6
:100C800038020895CF92DF92EF92FF920F931F9355
:100C9000CF93DF930CE212E0C6E5D0E00F2EC12C1B
:100CA000D12CF0E8EF2EFFE3FF2EF02DCE010E94B5
:100CB000440DF80160837183828393839B01AC01AF
:100CC0000E94D00C882329F0F801C082D182E282F0
:100CD000F38224960C5F1F4FC236D10539F782E6A6
:100CE00090E00E94440D6B017C019B01AC010E94CD
:100CF000D00C811113C02CEA35EC47E257E3C70151
:100D0000B6010E94EF0A88234CF0C0920901D092EC
:100D10000A01E0920B01F0920C010CC080E090E01F
:100D2000A0E8BFE38093090190930A01A0930B010F
:100D3000B0930C01DF91CF911F910F91FF90EF9035
:100D4000DF90CF90089586E690E00E94440D609376
:100D500005017093060180930701909308019B01A0
:100D6000AC010E94D00C882361F080E090E0AAE7FB
:100D7000B4E48093050190930601A0930701B0931A
:100D800008010E94970808958AE690E00E943C0DB1
:100D9000823018F480932B0202C010922B028BE653
:100DA00090E00E943C0D853618F48093040103C046
:100DB00080E5809304010E9497088CE690E00E94F1
:100DC0003C0D823018F480932A02089510922A0272
:100DD000089583E090E00E943C0D8B3018F48093DE
:100DE0003A0202C010923A0280913A02089584E5D4
:100DF00090E00E943C0D883018F48093390202C0C4
:100E000010923902809139020895CF92DF92EF92C9
:100E1000FF92CF93DF9398E0899FE0011124CE01E8
:100E200004960E94440D6B017C01CE0108960E943D
:100E3000440DC759DD4FC882D982EA82FB826C8398
:100E40007D838E839F83DF91CF91FF90EF90DF9022
:100E5000CF900895CF93DF93EB010E94300981E397
:100E600091E00E943009CE010E94300987E391E0B1
:100E70000E9430098FEF9BE60197F1F700C0000058
:100E800080E0DF91CF9108950F931F93CF93DF936D
:100E9000CDB7DEB760970FB6F894DEBF0FBECDBFFB
:100EA0008C01862F4AE0BE016F5F7F4F90E00E9469
:100EB000120DBE016F5F7F4FC8010E942A07609626
:100EC0000FB6F894DEBF0FBECDBFDF91CF911F915B
:100ED0000F9108951F920F920FB60F9211248F93C6
:100EE0009F93AF93BF938091260290912702A09188
:100EF0002802B09129020196A11DB11D80932602FE
:100F000090932702A0932802B0932902BF91AF913A
:100F10009F918F910F900FBE0F901F9018958FB7D4
:100F200080688FBF089582E084BD15BC16BC9CE626
:100F300097BD80936E000E948F07089585B58560E8
:100F400085BD08954F925F926F927F929F92AF926C
:100F5000BF92CF92DF92EF92FF920F931F93CF93A6
:100F6000DF93CDB7DEB7CC5DD1090FB6F894DEBF05
:100F70000FBECDBF90903A0221E0291508F08AC03B
:100F8000992009F448C08E010F5F1F4F0F2EF9E61C
:100F9000EF2EF2E0FF2EF02D6E0131EAC30ED11CD0
:100FA000AA24AA94A90CB12C8FEFA81AB80AAA0CEB
:100FB000BB1CAA0CBB1CAA0CBB1CA00EB11E0F2E86
:100FC000412C512CF0E86F2EFFE37F2EF02DF8011D
:100FD0004082518262827382F701608171818281D5
:100FE00093810E94680BF8016483758386839783DD
:100FF000F70184819581A681B781F6018193919350
:10100000A193B1936F01085F1F4FF8E0EF0EF11C41
:101010000A151B05E1F69E0127533F4F79018E010A
:101020000F5A1F4F20553109AE014F5F5F4F62E0ED
:1010300070E0892D90E00E945E005C0180913A0290
:10104000670198017801085D1F4F205B3F4FAE019B
:101050004F5F5F4F62E070E090E00E94D404EDE0EB
:10106000F1E0CF55DF4F88819981AA81BB81C15AB8
:10107000D04080839183A283B383CB55DF4F888197
:101080009981AA81BB81C55AD04084839583A68368
:10109000B7830EC0EDE0F1E010821182128213825C
:1010A00080E090E0A0E8BFE384839583A683B783C4
:1010B000C452DF4F0FB6F894DEBF0FBECDBFDF9135
:1010C000CF911F910F91FF90EF90DF90CF90BF9045
:1010D000AF909F907F906F905F904F900895CF93C7
:1010E0000E9418060E94A3060E94C4060E943406AD
:1010F0000E9442060E9426060E94F7060E94E90608
:1011000060913A0283E791E00E94440780913A029D
:10111000882349F0C0E08C2F0E940507CF5F8091A3
:101120003A02C817C0F30E94A207CF9108956091B8
:10113000040170E080E090E00E94680B20910501BE
:101140003091060140910701509108010E941D0C49
:1011500020E030E048EC52E40E94F40A6093000181
:1011600070930101809302019093030108951092FE
:10117000400210923F021092C6021092C5020895DA
:101180000E94EA080E943F090E944C090E940A0A34
:101190000E94170A80E00E9453000E946F080E947C
:1011A000B70881E090912B02911180E00E947E0AA5
:1011B0002FEF8FEF9AE1215080409040E1F700C07F
:1011C00000000E9493070E949E078FE192E00E9418
:1011D000910908953C9A0895E0ECF0E0908195FF24
:1011E000FDCF8093C6000895E0ECF0E08081882375
:1011F000ECF78091C60008951F920F920FB60F92E0
:1012000011242F933F934F935F936F937F938F930B
:101210009F93AF93BF93EF93FF930E94F408E091E5
:101220003D02F0E0E953FD4F808380913D0290E064
:10123000019668E170E00E94EA0C80933D02FF9104
:10124000EF91BF91AF919F918F917F916F915F913E
:101250004F913F912F910F900FBE0F901F901895B7
:10126000CF93DF93EC018881882331F021960E948F
:10127000EC0889918111FBCFDF91CF910895539AAA
:10128000E1E8F0E080818860808380E894E09093DA
:10129000890080938800089552985A9AE1E8F0E016
:1012A00080818860808380E894E0909389008093B7
:1012B0008800E8E6F0E0808184608083EDE6F0E07D
:1012C00080818460808378940895E1E8F0E09081E3
:1012D0009E7F9083882311F05B9A01C05B98E1E8C0
:1012E000F0E0808181608083B19BFECFB19AE1E81C
:1012F000F0E080818E7F80830895CF93DF93D82F95
:1013000080E00E946509C8E08D2F81700E94650908
:10131000D695C150C9F781E00E946509DF91CF9150
:1013200008950F931F93CF93FC018081882359F078
:101330008F01C0E00E947D09CF5FF801EC0FF11D25
:1013400080818111F7CFCF911F910F9108951F9246
:101350000F920FB60F9211242F935F936F937F9389
:101360008F939F93AF93BF93EF93FF93EDE6F0E0DE
:1013700080818F7780834F9939C080E492E0909389
:10138000890080938800E1E8F0E0808181608083BB
:10139000B19BFECFE1E8F0E080818E7F8083B19A3F
:1013A00080E894E0909389008093880098E020E0A2
:1013B0002695808181608083B19BFECF80818E7F66
:1013C00080834F992068B19A915091F7E0913E0245
:1013D000F0E0E152FD4F208380913E0290E0409684
:1013E0006FE070E00E94EA0C80933E02EDE6F0E0D0
:1013F000808180688083FF91EF91BF91AF919F9131
:101400008F917F916F915F912F910F900FBE0F90F1
:101410001F901895569AE1E8F0E0808188608083FB
:1014200080E894E09093890080938800089557980D
:101430005F98E1E8F0E080818860808380E894E054
:101440009093890080938800E8E6F0E080818460D2
:101450008083EDE6F0E08081806880837894089551
:10146000E1E8F0E090819E7F9083882311F05E9AFE
:1014700001C05E98E1E8F0E0808181608083B19BEB
:10148000FECFB19AE1E8F0E080818E7F80830895FD
:10149000CF93DF93D82F80E00E94300AC8E08D2FD1
:1014A00081700E94300AD695C150C9F781E00E9430
:1014B000300ADF91CF9108950F931F93CF93FC01D2
:1014C0008081882359F08F01C0E00E94480ACF5FD5
:1014D000F801EC0FF11D80818111F7CFCF911F91A1
:1014E0000F910895289A089528980895882319F04F
:1014F0000E94720A08950E94740A0895209A0E9418
:10150000760A08955058BB27AA270E949A0A0C947D
:10151000DE0B0E94D00B38F00E94D70B20F039F47C
:101520009F3F19F426F40C94CD0B0EF4E095E7FBE5
:101530000C94C70BE92F0E94EF0B58F3BA17620700
:1015400073078407950720F079F4A6F50C94110C25
:101550000EF4E0950B2EBA2FA02D0B01B9019001CE
:101560000C01CA01A0011124FF27591B99F0593F12
:1015700050F4503E68F11A16F040A22F232F342F5A
:101580004427585FF3CF469537952795A795F040A8
:101590005395C9F77EF41F16BA0B620B730B840BBD
:1015A000BAF09150A1F0FF0FBB1F661F771F881F75
:1015B000C2F70EC0BA0F621F731F841F48F48795CD
:1015C00077956795B795F7959E3F08F0B0CF9395BF
:1015D000880F08F09927EE0F9795879508950E9438
:1015E000A30B08F481E008950E94080B0C94DE0B15
:1015F0000E94D70B58F00E94D00B40F029F45F3FB7
:1016000029F00C94C70B51110C94120C0C94CD0BB7
:101610000E94EF0B68F39923B1F3552391F3951BC7
:10162000550BBB27AA2762177307840738F09F5F03
:101630005F4F220F331F441FAA1FA9F335D00E2E70
:101640003AF0E0E832D091505040E695001CCAF7DD
:101650002BD0FE2F29D0660F771F881FBB1F2617A0
:1016600037074807AB07B0E809F0BB0B802DBF0177
:10167000FF2793585F4F3AF09E3F510578F00C9446
:10168000C70B0C94120C5F3FE4F3983ED4F386959D
:1016900077956795B795F7959F5FC9F7880F911D67
:1016A0009695879597F90895E1E0660F771F881F53
:1016B000BB1F621773078407BA0720F0621B730B06
:1016C000840BBA0BEE1F88F7E0950895E89409C0E3
:1016D00097FB3EF490958095709561957F4F8F4F65
:1016E0009F4F9923A9F0F92F96E9BB279395F6957B
:1016F000879577956795B795F111F8CFFAF4BB0FF9
:1017000011F460FF1BC06F5F7F4F8F4F9F4F16C05C
:10171000882311F096E911C0772321F09EE8872FE6
:10172000762F05C0662371F096E8862F70E060E0A2
:101730002AF09A95660F771F881FDAF7880F96951B
:10174000879597F90895990F0008550FAA0BE0E8BF
:10175000FEEF16161706E807F907C0F01216130673
:10176000E407F50798F0621B730B840B950B39F4B3
:101770000A2661F0232B242B252B21F408950A2619
:1017800009F4A140A6958FEF811D811D089597F959
:101790009F6780E870E060E008959FEF80EC089517
:1017A00000240A9416161706180609060895002440
:1017B0000A9412161306140605060895092E0394BA
:1017C000000C11F4882352F0BB0F40F4BF2B11F42E
:1017D00060FF04C06F5F7F4F8F4F9F4F089557FD8D
:1017E0009058440F551F59F05F3F71F04795880F8F
:1017F00097FB991F61F09F3F79F087950895121626
:1018000013061406551FF2CF4695F1DF08C01616D1
:1018100017061806991FF1CF869571056105089482
:101820000895E894BB2766277727CB0197F9089599
:101830000E94A30B08F48FEF08950E94300C0C94C3
:10184000DE0B0E94D00B38F00E94D70B20F09523BE
:1018500011F00C94C70B0C94CD0B11240C94120CAA
:101860000E94EF0B70F3959FC1F3950F50E0551F49
:10187000629FF001729FBB27F00DB11D639FAA27E5
:10188000F00DB11DAA1F649F6627B00DA11D661F34
:10189000829F2227B00DA11D621F739FB00DA11D55
:1018A000621F839FA00D611D221F749F3327A00D0F
:1018B000611D231F849F600D211D822F762F6A2FAB
:1018C00011249F5750409AF0F1F088234AF0EE0F10
:1018D000FF1FBB1F661F771F881F91505040A9F73D
:1018E0009E3F510580F00C94C70B0C94120C5F3F87
:1018F000E4F3983ED4F3869577956795B795F79579
:10190000E7959F5FC1F7FE2B880F911D96958795F0
:1019100097F9089519F416F40C94CD0B0C94D50C8A
:101920000E94F70BB8F39923C9F3B6F39F57550BF1
:1019300087FF0E94E30C0024A0E640EA9001805853
:101940005695979528F4805C660F771F881F20F0C6
:1019500026173707480730F4621B730B840B2029C6
:1019600031294A2BA69517940794202531254A271B
:1019700058F7660F771F881F20F02617370748078C
:1019800030F4620B730B840B200D311D411DA095AB
:1019900081F7B901842F9158880F969587950895FE
:1019A0000E94A30B880B990B08959F3F31F0915033
:1019B00020F4879577956795B795880F911D969533
:1019C000879597F9089591505040660F771F881FAB
:1019D000D2F7089597FB072E16F4009407D077FDF1
:1019E00009D00E94FE0C07FC05D03EF4909581952D
:1019F0009F4F0895709561957F4F0895AA1BBB1B5B
:101A000051E107C0AA1FBB1FA617B70710F0A61BFE
:101A1000B70B881F991F5A95A9F780959095BC011F
:101A2000CD010895BB27FB015527AA27880F991FD1
:101A3000AA1FA41710F0A41B83955051B9F7A05DFD
:101A4000AA3308F0A95DA193009779F7B111B1937A
:101A50001192CB010C942C0DDC01FC01672F7191CC
:101A60007723E1F7329704C07C916D937083629184
:101A7000AE17BF07C8F30895F999FECF92BD81BD97
:101A8000F89A992780B50895A6E1B0E044E050E0C7
:101A90000C944C0DDC01CB01FC01F999FECF06C082
:101AA000F2BDE1BDF89A319600B40D92415050401C
:081AB000B8F70895F894FFCF88
:101AB80000007A445000007A440000803F00000093
:101AC800000000803F546573746520554152540AE4
:101AD80000546573746520424C4520554152540AA0
:101AE800002E76616C3D00FFFFFF006F6B00476FB3
:101AF80020746F20706167653A200073616D706CA7
:101B080065310073616D706C65320073616D706C66
:101B18006533006E657763616C006361706163694A
:101B280074790063616C6962726174696F6E2E7496
:101B38006F74616C5F706F696E747300544F4747C0
:101B48004C45204C4F434B0A002D2D002B2B004FAA
:101B5800766572666C6F772050726F74656374690E
:101B68006F6E204D6F64653A20004F766572666C23
:101B78006F772050726F74656374696F6E20546854
:101B8800726573686F6C643A2000250A0053656DAE
:101B98002063616C69627261E7E36F00506F6E7475
:101BA8006F2000206465200043616C20556E6974C5
:101BB8003A200053657420506167653A2000436FEE
:101BC8006D6D616E64204275666665723A0A0072D0
:061BD800656164790A005A
:00000001FF
