:100000000C9434000C9451000C9451000C94510049
:100010000C9451000C94F4000C9451000C94510079
:100020000C9451000C9451000C9451000C9451000C
:100030000C9451000C9451000C9451000C945100FC
:100040000C9451000C9451000C9451000C945100EC
:100050000C9451000C9451000C9451000C945100DC
:100060000C9451000C94510011241FBECFEFD8E026
:10007000DEBFCDBF11E0A0E0B1E0ECEEF3E002C0E6
:1000800005900D92AC31B107D9F721E0ACE1B1E0B8
:1000900001C01D92AE33B207E1F70E945E000C94DE
:1000A000F4010C94000097B1976097B93B9898B110
:1000B0009A6098B942988111409A08950E94570118
:1000C0000E9464010E947D0180E00E9453000E9412
:1000D0007D000E94970080E091E00E94DE008CE0AD
:1000E00091E00E94B6012FEF8FEB96E02150804007
:1000F0009040E1F700C00000EECF539AE1E8F0E055
:1001000080818860808380E894E090938900809368
:100110008800089580E090E0FC01E25EFE4F1082CE
:10012000019680319105C1F710921C0108950E943B
:100130008A0052985A9AE1E8F0E0808188608083D2
:1001400080E894E09093890080938800E8E6F0E0EE
:10015000808184608083EDE6F0E08081846080832C
:1001600078940895E1E8F0E090819E7F9083882361
:1001700011F05B9A01C05B98E1E8F0E0808181605A
:100180008083B19BFECFB19AE1E8F0E080818E7F61
:1001900080830895CF93DF93D82F80E00E94B20030
:1001A000C8E08D2F81700E94B200D695C150C9F76A
:1001B00081E00E94B200DF91CF9108950F931F93C9
:1001C000CF93FC018081882359F08F01C0E00E9409
:1001D000CA00CF5FF801EC0FF11D80818111F7CFCC
:1001E000CF911F910F9108951F920F920FB60F920A
:1001F00011242F935F936F937F938F939F93AF936C
:10020000BF93EF93FF93EDE6F0E080818F778083DB
:100210004F9939C080E492E09093890080938800E0
:10022000E1E8F0E0808181608083B19BFECFE1E86E
:10023000F0E080818E7F8083B19A80E894E0909393
:1002400089008093880098E020E026958081816075
:100250008083B19BFECF80818E7F80834F99206801
:10026000B19A915091F7E0911D01F0E0E25DFE4FEF
:10027000208380911D0190E040966FE070E00E9425
:10028000CC0180931D01EDE6F0E0808180688083E1
:10029000FF91EF91BF91AF919F918F917F916F915E
:1002A0005F912F910F900FBE0F901F901895569A47
:1002B000E1E8F0E080818860808380E894E09093BA
:1002C000890080938800089557985F98E1E8F0E0EE
:1002D00080818860808380E894E090938900809397
:1002E0008800E8E6F0E0808184608083EDE6F0E05D
:1002F0008081806880837894089580E090E0FC019C
:10030000E25DFE4F1082019680319105C1F7109297
:100310001D010895E1E8F0E090819E7F908388239D
:1003200011F05E9A01C05E98E1E8F0E080818160A2
:100330008083B19BFECFB19AE1E8F0E080818E7FAF
:1003400080830895CF93DF93D82F80E00E948A01A5
:10035000C8E08D2F81700E948A01D695C150C9F7DF
:1003600081E00E948A01DF91CF9108950F931F933E
:10037000CF93FC018081882359F08F01C0E00E9457
:10038000A201CF5FF801EC0FF11D80818111F7CF41
:10039000CF911F910F91089597FB072E16F40094AB
:1003A00007D077FD09D00E94E00107FC05D03EF49C
:1003B000909581959F4F0895709561957F4F089511
:1003C000AA1BBB1B51E107C0AA1FBB1FA617B7077B
:1003D00010F0A61BB70B881F991F5A95A9F7809597
:0C03E0009095BC01CD010895F894FFCF6A
:1003EC00546573746520554152540A0054657374F6
:0C03FC006520424C4520554152540A0037
:00000001FF
