:100000000C942E010C944B010C944B010C944B015D
:100010000C944B010C944B010C944B010C944B0130
:100020000C944B010C944B010C944B010C944B0120
:100030000C944B010C944B010C947D0B0C944B01D4
:100040000C944B010C944B010C94571A0C944B01DB
:100050000C944B010C944B010C944B010C944B01F0
:100060000C944B010C944B01036EDB363D9A99992D
:10007000993DABAAAA2A3E000000803F072C7AA532
:10008000BA6CC590DA3B9365FC8BBC53F810FD3C11
:100090005692834DBD879D3AB63DCBC9BF5BBE73BB
:1000A000DA0FC93F07634236B79BD8A71A3968569B
:1000B00018AEBAAB558C1D3CB7CC5763BD6DEDFD8A
:1000C000753EF6177231BF000000803F0800000047
:1000D000BE922449123EABAAAA2ABECDCCCC4C3E3D
:1000E00000000080BEABAAAAAA3E00000000BF002C
:1000F0000000803F0000000000084178D3BB438728
:10010000D1133D190E3CC3BD4282AD2B3E68EC823B
:1001100076BED98FE1A93E4C80EFFFBE01C4FF7FC0
:100120003F00000000004E414E494E495459494E8F
:1001300046CDCCCC3D0AD7233C17B7D13877CC2B52
:10014000329595E6241FB14F0A000020410000C8F7
:100150004200401C4620BCBE4CCA1B0E5AAEC59D78
:100160007400407A10F35A00A0724E18090010A5CE
:10017000D4E80000E87648170000E40B54020000C1
:10018000CA9A3B000000E1F5050000809698000047
:100190000040420F000000A0860100000010270070
:1001A000000000E803000000006400000000000AF6
:1001B00000000000000100000000002C76D888DC60
:1001C000674F0823DFC1DFAE59E1B1B796E5E3E43D
:1001D00053C63AE651997696E8E6C28426EB898CB6
:1001E0009B62ED407C6FFCEFBC9C9F40F2BAA56F18
:1001F000A5F490055A2AF75C936B6CF9676DC11BE7
:10020000FCE0E40D47FEF520E6B500D0ED902E03AE
:1002100000943577050080841E080000204E0A00F7
:100220000000C80C333333330F986E12831141EF43
:100230008D2114893BE65516CFFEE6DB18D1844BA1
:10024000381BF77C1D901DA4BBE424203284725E11
:10025000228100C9F124ECA1E53D270011241FBE35
:10026000CFEFD8E0DEBFCDBF14E0A0E0B1E0E8E121
:10027000FCE402C005900D92A834B107D9F725E03F
:10028000A8E4B4E001C01D92A930B207E1F70E94D2
:1002900099070C940A260C94000097B1976097B9BF
:1002A0003B9898B19A6098B942988111409A089504
:1002B00078E160E050E040E030E03399FECF272F56
:1002C000862F952FA42FB32F429AE5E2EA95F1F7F6
:1002D0004298880F991FAA1FBB1F33998160E5E2DE
:1002E000EA95F1F7215081F7429A25E22A95F1F734
:1002F0004298E5E2EA95F1F7A7FDBF6F8F3F2FEF38
:100300009207A207B207C9F2BC01CD0108952F924E
:100310003F924F925F926F927F928F929F92AF9295
:10032000BF92CF92DF92EF92FF920F931F93CF93E2
:10033000DF93CDB7DEB7A8970FB6F894DEBF0FBE38
:10034000CDBF161617060CF01DC3AF2DF12EE02FF2
:100350003EA32DA35A8B498B7E836D8398A38F8FE9
:100360003E872D870D8F1E8FEBA2ACA3588B4F8736
:10037000880F991F880F991F880F991F9AA389A327
:100380008A018E2C9A2E6E2E7F2CCDA0DEA0E12C21
:10039000F12C512C412C1301340146015C01640104
:1003A000D4011D921D921D921C921397EF8DF8A1FE
:1003B0001E161F062CF559824A82E981FA81E00F48
:1003C000F11F60817181828193819B01AC010E9448
:1003D0003E1E9B01AC01D6016D917D918D919C914A
:1003E0000E94F81BF60160837183828393832981C5
:1003F0003A81285F3F4F3A8329832A153B05E9F666
:10040000D6016D917D918D919C910E94011FF60105
:100410006083718382839383F4E08F0E911CD101FA
:100420001D921D921D921D921D01F301E192F19208
:100430003F01FFEFEF1AFF0A0C5F1F4F2D813E8136
:10044000E216F30609F0ABCFCF8CD8A0212C312CCB
:1004500081E090E09C8F8B8F1A8E198E1B861C86F4
:100460001B8A1C8A1D8A1E8A210116012BC0A98D98
:10047000BA8D1196BA8FA98FEB8DFC8D3196FC8FBA
:10048000EB8F2D8D3E8D2C5F3F4F3E8F2D8F34E0B7
:10049000430E511C8D859E8504969E878D87ABA14A
:1004A000BCA11296BCA3ABA3EF85F8893C96F88B50
:1004B000EF8729A13AA1285031093AA329A331E0B5
:1004C000231A3108898D9A8D98878F8318161906FB
:1004D0000CF05FC0AD81BE818A179B070CF055C23E
:1004E000EF84F888B8E0EB1AF1086D807E80681A16
:1004F000790A0D851E85C12CD12CD88ECF8A3A86DB
:10050000298613013701F80180809180A280B38091
:10051000D301CD90DD90ED90FD903D01A5019401BA
:10052000C501B4010E943E1E69837A838B839C833C
:10053000A5019401C501B4010E943E1E4B015C015E
:10054000A7019601C701B6010E943E1E9B01AC01A6
:10055000C501B4010E94F71B9F770E94011FF8019B
:1005600061937193819391938F012F89388D2F5FC0
:100570003F4F388F2F8B2215330529F629843A8473
:10058000ED85FE85FA87E987D080C180E280F3801F
:1005900016C08D859E859A878987DC01DC9011962F
:1005A000CC9011971296EC9012971396FC90ED81D7
:1005B000FE812F8138852E173F070CF0FAC10D857B
:1005C0001E850C5F1F4FAF80B8843501BA82A982A7
:1005D00016C0D8018D909D90AD90BD908D01A50164
:1005E00094016D2D7C2D8E2D9F2D0E947F1C8823C4
:1005F00034F4D82CC92CEA2CFB2C69807A80E98150
:10060000FA813196FA83E9832D813E81E217F3075F
:1006100004F32CEA35EC47E257E36D2D7C2D8E2D4B
:100620009F2D0E947F1C18160CF004C28F819885A4
:100630006816790609F452C0ABA1BCA16D927C92F8
:10064000EF8DF8A11E161F065CF509891A89040DA5
:10065000151DF301EE0FFF1FEE0FFF1F29893A89C9
:10066000E20FF31F80E090E02F8D38A1D8014D916B
:100670005D916D917C911397C080D180E280F38071
:10068000CD92DD92ED92FC92139740835183628369
:1006900073830196085F1F4F38968217930731F7CF
:1006A000E985FA8580819181A281B381660C771CEE
:1006B000660C771C2DA13EA1620E731EF3014081D2
:1006C000518162817381E985FA8540835183628318
:1006D0007383F30180839183A283B3832F8D38A129
:1006E0008F81988582179307ACF5A12CB12CC12C72
:1006F000D12CE12CF12C0F851889C982DA82EB828A
:10070000FC82B88EAF8AEF84F88869A07AA0C02EE8
:10071000D12EEF89F88DEE0DFF1D80809180A28093
:10072000B380E894B7F829813A814B815C81C50197
:10073000B4010E94391E181624F489829A82AB8271
:10074000BC82AF89B88D1896B88FAF8BA615B70548
:10075000F1F63DC1ED8DFE8D108211821282138261
:100760002B8D3C8D38872F838D819E8128173907EB
:100770000CF47DCE5FC1A7019601D5016D917D91ED
:100780008D919C910E94841CF5016083718382830A
:1007900093830F5F1F4FF8E0AF0EB11C02151305D6
:1007A00051F7A7019601A985BA856D917D918D912B
:1007B0009C910E94841C4B015C01E985FA85608351
:1007C00071838283938320E030E040E050E0D301E6
:1007D0006D917D918D919C910E947F1C882354F492
:1007E000B7FAB094B7F8B094E985FA85808291821F
:1007F000A282B382A985BA852D913D914D915C91DC
:10080000F30160817181828193810E94F81BD30181
:100810006D937D938D939C931397ED8DFE8DF88F43
:10082000EF8BA985BA852D913D914D915C910E94E8
:100830003E1E9B01AC0160E070E080E89FE30E94F7
:10084000841CED8DFE8D6083718382839383A70169
:100850009601A985BA856D917D918D919C910E949B
:100860003E1EE985FA8560837183828393838B8C36
:100870009C8C2D813E81821693060CF0D5C00F2EE4
:10088000FCEFAF2EBB24BA94F02DA418B50872016A
:1008900034E0E30EF11CC201880F991F9A87898703
:1008A0009F859983A889AF833701750164015FC073
:1008B000EFA1F8A5E419F509E60DF71D20813181B6
:1008C00042815381EFA1F8A560817181828193817A
:1008D0000E943E1E9B01AC01682D792D8A2D9B2D17
:1008E0000E94F81B862E972EA82EB92E0F5F1F4F41
:1008F0002FA138A5285F3F4F38A72FA30215130556
:10090000B9F67BC0EFA1F8A5EE0DFF1DE40DF51DB6
:100910002081318142815381C501B4010E943E1E74
:100920009B01AC01AFA1B8A56D917D918D919C917A
:100930000E94F71BEFA1F8A56083718382839383E4
:100940000F5F1F4F3896F8A7EFA302151305D1F6D6
:10095000FFEFCF1ADF0A24E0E21AF10834E0630E59
:10096000711C8D819E81C816D90609F480CD9981AC
:100970009FA3AF81A8A70B851C858B889C88AD8819
:10098000BE8896CF18861F8255C02D853E853A8732
:1009900029872CEA35EC47E257E3AD85BE856D919A
:1009A0007D918D919C910E947F1C18160CF496CE1F
:1009B00041C02CEA35EC47E257E36D2D7C2D8E2D9E
:1009C0009F2D0E947F1C18160CF488CE33C0360170
:1009D000C980DA80EB80FC802CEA35EC47E257E3F3
:1009E000C701B6019F770E947F1C18160CF0B2CE8B
:1009F000AF84B88800E010E0BECEAF89B88D2D91ED
:100A00003D914D915C910E943E1E4B015C012985F8
:100A10003A85260D371DE989FA89E20FF31F0B8508
:100A20001C85F8A7EFA36ECF2F8138852F5F3F4F2E
:100A300038872F838F819885A8960FB6F894DEBFEC
:100A40000FBECDBFDF91CF911F910F91FF90EF901F
:100A5000DF90CF90BF90AF909F908F907F906F90DE
:100A60005F904F903F902F9008952F923F924F921A
:100A70005F926F927F928F929F92AF92BF92CF922E
:100A8000DF92EF92FF920F931F93CF93DF93CDB737
:100A9000DEB728970FB6F894DEBF0FBECDBF9C011E
:100AA000215031093A83298333230CF483C02C016C
:100AB000440C551C480E591E440C551C440C551C26
:100AC0003CE0431A5108460E571E9C012250310942
:100AD0001901220C331C280E391E220C331C220C47
:100AE000331C260E371E220F331F220F331F3A01ED
:100AF000620E731E285F3F4F09811A818D839E838A
:100B0000CA01820F931F9C838B832EC0F5015291E3
:100B10004291329122915F01F601929182917291FC
:100B200062916F010E943E1E9B01AC01F701608142
:100B30007181828193810E94F71BF7016083718329
:100B4000828393832F8138852150310938872F8301
:100B500028153905D9F63CE0431A510888E0281ACF
:100B6000310894E0691A71087301F2012081318122
:100B700042815381F30164817581868197810E944E
:100B8000841CF30164837583868397830150110964
:100B900088F029813A8102171307ECF648013FEFEC
:100BA000831A930A8D818F839E819887AB80BC8046
:100BB0006101ACCF80E090E028960FB6F894DEBFDC
:100BC0000FBECDBFDF91CF911F910F91FF90EF909E
:100BD000DF90CF90BF90AF909F908F907F906F905D
:100BE0005F904F903F902F900895CF92DF92EF92B9
:100BF000FF920F931F93CF93DF93232B41F518168A
:100C000019060CF051C0DA01EB01880F991F880F0B
:100C1000991F860F971FED91FD91EE0FFF1FEE0FAD
:100C2000FF1FE60FF71F0081118122813381C880E9
:100C3000D980EA80FB80C082D182E282F38209936C
:100C4000199329933993C817D90729F72DC09C0107
:100C5000215031094AF1EC01CC0FDD1FC40FD51F23
:100C6000880F991F880F991FDB01A80FB91FCB01AF
:100C7000FA91EA91EE0FFF1FEE0FFF1FE60FF71F2D
:100C80000081118122813381FE90EE90DE90CE9022
:100C9000C082D182E282F3820D931D932D933C9307
:100CA0001397A817B90721F780E090E0DF91CF9163
:100CB0001F910F91FF90EF90DF90CF9008952F92AA
:100CC0003F924F925F926F927F928F929F92AF92DC
:100CD000BF92CF92DF92EF92FF920F931F93CF9329
:100CE000DF93CDB7DEB762970FB6F894DEBF0FBEC5
:100CF000CDBF98878F835A8749873C872B870D877D
:100D00001E87DA8AC98ABE82AD821A141B040CF0CF
:100D1000A3C0588B4F873C832B832E2C3F2C7C0108
:100D2000EE0CFF1CEE0CFF1CE20EF31E5A834983EF
:100D3000412C512C5DC00B811C81A980BA80612C93
:100D4000712CC12CD12CC50158018C01D5016D919C
:100D50007D918D919D915D01F801208131814281CC
:100D600053810E943E1E9B01AC01662D772D8C2D78
:100D70009D2D0E94F81B662E772EC82ED92E085F57
:100D80001F4FAE14BF0411F790C0D8012D913D91B3
:100D90004D915C91C501B4010E943E1E9B01AC01C6
:100DA000F60160817181828193810E94F71BD601D7
:100DB0006D937D938D939D936D01085F1F4FAE15CD
:100DC000BF0519F7BFEF4B1A5B0AE981FA813C9620
:100DD000FA83E9832B813C812C5F3F4F3C832B833B
:100DE00034E0230E311C8D819E814816590639F05E
:100DF000AF81B8854A165B060CF49DCFE3CF4D85D5
:100E00005E858D819E81880F991FED81FE818E0FF9
:100E10009F1F880F991F880F991F29853A85820F78
:100E2000931FAF85B889FA01408151816281738136
:100E300070580D911D912D913C9113970193119331
:100E4000219331934D935D936D937C9313971C96EF
:100E5000A817B90749F737C04B855C8569857A853E
:100E60008D819E810E9435053FC0DB01CD90DD90D4
:100E7000ED90FC9080819181A281B3814C015D0154
:100E8000B7FAB094B7F8B094DB018D929D92AD9211
:100E9000BD92BD01C082D182E282F3822F5F3F4FBB
:100EA0003C96241735070CF31FC0F10120813181D6
:100EB000428153810E943E1E4B015C01CB80DC804D
:100EC00009811A8162CF4B855C8569857A858D8120
:100ED0009E810E943505E985FA856D857E8520E035
:100EE00030E04D815E81C1CF21E030E049895A89EF
:100EF0006B857C858D819E810E94F50580E090E068
:100F000062960FB6F894DEBF0FBECDBFDF91CF91D2
:100F10001F910F91FF90EF90DF90CF90BF90AF9017
:100F20009F908F907F906F905F904F903F902F9009
:100F300008950E943F180E94941880917004813097
:100F400081F40E9413128091510481110E940E11AC
:100F50002FEF8FEA91E0215080409040E1F700C0F0
:100F6000000080917004843031F70E94A90E2FEFA9
:100F70008FEA91E0215080409040E1F700C00000EE
:100F8000DACFEF92FF920F931F93CF93DF93082F47
:100F9000192FE62E83E090E00E94A825EE20D1F0E4
:100FA000C02FD12F04E010E0F12C488159816A81D3
:100FB0007B81C8010E94B6254C815D816E817F8155
:100FC000C80104960E94B625F3942896085F1F4F27
:100FD000FE10EBCFDF91CF911F910F91FF90EF901B
:100FE0000895682F84E590E00E94A8250895682F51
:100FF00081E090E00E94A8250895682F80E090E0AD
:101000000E94A8250895682F82E090E00E94A825FC
:101010000895682F85E590E00E94A8250895CF9354
:10102000DF93C4E5D4E0488159816A817B8186E5FC
:1010300090E00E94B6254C815D816E817F818AE5BA
:1010400090E00E94B625488559856A857B858EE5A6
:1010500090E00E94B6254091090150910A016091EB
:101060000B0170910C0182E690E00E94B625DF91A1
:10107000CF910895409105015091060160910701BB
:101080007091080186E690E00E94B625089560916F
:1010900053048AE690E00E94A825609104018BE643
:1010A00090E00E94A825609151048CE690E00E9497
:1010B000A825089580E090E00E949A25823018F4D7
:1010C00080936F0402C010926F0480916F040895A2
:1010D00081E090E00E949A25883018F480936E0495
:1010E00002C010926E0480916E04089585E590E030
:1010F0000E949A25863018F48093600402C01092F2
:101100006004809160040895CF92DF92EF92FF9285
:101110000F931F93CF93DF9304E514E0C6E5D0E06F
:101120000F2EC12CD12CF0E8EF2EFFE3FF2EF02D77
:10113000CE010E94A225F80160837183828393838C
:101140009B01AC010E94411F882329F0F801C08255
:10115000D182E282F38224960C5F1F4FC236D10502
:1011600039F782E690E00E94A2256B017C019B0189
:10117000AC010E94411F811113C02CEA35EC47E2FB
:1011800057E3C701B6010E947F1C88234CF0C09230
:101190000901D0920A01E0920B01F0920C010CC0FF
:1011A00080E090E0A0E8BFE38093090190930A01FA
:1011B000A0930B01B0930C01DF91CF911F910F9180
:1011C000FF90EF90DF90CF90089586E690E00E9428
:1011D000A225609305017093060180930701909307
:1011E00008019B01AC010E94411F882361F080E04F
:1011F00090E0AAE7B4E48093050190930601A093E0
:101200000701B09308010E94EE1008958AE690E06D
:101210000E949A25823018F48093530402C01092E1
:1012200053048BE690E00E949A25853618F480934B
:10123000040103C080E5809304010E94EE108CE657
:1012400090E00E949A25823018F48093510408950A
:1012500010925104089583E090E00E949A258B300B
:1012600018F480936B0402C010926B0480916B049D
:10127000089584E590E00E949A25883018F48093C0
:101280006A0402C010926A0480916A040895CF92A1
:10129000DF92EF92FF92CF93DF9398E0899FE00176
:1012A0001124CE0104960E94A2256B017C01CE017F
:1012B00008960E94A225C356DB4FC882D982EA82D3
:1012C000FB826C837D838E839F83DF91CF91FF9020
:1012D000EF90DF90CF9008952F923F924F925F92C0
:1012E0006F927F928F929F92AF92BF92CF92DF9236
:1012F000EF92FF920F931F93CF93DF93CDB7DEB79B
:101300002A970FB6F894DEBF0FBECDBF2B013C016C
:101310005A01190120E030E0A9010E947F1C8823B6
:101320004CF48DE2F501808377FA709477F870942D
:1013300001E001C000E0C301B2010E94F61C6B0194
:101340007C010E942E1D9B01AC01C301B2010E94D1
:10135000F71B2B013C01C114D104E104F104F9F0A5
:1013600010E088248394912C8C0E9D1E810E911C7C
:10137000C701B6012AE030E040E050E00E946F2053
:10138000605DF4016083C22ED32EE42EF52E1F5F24
:10139000C114D104E104F10421F7111140C080E32C
:1013A000898311E03CC0D501AF0DB11D82918C93B2
:1013B000F3948F2D801B8117B0F38CE2F501EF0DB4
:1013C000F11D808311E01F0D2114310481F120E013
:1013D00030E040E251E4C301B2010E943E1E2B0105
:1013E0003C010E94F61CF501E10FF11D20E3260FE0
:1013F0002083072E000C880B990B0E942E1D9B0149
:10140000AC01C301B2010E94F71B2B013C01812FEB
:101410008F1990E01F5F82159305C8F208C0E1E0C4
:10142000F0E0EC0FFD1FE10FF11DF02EBCCFF50138
:10143000E10FF11D1082C5012A960FB6F894DEBFA8
:101440000FBECDBFDF91CF911F910F91FF90EF9015
:10145000DF90CF90BF90AF909F908F907F906F90D4
:101460005F904F903F902F900895DC018C918823DE
:1014700091F0861729F090E007C0861305C001C0DF
:10148000FD01408381E008959F5FFD01E90FF11D9B
:1014900080818111F2CF0895CF93DF93EC010E94F8
:1014A000A60B0E948B1A8CE892E00E94941ACE013F
:1014B0000E94941A83E892E00E94941A0E94A20B60
:1014C0008FEF9BE60197F1F700C0000080E0DF910D
:1014D000CF9108950F931F93CF938C01C62F0E9435
:1014E000A60B0E948B1A87E892E00E94941AC8010A
:1014F0000E94941A85E191E00E94941A8C2F0E9418
:10150000471A83E892E00E94941A0E94A20B8FEF80
:101510009BE60197F1F700C0000080E0CF911F919A
:101520000F91089560E30E946A0A089561E30E94A2
:101530006A0A08950F931F93CF93DF938C01EB01F9
:101540000E94A60B0E948B1AC8010E94941A8DE774
:1015500092E00E94941A82E20E94471ACE010E94F1
:10156000941A82E20E94471A83E892E00E94941A39
:101570000E94A20B8FEF9BE60197F1F700C00000DD
:1015800080E0DF91CF911F910F9108950F931F93EA
:10159000CF93DF938C01EB010E94A60B0E948B1A64
:1015A000C8010E94941A87E792E00E94941ACE0123
:1015B0000E94941A83E892E00E94941A0E94A20B5F
:1015C0008FEF9BE60197F1F700C0000080E0DF910C
:1015D000CF911F910F9108950F931F93CF93DF9396
:1015E000CDB7DEB760970FB6F894DEBF0FBECDBFA4
:1015F0008C01862F4AE0BE016F5F7F4F90E00E9412
:101600008921BE016F5F7F4FC8010E94C60A6096A4
:101610000FB6F894DEBF0FBECDBFDF91CF911F9103
:101620000F9108950F931F93CF93DF93CDB7DEB73C
:1016300060970FB6F894DEBF0FBECDBF8C01CB0113
:10164000BA012AE0AE014F5F5F4F0E945021BE01F8
:101650006F5F7F4FC8010E94C60A60960FB6F8946C
:10166000DEBF0FBECDBFDF91CF911F910F910895C7
:101670000F931F93CF93DF938C01EB010E94A60B76
:101680000E948B1AC8010E94941A81E792E00E947E
:10169000941ACE010E94941A83E892E00E94941A50
:1016A0000E94A20B8FEF9BE60197F1F700C00000AC
:1016B00080E0DF91CF911F910F9108950F931F93B9
:1016C000CF93DF9300D01F92CDB7DEB78C01862F6A
:1016D0004AE0BE016F5F7F4F90E00E948921BE010A
:1016E0006F5F7F4FC8010E94380B0F900F900F90D3
:1016F000DF91CF911F910F9108951F920F920FB616
:101700000F9211248F939F93AF93BF9380914C04BA
:1017100090914D04A0914E04B0914F040196A11DEB
:10172000B11D80934C0490934D04A0934E04B0934C
:101730004F04BF91AF919F918F910F900FBE0F906B
:101740001F9018958FB780688FBF08958FB78F77D8
:101750008FBF089582E084BD15BC16BC9CE697BD82
:1017600080936E000E94A20B089585B5856085BDAB
:1017700008950F931F93CF93DF93EC01259640E0DC
:101780006BE3CE010E94350ACE010E9402218C013A
:1017900080917004801731F08FEF80937004CE0138
:1017A0000E944C0A82E992E00E94B41BC80199276A
:1017B0000E94CA1B8FE293E00E94B41BDF91CF917D
:1017C0001F910F91089510925004EFE7F4E08DE916
:1017D00094E010821182128213821582148236964E
:1017E000E817F907B1F70895CF92DF92EF92FF92D1
:1017F0000F931F93CF93DF930091500410E0C80123
:10180000049665E070E00E945B20EC01FC01EE0FA5
:10181000FF1FE80FF91FEE0FFF1FE158FB4F248158
:1018200035812115310509F43FC0C801059665E0F1
:1018300070E00E945B20FC01EE0FFF1FE80FF91F14
:10184000EE0FFF1FE158FB4F4481558141155105B3
:1018500079F1BE01660F771FC60FD71FCC0FDD1FB2
:10186000C158DB4FFC01EE0FFF1FE80FF91FEE0F11
:10187000FF1FE158FB4F88819981AA81BB81C080FD
:10188000D180E280F380BC01CD016C197D098E0905
:101890009F09241B350B40E050E00E946F20A4E616
:1018A000B0E00E949D2007C060E070E0CB0103C063
:1018B00060E070E0CB01609348047093490480932A
:1018C0004A0490934B04DF91CF911F910F91FF90A9
:1018D000EF90DF90CF900895CF93DF93EC012596A2
:1018E0006FE972E0CE010E942B21892B69F084E51B
:1018F00094E09093EE048093ED048BE098E1909354
:1019000074048093730449C067EA72E0CE010E94B8
:101910002B21892B69F088E594E09093EE04809365
:10192000ED048BE098E1909374048093730435C0C8
:101930006FEA72E0CE010E942B21892B69F08CE5C1
:1019400094E09093EE048093ED048BE098E1909303
:1019500074048093730421C067EB72E0CE010E948F
:101960002B21892B39F081E694E09093EE0480934B
:10197000ED0413C06EEB72E0CE010E942B21892B87
:1019800061F085E091E09093EE048093ED0488E0AF
:1019900094E19093740480937304DF91CF91089540
:1019A0004F925F926F927F92AF92BF92CF92DF92EF
:1019B000EF92FF920F931F93CF93DF93CDB7DEB7D4
:1019C000CC5DD1090FB6F894DEBF0FBECDBFC0907D
:1019D0006B0421E02C1508F077C0CC20B1F1CE01CA
:1019E00001967C010DE914E05E0191EAA90EB11C9B
:1019F000D12C0F2E412C512CF0E86F2EFFE37F2EBF
:101A0000F02DF7014082518262827382F801608179
:101A10007181828193810E942E1DF70164837583F9
:101A200086839783F80184819581A681B781F5012A
:101A300081939193A193B1935F01D394F8E0EF0E5A
:101A4000F11C085F1F4FDC10DCCF9E0127533F4F76
:101A500079018E010F5A1F4F20553109AE014F5F9A
:101A60005F4F62E070E08C2D90E00E9487015C0186
:101A700080916B04670198017801085D1F4F205B1E
:101A80003F4FAE014F5F5F4F62E070E090E00E9419
:101A90005F06EDE0F1E0CF55DF4F88819981AA81A3
:101AA000BB81C15AD04080839183A283B383CB553D
:101AB000DF4F88819981AA81BB81C55AD040848338
:101AC0009583A683B7830EC0EDE0F1E0108211820A
:101AD0001282138280E090E0A0E8BFE384839583C4
:101AE000A683B783C452DF4F0FB6F894DEBF0FBE94
:101AF000CDBFDF91CF911F910F91FF90EF90DF90BD
:101B0000CF90BF90AF907F906F905F904F9008956F
:101B1000A82FB0E080916B04E82FF0E03197AE176A
:101B2000BF07ACF4AA0FBB1FAA0FBB1FAA0FBB1F96
:101B3000A356BB4FEE0FFF1FEE0FFF1FEE0FFF1F51
:101B4000E356FB4F98E001900D929A95E1F7815092
:101B500080936B040895FC0190916B049923A1F08C
:101B60008581891788F40E94880D80916C048150CA
:101B700080936C0460916B048DE994E00E94C1072E
:101B80008BE692E00E944C0A0895CF93DF93CDB785
:101B9000DEB728970FB6F894DEBF0FBECDBF2983FE
:101BA0003A834B835C836D837E838F839887A09178
:101BB0006B0481E08A0F80936B04B0E0AA0FBB1F17
:101BC000AA0FBB1FAA0FBB1FA356BB4F88E0FE0185
:101BD000319601900D928A95E1F728960FB6F89408
:101BE000DEBF0FBECDBFDF91CF910895CF92DF92C0
:101BF000EF92FF920F931F93CF93DF93CDB7DEB792
:101C000028970FB6F894DEBF0FBECDBF20916B04AE
:101C10002A3058F5FC01F480C580D680E7808C011D
:101C2000085F1F4F40E06BE3C8010E94350AC801FE
:101C30000E94FE202F2DE62F462F572F682F792F39
:101C40004D835E836F8378873C2D4D2D5E2D6E2FE7
:101C50007E818F8198850E94C50D0E94D00C609175
:101C60006B048DE994E00E94C1078BE692E00E942C
:101C70004C0A28960FB6F894DEBF0FBECDBFDF9199
:101C8000CF911F910F91FF90EF90DF90CF9008952B
:101C9000FC0185810E94F7070895CF930E945A089E
:101CA0000E94E5080E9406090E9476080E948408A6
:101CB0000E9468080E9439090E942B0960916B04F8
:101CC00087EC92E00E94EC0A80916B04882349F033
:101CD000C0E08C2F0E944709CF5F80916B04C8172A
:101CE000C0F30E94D00CCF9108950F931F930E94D0
:101CF00058018B019C016093660470936704809384
:101D000068049093690440914C0450914D04609193
:101D10004E0470914F048091500490E0FC01EE0F4E
:101D2000FF1FE80FF91FEE0FFF1FE158FB4F008365
:101D300011832283338355834483019665E070E0E9
:101D40000E945B2080935004C901B8011F910F913C
:101D50000895CF93DF93CDB7DEB72A970FB6F894E7
:101D6000DEBF0FBECDBF80916504811123C00E94EC
:101D7000580160936604709367048093680490939D
:101D800069042AE0AE014F5F5F4F0E945021BE01FF
:101D90006F5F7F4F87E592E00E949A0A4091660448
:101DA0005091670460916804709169048FE492E037
:101DB0000E94120B2A960FB6F894DEBF0FBECDBF5D
:101DC000DF91CF9108950F931F93CF93DF93CDB7FA
:101DD000DEB72A970FB6F894DEBF0FBECDBF809155
:101DE0006504811134C00E945801609366047093A9
:101DF000670480936804909369042AE0AE014F5F02
:101E00005F4F0E945021BE016F5F7F4F87E592E0D8
:101E10000E949A0A40916604509167046091680498
:101E2000709169048FE492E00E94120B60E373E00A
:101E300085E492E00E949A0A61E272E087E292E011
:101E40000E94380B87E192E00E94920A1EC06091C6
:101E500061047091620480916304909164048E0126
:101E60000F5F1F4F22E04AE00E94DE20B80185E4A8
:101E700092E00E949A0A64E272E087E292E00E9495
:101E8000380B87E192E00E94960A2A960FB6F894E2
:101E9000DEBF0FBECDBFDF91CF911F910F9108958F
:101EA000CF93DF9300D01F92CDB7DEB7809165044A
:101EB00090E0019681709078992324F401978E6FB9
:101EC0009F6F0196809365044AE0BE016F5F7F4F6C
:101ED00090E00E948921BE016F5F7F4F80E392E016
:101EE0000E94C60A0E94E30E80EE92E00E94B41B9C
:101EF0000F900F900F90DF91CF910895CF93DF93C4
:101F0000CDE0D1E00E942E1D2C813D814E815F816C
:101F10000E943E1E288139814A815B810E94F81B04
:101F2000DF91CF9108958617E9F0633001F16530B4
:101F300019F1643031F1623049F1613061F167309B
:101F400079F1663091F1611135C0682F80E00E940F
:101F5000930F9B01AC0160E070E080E89FE30E947A
:101F6000841C089560E070E080E89FE308956AE0D3
:101F700078EE8CE191E4089562E17CEA80E29CE3F2
:101F800008956DED7CE08BE79FE3089560E070E0DD
:101F90008AE794E4089567E177EB81ED98E308958B
:101FA00060E97BE68FE699E408956EE778E18DE0DD
:101FB00090E4089560E070E080E89FE30895CF9298
:101FC000DF92EF92FF92CF936B017C01C22F22230D
:101FD00011F0411109C06C2F842F0E94930FA701AB
:101FE00096010E943E1E07C020E00E94DF0F2C2FAA
:101FF00040E00E94DF0FCF91FF90EF90DF90CF90F5
:1020000008958617A9F06330C1F06130D9F06230CD
:10201000F1F0611121C0682F80E00E9401109B0146
:10202000AC0160E070E080E89FE30E94841C0895AA
:1020300060E070E080E89FE3089560E070E080E891
:102040009FE3089569EA79E081E193E408956FE7F9
:1020500076ED80ED9DE3089560E070E080E89FE319
:102060000895CF92DF92EF92FF92CF936B017C01A4
:10207000C22F222311F0411109C06C2F842F0E941E
:102080000110A70196010E943E1E07C020E00E9499
:1020900031102C2F40E00E943110CF91FF90EF9033
:1020A000DF90CF900895CF93DF93C42FD22F0E945B
:1020B0007E0F2D2F4C2F0E94DF0FDF91CF910895BF
:1020C0008F929F92AF92BF92EF920F931F93CF93F5
:1020D000C42F480159010E947E0F23E04C2F0E941B
:1020E000DF0FA50194010E94841C2E2D40E00E9468
:1020F0003110CF911F910F91EF90BF90AF909F90B3
:102100008F9008950F931F93CF93DF93CDB7DEB7D2
:102110002E970FB6F894DEBF0FBECDBFFE013196ED
:102120008EE0DF011D928A95E9F780916F0481119D
:102130000DC000916E0410E0C801880F991F880F30
:10214000991F080F191F05561C4F10C080916D0470
:1021500090E08C01000F111F880F991F880F991FA5
:10216000880F991F080F191F0D581C4FB80187E3DE
:1021700092E00E949A0AB8018E010F5F1F4FC801BA
:102180000E942021F80101900020E9F731978FE2A9
:1021900093E7A0E080839183A283B80183E391E079
:1021A0000E949A0A2E960FB6F894DEBF0FBECDBFDE
:1021B000DF91CF911F910F91089560916F0461702D
:1021C000655E85E291E00E945E0B60916F04617034
:1021D000635E87E191E00E945E0B089560910401C7
:1021E00070E080E090E00E942E1D2091050130916A
:1021F000060140910701509108010E943E1E20E017
:1022000030E048EC52E40E94841C6093000170931B
:1022100001018093020190930301089580916B0462
:10222000823008F44DC040916A0460916604709158
:1022300067048091680490916904242F0E945310D0
:102240002091000130910101409102015091030160
:102250000E94391E18163CF5809153040E94EB1B16
:1022600088E491E00E94960A8091520481110CC08A
:102270006DEC7CEC8CEC9DE30E94121A6DEC7CEC16
:102280008CEC9DE30E94F1198091520490E001963C
:1022900087709078992324F40197886F9F6F019637
:1022A00080935204089581E090915304911180E04D
:1022B0000E94EB1B88E491E00E94920A1092520463
:1022C0000895EF920F931F9380916B04823050F129
:1022D00080916F0481110FC0609166047091670452
:1022E000809168049091690420916E0440916A0481
:1022F0000E9453101BC00091090110910A01209106
:102300000B0130910C01609166047091670480911B
:10231000680490916904E0906D0440916A040E9401
:10232000601004C060E070E080EC9FE71F910F91A7
:10233000EF9008958F929F92AF92BF92CF92DF92CB
:10234000EF92FF920F931F9380916B04823008F4F9
:102350005CC080916F04811127C060914804709126
:10236000490480914A0490914B040E942E1D6B01F8
:102370007C01EDE0F1E02481358146815781608167
:102380007181828193810E94841C9B01AC01C701F1
:10239000B6010E94F71B0E94F61C20916E0440912A
:1023A0006A040E94531034C08090090190900A0181
:1023B000A0900B01B0900C01609148047091490409
:1023C00080914A0490914B040E942E1D6B017C0168
:1023D000EDE0F1E024813581468157816081718192
:1023E000828193810E94841C9B01AC01C701B601CC
:1023F0000E94F71B0E94F61CE0906D049501840179
:1024000040916A040E94601003C060E070E0CB015C
:102410001F910F91FF90EF90DF90CF90BF90AF9002
:102420009F908F9008958F929F92AF92BF92CF927C
:10243000DF92EF92FF92CF93DF93CDB7DEB72C9769
:102440000FB6F894DEBF0FBECDBFFE0131968CE013
:10245000DF011D928A95E9F70E94750E0E94F40B28
:102460000E9461116B017C010E949A114B015C0179
:10247000A7019601C701B6010E94411F811111C039
:1024800022E030E0AE014F5F5F4FC701B6010E940E
:102490006C09BE016F5F7F4F81E492E00E949A0A4F
:1024A00006C06DEE72E081E492E00E949A0A21E09B
:1024B00030E0AE014F5F5F4FC501B4010E946C096F
:1024C000BE016F5F7F4F8EE391E00E949A0A2C96C7
:1024D0000FB6F894DEBF0FBECDBFDF91CF91FF9056
:1024E000EF90DF90CF90BF90AF909F908F90089526
:1024F000CF93DF9380916B048230D8F040916A04CF
:1025000060916604709167048091680490916904F9
:10251000242F0E9453109B01AC01CDE0D1E06881D3
:1025200079818A819B810E94F71B688379838A83E2
:102530009B830E941312DF91CF9108950E94DD10BA
:102540000E9482100E941312089560EF72E00E94B0
:102550002B21892B71F080916F0490E0039681709C
:102560009078992324F401978E6F9F6F0196809342
:102570006F0480916F040E94FD070E949E120895CF
:10258000CF93DF93EC0180916F04811130C06DEE29
:1025900072E0CE010E942B21892B79F080916E048C
:1025A00090E0079687709078992324F40197886FBC
:1025B0009F6F019680936E0415C060EF72E0CE01AC
:1025C0000E942B21892B71F080916E0490E0099676
:1025D00087709078992324F40197886F9F6F0196F4
:1025E00080936E0480916E040E94F7072FC06DEEF9
:1025F00072E0CE010E942B21892B79F080916D042D
:1026000090E0039683709078992324F401978C6F5F
:102610009F6F019680936D0415C060EF72E0CE014C
:102620000E942B21892B71F080916D0490E005961A
:1026300083709078992324F401978C6F9F6F019693
:1026400080936D0480916D040E9403080E949E1285
:10265000DF91CF9108950F931F93CF93DF93CDB761
:10266000DEB72A970FB6F894DEBF0FBECDBF8E013E
:102670000F5F1F4F8AE0F80111928A95E9F7609188
:10268000050170910601809107019091080121E0F8
:1026900030E0A8010E946C09B8018DE791E00E942A
:1026A0009A0A60916A0470E0CB01880F991F880F25
:1026B000991F680F791F65567C4F8AEE91E00E9442
:1026C0009A0A6091530470E06F5F7F4F6170707879
:1026D000772334F4615071096E6F7F6F6F5F7F4FA6
:1026E000675F87E791E00E945E0B60915304617021
:1026F000675F82E791E00E945E0B60915104617018
:10270000675E87E591E00E945E0B4091040150E016
:1027100060E070E089E691E00E94120B8091040174
:102720004AE08E010F5F1F4FB80190E00E9489219F
:10273000F80101900020E9F7319785E290E091835C
:102740008083B80181E691E00E949A0A2A960FB62A
:10275000F894DEBF0FBECDBFDF91CF911F910F91D7
:10276000089560EF72E00E942B21892B71F0809117
:10277000510490E0039681709078992324F4019796
:102780008E6F9F6F0196809351040E9447080E94AC
:102790002B130895CF93DF93EC01289640E06BE371
:1027A000CE010E94350ACE010E940221809353047B
:1027B00083EF92E00E94B41B8091530490E00E944A
:1027C000CA1B8FE293E00E94B41B0E9447080E943C
:1027D0002B13DF91CF910895CF93DF93FC01C78135
:1027E000D085C09304018EE093E00E94B41B8C2F2F
:1027F0009D2F0E94CA1B8EE293E00E94B41B0E9490
:1028000047080E94EE100E942B13DF91CF9108958C
:102810000E943A080E94EE100E942B130895EF9236
:10282000FF920F931F93CF93DF93CDB7DEB76897D7
:102830000FB6F894DEBF0FBECDBF80916B0481113F
:1028400007C061E373E08BE092E00E949A0A7DC0CA
:10285000CE0101967C0184E1F70111928A95E9F796
:1028600080916C0490E04AE0BE016B5E7F4F019660
:102870000E948921D7010D900020E9F7119787E088
:10288000E0E4F3E001900D928A95E1F7BE016B5E02
:102890007F4FC7010E942021D7010D900020E9F74A
:1028A000119785E0E7E4F3E001900D928A95E1F756
:1028B00080916B044AE0BE016B5E7F4F90E00E9406
:1028C0008921BE016B5E7F4FC7010E942021C70195
:1028D0000E94B41B8FE293E00E94B41BB7018BE00F
:1028E00092E00E949A0A60916C048CEF91E00E9441
:1028F000EC0AE0916C04F0E0EE0FFF1FEE0FFF1FFB
:10290000EE0FFF1FE356FB4F64817581868197812F
:10291000870122E049E00E94DE20C7010E94B41B2B
:102920008FE293E00E94B41BB70182EF91E00E9416
:102930009A0A88ED91E00E94960A81EE91E00E9449
:10294000960A85EB91E00E94960A60916A0470E015
:10295000CB01880F991F880F991F680F791F655643
:102960007C4F8AEE91E00E949A0A8EEB91E00E94E1
:10297000960A8BEC91E00E94960A68960FB6F8943E
:10298000DEBF0FBECDBFDF91CF911F910F91FF90A2
:10299000EF9008950F931F93CF93DF93D0916C0422
:1029A000C0916B04CC2351F18C016DEE72E00E945A
:1029B0002B21892B61F06C2F70E08D2F90E0019717
:1029C000860F971F0E945B2080936C0412C060EFFB
:1029D00072E0C8010E942B21892B81F06C2F70E0DE
:1029E0008D2F90E00196860F971F0E945B208093A9
:1029F0006C0480916C04D8130E940F14DF91CF9166
:102A00001F910F910895CF93DF93EC016DEE72E06B
:102A10000E942B21892B79F080916A0490E007961F
:102A200087709078992324F40197886F9F6F01969F
:102A300080936A0415C060EF72E0CE010E942B21E2
:102A4000892B71F080916A0490E0099687709078E4
:102A5000992324F40197886F9F6F019680936A04ED
:102A60008CE493E00E94B41B80916A0490E09C0186
:102A7000220F331F220F331F820F931F85569C4F47
:102A80000E94B41B8FE293E00E94B41B80916A0401
:102A90000E94F1070E940F14DF91CF9108954F9289
:102AA0005F926F927F928F929F92AF92BF92CF92DE
:102AB000DF92EF92FF920F931F93CF93DF93CDB7E7
:102AC000DEB764970FB6F894DEBF0FBECDBF4A01E4
:102AD0005B0128013901811107C09A01AB01C501D1
:102AE000B4010E943E1EF5C0813039F4A90198015D
:102AF000C501B4010E943E1EECC0823069F42BED8A
:102B00003FE049E45FE3C501B4010E943E1EA50118
:102B100094010E943E1EDDC08330B9F42BED3FE0EE
:102B200049E450E4C301B2010E943E1E6B017C01E6
:102B3000A3019201C501B4010E94F71B9B01AC01E6
:102B4000C701B6010E943E1EC4C0843009F0BDC05A
:102B500020E030E040E85EE3C701B6010E943E1E7F
:102B60006D837E838F839887A5019401C501B4018D
:102B70000E943E1E69877A878B879C87A7019601F2
:102B8000C701B6010E943E1E69837A838B839C83B2
:102B90009B01AC0169857A858B859C850E94F71B1A
:102BA00020E030E040E05FE30E94AB1E698B7A8B4F
:102BB0008B8B9C8BA5019401C701B6010E94841CDC
:102BC0000E94641C6D877E878F87988BA30192017A
:102BD000C301B2010E94F81B9B01AC01C501B40105
:102BE0000E94F71B4B015C019B01AC010E943E1E41
:102BF00029813A814B815C810E94F71B20E030E003
:102C000040E05FE30E94AB1E69837A838B839C83E1
:102C100020E030E040E05FE3C501B4010E943E1EC9
:102C20002B013C01A5019401C701B6010E94841C3F
:102C30000E94641C6B017C0129893A894B895C895B
:102C40006D817E818F8198850E943E1E4B015C01C3
:102C500020E030E040E85EE369857A858B859C85DD
:102C60000E943E1E2D853E854F8558890E943E1E3E
:102C70009B01AC01C501B4010E94F81B4B015C0132
:102C800029813A814B815C816D817E818F8198851C
:102C90000E943E1E9B01AC01C501B4010E94F71BBE
:102CA0004B015C01A3019201C301B2010E943E1ECF
:102CB0009B01AC01C701B6010E943E1E9B01AC0105
:102CC000C501B4010E94F71B04C060E070E080E819
:102CD0009FE364960FB6F894DEBF0FBECDBFDF91C1
:102CE000CF911F910F91FF90EF90DF90CF90BF9009
:102CF000AF909F908F907F906F905F904F900895CE
:102D0000EF92FF920F931F93CF93DF93CDB7DEB770
:102D10002A970FB6F894DEBF0FBECDBF6091600456
:102D2000615F8CEA91E00E945E0B90916004892FB4
:102D30008D7F69F482EA91E00E94960A88E991E029
:102D40000E94920A8EE891E00E94920A2AC0813085
:102D500069F482EA91E00E94960A88E991E00E9473
:102D6000960A8EE891E00E94920A1BC0943069F4A2
:102D700082EA91E00E94960A88E991E00E94960A10
:102D80008EE891E00E94960A0CC082EA91E00E94CF
:102D9000920A88E991E00E94920A8EE891E00E94EE
:102DA000920A87E891E00E94960A0F2EF4E5EF2E32
:102DB000F4E0FF2EF02DF701608171818281938113
:102DC0008E010F5F1F4F21E047E00E94DE20B80117
:102DD00082EA91E00E949A0AF701648175818681F6
:102DE000978121E047E00E94DE20B80188E991E068
:102DF0000E949A0AF701608571858285938521E09A
:102E000047E00E94DE20B8018EE891E00E949A0A15
:102E10006091090170910A0180910B0190910C0160
:102E200021E047E00E94DE20B80187E891E00E949F
:102E30009A0A2A960FB6F894DEBF0FBECDBFDF9177
:102E4000CF911F910F91FF90EF900895CF92DF9255
:102E5000EF92FF920F931F93CF93DF93EC016DEEF0
:102E600072E00E942B21892B59F08091600490E040
:102E7000019766E070E00E945B208093600411C0BF
:102E800060EF72E0CE010E942B21892B51F08091DE
:102E9000600490E0019666E070E00E945B20809301
:102EA0006004E4E5F4E080E090E0A0E8BFE3808324
:102EB0009183A283B38384839583A683B78380871A
:102EC0009187A287B387C09160046C017D018C015A
:102ED0009D01AC01BD018C2F0E944F15609309012B
:102EE00070930A0180930B0190930C018C2F0E9428
:102EF00009080E940F080E948016DF91CF911F9150
:102F00000F91FF90EF90DF90CF900895CF93DF93D4
:102F1000EC016FE672E00E942B21892B81F081E0A9
:102F200080937004109248041092490410924A044D
:102F300010924B040E94E30B0E949E125CC06BE651
:102F400072E0CE010E942B21892B31F083E0809327
:102F500070040E940F144FC065E672E0CE010E941B
:102F60002B21892B31F087E0809370040E942B1372
:102F700042C06DE672E0CE010E942B21892B21F028
:102F800082E08093700437C067E672E0CE010E9451
:102F90002B21892B51F080917004853061F185E0FF
:102FA000809370040E94801626C069E672E0CE010C
:102FB0000E942B21892BE1F0809170048430A9F0CC
:102FC00084E0809370041092610410926204109265
:102FD00063041092640410926604109267041092C5
:102FE000680410926904109265040E94E30E03C005
:102FF00081E08093700487E593E00E94B41B809188
:10300000700490E00E94CA1B8FE293E00E94B41B00
:10301000DF91CF910895CF92DF92EF92FF920F93BD
:103020001F93E4E5F4E0C084D184E284F384048156
:103030001581268137814081518162817381809120
:1030400060040E944F156093090170930A018093F8
:103050000B0190930C010E940F080E9480161F9193
:103060000F91FF90EF90DF90CF900895109274042D
:10307000109273041092EE041092ED0408950E94D1
:10308000EF190E947B1B60E875E280E090E00E94EF
:103090002F1A80E00E944D010E944D0E0E943618AA
:1030A00081E090915304911180E00E94F31B2FEF77
:1030B0008FEF9AE1215080409040E1F700C000007E
:1030C0000E94AA0B0E94B50B8FE692E00E944C0A68
:1030D00083EC93E00E94B41B0895CF92DF92EF92AD
:1030E000FF9205960E94FE206B017C019B01AC01C2
:1030F0000E94411F811111C0E091ED04F091EE0496
:10310000309759F0C082D182E282F382E091730459
:10311000F0917404309709F009950E943618FF90D9
:10312000EF90DF90CF9008950F931F93CF93DF938D
:10313000CDB7DEB7A4970FB6F894DEBF0FBECDBFF4
:103140008E010F5F1F4F3AC1B8018BE30E94691BCC
:1031500082E693E00E94B41BC8010E94B41B8FE278
:1031600093E00E94B41B62E474E0C8010E942B212A
:103170000817190751F46DEC7CEC8CEC9DE30E9470
:10318000F119C8010E94480E19C16EE074E0C8012F
:103190000E942B210817190751F46DEC7CEC8CEC84
:1031A0009DE30E94F119C8010E94B90B07C16CE3AD
:1031B00074E0C8010E942B210817190721F4C801E7
:1031C0000E948617FBC064E174E0C8010E942B21B5
:1031D0000817190751F46DEC7CEC8CEC9DE30E9410
:1031E000F119C8010E94500FE9C069E074E0C801FC
:1031F0000E942B210817190751F46DEC7CEC8CEC24
:103200009DE30E94F119C8010E94F60DD7C062E04B
:1032100074E0C8010E942B210817190751F46DECC6
:103220007CEC8CEC9DE30E94F119C8010E94CA1449
:10323000C5C062E374E0C8010E942B21081719077A
:1032400051F46DEC7CEC8CEC9DE30E94F119C8010B
:103250000E940315B3C064EF73E0C8010E942B21E4
:103260000817190751F46DEC7CEC8CEC9DE30E947F
:10327000F119C8010E94AB0DA1C06AEF73E0C8014B
:103280000E942B210817190751F46DEC7CEC8CEC93
:103290009DE30E94F119C8010E9426178FC06EEEAF
:1032A00073E0C8010E942B210817190751F46DEC37
:1032B0007CEC8CEC9DE30E94F119C8010E946C0C1F
:1032C0007DC068EE73E0C8010E942B210817190722
:1032D00051F46DEC7CEC8CEC9DE30E94F119C8017B
:1032E0000E946D186BC06AE174E0C8010E942B2136
:1032F0000817190751F46DEC7CEC8CEC9DE30E94EF
:10330000F119C8010E94A51259C067E274E0C80112
:103310000E942B210817190751F46DEC7CEC8CEC02
:103320009DE30E94F119C8010E94C01247C06FEDD1
:1033300073E0C8010E942B210817190751F46DECA6
:103340007CEC8CEC9DE30E94F119C8010E94CA1329
:1033500035C067ED73E0C8010E942B2108171907DB
:1033600051F46DEC7CEC8CEC9DE30E94F119C801EA
:103370000E94EC1323C06FEC73E0C8010E942B2164
:103380000817190751F46DEC7CEC8CEC9DE30E945E
:10339000F119C8010E94B11311C06AEC73E0C801B1
:1033A0000E942B210817190749F46DEC7CEC8CEC7A
:1033B0009DE30E94F119C8010E9478128BE30E94DC
:1033C000181B019609F0C0CEA4960FB6F894DEBF84
:1033D0000FBECDBFDF91CF911F910F9108953C9A01
:1033E000089520E030E046E154E40E943E1E0E9431
:1033F000FD1C611571058105910599F0449AE6EF70
:10340000F8E03197F1F700C000004498E6EFF8E0EB
:103410003197F1F700C000006150710981099109ED
:1034200069F7089520E030E04AEF54E40E943E1E20
:103430000E94FD1C611571058105910579F0449A82
:10344000E3EBF2E03197F1F74498E3EBF2E03197E8
:10345000F1F7615071098109910989F7089580E0B8
:1034600090E0FC01E151FB4F1082019688319105FB
:10347000C1F71092C50087E48093C40088E9809367
:10348000C10086E08093C2000E94A20B0895E0EC88
:10349000F0E0908195FFFDCF8093C6000895E0ECA9
:1034A000F0E080818823ECF78091C60008951F9298
:1034B0000F920FB60F9211242F933F934F935F9368
:1034C0006F937F938F939F93AF93BF93EF93FF93EC
:1034D0000E944F1AE0917104F0E0E151FB4F8083AC
:1034E0008091710490E0019668E170E00E945B2099
:1034F00080937104FF91EF91BF91AF919F918F9154
:103500007F916F915F914F913F912F910F900FBEDF
:103510000F901F9018950E94A60B109271041092A4
:1035200072040E94A20B0895CF93DF93EC0188816F
:10353000882331F021960E94471A89918111FBCF8F
:10354000DF91CF910895EF92FF920F931F93CF9346
:10355000DF93EC018B010E94A60B28E130E0809103
:1035600071044091720490E0841B91094896B9015E
:103570000E945B208C179D0790F3209769F1F8015A
:1035800040E050E0809172047A01E80EF11C97014E
:10359000ABEABAEA0E948E20929582958F708927B5
:1035A0009F7089279C01220F331F820F931F880F62
:1035B000991F880F991F880F991F9701281B390B96
:1035C000D901A151BB4F8C9181934F5F5F4F4C1735
:1035D0005D07C1F6CE0101C0CE01F801E80FF91F69
:1035E000108280917204C80FD11D9E01ABEABAEA25
:1035F0000E948E20929582958F7089279F708927CF
:103600009C01220F331F820F931F880F991F880F71
:10361000991F880F991FC81BD90BC09372040E9471
:10362000A20BDF91CF911F910F91FF90EF90089522
:103630000F931F93CF93DF93482F809171042091B4
:10364000720490E0821B9109489668E170E00E9444
:103650005B208823A1F1EC01DD271C161D0694F5E3
:103660008091720490E068E170E00E945B20FC01B0
:10367000E151FB4F80818417A9F020E030E008E1A0
:1036800010E015C090917204B901690F711DCB0152
:10369000B8010E945B20FC01E151FB4F9081941323
:1036A00006C002C020E030E0822F932F0DC02F5FB4
:1036B0003F4F2C173D0731F78FEF9FEF05C08FEF7E
:1036C0009FEF02C08FEF9FEFDF91CF911F910F917E
:1036D00008950F931F93CF93C82F8B018C2F0E94B7
:1036E000181B8F5FD9F3B80190E00E94A31ACF9105
:1036F0001F910F910895539AE1E8F0E0808188606E
:10370000808380E894E090938900809388000895F6
:10371000E1E8F0E090819E7F9083882311F05B9A2E
:1037200001C05B98E1E8F0E0808181608083B19B1B
:10373000FECFB19AE1E8F0E080818E7F808308952A
:10374000CF93DF93D82F80E00E94881BC8E08D2F95
:1037500081700E94881BD695C150C9F781E00E94F4
:10376000881BDF91CF9108950F931F93CF93FC0196
:103770008081882359F08F01C0E00E94A01BCF5F99
:10378000F801EC0FF11D80818111F7CFCF911F91CE
:103790000F910895CF93DF93CDB7DEB760970FB643
:1037A000F894DEBF0FBECDBF4AE0BE016F5F7F4F12
:1037B0000E944521CE0101960E94B41B60960FB66F
:1037C000F894DEBF0FBECDBFDF91CF910895289A48
:1037D000089528980895882319F00E94E71B0895FA
:1037E0000E94E91B0895209A0E94EB1B08955058EF
:1037F000BB27AA270E940F1C0C94FF1D0E94F11DDD
:1038000038F00E94F81D20F039F49F3F19F426F497
:103810000C94B31D0EF4E095E7FB0C94AD1DE92F5D
:103820000E94101E58F3BA176207730784079507A2
:1038300020F079F4A6F50C94321E0EF4E0950B2ED0
:10384000BA2FA02D0B01B90190010C01CA01A001F2
:103850001124FF27591B99F0593F50F4503E68F14D
:103860001A16F040A22F232F342F4427585FF3CF8E
:10387000469537952795A795F0405395C9F77EF45F
:103880001F16BA0B620B730B840BBAF09150A1F0A8
:10389000FF0FBB1F661F771F881FC2F70EC0BA0F2E
:1038A000621F731F841F48F4879577956795B795B6
:1038B000F7959E3F08F0B0CF9395880F08F09927B1
:1038C000EE0F9795879508959F939F77EEE389373D
:1038D0009E0728F4E8E6F0E00E94DD1D0CC00E947F
:1038E000691D9058A2EA2AED3FE049EC5FE30E948F
:1038F0000F1C0E94FF1D0F9007FC905808950E9416
:10390000891D08F481E008950E94981C0C94FF1D05
:103910000E94F81D58F00E94F11D40F029F45F3F0D
:1039200029F00C94AD1D51110C94331E0C94B31D51
:103930000E94101E68F39923B1F3552391F3951B50
:10394000550BBB27AA2762177307840738F09F5FC0
:103950005F4F220F331F441FAA1FA9F335D00E2E2D
:103960003AF0E0E832D091505040E695001CCAF79A
:103970002BD0FE2F29D0660F771F881FBB1F26175D
:1039800037074807AB07B0E809F0BB0B802DBF0134
:10399000FF2793585F4F3AF09E3F510578F00C9403
:1039A000AD1D0C94331E5F3FE4F3983ED4F386952F
:1039B00077956795B795F7959F5FC9F7880F911D24
:1039C0009695879597F90895E1E0660F771F881F10
:1039D000BB1F621773078407BA0720F0621B730BC3
:1039E000840BBA0BEE1F88F7E09508950E94FD1C2A
:1039F0006894B1110C94331E08950E94181E88F02B
:103A00009F5798F0B92F9927B751B0F0E1F0660FA2
:103A1000771F881F991F1AF0BA95C9F714C0B130E3
:103A200091F00E94321EB1E008950C94321E672F6F
:103A3000782F8827B85F39F0B93FCCF38695779512
:103A40006795B395D9F73EF49095809570956195FB
:103A50007F4F8F4F9F4F0895E89409C097FB3EF426
:103A600090958095709561957F4F8F4F9F4F9923CB
:103A7000A9F0F92F96E9BB279395F6958795779549
:103A80006795B795F111F8CFFAF4BB0F11F460FF09
:103A90001BC06F5F7F4F8F4F9F4F16C0882311F061
:103AA00096E911C0772321F09EE8872F762F05C075
:103AB000662371F096E8862F70E060E02AF09A9510
:103AC000660F771F881FDAF7880F9695879597F905
:103AD0000895DF93CF931F930F938B01EC01ECE7D5
:103AE000F0E00E94B61D0E94FF1D9801AE018B01FF
:103AF000EC0160E070E080E89FE30E94F71B0E9409
:103B0000011F9801AE010F911F91CF91DF910C948D
:103B1000511E990F0008550FAA0BE0E8FEEF16168C
:103B20001706E807F907C0F012161306E407F507B1
:103B300098F0621B730B840B950B39F40A2661F025
:103B4000232B242B252B21F408950A2609F4A140C8
:103B5000A6958FEF811D811D089597F99F6780E8D5
:103B600070E060E008959FEF80EC0895DF93CF93BD
:103B70001F930F93FF92EF92DF927B018C01689469
:103B800006C0DA2EEF010E94511EFE01E894A591B5
:103B90002591359145915591A6F3EF010E940F1C97
:103BA000FE019701A801DA9469F7DF90EF90FF908A
:103BB0000F911F91CF91DF9108959F938F937F93E2
:103BC0006F93FF93EF939B01AC010E943E1EEF9118
:103BD000FF910E94B61D2F913F914F915F910C94E0
:103BE0003E1E00240A9416161706180609060895A4
:103BF00000240A9412161306140605060895092EC9
:103C00000394000C11F4882352F0BB0F40F4BF2B37
:103C100011F460FF04C06F5F7F4F8F4F9F4F089577
:103C200057FD9058440F551F59F05F3F71F047956D
:103C3000880F97FB991F61F09F3F79F08795089552
:103C4000121613061406551FF2CF4695F1DF08C071
:103C5000161617061806991FF1CF8695710561058E
:103C600008940895E894BB2766277727CB0197F936
:103C700008950E94891D08F48FEF08950E94511E37
:103C80000C94FF1D0E94F11D38F00E94F81D20F0D9
:103C9000952311F00C94AD1D0C94B31D11240C94BC
:103CA000331E0E94101E70F3959FC1F3950F50E0D4
:103CB000551F629FF001729FBB27F00DB11D639FDE
:103CC000AA27F00DB11DAA1F649F6627B00DA11D84
:103CD000661F829F2227B00DA11D621F739FB00D2A
:103CE000A11D621F839FA00D611D221F749F33279A
:103CF000A00D611D231F849F600D211D822F762F33
:103D00006A2F11249F5750409AF0F1F088234AF00F
:103D1000EE0FFF1FBB1F661F771F881F915050407B
:103D2000A9F79E3F510580F00C94AD1D0C94331EF5
:103D30005F3FE4F3983ED4F3869577956795B79502
:103D4000F795E7959F5FC1F7FE2B880F911D96951C
:103D5000879597F90895FA01EE0FFF1F3096210518
:103D60003105A1F16115710561F48038BFE39B074E
:103D700049F168949038810561F08038BFEF9B0766
:103D800041F099234AF5FF3FE1053105210519F17D
:103D9000E8940894E795D901AA2329F4AB2FBE2F04
:103DA000F85FD0F310C0FF5F70F4A695E0F7F73925
:103DB00050F019F0FF3A38F49F779F930DD00F9091
:103DC00007FC9058089546F00C94B31D60E070E035
:103DD00080E89FE308954FE79F775F934F933F936A
:103DE0002F930E94DF1F2F913F914F915F910E946F
:103DF0003E1E0C944E1F19F416F40C94B31D0C9433
:103E0000801F0E94181EB8F39923C9F3B6F39F5779
:103E1000550B87FF0E948E1F0024A0E640EA900108
:103E200080585695979528F4805C660F771F881FF9
:103E300020F026173707480730F4621B730B840BFA
:103E4000202931294A2BA69517940794202531253E
:103E50004A2758F7660F771F881F20F02617370765
:103E6000480730F4620B730B840B200D311D411D8C
:103E7000A09581F7B901842F9158880F9695879561
:103E800008950E94891D880B990B089529F416F056
:103E90000C94AD1D0C94321E0C94B31D0E94181E80
:103EA000A8F39638A0F707F80F92E8942BE33AEAC4
:103EB00048EB5FE70E94541E0F920F920F924DB78E
:103EC0005EB70F920E942720E4EAF0E00E94B61D40
:103ED0004F915F91EF91FF91E595EE1FFF1F49F024
:103EE000FE57E0684427EE0F441FFA95E1F741952D
:103EF000550B0E94A11F0F9007FE0C94951F08956B
:103F00009F3F31F0915020F4879577956795B7954D
:103F1000880F911D9695879597F908959150504077
:103F2000660F771F881FD2F708959B01AC0160E0F0
:103F300070E080E89FE30C94841C0C94AD1D0C94FD
:103F4000801F0E94181ED8F39923C9F3940F511DA6
:103F5000A3F39150504094F059F0882332F0660F4B
:103F6000771F881F91505040C1F79E3F51052CF795
:103F7000880F911D9695879597F908955F3FACF04E
:103F8000983E9CF0BB27869577956795B79508F482
:103F9000B1609395C1F7BB0F58F711F460FFE8CFFC
:103FA0006F5F7F4F8F4F9F4FE3CF0C94331E16F000
:103FB0000C94801F0C94B31D68940C94AD1D0E944A
:103FC000181EA8F39923C1F3AEF3DF93CF931F9389
:103FD0000F93FF92C92FDD2788232AF02197660FC0
:103FE000771F881FDAF720E030E040E85FEB9FE3BF
:103FF000883920F0803E38F021968F770E94F81B98
:10400000ECECF0E004C00E94F81BE9EFF0E00E9445
:10401000B61D8B01BE01EC01FB2E6F577109759522
:10402000771F880B990B0E942E1D28E132E741E390
:104030005FE30E94511EAF2D9801AE01FF900F91DA
:104040001F91CF91DF910E940F1C0C94FF1DFA016C
:10405000DC01AA0FBB1F9B01AC01BF5728F422272C
:1040600033274427507820C0B75190F4AB2F002459
:10407000469537952795011CA395D2F3002071F042
:10408000220F331F441FB395DAF30ED00C94F71BA5
:1040900061307105A0E88A07B94630F49B01AC0194
:1040A0006627772788279078309621F02083318300
:1040B00042835383089597FB072E16F4009407D08C
:1040C00077FD09D00E94A82007FC05D03EF490950A
:1040D00081959F4F0895709561957F4F0895052EA6
:1040E00097FB1EF400940E94862057FD07D00E9483
:1040F000BC2007FC03D04EF40C94862050954095CC
:10410000309521953F4F4F4F5F4F08959095809583
:10411000709561957F4F8F4F9F4F0895A29FB0017B
:10412000B39FC001A39F700D811D1124911DB29FEB
:10413000700D811D1124911D08950E948E20A59F50
:10414000900DB49F900DA49F800D911D1124089592
:10415000AA1BBB1B51E107C0AA1FBB1FA617B707AD
:1041600010F0A61BB70B881F991F5A95A9F78095C9
:104170009095BC01CD010895A1E21A2EAA1BBB1B8C
:10418000FD010DC0AA1FBB1FEE1FFF1FA217B30723
:10419000E407F50720F0A21BB30BE40BF50B661F39
:1041A000771F881F991F1A9469F7609570958095FD
:1041B00090959B01AC01BD01CF010895EF920F9343
:1041C0001F93CF93DF93E80147FD02C034E001C0A5
:1041D00034E1E42F440FFF0BF7FF03C0F195E195A5
:1041E000F109E32E022F2E2FAE010E94A321CE0152
:1041F000DF91CF911F910F91EF9008956627772758
:104200000C943123FC0188279927E89421912032CE
:10421000E9F3293010F02E30C8F32B3241F02D3263
:1042200039F4689404C00E945F21820F911D21918E
:1042300020532A30C0F31EF4909581959F4F089526
:10424000FB01DC010D900020E9F7119701900D9220
:104250000020E1F70895FB0151915523A9F0BF011A
:10426000DC014D9145174111E1F759F4CD01019061
:10427000002049F04D9140154111C9F3FB01411156
:10428000EFCF81E090E001970895BB274A3031F4E9
:10429000992322F4BDE2909581959F4F0C948A2139
:1042A000BB272A3051F4992342F4BDE290958095C2
:1042B000709561957F4F8F4F9F4F0C9468217AE0E6
:1042C000979F902D879F802D910D11240895BB27D6
:1042D000FA01A62F6217710581059105330B30FB9A
:1042E00066F0AA27660F771F881F991FAA1FA217BB
:1042F00010F0A21B63953850A9F7A05DAA3308F00F
:10430000A95DA19336F7B111B1931082CA010C9443
:104310008725BB27FB015527AA27880F991FAA1FAE
:10432000A41710F0A41B83955051B9F7A05DAA33D0
:1043300008F0A95DA193009779F7B111B19311929B
:10434000CB010C9487254F925F926F927F929F9240
:10435000AF92BF92CF92DF92EF92FF920F931F9393
:10436000CF93DF93CDB7DEB729970FB6F894DEBFB2
:104370000FBECDBF6A01122FB02E2BE3201720F005
:10438000FF24F394F00E02C0BCE3FB2E0F2D27E0B8
:10439000AE014F5F5F4F0E948E24AC018981982F40
:1043A0009970913031F0E1FC06C0E0FE06C090E269
:1043B00005C09DE203C09BE201C090E0EE2DE071DC
:1043C00083FF3CC0911102C083E001C084E08117EB
:1043D00018F4212F281B01C020E0E1110BC0F601C9
:1043E000822F30E2882319F031938150FBCFC20E27
:1043F000D11C20E0992329F0D6019C93F601319637
:104400006F01C6010396E2FE0AC03EE4D6013C936A
:1044100041E411964C93119712963C9306C03EE6E8
:10442000F601308341E641833283FC01322F40E2C2
:10443000332309F442C041933150FACF82FF44C084
:10444000911102C083E001C084E0811718F4212F8C
:10445000281B01C020E0E1110BC0F601822F30E2E1
:10446000882319F031938150FBCFC20ED11C20E07C
:10447000992329F0D6019C93F60131966F01C6016C
:104480000396E2FE0BC039E4D6013C933EE411965C
:104490003C93119736E412963C9307C039E6F60137
:1044A00030833EE6318336E63283FC01322F40E230
:1044B000332319F041933150FBCFFC01E20FF11D82
:1044C00010828EEF9FEFB7C0F1E0911101C0F0E0D4
:1044D0006F2F70E01416150624F49A012F5F3F4FDA
:1044E00002C021E030E0260F371FBB2029F06B2DE2
:1044F00070E06F5F7F4F02C060E070E0260F371FF3
:10450000612F70E0261737071CF4121B212F01C002
:1045100020E03E2D387159F4D601322F60E233236A
:1045200019F06D933150FBCFC20ED11C20E0FF2358
:1045300031F0D6019C93B6016F5F7F4F6B01E111A3
:104540000BC0F601922F30E3992319F0319391506B
:10455000FBCFC20ED11C20E09F2D940F3A81782F03
:104560007071A72E84FF03C0313309F491501916DE
:1045700024F4993018F098E001C091E0E42F852FE1
:1045800057FF02C0E0E080E06E2F782FE0E0F0E01F
:10459000AEE29A2E3A01691A71082A01461A570AA0
:1045A0000B2D10E01195019511096F3F8FEF7807E2
:1045B00029F4D6019C92C60101966C014617570753
:1045C00084F0661677066CF47F01E40CF51CA1E01C
:1045D000B0E0AC0FBD1FEA0EFB1ED7011196BC90D8
:1045E00002C090E3B92E615071093196C60101965F
:1045F0007C016017710724F0D601BC926C01D5CF05
:104600006417750741F4363320F4353321F4A110D3
:1046100002C081E3B82EF601B082F701822F90E24A
:10462000882319F091938150FBCFF701E20FF11D20
:10463000108280E090E029960FB6F894DEBF0FBE9E
:10464000CDBFDF91CF911F910F91FF90EF90DF9041
:10465000CF90BF90AF909F907F906F905F904F9062
:104660000895A0E0B0E0E7E3F3E20C94D725EC0175
:104670007B016115710519F0DB018D939C938E010F
:104680000F5F1F4F7880872D90E00E946625892B51
:1046900011F0E801F4CFBDE27B1205C00F5F1F4FA0
:1046A0007980C1E008C0EBE27E1204C08E010E5F8B
:1046B0001F4F7980C0E06801F1E0CF1AD10843E0D4
:1046C00050E06EE271E0C6010E946F25892BF1F483
:1046D000680122E0C20ED11C45E050E069E271E0C1
:1046E000C6010E946F25892B21F4680187E0C80E5E
:1046F000D11CE114F10419F0D701CD92DC92C11163
:10470000FFC060E070E080E89FE703C143E050E055
:1047100066E271E0C6010E946F25892B51F4E11415
:10472000F10409F4F2C00E5F1F4FF70111830083FB
:10473000ECC0680160E070E0CB0100E010E0F60141
:10474000D0EDD70DDA3058F52C2F2260622E2C2FA9
:104750002870C2FF05C0211128C00F5F1F4F25C060
:10476000222311F001501109A5E0B0E09B01AC013A
:104770000E949D204B015C01880C991CAA1CBB1C4B
:10478000C501B4016D0F711D811D911D6839A9E925
:104790007A078A07A9E19A0740F0C66005C0DE3FA4
:1047A00051F4C3FD44C0C8606C2EBFEFCB1ADB0AC6
:1047B0007080C62DC4CF2D2F2F7D2531C1F54081AE
:1047C0004D3211F4C06106C04B3221F0319621E028
:1047D00030E006C03296D60111964C9122E030E0CE
:1047E000A0EDA40FAA3018F0E21BF30B20C040E0AC
:1047F00050E04038BCE05B075CF49A01220F331FA5
:10480000220F331F420F531F440F551F4A0F511DD4
:104810003196DF0111972C91A0EDA20FAA3048F339
:10482000C4FF03C0519541955109040F151FC1FFE5
:1048300007C0E114F10421F03197D701ED93FC9307
:104840000E942C1DC370C33019F06B017C0106C09F
:104850006B017C01F7FAF094F7F8F09420E030E077
:10486000A901C701B6010E947F1C882309F445C035
:1048700017FF06C0119501951109C5E4D1E002C0EA
:10488000CDE5D1E05E01B8E1AB1AB1084601BE2D1D
:10489000AF2D90E2E92EF12C0E151F0584F0FE01DC
:1048A0002591359145915491B4018B2F9A2F0E94F7
:1048B0003E1E4B01B82FA92F0E191F09EDCF2497CB
:1048C000F594E794CA15DB0539F76401EB2EFA2E4F
:1048D0008E2D880F8F2D881F8F3F49F020E030E00C
:1048E000A901C701B6010E947F1C811106C082E2A6
:1048F00090E09093080580930705C701B60109C0B1
:1049000060E070E080E89FEF04C060E070E080EC61
:104910009FE7CDB7DEB7EEE00C94F325283008F022
:1049200027E03327DA01990F311D87FD916000964A
:104930006105710539F432602E5F3D9330E32A95AD
:10494000E1F708959F3F30F080387105610509F067
:104950003C5F3C5F3D93913008F08068911DDF9390
:10496000CF931F930F93FF92EF92192F987F9695F5
:10497000E92F96959695E90FFF27E554FE4F992765
:104980003327EE24FF24A701E7010590089407943C
:1049900028F4360FE71EF81E491F511D660F771FBA
:1049A000881F991F0694A1F70590079428F4E70E35
:1049B000F81E491F561FC11D770F881F991F661FBC
:1049C0000694A1F70590079428F4F80E491F561F86
:1049D000C71FD11D880F991F661F771F0694A1F767
:1049E0000590079420F4490F561FC71FD81F990F31
:1049F000661F771F881F0694A9F78491109517707A
:104A000041F0D695C79557954795F794E7941A9531
:104A1000C1F7E1E6F1E06894159015913591659143
:104A2000959105907FE27395E118F10A430B560BBF
:104A3000C90BD009C0F7E10CF11E431F561FC91F57
:104A4000D01D7EF4703311F48A95E6CFE8940150BE
:104A500030F0080F0AF40027021708F4202F2395DE
:104A6000022F7A3328F079E37D932A95E9F710C075
:104A70007D932A9589F606949795679537951795AE
:104A80001794E118F10A430B560BC90BD00998F0A3
:104A900023957E9173957A3308F070E37C9320130D
:104AA000B8F77E9170617D9330F0839571E37D93CB
:104AB00070E32A95E1F71124EF90FF900F911F9179
:104AC000CF91DF91992787FD9095089591110C94CE
:104AD0009725803219F089508550C8F70895FB0159
:104AE000DC014150504088F08D9181341CF08B35B1
:104AF0000CF4805E659161341CF06B350CF4605EE3
:104B0000861B611171F3990B0895881BFCCFDC01A2
:104B1000FC01672F71917723E1F7329704C07C91F4
:104B20006D9370836291AE17BF07C8F308959927FC
:104B300088270895F999FECF92BD81BDF89A9927EB
:104B400080B50895A6E1B0E044E050E00C94C5259E
:104B5000262FF999FECF1FBA92BD81BD20BD0FB699
:104B6000F894FA9AF99A0FBE01960895242F0E949C
:104B7000A925252F0E94A9250C94BE250E94A825B1
:104B8000272F0C94A925DC01CB01FC01F999FECF5C
:104B900006C0F2BDE1BDF89A319600B40D924150C5
:104BA0005040B8F708952F923F924F925F926F92C4
:104BB0007F928F929F92AF92BF92CF92DF92EF92AD
:104BC000FF920F931F93CF93DF93CDB7DEB7CA1B2E
:104BD000DB0B0FB6F894DEBF0FBECDBF09942A8859
:104BE000398848885F846E847D848C849B84AA8401
:104BF000B984C884DF80EE80FD800C811B81AA818E
:104C0000B981CE0FD11D0FB6F894DEBF0FBECDBF58
:104C1000ED010895F894FFCF00007A445000007A27
:104C2000440000803F000000000000803F2C006432
:104C30006973705F756E697474705F6C006469731A
:104C4000705F756E697474705F620073706565641F
:104C50005F756E69740073706565645F76616C0082
:104C60006F766572666C6F775F6C6162656C00630E
:104C70006865636B5F6F7666006F76665F746872F7
:104C800000736C5F72656C617900625F6F6E0062C9
:104C90005F6F66660063617061635F74787400744F
:104CA0005F6172656100745F73616D706C65330084
:104CB000745F73616D706C653200745F73616D70E9
:104CC0006C653100705F73616D706C6500625F725E
:104CD000656D6F766500625F707265765F63756E95
:104CE000697400625F6E6578745F63756E697400E5
:104CF000625F707265765F7000625F6E6578745F88
:104D0000700063616C756E69740063616C5F6C61E7
:104D100062656C0073656C65637465645F706F6970
:104D20006E7400706F696E745F6C6162656C0062B6
:104D30005F636F6E6669726D003132003131006CF5
:104D40006F636B5F696D67006C6F636B65640064B4
:104D50006973705F756E6974006E756D006E65774E
:104D60005F63616C696200645F76616C75650064A5
:104D70005F76616C75655F6C6162656C00370035EC
:104D80000034003300320031002E7069633D002E84
:104D900076616C3D002E7478743D00FFFFFF007655
:104DA00069732000706167652000476F20746F2071
:104DB000706167653A200073616D706C65310073D6
:104DC000616D706C65320073616D706C6533006E7F
:104DD000657763616C006361706163697479006316
:104DE000616C6962726174696F6E2E746F74616C4C
:104DF0005F706F696E747300544F47474C45204C89
:104E00004F434B0A002D2D002B2B004F7665726609
:104E10006C6F772050726F74656374696F6E204D8C
:104E20006F64653A20004F766572666C6F7720502C
:104E3000726F74656374696F6E205468726573680D
:104E40006F6C643A2000250A0053656D2063616C25
:104E500069627261E7E36F00506F6E746F2000202B
:104E60006465200043616C20556E69743A200053DC
:104E7000657420506167653A2000436F6D6D616E07
:104E800064204275666665723A0A004D5061000002
:104E90000000000000707369000000000000006B5B
:104EA00067662F6D6D320000004E2F6D6D32000071
:104EB0000000006B67660000746600000067660013
:104EC00000004E0000000064614E00006B4E0000C8
:104ED000006C6266000064796E000072656164793E
:104EE0000A007A65726F006F766663686B3D006FCB
:104EF00076667063743D006F76666D6F64653D0025
:104F00006676616C3D00667661723D0064656C702A
:104F10003D0073616D706C653D00706F696E743D2E
:104F20000063616C3D00676F746F3D00706C6F6370
:104F30006B00646973705F756E69745F743D0064C3
:104F40006973705F756E69743D0063616C5F756E47
:104F500069743D00706167653D00756E69743D0060
:00000001FF
