:100000000C942E010C944B010C944B010C944B015D
:100010000C944B010C944B010C944B010C944B0130
:100020000C944B010C944B010C944B010C944B0120
:100030000C944B010C944B010C94200E0C944B012E
:100040000C944B010C944B010C94291F0C944B0104
:100050000C944B010C944B010C944B010C944B01F0
:100060000C944B010C944B01036EDB363D9A99992D
:10007000993DABAAAA2A3E000000803F072C7AA532
:10008000BA6CC590DA3B9365FC8BBC53F810FD3C11
:100090005692834DBD879D3AB63DCBC9BF5BBE73BB
:1000A000DA0FC93F07634236B79BD8A71A3968569B
:1000B00018AEBAAB558C1D3CB7CC5763BD6DEDFD8A
:1000C000753EF6177231BF000000803F0800000047
:1000D000BE922449123EABAAAA2ABECDCCCC4C3E3D
:1000E00000000080BEABAAAAAA3E00000000BF002C
:1000F0000000803F0000000000084178D3BB438728
:10010000D1133D190E3CC3BD4282AD2B3E68EC823B
:1001100076BED98FE1A93E4C80EFFFBE01C4FF7FC0
:100120003F00000000004E414E494E495459494E8F
:1001300046CDCCCC3D0AD7233C17B7D13877CC2B52
:10014000329595E6241FB14F0A000020410000C8F7
:100150004200401C4620BCBE4CCA1B0E5AAEC59D78
:100160007400407A10F35A00A0724E18090010A5CE
:10017000D4E80000E87648170000E40B54020000C1
:10018000CA9A3B000000E1F5050000809698000047
:100190000040420F000000A0860100000010270070
:1001A000000000E803000000006400000000000AF6
:1001B00000000000000100000000002C76D888DC60
:1001C000674F0823DFC1DFAE59E1B1B796E5E3E43D
:1001D00053C63AE651997696E8E6C28426EB898CB6
:1001E0009B62ED407C6FFCEFBC9C9F40F2BAA56F18
:1001F000A5F490055A2AF75C936B6CF9676DC11BE7
:10020000FCE0E40D47FEF520E6B500D0ED902E03AE
:1002100000943577050080841E080000204E0A00F7
:100220000000C80C333333330F986E12831141EF43
:100230008D2114893BE65516CFFEE6DB18D1844BA1
:10024000381BF77C1D901DA4BBE424203284725E11
:10025000228100C9F124ECA1E53D270011241FBE35
:10026000CFEFD8E0DEBFCDBF14E0A0E0B1E0E8E51D
:10027000F5E502C005900D92AC37B107D9F725E03E
:10028000ACE7B4E001C01D92AD34B207E1F70E94C3
:100290001B0A0C94AA2A0C94000097B1976097B996
:1002A0003B9898B19A6098B942988111409A089504
:1002B0003399FECF28E180E090E0DC01429A35E2FC
:1002C0003A95F1F74298880F991FAA1FBB1F3399DF
:1002D000816035E23A95F1F7215081F7429A25E2A3
:1002E0002A95F1F7429835E23A95F1F7A7FDBF6FED
:1002F0008F3F2FEF9207A207B207D1F2BC01CD01C9
:100300000895882311F0579A0895579808958823DF
:1003100011F05F9A08955F980895882311F05E9A0E
:1003200008955E9808958AB1806C8AB98BB1806C0B
:100330008BB92FEF8FE593E0215080409040E1F79B
:1003400000C000000895CF93C82F80E00E948D0167
:1003500088EB8A95F1F7000081E00E948101CC23AF
:1003600021F081E00E94870103C080E00E948701A4
:1003700088EB8A95F1F7000081E00E948D0188EBFF
:100380008A95F1F70000CF910895CF93DF93D82F8E
:10039000C8E08D2F80780E94A301DD0FC150C9F7FE
:1003A000DF91CF91089580E00E948D0188EB8A95BE
:1003B000F1F7000080E00E94810180E00E94870147
:1003C00088EB8A95F1F7000081E00E948D0188EBAF
:1003D0008A95F1F7000089B1881F8827881F089542
:1003E000CF93DF93D8E080E0C82FCC0F0E94D301D9
:1003F0008C2BD150C9F7DF91CF91089581E00E94F5
:10040000810181E00E94870188EB8A95F1F7000065
:1004100080E00E94870188EB8A95F1F7000080E078
:100420000E948D0188EB8A95F1F70000089580E025
:100430000E948D0181E00E94810188EB8A95F1F78D
:10044000000080E00E94870188EB8A95F1F70000A8
:1004500081E00E948D0188EB8A95F1F7000081E030
:100460000E94870188EB8A95F1F700000895EF92CA
:10047000FF920F931F93CF93DF93C82FD62F142F84
:1004800079010E94FE018C2F880F0E94C5010E94F5
:10049000D301811120C08D2F0E94C5010E94D3017C
:1004A00081111CC0112391F0E7011150012F10E0C0
:1004B0000F5F1F4F0E0D1F1D89910E94C5010E94E5
:1004C000D30181110EC0C017D107B1F70E941702E6
:1004D00080E090E008C08FEF9FEF05C08EEF9FEFA8
:1004E00002C08DEF9FEFDF91CF911F910F91FF9091
:1004F000EF90089580E00E94A301089581E00E949A
:10050000A3010895CF92DF92EF92FF920F931F9372
:10051000CF93DF93C82FD62FE42ED22EF32E0E9436
:10052000FE01CC0F8C2F0E94C5010E94D3018111C6
:1005300038C08D2F0E94C5010E94D301811134C0A3
:100540000E94FE018C2F81600E94C5010E94D30190
:1005500081112DC0EE2001F10D2D1F2DCC24CA9448
:10056000CE0CD12C8FEFC81AD80AC0E0D0E0F12C05
:10057000E1E0EE1AF1080E94F001F80181938F0189
:10058000EC16FD0619F40E947E0202C00E947A0257
:100590002196CC15DD0579F70E94170280E090E0E6
:1005A00008C08FEF9FEF05C08EEF9FEF02C08DEF69
:1005B0009FEFDF91CF911F910F91FF90EF90DF9010
:1005C000CF900895CF92DF92EF92FF92CF93DF9377
:1005D00000D0CDB7DEB79E012F5F3F4F42E061E113
:1005E00088E60E948202892B41F56A8162956695B0
:1005F0006695637070E080E090E00E94F72120E053
:1006000030E040E85EE30E9407236B017C016981D2
:1006100070E080E090E00E94F5219B01AC01C701F1
:10062000B6010E94C12020E030E0A9010E94C12053
:10063000562F472F382F292F04C050E040E030ECD0
:100640002FE7652F742F832F922F0F900F90DF913C
:10065000CF91FF90EF90DF90CF9008950F931F936D
:10066000CF93DF93CDB7DEB727970FB6F894DEBFF1
:100670000FBECDBF8C019E012F5F3F4F47E060E072
:1006800088E60E948202892B09F05BC08981982F3D
:1006900092959F70990F292F220F220F920F8F7022
:1006A000890FF80180838A81982F92959F70990F06
:1006B000292F220F220F920F8F70890F81838B8138
:1006C000982F9695969596959670292F220F220F22
:1006D000920F8F70890F82838C81877084838D81C4
:1006E000982F92959F70990F292F220F220F920F0A
:1006F0008F70890F83838E8184FB992790F9990FDE
:10070000292F220F220F920F8F70890F85832F813F
:10071000822F82958F7090E0AC01440F551F880F97
:10072000991F880F991F880F991F840F951F2F708D
:10073000820F911D8053984F9783868380E090E0CD
:1007400002C08FEF9FEF27960FB6F894DEBF0FBE63
:10075000CDBFDF91CF911F910F910895EF920F932D
:10076000CF93DF93CDB7DEB727970FB6F894DEBFF0
:100770000FBECDBFFC018DECE89E912D1124969506
:100780009695969530E1939FD0011124990F392FBA
:10079000330F330F930FE91AEA2AE982089F912D4C
:1007A000112496959695969550E1959FD001112428
:1007B000990F392F330F330F930F091B0A2B0A831D
:1007C000289F912D112496959695969530E1939FAB
:1007D000D0011124990F392F330F330F930F291B99
:1007E0002A2B2B831C82489F912D11249695969538
:1007F000969550E1959F90011124990F392F330F51
:10080000330F930F491B422B4D83689F812D112479
:1008100086958695869590E1899F90011124880F91
:10082000982F990F990F890F681B622B6E839F0178
:100830003695279536952795ABE7B4E10E94652557
:10084000AC015695479524E6249FC001259F900D45
:100850001124AF01481B590B9A01ADECBCEC0E946E
:100860006525969587959695879596958795282FD2
:100870002295207FBC01660F771F880F991F880F74
:10088000991F880F991F860F971F481B590B422BE2
:100890004F839E012F5F3F4F47E060E088E60E9454
:1008A000370221E030E0892B11F420E030E0882786
:1008B0009927821B930B27960FB6F894DEBF0FBEC5
:1008C000CDBFDF91CF910F91EF900895EF920F93ED
:1008D000FC01E080018122814381658186819781CD
:1008E0000E94AE030F91EF9008952F923F924F9286
:1008F0005F926F927F928F929F92AF92BF92CF92B0
:10090000DF92EF92FF920F931F93CF93DF93CDB7B8
:10091000DEB7A4970FB6F894DEBF0FBECDBF161694
:1009200017060CF0CAC23AA329A358A34F8F2B0174
:100930009C8F8B8F3A8729870F8B188FE98EFA8EC1
:100940005A834983880F991F880F991F880F991F11
:1009500098878F835A016E2C7F2C202E312EC9A0B0
:10096000DAA0E12CF12CDC82CB82F601108211821C
:10097000128213822B8D3C8D121613061CF58F806C
:1009800098848A0C9B1C8501F801608171818281A9
:1009900093819B01AC010E9407239B01AC01EB8179
:1009A000FC8160817181828193810E94C120EB81F1
:1009B000FC816083718382839383085F1F4F80165D
:1009C000910611F7EB81FC816081718182819381B5
:1009D0000E94CA23EB81FC816083718382839383AD
:1009E000F4E0CF0ED11CF1011192119211921192EB
:1009F0001F01F301E192F1923F01FFEFEF1AFF0AAD
:100A000024E0A20EB11C4E145F0409F0ACCF2F8C71
:100A100038A08F819885280E391EC201880F991F32
:100A2000880F991FE9A1FAA1E80FF91FFCA3EBA316
:100A30001E8E1D8E21E030E03E8B2D8B1C8A1B8A82
:100A40001F86188A198A1A8A2DC08B899C8901965B
:100A50009C8B8B8BED89FE893196FE8BED8B2F89DC
:100A6000388D2C5F3F4F388F2F8B8D8D9E8D049648
:100A70009E8F8D8FE985FA853496FA87E987F4E0B1
:100A80002F0E311C298D3A8D2E5F3F4F3A8F298FC3
:100A900089819A810C969A838983EF81F8853897AA
:100AA000F887EF832B893C893C872B871216130626
:100AB0000CF047C0241535050CF002C209811A81DB
:100AC0000850110989859A859E878D876BA07CA027
:100AD000ED85FE8580809180A280B380F801C19071
:100AE000D190E190F1908F01A5019401C501B4016D
:100AF0000E9407236B837C838D839E83A5019401D1
:100B0000C501B4010E9407234B015C01A7019601B6
:100B1000C701B6010E9407239B01AC01C501B401C6
:100B20000E94C0209F770E94CA23ED85FE856193B5
:100B3000719381939193FE87ED87E615F70541F652
:100B4000D2C129853A853E872D87F9018080918021
:100B5000A280B3802B853C85241535050CF0CDC1D2
:100B600009851A850C5F1F4F8B859C853C019C83F2
:100B70008B8316C0F801C190D190E190F1908F0164
:100B8000A7019601682D792D8A2D9B2D0E94482161
:100B9000882334F48C2C9D2CAE2CBF2C6B807C8055
:100BA0002B813C812F5F3F4F3C832B8324153505E0
:100BB0000CF32CEA35EC47E257E3682D792D8A2DAA
:100BC0009B2D0E94482118160CF0CFC18B859C8567
:100BD0006816790609F44EC0E98DFA8D718260823B
:100BE0002B8D3C8D1216130634F5EF8DF8A18D8DEB
:100BF0009E8DE80FF91FD301AA0FBB1FAA0FBB1FC1
:100C00002F8D38A1A20FB31F408151816281738162
:100C10000D911D912D913C91139700831183228397
:100C200033834D935D936D937C9313973896189609
:100C3000E215F30549F7ED85FE8580819181A2815A
:100C4000B381F301EE0FFF1FEE0FFF1F09A11AA1E1
:100C50000E0F1F1FF8014081518162817381ED8564
:100C6000FE854083518362837383F801808391837F
:100C7000A283B3832B8D3C8D8B859C858217930734
:100C800034F5E981FA8180E090E0A0E0B0E06C0109
:100C90007D01FC83EB83EB81FC8180809180A280CD
:100CA000B380E894B7F8A7019601C501B4010E948A
:100CB0000223181614F4750164012B813C81285F0E
:100CC0003F4F3C832B832215330529F724C1EF893D
:100CD000F88D10821182128213822D893E893C8701
:100CE0002B87241535050CF4B0CE3FC1A701960122
:100CF000EB81FC8160817181828193810E944D2111
:100D0000EB81FC8160837183828393833896FC83BB
:100D1000EB83E215F30551F7A7019601ED85FE85FA
:100D200060817181828193810E944D214B015C0120
:100D3000ED85FE85608371838283938329813A8167
:100D40003C832B8320E030E040E050E0E981FA81F1
:100D500060817181828193810E944821882354F4AB
:100D6000B7FAB094B7F8B094ED85FE858082918291
:100D7000A282B382ED85FE8520813181428153813B
:100D8000EB81FC8160817181828193810E94C1200D
:100D9000EB81FC8160837183828393832F89388DFB
:100DA0003C832B83ED85FE852081318142815381F7
:100DB0000E9407239B01AC0160E070E080E89FE3A4
:100DC0000E944D21EF89F88D608371838283938324
:100DD000A7019601ED85FE856081718182819381F5
:100DE0000E940723ED85FE85608371838283938350
:100DF0006D887E88641475040CF09EC0C980DA800A
:100E0000F4E0CF0ED11C50C0EB85FC8520813181F0
:100E100042815381F80160817181828193810E94B6
:100E200007239B01AC016A2D7B2D8E2D9F2D0E94E7
:100E3000C120A62EB72EE82EF92E085F1F4F2B8556
:100E40003C85285F3F4F3C872B8702151305E1F651
:100E500079C0F8012081318142815381C501B401FB
:100E60000E9407239B01AC01EB85FC8560817181A9
:100E7000828193810E94C020EB85FC856083718311
:100E8000828393833896FC87EB87085F1F4FEE15AC
:100E9000FF05F9F6FFEF6F1A7F0A24E0C20ED11C9E
:100EA0004614570409F4D1CDDC86CB8609811A811A
:100EB000AF84B888E988FA88A7CF1C861B8655C0FE
:100EC00089859A859E878D872CEA35EC47E257E322
:100ED000FC0160817181828193810E9448211816F2
:100EE0000CF4C8CE42C029853A853E872D87F9018A
:100EF00080809180A280B38033CE2CEA35EC47E22B
:100F000057E3682D792D8A2D9B2D0E9448211816B4
:100F10000CF4B0CE2AC02CEA35EC47E257E3C70107
:100F2000B6019F770E94482118160CF0D0CE298177
:100F30003A813C832B83DACE8B859C8501969C87F6
:100F40008B8713C0EB81FC812081318142815381E9
:100F50000E9407234B015C01EF80F884EC0CFD1C20
:100F600009811A81DC86CB8674CF8B859C85A496FB
:100F70000FB6F894DEBF0FBECDBFDF91CF911F91AA
:100F80000F91FF90EF90DF90CF90BF90AF909F9028
:100F90008F907F906F905F904F903F902F9008952B
:100FA0002F923F924F925F926F927F928F929F9279
:100FB000AF92BF92CF92DF92EF92FF920F931F9367
:100FC000CF93DF9300D000D0CDB7DEB72C0121E066
:100FD000421A51080AF47EC01A013B019C01220FFB
:100FE000331F220F331F420F531F5A8349837C0143
:100FF000EE0CFF1CE80EF91EEE0CFF1CEE0CFF1CA5
:101000005CE0E51AF108E60EF71E9C01225031095A
:10101000220F331F8150904C820F931F880F991F0E
:10102000880F991F0496680E791E89819A819C8386
:101030008B8342012DC009811A81530194E0C91AA2
:10104000D108F80152914291329122918F01F5011C
:1010500092918291729162915F010E9407239B019C
:10106000AC01F60160817181828193810E94C02070
:10107000F60160837183828393834B815C810417C3
:101080001507F9F65CE0E51AF10888E0681A7108BE
:10109000EB81FC813497FC83EB836F01F7012081A6
:1010A000318142815381F601608171818281938116
:1010B0000E944D21F6016083718382839383F1E066
:1010C0008F1A9108C214D30429F0841495040CF4E7
:1010D000B2CFD8CF80E090E00F900F900F900F909C
:1010E000DF91CF911F910F91FF90EF90DF90CF9004
:1010F000BF90AF909F908F907F906F905F904F9038
:101100003F902F900895CF92DF92EF92FF920F932E
:101110001F93CF93DF93232B31F5181619060CF08C
:101120004FC0DA01EB01880F991F480F591FED914D
:10113000FD91EE0FFF1FEE0FFF1FE60FF71F00815F
:10114000118122813381C880D980EA80FB80C082EE
:10115000D182E282F3820993199329933993A417D8
:10116000B50729F72DC09C01215031094AF1EC0146
:10117000CC0FDD1FC40FD51F880F991F880F991F33
:10118000DB01A80FB91FCB01FA91EA91EE0FFF1F07
:10119000EE0FFF1FE60FF71F0081118122813381BF
:1011A000FE90EE90DE90CE90C082D182E282F382F9
:1011B0000D931D932D933C931397A817B90721F70F
:1011C00080E090E0DF91CF911F910F91FF90EF9021
:1011D000DF90CF9008952F923F924F925F926F923F
:1011E0007F928F929F92AF92BF92CF92DF92EF92B7
:1011F000FF920F931F93CF93DF93CDB7DEB7609726
:101200000FB6F894DEBF0FBECDBF9C838B834F8398
:1012100058873E832D831C870B87DE86CD86BA8256
:10122000A9821A141B040CF099C049875A876D8053
:101230007E802E2C3F2C7C01EE0CFF1CEE0CFF1C44
:10124000E60CF71C442E552E812C912C5CC05301CA
:10125000588A4F86C12CD12C00E010E0D5016D9149
:101260007D918D919D915D01EF85F889208131817E
:10127000428153810E9407239B01AC016C2D7D2D7F
:10128000802F912F0E94C120C62ED72E082F192FF4
:101290002F853889285F3F4F388B2F87AE14BF04C6
:1012A000E9F685C0D8012D913D914D915C91C60123
:1012B000B5010E9407239B01AC01EF85F88960818D
:1012C0007181828193810E94C020AF85B8896D931E
:1012D0007D938D939D93B88BAF87085F1F4FAE159D
:1012E000BF0501F7BFEF8B1A9B0AECE04E0E511CB5
:1012F000F4E06F0E711C24E0220E311C89819A816A
:101300008815990539F0AB81BC818A169B060CF4CF
:101310009ECFE8CFEB85FC8589819A81880F991F44
:10132000880F991F8E0F9F1FA985BA854081518113
:101330006281738170580D911D912D913C9113978D
:1013400001931193219331934D935D936D937C930E
:1013500013971C96E817F90749F736C04D815E814F
:101360006F81788589819A810E94D0073FC0DB0117
:10137000CD90DD90ED90FC9080819181A281B38130
:101380004C015D01B7FAB094B7F8B094DB018D92CF
:101390009D92AD92BD92BD01C082D182E282F38264
:1013A0002F5F3F4F3C96241735070CF31FC0F10108
:1013B00020813181428153810E9407235B016C01AE
:1013C000788A6F8682016ECF4D815E816F817885CC
:1013D00089819A810E94D007EF81F8858B859C8551
:1013E00020E030E0BC0149815A81C1CF21E030E0EA
:1013F0004D855E856D817E8189819A810E948308F9
:1014000080E090E060960FB6F894DEBF0FBECDBFCF
:10141000DF91CF911F910F91FF90EF90DF90CF90D0
:10142000BF90AF909F908F907F906F905F904F9004
:101430003F902F9008950E94C71C0E941E1D80910E
:10144000A804813079F40E94A3150E94731580913D
:10145000850481110E94DF138FEF9BE60197F1F75E
:1014600000C000008091A804843039F70E947011F8
:101470008FEF9BE60197F1F700C00000DECFEF92FF
:10148000FF920F931F93CF93DF93082F192FE62E10
:1014900083E090E00E94482AEE20D1F0C02FD12FA7
:1014A00004E010E0F12C488159816A817B81C801F8
:1014B0000E94562A4C815D816E817F81C80104960D
:1014C0000E94562AF3942896085F1F4FEF10EBCF27
:1014D000DF91CF911F910F91FF90EF900895682FAA
:1014E00084E590E00E94482A0895682F81E090E00A
:1014F0000E94482A0895682F80E090E00E94482AC0
:101500000895682F82E090E00E94482A0895682F8D
:1015100085E590E00E94482A08950F931F93CF938A
:10152000DF9308E814E0C6E5D0E0F801419151915D
:10153000619171918F01CE010E94562A2496C23684
:10154000D10599F74091090150910A0160910B0171
:1015500070910C0182E690E00E94562ADF91CF91B3
:101560001F910F91089540910501509106016091DE
:1015700007017091080186E690E00E94562A0895BE
:10158000609187048AE690E00E94482A60910401F5
:101590008BE690E00E94482A609185048CE690E0FA
:1015A0000E94482A089580E090E00E943A2A823002
:1015B00018F48093A70402C01092A7048091A70496
:1015C000089581E090E00E943A2A883018F48093D0
:1015D000A60402C01092A6048091A604089585E591
:1015E00090E00E943A2A863018F48093940402C056
:1015F00010929404809194040895CF92DF92EF9218
:10160000FF920F931F93CF93DF9308E814E0C6E592
:10161000D0E00F2EC12CD12CF0E8EF2EFFE3FF2EEF
:10162000F02DCE010E94422AF801608371838283EB
:1016300093839B01AC010E940A24882329F0F801BE
:10164000C082D182E282F38224960C5F1F4FC236A1
:10165000D10539F782E690E00E94422A6B017C01B5
:101660009B01AC010E940A24811113C02CEA35ECC5
:1016700047E257E3C701B6010E94482188234CF096
:10168000C0920901D0920A01E0920B01F0920C0184
:101690000CC080E090E0A0E8BFE380930901909344
:1016A0000A01A0930B01B0930C01DF91CF911F9120
:1016B0000F91FF90EF90DF90CF90089586E690E035
:1016C0000E94422A609305017093060180930701EE
:1016D000909308019B01AC010E940A24882361F0C9
:1016E00080E090E0AAE7B4E48093050190930601BE
:1016F000A0930701B09308010E94BF1308958AE6E2
:1017000090E00E943A2A823018F48093870402C045
:10171000109287048BE690E00E943A2A853618F4EE
:101720008093040103C080E5809304010E94BF13ED
:101730008CE690E00E943A2A823018F48093850467
:10174000089510928504089583E090E00E943A2A5B
:101750008B3018F48093A30402C01092A3048091EC
:10176000A304089584E590E00E943A2A883018F492
:101770008093A20402C01092A2048091A204089552
:10178000CF92DF92EF92FF92CF93DF9398E0899F01
:10179000E0011124CE0104960E94422A6B017C01D3
:1017A000CE0108960E94422ACB52DB4FC882D982D2
:1017B000EA82FB826C837D838E839F83DF91CF914E
:1017C000FF90EF90DF90CF9008952F923F924F922D
:1017D0005F926F927F928F929F92AF92BF92CF92C1
:1017E000DF92EF92FF920F931F93CF93DF93CDB7CA
:1017F000DEB72A970FB6F894DEBF0FBECDBF2B0120
:101800003C015A01190120E030E0A9010E94482161
:1018100088234CF48DE2F501808377FA709477F891
:10182000709401E001C000E0C301B2010E94BF2139
:101830006B017C010E94F7219B01AC01C301B20145
:101840000E94C0202B013C01C114D104E104F10429
:10185000F9F010E088248394912C8C0E9D1E810E4B
:10186000911CC701B6012AE030E040E050E00E9440
:101870004625605DF4016083C22ED32EE42EF52E42
:101880001F5FC114D104E104F10421F7111143C019
:1018900080E3898311E03FC0892F9E91F501E80F15
:1018A000F11D908391E0980F292F201B2117A0F3A1
:1018B000F501E90FF11D9CE2908312E0180F21144D
:1018C000310489F100E020E030E040E251E4C3015E
:1018D000B2010E9407236B017C010E94BF21F50128
:1018E000E10FF11D20E3260F2083072E000C880B4B
:1018F000990B0E94F7219B01AC01C701B6010E9420
:10190000C0202B013C010F5F1F5F802F90E08215EC
:101910009305C8F208C0A1E0B0E0AC0FBD1FA10F55
:10192000B11D802FBACFF501E10FF11D1082C50165
:101930002A960FB6F894DEBF0FBECDBFDF91CF91D0
:101940001F910F91FF90EF90DF90CF90BF90AF90DD
:101950009F908F907F906F905F904F903F902F90CF
:101960000895DC018C91882391F0861729F090E08E
:1019700007C0861305C001C0FD01408381E00895C2
:101980009F5FFD01E90FF11D80818111F2CF089564
:10199000CF93DF93EC018DEA92E00E945D1FCE01B0
:1019A0000E945D1F84EA92E00E945D1F8FEF9BE61C
:1019B0000197F1F700C0000080E0DF91CF9108951A
:1019C000CF93DF93EC0183EB92E00E945D1FCE0189
:1019D0000E945D1F84EA92E00E945D1F8FEF9BE6EC
:1019E0000197F1F700C0000080E0DF91CF910895EA
:1019F0000F931F93CF938C01C62F88EA92E00E9429
:101A00005D1FC8010E945D1F85E191E00E945D1F7E
:101A10008C2F0E94191F84EA92E00E945D1F8FEFB5
:101A20009BE60197F1F700C0000080E0CF911F9185
:101A30000F91089560E30E94F80C089561E30E94FD
:101A4000F80C0895CF93DF93EB010E945D1F8EE9A0
:101A500092E00E945D1F82E20E94191FCE010E9447
:101A60005D1F82E20E94191F84EA92E00E945D1FBE
:101A70008FEF9BE60197F1F700C0000080E0DF9157
:101A8000CF910895CF93DF93EB010E945D1F88E90A
:101A900092E00E945D1FCE010E945D1F84EA92E0E9
:101AA0000E945D1F8FEF9BE60197F1F700C00000D9
:101AB00080E0DF91CF9108950F931F93CF93DF9331
:101AC000CDB7DEB760970FB6F894DEBF0FBECDBFBF
:101AD0008C01862F4AE0BE016F5F7F4F90E00E942D
:101AE0006C26BE016F5F7F4FC8010E94420D609659
:101AF0000FB6F894DEBF0FBECDBFDF91CF911F911F
:101B00000F910895CF93DF93EB010E945D1F82E94F
:101B100092E00E945D1FCE010E945D1F84EA92E068
:101B20000E945D1F8FEF9BE60197F1F700C0000058
:101B300080E0DF91CF9108950F931F93CF93DF93B0
:101B4000CDB7DEB760970FB6F894DEBF0FBECDBF3E
:101B50008C01CB014AE0BE016F5F7F4F0E946C2673
:101B6000BE016F5F7F4FC8010E94820D60960FB665
:101B7000F894DEBF0FBECDBFDF91CF911F910F91C3
:101B800008950F931F93CF93DF93CDB7DEB7609780
:101B90000FB6F894DEBF0FBECDBF8C01CB01BA01EA
:101BA0002AE0AE014F5F5F4F0E943326BE016F5F98
:101BB0007F4FC8010E94420D60960FB6F894DEBFB9
:101BC0000FBECDBFDF91CF911F910F910895CF939D
:101BD000DF93EB010E945D1F8CE892E00E945D1F85
:101BE000CE010E945D1F84EA92E00E945D1F8FEF8C
:101BF0009BE60197F1F700C0000080E0DF91CF91F4
:101C000008950F931F93CF93DF9300D01F92CDB70A
:101C1000DEB78C01862F4AE0BE016F5F7F4F90E0F8
:101C20000E946C26BE016F5F7F4FC8010E94E70DC6
:101C30000F900F900F90DF91CF911F910F9108950A
:101C40001F920F920FB60F9211248F939F93AF9311
:101C5000BF938091800490918104A0918204B091FF
:101C600083040196A11DB11D80938004909381048B
:101C7000A0938204B0938304BF91AF919F918F9101
:101C80000F900FBE0F901F9018958FB780688FBF71
:101C900008958FB78F778FBF089582E084BD15BCFC
:101CA00016BC9CE697BD80936E000E94450E089579
:101CB00085B5856085BD089568EB72E00E940E26AB
:101CC000892B21F085E295E00E9466048EE792E080
:101CD0000E94C80C08950F931F93CF93DF93EC01DC
:101CE000259640E06BE3CE010E94B10CCE010E942C
:101CF000E5258C018091A804801731F08FEF809347
:101D0000A804CE010E94C80C8BEB92E00E947D20BB
:101D1000C80199270E94932088E593E00E947D20C6
:101D2000DF91CF911F910F91089510928404E7EBFA
:101D3000F4E085ED94E01082118212821382158204
:101D400014823696E817F907B1F70895CF92DF921B
:101D5000EF92FF920F931F93CF93DF930091840430
:101D600010E0C801049665E070E00E943225EC01A5
:101D7000FC01EE0FFF1FE80FF91FEE0FFF1FE954E4
:101D8000FB4F248135812115310509F43FC0C8017D
:101D9000059665E070E00E943225FC01EE0FFF1F02
:101DA000E80FF91FEE0FFF1FE954FB4F44815581E7
:101DB0004115510579F1BE01660F771FC60FD71F78
:101DC000CC0FDD1FC954DB4FFC01EE0FFF1FE80FE6
:101DD000F91FEE0FFF1FE954FB4F88819981AA81FB
:101DE000BB81C080D180E280F380BC01CD016C1941
:101DF0007D098E099F09241B350B40E050E00E94AD
:101E00004625A4E6B0E00E94742507C060E070E0BB
:101E1000CB0103C060E070E0CB0160937C04709361
:101E20007D0480937E0490937F04DF91CF911F9176
:101E30000F91FF90EF90DF90CF900895CF93DF93B5
:101E4000EC01259668EC72E0CE010E940E26892BEB
:101E500069F088E894E0909332058093310583E936
:101E60009CE19093AC048093AB0449C060ED72E0B8
:101E7000CE010E940E26892B69F08CE894E09093A5
:101E800032058093310583E99CE19093AC04809303
:101E9000AB0435C068ED72E0CE010E940E26892B9E
:101EA00069F080E994E0909332058093310583E9ED
:101EB0009CE19093AC048093AB0421C060EE72E08F
:101EC000CE010E940E26892B39F085E994E090938B
:101ED00032058093310513C067EE72E0CE010E9497
:101EE0000E26892B61F085E091E090933205809376
:101EF00031058CED97E19093AC048093AB04DF91B6
:101F0000CF9108954F925F926F927F929F92AF927E
:101F1000BF92CF92DF92EF92FF920F931F93CF93D6
:101F2000DF93CDB7DEB7CC5DD1090FB6F894DEBF35
:101F30000FBECDBF9090A30421E0291508F08AC000
:101F4000992009F448C08E010F5F1F4F0F2EF5ED49
:101F5000EF2EF4E0FF2EF02D6E0131EAC30ED11CFE
:101F6000AA24AA94A90CB12C8FEFA81AB80AAA0C1B
:101F7000BB1CAA0CBB1CAA0CBB1CA00EB11E0F2EB6
:101F8000412C512CF0E86F2EFFE37F2EF02DF8014D
:101F90004082518262827382F70160817181828105
:101FA00093810E94F721F801648375838683978368
:101FB000F70184819581A681B781F6018193919380
:101FC000A193B1936F01085F1F4FF8E0EF0EF11C72
:101FD0000A151B05E1F69E0127533F4F79018E013B
:101FE0000F5A1F4F20553109AE014F5F5F4F62E01E
:101FF00070E0892D90E00E9475045C018091A3043B
:10200000670198017801085D1F4F205B3F4FAE01CB
:102010004F5F5F4F62E070E090E00E94EB08EDE000
:10202000F1E0CF55DF4F88819981AA81BB81C15AE8
:10203000D04080839183A283B383CB55DF4F8881C7
:102040009981AA81BB81C55AD04084839583A68398
:10205000B7830EC0EDE0F1E010821182128213828C
:1020600080E090E0A0E8BFE384839583A683B783F4
:10207000C452DF4F0FB6F894DEBF0FBECDBFDF9165
:10208000CF911F910F91FF90EF90DF90CF90BF9075
:10209000AF909F907F906F905F904F900895A82F82
:1020A000B0E08091A304E82FF0E03197AE17BF07AE
:1020B000ACF4AA0FBB1FAA0FBB1FAA0FBB1FAB52CA
:1020C000BB4FEE0FFF1FEE0FFF1FEE0FFF1FEB5278
:1020D000FB4F98E001900D929A95E1F78150809323
:1020E000A3040895FC019091A3049923A1F0858194
:1020F000891788F40E944F108091A4048150809326
:10210000A4046091A30485ED94E00E943F0A86E850
:1021100092E00E94C80C0895CF93DF93CDB7DEB74D
:1021200028970FB6F894DEBF0FBECDBF29833A8340
:102130004B835C836D837E838F839887A091A304F8
:1021400081E08A0F8093A304B0E0AA0FBB1FAA0FFF
:10215000BB1FAA0FBB1FAB52BB4F88E0FE013196DD
:1021600001900D928A95E1F728960FB6F894DEBF9C
:102170000FBECDBFDF91CF910895CF92DF92EF9246
:10218000FF920F931F93CF93DF93CDB7DEB72897BE
:102190000FB6F894DEBF0FBECDBF2091A3042A3046
:1021A00058F5FC01F480C580D680E7808C01085F7B
:1021B0001F4F40E06BE3C8010E94B10CC8010E94B0
:1021C000E1252F2DE62F462F572F682F792F4D838E
:1021D0005E836F8378873C2D4D2D5E2D6E2F7E8123
:1021E0008F8198850E948C100E94820F6091A304B9
:1021F00085ED94E00E943F0A86E892E00E94C80CB8
:1022000028960FB6F894DEBF0FBECDBFDF91CF91F9
:102210001F910F91FF90EF90DF90CF900895FC01F8
:1022200085810E94750A0895CF930E94D30A0E9467
:102230005E0B0E947F0B0E94EF0A0E94FD0A0E9423
:10224000E10A0E94B20B0E94A40B6091A30480EFEC
:1022500092E00E945C0D8091A304882349F0C0E0C5
:102260008C2F0E94C00BCF5F8091A304C817C0F3CE
:102270000E94820FCF9108950F931F930E945801DF
:102280008B019C0160939E0470939F048093A00433
:102290009093A10440918004509181046091820444
:1022A000709183048091840490E0FC01EE0FFF1F85
:1022B000E80FF91FEE0FFF1FE954FB4F0083118356
:1022C0002283338355834483019665E070E00E9446
:1022D000322580938404C901B8011F910F9108959C
:1022E000CF93DF93CDB7DEB72A970FB6F894DEBF52
:1022F0000FBECDBF80919904811123C00E94580167
:1023000060939E0470939F048093A0049093A10413
:102310002AE0AE014F5F5F4F0E943326BE016F5F20
:102320007F4F8EE692E00E94220D40919E045091D4
:102330009F046091A0047091A10486E692E00E943F
:10234000C10D2A960FB6F894DEBF0FBECDBFDF9148
:10235000CF9108950F931F93CF93DF93CDB7DEB73F
:102360002A970FB6F894DEBF0FBECDBF80919904B7
:10237000811134C00E94580160939E0470939F04A1
:102380008093A0049093A1042AE0AE014F5F5F4FB9
:102390000E943326BE016F5F7F4F8EE692E00E945F
:1023A000220D40919E0450919F046091A004709171
:1023B000A10486E692E00E94C10D69E573E08CE518
:1023C00092E00E94220D6FE272E085E392E00E94AB
:1023D000E70D85E292E00E941A0D1EC060919504FF
:1023E0007091960480919704909198048E010F5FEC
:1023F0001F4F22E04AE00E94C125B8018CE592E01F
:102400000E94220D62E372E085E392E00E94E70DF4
:1024100085E292E00E941E0D2A960FB6F894DEBF68
:102420000FBECDBFDF91CF911F910F910895CF9334
:10243000DF9300D01F92CDB7DEB78091990490E072
:10244000019681709078992324F401978E6F9F6F85
:102450000196809399044AE0BE016F5F7F4F90E040
:102460000E946C26BE016F5F7F4F8EE392E00E9458
:10247000420D0E94AA1189E093E00E947D200F90F6
:102480000F900F90DF91CF910895CF93DF93CDE020
:10249000D1E00E94F7212C813D814E815F810E9415
:1024A0000723288139814A815B810E94C120DF9105
:1024B000CF9108958617C9F06330E1F06430F9F0E8
:1024C000623011F1613029F1653041F161112BC0A9
:1024D000682F80E00E945A129B01AC0160E070E01E
:1024E00080E89FE30E944D21089560E070E080E85D
:1024F0009FE308956AE078EE8CE191E4089562E14B
:102500007CEA80E29CE3089560E070E08AE794E46E
:10251000089567E177EB81ED98E308956EE778E140
:102520008DE090E4089560E070E080E89FE3089516
:10253000CF92DF92EF92FF92CF936B017C01C22F7B
:10254000222311F041110BC06C2F842F0E945A12CC
:102550009B01AC01C701B6010E94072307C020E020
:102560000E9498122C2F40E00E949812CF91FF9069
:10257000EF90DF90CF9008958617A9F06330C1F0F7
:102580006130D9F06230F1F0611121C0682F80E034
:102590000E94BC129B01AC0160E070E080E89FE308
:1025A0000E944D21089560E070E080E89FE3089567
:1025B00060E070E080E89FE3089569EA79E081E1F6
:1025C00093E408956FE776ED80ED9DE3089560E074
:1025D00070E080E89FE30895CF92DF92EF92FF9240
:1025E000CF936B017C01C22F222311F041110BC04C
:1025F0006C2F842F0E94BC129B01AC01C701B60155
:102600000E94072307C020E00E94EC122C2F40E01C
:102610000E94EC12CF91FF90EF90DF90CF90089541
:10262000CF93DF93C42FD22F0E9445122D2F4C2F12
:102630000E949812DF91CF9108958F929F92AF924E
:10264000BF92EF920F931F934801590123E00E941C
:102650009812A50194010E944D212E2D40E00E9468
:10266000EC121F910F91EF90BF90AF909F908F90C1
:1026700008958F929F92AF92BF92EF920F931F9304
:10268000CF93C42F480159010E944512950184013E
:102690004C2F0E941D13CF911F910F91EF90BF906F
:1026A000AF909F908F9008950F931F93CF93DF93D8
:1026B000CDB7DEB72E970FB6F894DEBF0FBECDBFF5
:1026C000FE0131968EE0DF011D928A95E9F7809137
:1026D000A70481110DC00091A60410E0C801880F65
:1026E000991F880F991F080F191F0C531C4F10C0FA
:1026F0008091A50490E08C01000F111F880F991F95
:10270000880F991F880F991F080F191F04561C4F17
:10271000B80185E492E00E94220DB8018E010F5F9E
:102720001F4FC8010E940326F80101900020E9F71D
:1027300031978FE293E7918380831282B80187E417
:1027400091E00E94220D2E960FB6F894DEBF0FBEC8
:10275000CDBFDF91CF911F910F9108956091A70494
:102760006170655E89E391E00E94010E6091A704AB
:102770006170635E8BE291E00E94010E08956091AA
:10278000040170E080E090E00E94F72120910501B3
:102790003091060140910701509108010E940723E2
:1027A00020E030E048EC52E40E944D2160930001AB
:1027B0007093010180930201909303010895809129
:1027C000A304823008F451C04091A20460919E0499
:1027D00070919F048091A0049091A104242F0E94E5
:1027E000101320910001309101014091020150919C
:1027F00003010E94022318164CF5809187040E9461
:10280000B42060E078EF88E592E00E949C0D809112
:10281000860481110CC06DEC7CEC8CEC9DE30E9475
:10282000E41E6DEC7CEC8CEC9DE30E94C31E809159
:10283000860490E0019687709078992324F401979C
:10284000886F9F6F019680938604089581E0909130
:102850008704911180E00E94B42060E070E088E578
:1028600092E00E949C0D109286040895EF920F93BF
:102870001F938091A304823050F18091A7048111AD
:102880000FC060919E0470919F048091A00490916C
:10289000A1042091A6044091A2040E9410131BC021
:1028A0000091090110910A0120910B0130910C0156
:1028B00060919E0470919F048091A0049091A10466
:1028C000E090A5044091A2040E94391304C060E086
:1028D00070E080EC9FE71F910F91EF900895809139
:1028E000A70481110DC08091A60490E09C01220FE5
:1028F000331F220F331F820F931F8C539C4F089559
:102900002091A50430E0C901880F991F220F331FC1
:10291000220F331F220F331F820F931F84569C4FA9
:102920000895CF92DF92EF92FF928091A3048230BC
:1029300018F14091A20460919E0470919F048091CF
:10294000A0049091A104242F0E9410136B017C011C
:1029500020919A0430919B0440919C0450919D04D5
:102960000E940223181644F4C0929A04D0929B0449
:10297000E0929C04F0929D04FF90EF90DF90CF9046
:102980000895EF920F931F938091A304823050F12A
:102990008091A70481110FC060919A0470919B04EB
:1029A00080919C0490919D042091A6044091A204E2
:1029B0000E9498121BC00091090110910A012091F8
:1029C0000B0130910C0160919A0470919B048091ED
:1029D0009C0490919D04E090A5044091A2040E9463
:1029E0001D1304C060E070E080EC9FE71F910F9121
:1029F000EF9008958F929F92AF92BF92CF92DF9205
:102A0000EF92FF920F931F938091A304823008F4FA
:102A10005CC08091A704811127C060917C047091F3
:102A20007D0480917E0490917F040E94F7216B01C8
:102A30007C01EDE0F1E024813581468157816081A0
:102A40007181828193810E944D219B01AC01C7015C
:102A5000B6010E94C0200E94BF212091A60440918F
:102A6000A2040E94101334C08090090190900A01C2
:102A7000A0900B01B0900C0160917C0470917D04DA
:102A800080917E0490917F040E94F7216B017C016C
:102A9000EDE0F1E0248135814681578160817181CB
:102AA000828193810E944D219B01AC01C701B60137
:102AB0000E94C0200E94BF21E090A50495018401DE
:102AC0004091A2040E94391303C060E070E0CB0182
:102AD0001F910F91FF90EF90DF90CF90BF90AF903C
:102AE0009F908F9008950F931F93CF93DF93CDB74F
:102AF000DEB72A970FB6F894DEBF0FBECDBF0E9497
:102B0000E20222E030E08E010F5F1F4FA8010E9419
:102B1000E50BF80101900020E9F731978AEB93E487
:102B2000918380831282B80182E591E00E94220D98
:102B30002A960FB6F894DEBF0FBECDBFDF91CF91BE
:102B40001F910F9108954F925F926F927F928F9293
:102B50009F92AF92BF92CF92DF92EF92FF920F932C
:102B60001F93CF93DF93CDB7DEB760970FB6F8947E
:102B7000DEBF0FBECDBFFE01319680E1DF011D92A9
:102B80008A95E9F70E943C110E9491140E94A60EBA
:102B90000E9436146B017C010E94C1142B013C0180
:102BA0000E94FA144B015C01A7019601C701B6010E
:102BB0000E940A24811121C022E030E0AE014F5F63
:102BC0005F4FC701B6010E94E50BBE016F5F7F4FEB
:102BD00088E592E00E94220D22E030E0AE014F5FD6
:102BE0005F4FC301B2010E94E50BBE016F5F7F4FD3
:102BF0008FE492E00E94220D0CC066E173E088E54C
:102C000092E00E94220D66E173E08FE492E00E9460
:102C1000220D21E030E08E010F5F1F4FA801C5019A
:102C2000B4010E94E50B0E946F14BC01C8010E9410
:102C30000326F80101900020E9F731978FE293E72E
:102C4000918380831282B8018BE591E00E94220D6E
:102C500060960FB6F894DEBF0FBECDBFDF91CF9167
:102C60001F910F91FF90EF90DF90CF90BF90AF90AA
:102C70009F908F907F906F905F904F900895CF932B
:102C8000DF938091A3048230D8F04091A204609138
:102C90009E0470919F048091A0049091A104242F20
:102CA0000E9410139B01AC01CDE0D1E068817981D5
:102CB0008A819B810E94C020688379838A839B8359
:102CC0000E94A315DF91CF91089510929A0410925B
:102CD0009B0410929C0410929D040E94A3150895D9
:102CE0000E94AE130E9454130E94A3150E947315F4
:102CF000089569E173E00E940E26892B71F080919E
:102D0000A70490E0039681709078992324F40197AA
:102D10008E6F9F6F01968093A7048091A7040E94F5
:102D20007B0A0E9470160895CF93DF93EC01809187
:102D3000A704811130C066E173E0CE010E940E2627
:102D4000892B79F08091A60490E00796877090789F
:102D5000992324F40197886F9F6F01968093A604AE
:102D600015C069E173E0CE010E940E26892B71F037
:102D70008091A60490E0099687709078992324F4B6
:102D80000197886F9F6F01968093A6048091A60497
:102D90000E94750A2FC066E173E0CE010E940E26E4
:102DA000892B79F08091A50490E003968370907848
:102DB000992324F401978C6F9F6F01968093A5044B
:102DC00015C069E173E0CE010E940E26892B71F0D7
:102DD0008091A50490E0059683709078992324F45F
:102DE00001978C6F9F6F01968093A5048091A50435
:102DF0000E94810A0E947016DF91CF9108950F936F
:102E00001F93CF93DF93CDB7DEB72A970FB6F89411
:102E1000DEBF0FBECDBF8E010F5F1F4F8AE0F801EE
:102E200011928A95E9F760910501709106018091F0
:102E300007019091080121E030E0A8010E94E50B14
:102E4000B8018BE891E00E94220D6091A20470E02D
:102E5000CB01880F991F880F991F680F791F6C533A
:102E60007C4F88EF91E00E94220D6091870470E012
:102E70006F5F7F4F61707078772334F46150710910
:102E80006E6F7F6F6F5F7F4F675F85E891E00E9495
:102E9000010E609187046170675F80E891E00E9495
:102EA000010E609185046170675E85E691E00E9485
:102EB000010E4091040150E060E070E087E791E08E
:102EC0000E94C10D809104014AE08E010F5F1F4FE7
:102ED000B80190E00E946C26F80101900020E9F70B
:102EE000319785E290E091838083B8018FE691E08D
:102EF0000E94220D2A960FB6F894DEBF0FBECDBFFA
:102F0000DF91CF911F910F91089569E173E00E94C5
:102F10000E26892B71F08091850490E003968170D4
:102F20009078992324F401978E6F9F6F0196809378
:102F300085040E94C00A0E94FF160895CF93DF9374
:102F4000EC01289640E06BE3CE010E94B10CCE016B
:102F50000E94E525809387048CE193E00E947D2008
:102F60008091870490E00E94932088E593E00E947E
:102F70007D200E94C00A0E94FF16DF91CF91089524
:102F8000CF93DF93FC01C781D085C093040187E311
:102F900093E00E947D208C2F9D2F0E94932087E537
:102FA00093E00E947D200E94C00A0E94BF130E94ED
:102FB000FF16DF91CF9108950E94B30A0E94BF13BC
:102FC0000E94FF1608950F931F93CF93DF9300D0B5
:102FD00000D0CDB7DEB719821A821B821C8205E2AF
:102FE00015E0F80182819BE28902912D11249595CB
:102FF000959587FD9395F8E19F9F801911244AE0EC
:10300000BE016F5F7F4F082E000C990B0E946C264B
:10301000BE016F5F7F4F8DE191E00E94220DF801AC
:1030200081816CE30E9424254AE0BE016F5F7F4FDF
:10303000892F990F990B0E946C26BE016F5F7F4FFD
:1030400087E191E00E94220D0F900F900F900F905A
:10305000DF91CF911F910F910895CF93DF93EC01F2
:1030600069E173E00E940E26892B31F0E5E2F5E07C
:1030700082818F5F82830CC066E173E0CE010E9483
:103080000E26892B29F0E5E2F5E0828181508283CA
:10309000E5E2F5E092818BE29802812D112485957D
:1030A000859597FD839528E1829F9019112492833D
:1030B0000E94E317DF91CF910895CF93DF93EC0146
:1030C00069E173E00E940E26892B31F0E5E2F5E01C
:1030D00081818F5F81830CC066E173E0CE010E9425
:1030E0000E26892B29F0E5E2F5E08181815081836C
:1030F000E5E2F5E081816CE30E94242591830E9442
:10310000E317DF91CF910895EF92FF920F931F93F2
:10311000CF93DF93CDB7DEB768970FB6F894DEBFD5
:103120000FBECDBF8091A304811107C06AE573E093
:1031300089E192E00E94220D7DC0CE0101967C01C2
:1031400084E1F70111928A95E9F78091A40490E057
:103150004AE0BE016B5E7F4F01960E946C26D7014C
:103160000D900020E9F7119787E0E9E6F3E0019080
:103170000D928A95E1F7BE016B5E7F4FC7010E94F9
:103180000326D7010D900020E9F7119785E0E0E7CD
:10319000F3E001900D928A95E1F78091A3044AE053
:1031A000BE016B5E7F4F90E00E946C26BE016B5E9D
:1031B0007F4FC7010E940326C7010E947D2088E53A
:1031C00093E00E947D20B70189E192E00E94220DE8
:1031D0006091A4048AE092E00E945C0DE091A40456
:1031E000F0E0EE0FFF1FEE0FFF1FEE0FFF1FEB5281
:1031F000FB4F6481758186819781870122E049E0D8
:103200000E94C125C7010E947D2088E593E00E94AD
:103210007D20B70180E092E00E94220D86EE91E0D1
:103220000E941E0D8FEE91E00E941E0D83EC91E036
:103230000E941E0D6091A20470E0CB01880F991FBF
:10324000880F991F680F791F6C537C4F88EF91E0AE
:103250000E94220D8CEC91E00E941E0D89ED91E000
:103260000E941E0D68960FB6F894DEBF0FBECDBF4C
:10327000DF91CF911F910F91FF90EF9008950F93E1
:103280001F93CF93DF93C091A304CC2361F18C01F2
:10329000D091A40466E173E00E940E26892B61F0B0
:1032A0006C2F70E08D2F90E00197860F971F0E9482
:1032B00032258093A40412C069E173E0C8010E9422
:1032C0000E26892B81F06C2F70E08D2F90E00196F7
:1032D000860F971F0E9432258093A4048091A40436
:1032E000D8130E948418DF91CF911F910F910895F8
:1032F000CF93DF93EC0166E173E00E940E26892BE9
:1033000079F08091A20490E00796877090789923D5
:1033100024F40197886F9F6F01968093A20415C0D3
:1033200069E173E0CE010E940E26892B71F0809135
:10333000A20490E0099687709078992324F401976D
:10334000886F9F6F01968093A20485E793E00E94A7
:103350007D208091A20490E09C01220F331F220F58
:10336000331F820F931F8C539C4F0E947D2088E552
:1033700093E00E947D208091A2040E946F0A0E9427
:103380008418DF91CF9108954F925F926F927F9250
:103390008F929F92AF92BF92CF92DF92EF92FF9265
:1033A0000F931F93CF93DF93CDB7DEB764970FB61C
:1033B000F894DEBF0FBECDBF4A015B012801390181
:1033C000811107C09A01AB01C501B4010E94072316
:1033D000F3C0813039F4A9019801C501B4010E94FC
:1033E0000723EAC0823069F42BED3FE049E45FE354
:1033F000C501B4010E940723A50194010E9407237F
:10340000DBC08330B9F42BED3FE049E450E4C30165
:10341000B2010E9407236B017C01A3019201C50147
:10342000B4010E94C0209B01AC01C701B6010E94FB
:103430000723C2C0843009F0BBC020E030E040E880
:103440005EE3C701B6010E9407236D837E838F83ED
:103450009887A5019401C501B4010E9407236987DB
:103460007A878B879C87A7019601C701B6010E94C6
:10347000072369837A838B839C839B01AC016985D5
:103480007A858B859C850E94C02020E030E040E05A
:103490005FE30E947423698B7A8B8B8B9C8BA501D5
:1034A0009401C701B6010E944D210E942D216D8714
:1034B0007E878F87988BA3019201C301B2010E947E
:1034C000C1209B01AC01C501B4010E94C0204B0189
:1034D0005C019B01AC010E94072329813A814B8149
:1034E0005C810E94C02020E030E040E05FE30E9469
:1034F000742369837A838B839C8320E030E040E0EF
:103500005FE3C501B4010E9407232B013C01A50123
:103510009401C701B6010E944D210E942D216B012B
:103520007C0120E030E040E85EE369857A858B85A8
:103530009C850E9407232D853E854F8558890E94D2
:1035400007234B015C0129893A894B895C896D818C
:103550007E818F8198850E9407239B01AC01C50164
:10356000B4010E94C1204B015C0129813A814B8149
:103570005C816D817E818F8198850E9407239B01EC
:10358000AC01C501B4010E94C0204B015C01A30144
:103590009201C301B2010E940723A70196010E9474
:1035A00007239B01AC01C501B4010E94C02004C0E7
:1035B00060E070E080E89FE364960FB6F894DEBFA9
:1035C0000FBECDBFDF91CF911F910F91FF90EF9074
:1035D000DF90CF90BF90AF909F908F907F906F9033
:1035E0005F904F900895EF92FF920F931F93CF93A8
:1035F000DF93CDB7DEB72A970FB6F894DEBF0FBEC4
:10360000CDBF60919404615F8AEB91E00E94010E4E
:1036100084E291E00E94E00C90919404892F8D7FC8
:1036200069F480EB91E00E941E0D86EA91E00E9411
:103630001A0D8CE991E00E941A0D2AC0813069F4BC
:1036400080EB91E00E941E0D86EA91E00E941E0D23
:103650008CE991E00E941A0D1BC0943069F480EB54
:1036600091E00E941E0D86EA91E00E941E0D8CE9F9
:1036700091E00E941E0D0CC080EB91E00E941A0D9B
:1036800086EA91E00E941A0D8CE991E00E941A0DE1
:1036900085E991E00E941E0D0F2EF8E8EF2EF4E070
:1036A000FF2EF02DF70160817181828193818E015F
:1036B0000F5F1F4F21E047E00E94C125B80180EB5A
:1036C00091E00E94220DF7016481758186819781C6
:1036D00021E047E00E94C125B80186EA91E00E94FE
:1036E000220DF701608571858285938521E047E091
:1036F0000E94C125B8018CE991E00E94220D6091E1
:10370000090170910A0180910B0190910C0121E057
:1037100047E00E94C125B80185E991E00E94220D91
:103720002A960FB6F894DEBF0FBECDBFDF91CF91C2
:103730001F910F91FF90EF900895CF92DF92EF923B
:10374000FF920F931F93CF93DF93EC0166E173E039
:103750000E940E26892B59F08091940490E00197E5
:1037600066E070E00E9432258093940411C069E104
:1037700073E0CE010E940E26892B51F080919404B3
:1037800090E0019666E070E00E94322580939404F8
:10379000E8E8F4E080E090E0A0E8BFE38083918374
:1037A000A283B38384839583A683B783808791871D
:1037B000A287B387C09194046C017D018C019D01A7
:1037C000AC01BD018C2F0E94C41960930901709354
:1037D0000A0180930B0190930C018C2F0E94870AA1
:1037E0000E948D0A0E94F31ADF91CF911F910F91D1
:1037F000FF90EF90DF90CF900895CF93DF93EC018F
:103800006AE872E00E940E26892B81F081E08093A5
:10381000A80410927C0410927D0410927E041092F1
:103820007F040E94950E0E9470166DC066E872E0DB
:10383000CE010E940E26892B31F083E08093A804EC
:103840000E94841860C060E872E0CE010E940E26DB
:10385000892B31F087E08093A8040E94FF1653C0A3
:1038600068E872E0CE010E940E26892B21F082E0EA
:103870008093A80448C062E872E0CE010E940E2640
:10388000892B51F08091A8048530E9F185E080937F
:10389000A8040E94F31A37C064E872E0CE010E94C7
:1038A0000E26892BE1F08091A8048430A9F084E0F1
:1038B0008093A80410929504109296041092970495
:1038C0001092980410929E0410929F041092A004EB
:1038D0001092A104109299040E94AA1114C06CE7DE
:1038E00072E0CE010E940E26892B51F089E0809370
:1038F000A80485E295E00E942E030E94E31703C00E
:1039000081E08093A80480E893E00E947D2080916C
:10391000A80490E00E94932088E593E00E947D2017
:10392000DF91CF910895CF92DF92EF92FF920F93A4
:103930001F93E8E8F4E0C084D184E284F384048136
:103940001581268137814081518162817381809107
:1039500094040E94C4196093090170930A01809332
:103960000B0190930C010E948D0A0E94F31A1F9183
:103970000F91FF90EF90DF90CF9008951092AC04DC
:103980001092AB04109232051092310508950E94F6
:10399000C11E0E94442060E875E280E090E00E9431
:1039A000011F80E00E944D010E9493010E941411AA
:1039B0000E94BE1C81E090918704911180E00E94DA
:1039C000BC202FEF8FEF9AE1215080409040E1F72B
:1039D00000C000000E944D0E0E94580E8AE892E03E
:1039E0000E94C80C82EE93E00E947D200895CF9241
:1039F000DF92EF92FF9205960E94E1256B017C0118
:103A00009B01AC010E940A24811111C0E091310593
:103A1000F0913205309759F0C082D182E282F38270
:103A2000E091AB04F091AC04309709F009950E9445
:103A3000BE1CFF90EF90DF90CF9008950F931F93DF
:103A4000CF93DF93CDB7DEB7A4970FB6F894DEBF60
:103A50000FBECDBF8E010F5F1F4F82C1B8018BE338
:103A60000E9432208BE893E00E947D20C8010E94D2
:103A70007D2088E593E00E947D2066E774E0C80120
:103A80000E940E260817190751F46DEC7CEC8CECA3
:103A90009DE30E94C31EC8010E940F1161C162E430
:103AA00074E0C8010E940E260817190751F46DEC46
:103AB0007CEC8CEC9DE30E94C31EC8010E946B0E3F
:103AC0004FC160E774E0C8010E940E26081719076D
:103AD00021F4C8010E94FD1B43C168E474E0C801E1
:103AE0000E940E260817190751F46DEC7CEC8CEC43
:103AF0009DE30E94C31EC8010E94171231C16DE3ED
:103B000074E0C8010E940E260817190751F46DECE5
:103B10007CEC8CEC9DE30E94C31EC8010E94BD108A
:103B20001FC166E374E0C8010E940E26081719073A
:103B300051F46DEC7CEC8CEC9DE30E94C31EC8013B
:103B40000E943F190DC166E674E0C8010E940E266E
:103B50000817190751F46DEC7CEC8CEC9DE30E9486
:103B6000C31EC8010E947819FBC068E274E0C80156
:103B70000E940E260817190751F46DEC7CEC8CECB2
:103B80009DE30E94C31EC8010E947210E9C06EE24C
:103B900074E0C8010E940E260817190751F46DEC55
:103BA0007CEC8CEC9DE30E94C31EC8010E949D1B0F
:103BB000D7C062E274E0C8010E940E2608171907F8
:103BC00051F46DEC7CEC8CEC9DE30E94C31EC801AB
:103BD0000E941E0FC5C06CE174E0C8010E940E2651
:103BE0000817190751F46DEC7CEC8CEC9DE30E94F6
:103BF000C31EC8010E94F71CB3C06EE474E0C80184
:103C00000E940E260817190751F46DEC7CEC8CEC21
:103C10009DE30E94C31EC8010E947916A1C06BE5F6
:103C200074E0C8010E940E260817190751F46DECC4
:103C30007CEC8CEC9DE30E94C31EC8010E9494168C
:103C40008FC063E174E0C8010E940E2608171907AF
:103C500051F46DEC7CEC8CEC9DE30E94C31EC8011A
:103C60000E949E177DC06BE074E0C8010E940E2682
:103C70000817190751F46DEC7CEC8CEC9DE30E9465
:103C8000C31EC8010E94C0176BC063E074E0C80186
:103C90000E940E260817190751F46DEC7CEC8CEC91
:103CA0009DE30E94C31EC8010E94851759C06EEF94
:103CB00073E0C8010E940E260817190751F46DEC35
:103CC0007CEC8CEC9DE30E94C31EC8010E943F1651
:103CD00047C069EF73E0C8010E940E260817190754
:103CE00051F46DEC7CEC8CEC9DE30E94C31EC8018A
:103CF0000E94651635C063EF73E0C8010E940E266E
:103D00000817190751F46DEC7CEC8CEC9DE30E94D4
:103D1000C31EC8010E942D1823C06EEE73E0C801B7
:103D20000E940E260817190751F46DEC7CEC8CEC00
:103D30009DE30E94C31EC8010E945D1811C069EE78
:103D400073E0C8010E940E260817190749F46DECAC
:103D50007CEC8CEC9DE30E94C31EC8010E945C0EAB
:103D60008BE30E94E11F019609F078CEA4960FB66E
:103D7000F894DEBF0FBECDBFDF91CF911F910F91A1
:103D800008953C9A089520E030E046E154E40E9412
:103D900007230E94C621611571058105910599F0DF
:103DA000449AE6EFF8E03197F1F700C0000044983C
:103DB000E6EFF8E03197F1F700C0000061507109BB
:103DC0008109910969F7089520E030E04AEF54E451
:103DD0000E9407230E94C621611571058105910586
:103DE00079F0449AE3EBF2E03197F1F74498E3EB92
:103DF000F2E03197F1F7615071098109910989F772
:103E0000089580E090E0FC01ED5CFA4F108201968D
:103E100088319105C1F71092C50087E48093C400F2
:103E200088E98093C10086E08093C2000E94450E1D
:103E30000895E0ECF0E0908195FFFDCF8093C600FF
:103E40000895E0ECF0E080818823ECF78091C600D3
:103E500008951F920F920FB60F9211242F933F9344
:103E60004F935F936F937F938F939F93AF93BF9382
:103E7000EF93FF930E94211FE091A904F0E0ED5C15
:103E8000FA4F80838091A90490E0019668E170E088
:103E90000E9432258093A904FF91EF91BF91AF91C9
:103EA0009F918F917F916F915F914F913F912F9152
:103EB0000F900FBE0F901F901895CF93DF93EC01DA
:103EC0008881882331F021960E94191F89918111E0
:103ED000FBCFDF91CF910895EF92FF920F931F9345
:103EE000CF93DF93EC018B010E94490E28E130E073
:103EF0008091A9044091AA0490E0841B91094896FE
:103F0000B9010E9432258C179D0790F3209769F123
:103F1000F80140E050E08091AA047A01E80EF11C1B
:103F20009701ABEABAEA0E946525929582958F7057
:103F300089279F7089279C01220F331F820F931FAF
:103F4000880F991F880F991F880F991F9701281BA9
:103F5000390BD901AD5CBA4F8C9181934F5F5F4FA4
:103F6000C417D507C1F6CE0101C0CE01F801E80F94
:103F7000F91F10828091AA04C80FD11D9E01ABEADF
:103F8000BAEA0E946525929582958F7089279F7065
:103F900089279C01220F331F820F931F880F991FBF
:103FA000880F991F880F991FC81BD90BC093AA04AB
:103FB0000E94450EDF91CF911F910F91FF90EF90DE
:103FC00008950F931F93CF93DF93482F8091A904F7
:103FD0002091AA0490E0821B9109489668E170E064
:103FE0000E943225882371F1EC01DD271C161D0685
:103FF00064F58091AA0490E068E170E00E943225A7
:10400000FC01ED5CFA4F8081481711F120E030E0AF
:1040100008E110E00FC09091AA04B901690F711D69
:10402000CB01B8010E943225FC01ED5CFA4F908172
:10403000941789F02F5F3F4F2C173D0761F78FEFE3
:104040009FEF0BC08FEF9FEF08C08FEF9FEF05C072
:1040500080E090E002C0822F932FDF91CF911F91DB
:104060000F9108950F931F93CF93C82F8B018C2F1F
:104070000E94E11F8F5FD9F3B80190E00E946C1F8E
:10408000CF911F910F910895539AE1E8F0E080815C
:104090008860808380E894E0909389008093880012
:1040A0000895E1E8F0E090819E7F9083882311F0ED
:1040B0005B9A01C05B98E1E8F0E0808181608083D9
:1040C000B19BFECFB19AE1E8F0E080818E7F8083E2
:1040D0000895CF93DF93D82F80E00E945120C8E04D
:1040E0008D2F81700E945120D695C150C9F781E073
:1040F0000E945120DF91CF9108950F931F93CF938A
:10410000FC018081882359F08F01C0E00E94692062
:10411000CF5FF801EC0FF11D80818111F7CFCF91B6
:104120001F910F910895CF93DF93CDB7DEB76097BE
:104130000FB6F894DEBF0FBECDBF4AE0BE016F5F81
:104140007F4F0E942826CE0101960E947D20609616
:104150000FB6F894DEBF0FBECDBFDF91CF910895AB
:10416000289A089528980895882319F00E94B0206D
:1041700008950E94B2200895209A0E94B4200895C4
:104180005058BB27AA270E94D8200C94C8220E940E
:10419000BA2238F00E94C12220F039F49F3F19F46E
:1041A00026F40C947C220EF4E095E7FB0C94762226
:1041B000E92F0E94D92258F3BA17620773078407C0
:1041C000950720F079F4A6F50C94FB220EF4E09507
:1041D0000B2EBA2FA02D0B01B90190010C01CA01C1
:1041E000A0011124FF27591B99F0593F50F4503E6C
:1041F00068F11A16F040A22F232F342F4427585F5E
:10420000F3CF469537952795A795F0405395C9F775
:104210007EF41F16BA0B620B730B840BBAF091502D
:10422000A1F0FF0FBB1F661F771F881FC2F70EC0CC
:10423000BA0F621F731F841F48F48795779567959F
:10424000B795F7959E3F08F0B0CF9395880F08F08B
:104250009927EE0F9795879508959F939F77EEE3A3
:1042600089379E0728F4E8E6F0E00E94A6220CC0F9
:104270000E9432229058A2EA2AED3FE049EC5FE327
:104280000E94D8200E94C8220F9007FC90580895E1
:104290000E94522208F481E008950E9461210C944A
:1042A000C8220E94C12258F00E94BA2240F029F48C
:1042B0005F3F29F00C94762251110C94FC220C944F
:1042C0007C220E94D92268F39923B1F3552391F3FC
:1042D000951B550BBB27AA2762177307840738F075
:1042E0009F5F5F4F220F331F441FAA1FA9F335D0D2
:1042F0000E2E3AF0E0E832D091505040E695001C86
:10430000CAF72BD0FE2F29D0660F771F881FBB1F3F
:10431000261737074807AB07B0E809F0BB0B802D1D
:10432000BF01FF2793585F4F3AF09E3F510578F049
:104330000C9476220C94FC225F3FE4F3983ED4F375
:10434000869577956795B795F7959F5FC9F7880F1D
:10435000911D9695879597F90895E1E0660F771F6F
:10436000881FBB1F621773078407BA0720F0621B00
:10437000730B840BBA0BEE1F88F7E09508950E942B
:10438000C6216894B1110C94FC2208950E94E12288
:1043900088F09F5798F0B92F9927B751B0F0E1F006
:1043A000660F771F881F991F1AF0BA95C9F714C0B6
:1043B000B13091F00E94FB22B1E008950C94FB22F1
:1043C000672F782F8827B85F39F0B93FCCF38695EF
:1043D00077956795B395D9F73EF49095809570954C
:1043E00061957F4F8F4F9F4F0895E89409C097FBC9
:1043F0003EF490958095709561957F4F8F4F9F4FBC
:104400009923A9F0F92F96E9BB279395F6958795FF
:1044100077956795B795F111F8CFFAF4BB0F11F4C2
:1044200060FF1BC06F5F7F4F8F4F9F4F16C0882369
:1044300011F096E911C0772321F09EE8872F762F9F
:1044400005C0662371F096E8862F70E060E02AF0E0
:104450009A95660F771F881FDAF7880F96958795CC
:1044600097F90895DF93CF931F930F938B01EC017E
:10447000ECE7F0E00E947F220E94C8229801AE0182
:104480008B01EC0160E070E080E89FE30E94C020B7
:104490000E94CA239801AE010F911F91CF91DF9125
:1044A0000C941A23990F0008550FAA0BE0E8FEEFB1
:1044B00016161706E807F907C0F012161306E407E8
:1044C000F50798F0621B730B840B950B39F40A26E1
:1044D00061F0232B242B252B21F408950A2609F4BF
:1044E000A140A6958FEF811D811D089597F99F67C3
:1044F00080E870E060E008959FEF80EC0895DF931E
:10450000CF931F930F93FF92EF92DF927B018C0169
:10451000689406C0DA2EEF010E941A23FE01E89487
:10452000A5912591359145915591A6F3EF010E94F2
:10453000D820FE019701A801DA9469F7DF90EF9087
:10454000FF900F911F91CF91DF9108959F938F93CB
:104550007F936F93FF93EF939B01AC010E9407231E
:10456000EF91FF910E947F222F913F914F915F9198
:104570000C94072300240A94161617061806090639
:10458000089500240A9412161306140605060895C9
:10459000092E0394000C11F4882352F0BB0F40F451
:1045A000BF2B11F460FF04C06F5F7F4F8F4F9F4F91
:1045B000089557FD9058440F551F59F05F3F71F013
:1045C0004795880F97FB991F61F09F3F79F087957A
:1045D0000895121613061406551FF2CF4695F1DF03
:1045E00008C0161617061806991FF1CF8695710593
:1045F000610508940895E894BB2766277727CB01C7
:1046000097F908950E94522208F48FEF08950E94AE
:104610001A230C94C8220E94BA2238F00E94C122A8
:1046200020F0952311F00C9476220C947C22112416
:104630000C94FC220E94D92270F3959FC1F3950F30
:1046400050E0551F629FF001729FBB27F00DB11D16
:10465000639FAA27F00DB11DAA1F649F6627B00DA6
:10466000A11D661F829F2227B00DA11D621F739F8F
:10467000B00DA11D621F839FA00D611D221F749F9D
:104680003327A00D611D231F849F600D211D822FE4
:10469000762F6A2F11249F5750409AF0F1F088230B
:1046A0004AF0EE0FFF1FBB1F661F771F881F915038
:1046B0005040A9F79E3F510580F00C9476220C944F
:1046C000FC225F3FE4F3983ED4F386957795679597
:1046D000B795F795E7959F5FC1F7FE2B880F911D62
:1046E0009695879597F90895FA01EE0FFF1F30967A
:1046F00021053105A1F16115710561F48038BFE331
:104700009B0749F168949038810561F08038BFEFCC
:104710009B0741F099234AF5FF3FE105310521054B
:1047200019F1E8940894E795D901AA2329F4AB2F4D
:10473000BE2FF85FD0F310C0FF5F70F4A695E0F7CE
:10474000F73950F019F0FF3A38F49F779F930DD066
:104750000F9007FC9058089546F00C947C2260E07E
:1047600070E080E89FE308954FE79F775F934F9352
:104770003F932F930E94A8242F913F914F915F91D7
:104780000E9407230C94172419F416F40C947C222D
:104790000C9449240E94E122B8F39923C9F3B6F39B
:1047A0009F57550B87FF0E9457240024A0E640EA3C
:1047B000900180585695979528F4805C660F771F76
:1047C000881F20F026173707480730F4621B730B49
:1047D000840B202931294A2BA6951794079420256C
:1047E00031254A2758F7660F771F881F20F02617B4
:1047F0003707480730F4620B730B840B200D311D13
:10480000411DA09581F7B901842F9158880F969585
:10481000879508950E945222880B990B089529F4D8
:1048200016F00C9476220C94FB220C947C220E94AD
:10483000E122A8F39638A0F707F80F92E8942BE34B
:104840003AEA48EB5FE70E941D230F920F920F9206
:104850004DB75EB70F920E94F024E4EAF0E00E94A8
:104860007F224F915F91EF91FF91E595EE1FFF1F22
:1048700049F0FE57E0684427EE0F441FFA95E1F730
:104880004195550B0E946A240F9007FE0C945E24FC
:1048900008959F3F31F0915020F487957795679563
:1048A000B795880F911D9695879597F90895915022
:1048B0005040660F771F881FD2F708959B01AC0107
:1048C00060E070E080E89FE30C944D210C94762228
:1048D0000C9449240E94E122D8F39923C9F3940F40
:1048E000511DA3F39150504094F059F0882332F0B9
:1048F000660F771F881F91505040C1F79E3F5105AA
:104900002CF7880F911D9695879597F908955F3F2D
:10491000ACF0983E9CF0BB27869577956795B79548
:1049200008F4B1609395C1F7BB0F58F711F460FF1D
:10493000E8CF6F5F7F4F8F4F9F4FE3CF0C94FC22E8
:1049400016F00C9449240C947C2268940C947622E2
:104950000E94E122A8F39923C1F3AEF3DF93CF9332
:104960001F930F93FF92C92FDD2788232AF02197E9
:10497000660F771F881FDAF720E030E040E85FEB32
:104980009FE3883920F0803E38F021968F770E948F
:10499000C120ECECF0E004C00E94C120E9EFF0E09F
:1049A0000E947F228B01BE01EC01FB2E6F57710923
:1049B0007595771F880B990B0E94F72128E132E744
:1049C00041E35FE30E941A23AF2D9801AE01FF90EF
:1049D0000F911F91CF91DF910E94D8200C94C82293
:1049E000FA01DC01AA0FBB1F9B01AC01BF5728F4E1
:1049F000222733274427507820C0B75190F4AB2F9B
:104A00000024469537952795011CA395D2F30020E5
:104A100071F0220F331F441FB395DAF30ED00C94BC
:104A2000C02061307105A0E88A07B94630F49B01C7
:104A3000AC016627772788279078309621F020836D
:104A4000318342835383089587FB082E062687FD12
:104A5000819567FD61950E947F250EF4919507FC75
:104A60008195089597FB072E16F4009407D077FDE3
:104A700009D00E948B2507FC05D03EF490958195C6
:104A80009F4F0895709561957F4F0895052E97FB70
:104A90001EF400940E945D2557FD07D00E949F25BB
:104AA00007FC03D04EF40C945D255095409530954D
:104AB00021953F4F4F4F5F4F08959095809570958A
:104AC00061957F4F8F4F9F4F0895A29FB001B39F75
:104AD000C001A39F700D811D1124911DB29F700D07
:104AE000811D1124911D08950E946525A59F900D9B
:104AF000B49F900DA49F800D911D11240895991BC2
:104B000079E004C0991F961708F0961B881F7A95C4
:104B1000C9F780950895AA1BBB1B51E107C0AA1FC6
:104B2000BB1FA617B70710F0A61BB70B881F991F4E
:104B30005A95A9F780959095BC01CD010895A1E201
:104B40001A2EAA1BBB1BFD010DC0AA1FBB1FEE1F07
:104B5000FF1FA217B307E407F50720F0A21BB30B52
:104B6000E40BF50B661F771F881F991F1A9469F7CE
:104B700060957095809590959B01AC01BD01CF012A
:104B80000895EF920F931F93CF93DF93E80147FDB2
:104B900002C034E001C034E1042E000C550B57FF75
:104BA00003C0519541955109E32E022F242FAE01E8
:104BB0000E948626CE01DF91CF911F910F91EF9039
:104BC0000895662777270C94E027FC01882799270A
:104BD000E89421912032E9F3293010F02E30C8F307
:104BE0002B3241F02D3239F4689404C00E944226E1
:104BF000820F911D219120532A30C0F31EF490950D
:104C000081959F4F0895FB01DC010D900020E9F78D
:104C1000119701900D920020E1F70895FB01519149
:104C20005523A9F0BF01DC014D9145174111E1F772
:104C300059F4CD010190002049F04D9140154111EA
:104C4000C9F3FB014111EFCF81E090E00197089596
:104C5000BB274A3031F4992322F4BDE29095819527
:104C60009F4F0C946D26BB272A3051F4992342F4B0
:104C7000BDE290958095709561957F4F8F4F9F4FC6
:104C80000C944B267AE0979F902D879F802D910D55
:104C900011240895BB27FA01A62F6217710581051B
:104CA0009105330B30FB66F0AA27660F771F881F2C
:104CB000991FAA1FA21710F0A21B63953850A9F7DD
:104CC000A05DAA3308F0A95DA19336F7B111B193A5
:104CD0001082CA010C94272ABB27FB015527AA275B
:104CE000880F991FAA1FA41710F0A41B8395505179
:104CF000B9F7A05DAA3308F0A95DA193009779F7F1
:104D0000B111B1931192CB010C94272AA9E0B0E024
:104D1000ECE8F6E20C94792A6A01122FB02E2BE30C
:104D2000201720F0FF24F394F00E02C02CE3F22EA3
:104D30000F2D27E0AE014F5F5F4F0E942E29BC016F
:104D40004981842F8970813031F0E1FC06C0E0FE9A
:104D500006C090E205C09DE203C09BE201C090E066
:104D60005E2D507143FF3CC0911102C083E001C031
:104D700084E0811718F4212F281B01C020E0511175
:104D80000BC0F601822F30E2882319F03193815055
:104D9000FBCFC20ED11C20E0992329F0D6019C93B1
:104DA000F60131966F01C6010396E2FE0AC03EE4A9
:104DB000D6013C9341E411964C93119712963C9383
:104DC00006C03EE6F601308341E641833283FC01B2
:104DD000322F40E2332309F442C041933150FACFDD
:104DE00042FF44C0911102C083E001C084E08117FA
:104DF00018F4212F281B01C020E051110BC0F6012F
:104E0000822F30E2882319F031938150FBCFC20EFC
:104E1000D11C20E0992329F0D6019C93F60131960C
:104E20006F01C6010396E2FE0BC039E4D6013C9344
:104E30003EE411963C93119736E412963C9307C0DA
:104E400039E6F60130833EE6318336E63283FC01F3
:104E5000322F40E2332319F041933150FBCFFC0154
:104E6000E20FF11D10828EEF9FEFA6C021E030E02F
:104E7000911102C020E030E0161617061CF4FB0169
:104E8000319602C0E1E0F0E02E0F3F1FBB2021F081
:104E9000EB2DF0E0319602C0E0E0F0E02E0F3F1F76
:104EA000E12FF0E02E173F071CF4121B212F01C049
:104EB00020E08E2D887159F4F601822F30E288238C
:104EC00019F031938150FBCFC20ED11C20E0992301
:104ED00029F0D6019C93F60131966F0151110BC058
:104EE000F601822F90E3882319F091938150FBCF34
:104EF000C20ED11C20E00F2D060F9A81342F307185
:104F000044FF03C0913309F40150101624F4093012
:104F100018F008E001C001E0AB0177FF02C040E0FB
:104F200050E0FB01E41BF50BA1E0B0E0AC0FBD1FAE
:104F3000EA0FFB1F8EE2A82E4B01801A91080B2D61
:104F400010E01195019511094F3FBFEF5B0721F468
:104F5000D601AC9211966D01641775072CF084167A
:104F6000950614F4818101C080E3415051093196C6
:104F7000D60111967D014017510724F0D6018C937C
:104F80006701E2CF6417750739F4963320F495333F
:104F900019F4311101C081E3F6018083F701822FFA
:104FA00090E2882319F091938150FBCFF701E20F33
:104FB000F11D108280E090E02996ECE00C94952A97
:104FC000A0E0B0E0E6EEF7E20C94792AEC016B0188
:104FD0006115710519F0FB01918380837E01FFEF5C
:104FE000EF1AFF0A0881802F90E00E94062A892B81
:104FF00011F0E701F3CF0D3239F47E0182E0E80EC3
:10500000F11C098111E008C00B3229F47E0192E005
:10501000E90EF11C098110E0E701219743E050E01F
:105020006EE271E0CE010E940F2A892BC1F4239613
:1050300045E050E069E271E0CE010E940F2A892B21
:1050400009F42596C114D10419F0F601D183C08367
:105050001111F6C060E070E080E89FE7FAC043E01D
:1050600050E066E271E0CE010E940F2A892B59F4CC
:10507000C114D10409F4E9C0F2E0EF0EF11CF6010D
:10508000F182E082E2C020E030E0A901C0E0D0E09F
:10509000F70180EDA82EA00E89E08A1530F1912F3E
:1050A0009260B92E812F887012FF04C0811124C034
:1050B000219622C081112197A5E0B0E00E947425BD
:1050C000DC01CB01880F991FAA1FBB1F9C01AD01FA
:1050D0002A0D311D411D511D283989E9380748071E
:1050E00089E1580748F0166006C09EEFA9120AC071
:1050F00013FD40C01860B12E8FEFE81AF80A008146
:105100001B2DC6CF802F8F7D8534A1F580818D32F8
:1051100011F4106106C08B3221F0319661E070E02D
:1051200004C08181329662E070E080538A3018F0CA
:10513000E61BF70B1FC060E070E060389CE0790769
:105140005CF4DB01AA0FBB1FAA0FBB1F6A0F7B1FFA
:10515000660F771F680F711D3196DF0111978C91D3
:1051600080538A3050F314FF03C071956195710923
:10517000C60FD71F11FF08C0C114D10429F0CF01F9
:105180000197F60191838083CA01B9010E94F5213C
:10519000212F2370233019F04B015C0106C04B0115
:1051A0005C01B7FAB094B7F8B09420E030E0A90100
:1051B000C501B4010E944821882309F43EC0D7FFED
:1051C00006C0D195C195D10905E411E002C00DE5F5
:1051D00011E06801F8E1CF1AD10890E2E92EF12C34
:1051E000CE15DF0574F0F801259135914591549164
:1051F000C501B4010E9407234B015C01CE19DF09F0
:10520000EFCF04501109F594E7940C151D0541F7F3
:105210008A2D880F8B2D881F8F3F49F020E030E0CA
:10522000A901C501B4010E944821811106C082E292
:1052300090E090934C0580934B05C501B40109C0E3
:1052400060E070E080E89FEF04C060E070E080EC18
:105250009FE7CDB7DEB7ECE00C94952A283008F034
:1052600027E03327DA01990F311D87FD9160009601
:105270006105710539F432602E5F3D9330E32A9564
:10528000E1F708959F3F30F080387105610509F01E
:105290003C5F3C5F3D93913008F08068911DDF9347
:1052A000CF931F930F93FF92EF92192F987F9695AC
:1052B000E92F96959695E90FFF27E554FE4F99271C
:1052C0003327EE24FF24A701E701059008940794F3
:1052D00028F4360FE71EF81E491F511D660F771F71
:1052E000881F991F0694A1F70590079428F4E70EEC
:1052F000F81E491F561FC11D770F881F991F661F73
:105300000694A1F70590079428F4F80E491F561F3C
:10531000C71FD11D880F991F661F771F0694A1F71D
:105320000590079420F4490F561FC71FD81F990FE7
:10533000661F771F881F0694A9F784911095177030
:1053400041F0D695C79557954795F794E7941A95E8
:10535000C1F7E1E6F1E068941590159135916591FA
:10536000959105907FE27395E118F10A430B560B76
:10537000C90BD009C0F7E10CF11E431F561FC91F0E
:10538000D01D7EF4703311F48A95E6CFE894015075
:1053900030F0080F0AF40027021708F4202F239595
:1053A000022F7A3328F079E37D932A95E9F710C02C
:1053B0007D932A9589F60694979567953795179565
:1053C0001794E118F10A430B560BC90BD00998F05A
:1053D00023957E9173957A3308F070E37C932013C4
:1053E000B8F77E9170617D9330F0839571E37D9382
:1053F00070E32A95E1F71124EF90FF900F911F9130
:10540000CF91DF91992787FD9095089591110C9484
:10541000372A803219F089508550C8F70895FB016A
:10542000DC014150504088F08D9181341CF08B3567
:105430000CF4805E659161341CF06B350CF4605E99
:10544000861B611171F3990B0895881BFCCFDC0159
:10545000FC01672F71917723E1F7329704C07C91AB
:105460006D9370836291AE17BF07C8F308959927B3
:1054700088270895F999FECF92BD81BDF89A9927A2
:1054800080B50895A6E1B0E044E050E00C94652AB0
:10549000262FF999FECF1FBA92BD81BD20BD0FB650
:1054A000F894FA9AF99A0FBE01960895242F0E9453
:1054B000492A252F0E94492A0C945E2A0E94482AD4
:1054C000272F0C94492ADC01CB01FC01F999FECF6E
:1054D00006C0F2BDE1BDF89A319600B40D9241507C
:1054E0005040B8F708952F923F924F925F926F927B
:1054F0007F928F929F92AF92BF92CF92DF92EF9264
:10550000FF920F931F93CF93DF93CDB7DEB7CA1BE4
:10551000DB0B0FB6F894DEBF0FBECDBF09942A880F
:10552000398848885F846E847D848C849B84AA84B7
:10553000B984C884DF80EE80FD800C811B81AA8144
:10554000B981CE0FD11D0FB6F894DEBF0FBECDBF0F
:08555000ED010895F894FFCF6E
:1055580000007A445000007A440000803F000000B8
:10556800000000803F2C006D696E5F6C00686F75ED
:10557800725F6C00625F6261636B00646973705F85
:10558800756E697474705F6C00646973705F756EB2
:10559800697474705F620073706565645F756E69C5
:1055A800740074656D705F76616C00737065656416
:1055B8005F76616C00636865636B5F6F7666006F2A
:1055C80076665F74687200736C5F72656C617900EF
:1055D800625F6F6E00625F6F666600636170616331
:1055E8005F74787400745F6172656100745F7361E1
:1055F8006D706C653300745F73616D706C6532003B
:10560800745F73616D706C653100705F73616D708C
:105618006C6500625F72656D6F766500625F7072BF
:1056280065765F63756E697400625F6E6578745F36
:1056380063756E697400625F707265765F70006290
:105648005F6E6578745F700063616C756E69740075
:1056580063616C5F6C6162656C0073656C65637433
:1056680065645F706F696E7400706F696E745F6CEB
:105678006162656C00625F636F6E6669726D0031AE
:1056880032003131006C6F636B5F696D67006C6F5E
:10569800636B656400646973705F756E697400702C
:1056A80065616B5F76616C006E756D006E65775F26
:1056B80063616C696200645F76616C756500645F44
:1056C80076616C75655F6C6162656C0039003800E5
:1056D8003700350034003300320031002E70696322
:1056E8003D002E70636F3D002E76616C3D002E7478
:1056F80078743D00FFFFFF007669732000706167D2
:1057080065200072656620006F6B00476F20746F1C
:1057180020706167653A200073616D706C653100B7
:1057280073616D706C65320073616D706C65330008
:105738006E657763616C0063617061636974790099
:1057480063616C6962726174696F6E2E746F7461E3
:105758006C5F706F696E747300544F47474C4520F7
:105768004C4F434B0A002D2D002B2B004F766572B2
:10577800666C6F772050726F74656374696F6E2002
:105788004D6F64653A20004F766572666C6F7720BE
:1057980050726F74656374696F6E205468726573B4
:1057A800686F6C643A2000250A0053656D206361B8
:1057B8006C69627261E7E36F00506F6E746F20006E
:1057C800206465200043616C20556E69743A20009E
:1057D80053657420506167653A2000436F6D6D61B1
:1057E8006E64204275666665723A0A004D50610023
:1057F8000000000000007073690000000000000055
:105808006B67662F6D6D320000004E2F6D6D320094
:10581800000000006B6766000074660000006766A1
:105828000000004E000000006B4E0000006C626635
:10583800000072656164790A00636C6B3D006D69F4
:105848006E3D00686F75723D00636C706B007A6521
:10585800726F006F766663686B3D006F7666706383
:10586800743D006F76666D6F64653D006676616CA9
:105878003D00667661723D0064656C703D00736141
:105888006D706C653D00706F696E743D0063616C8E
:105898003D00676F746F3D00706C6F636B006469E7
:1058A80073705F756E69745F743D00646973705FCF
:1058B800756E69743D0063616C5F756E69743D0057
:0C58C800706167653D00756E69743D00FD
:00000001FF
