:100000000C9434000C943E000C943E000C943E0082
:100010000C943E000C943E000C943E000C943E0068
:100020000C943E000C943E000C943E000C943E0058
:100030000C943E000C943E000C943E000C943E0048
:100040000C943E000C943E000C943E000C943E0038
:100050000C943E000C943E000C943E000C943E0028
:100060000C943E000C943E0011241FBECFEFD8E04C
:10007000DEBFCDBF0E9442000C9462000C940000D1
:100080003C9A08950E94400030E020E0832F922F98
:10009000449AE9E9F5E13197F1F700C04498E9E9BC
:1000A000F5E13197F1F700C001968431910581F7B0
:1000B000FFEF4FED80E1F15040408040E1F700C09C
:0800C0000000E4CFF894FFCF2B
:00000001FF
